:1000000000800020BD01000009870000D5860000A7
:10001000D5860000D5860000D5860000D586000074
:10002000D5860000D5860000D5860000098700002F
:1000300009870000D586000009870000C5860000FA
:100040000987000009870000098700000987000070
:100050000987000009870000098700000987000060
:100060000987000009870000098700000987000050
:100070000987000009870000098700000987000040
:100080000987000009870000098700000987000030
:100090000987000009870000098700000987000020
:1000A0000935000009870000098700000987000062
:1000B0000987000009870000098700000987000000
:1000C00009870000098700000987000009870000F0
:1000D00009870000098700000987000009870000E0
:1000E00009870000098700000987000009870000D0
:1000F00009870000DD8500000987000059720000B3
:10010000098700004D6A0000098700000987000088
:10011000098700000987000009870000098700009F
:10012000098700000987000009870000098700008F
:100130000987000009870000295B0000098700008B
:10014000098700000987000009870000098700006F
:10015000098700000987000009870000098700005F
:10016000590600008D79000009870000098700000A
:10017000098700000987000009870000098700003F
:10018000098700000987000009870000098700002F
:10019000098700000987000009870000098700001F
:1001A000098700000987000009870000098700000F
:1001B000098700000987000009870000574B4CF2AF
:1001C000205210B51A804DF628121A8000BF00BFC9
:1001D00008F09EFA524B4FF010621A60514A9A6032
:1001E000514ADA60A3F53043203B1A6812F480725A
:1001F00004D14E490A604FF4A8521A604C4B1A7849
:10020000110703D51A7842F008021A70494B2A22C6
:100210001A700023484A49499818884204D248492C
:10022000595899500433F5E7464A474B9A424FF0E4
:10023000000302D242F8043BF7E74449444A5958C4
:1002400099500433B3F5DE7FF7D1424B802103F898
:10025000011B41498B42F9D1404B1A60404B0A22A5
:100260001A70A3F6FF7324221A70A02203F8012C3F
:100270003C4B1A789207FBD51A78D406FCD41A782E
:1002800002F00C02082AFAD1374B03221A704022DE
:100290005A70344B1A789006FBD51A785106FCD563
:1002A000324B334A1A6002225A60324B20221A70B3
:1002B0002C4B1B7803F00C030C2BF9D12E4B2F4A3F
:1002C0001A602F4B2F4A1A6000225A60072243F807
:1002D000042C2D4AC3F80C2D62B607F03FFA134BDD
:1002E0001B68DA0705D5294807F0ACF9284B294ADD
:1002F0001A60294B1B785B0609D5254C254A2368D3
:10030000934204D1214807F09DF9002323600BF0AC
:100310003DFE08F003FA08F02BFAFEE70E20054038
:1003200030800440823F04000100002B14D00340C1
:1003300002D0074000E007406087FF1F8088FF1F52
:1003400078CD00008088FF1FB48DFF1F00000000E3
:100350000082FF1F00E400E05FE400E008ED00E041
:1003600000500640064006400440064044800440D9
:10037000000003010040064004800440C010050056
:1003800014E000E0FF7601000000202098C5FE5533
:100390001CE00340A5C3945A00F00740FFFFFFFF95
:1003A000FFFFFFFFFFFFFFFFFFFFFFFFFFFFFFFF5D
:1003B000FFFFFFFFFFFFFFFFFFFFFFFFFFFFFFFF4D
:1003C000FFFFFFFFFFFFFFFFFFFFFFFFFFFFFFFF3D
:1003D000FFFFFFFFFFFFFFFFFFFFFFFFFFFFFFFF2D
:1003E000FFFFFFFFFFFFFFFFFFFFFFFFFFFFFFFF1D
:1003F000FFFFFFFFFFFFFFFFFFFFFFFFFFFFFFFF0D
:10040000FFFFFFFFFFFFFFFFFFFFFFFFFEFFFFFFFD
:1004100010B5054C237833B9044B13B10448AFF33E
:1004200000800123237010BD8088FF1F00000000A2
:1004300078CD000008B5064B1BB106480649AFF35E
:1004400000800648036813B1054B03B1984708BD07
:100450000000000078CD00008488FF1F8088FF1F07
:100460000000000042F2107006F07EB910B5064C94
:1004700006F04AFB204600F059FB20460349044A97
:10048000BDE810400BF062BD9C88FF1FDD0B000033
:100490006087FF1F08B5064800F0B8FA10B9044895
:1004A00000F024FC0248BDE8084000F067BE00BF31
:1004B0009C88FF1F30B50D4C0023218803710C224E
:1004C00001230B4207D10A4A19432180118821EAEE
:1004D0000303138030BD05795B000135013A0571D6
:1004E0009BB2EED1FF23037130BD00BFFC88FF1F1C
:1004F000F888FF1F2DE9F0411F4603790B2B0446B6
:1005000016463DD85FFA81F84046012107F0D8F839
:1005100025791D4B03F805801C4B44F2506223F8EB
:1005200015201B4B012202FA05F51A8815431D8080
:10053000184B1A6806EB460607EB4707B600BF00E4
:1005400012F480022680678016D1196841F4800178
:100550001960A3F59033383B4FF6FF7119605A606C
:100560009A6042F6A27243F8042C02F5803243F8F6
:10057000042C094B20221A70084B4FF480721A6029
:100580002079BDE8F08100BF1689FF1FFE88FF1F9C
:10059000F888FF1F3C80044048E400E008E100E0E8
:1005A00003790B2B10D8094A01219940C9431388BC
:1005B00089B20B401380064A1088014011801BB994
:1005C000044B4FF480721A60704700BFF888FF1F19
:1005D000FC88FF1F88E100E00C23594303889942FF
:1005E00003DB43889942B8BF0B4602790B2A9CBFB4
:1005F000014921F812307047FE88FF1F13B50479B6
:100600000B2C024616D8B1F5087F04DB02B0BDE81A
:100610001040FFF7E1BF13885288009221EAE17091
:10062000B428A8BFB4200021B42208F01BF9024B63
:1006300023F8140002B010BDFE88FF1F03790B2BB6
:1006400005D8044A1088184100F0010070470020C6
:10065000704700BFF888FF1F70B52E4A2E4D1188D5
:1006600095F90030194111F0010F144606D02B4ABC
:100670000021D05C06F0F6FF0C232B702088284C5C
:100680002178CBB25AB20B2A1FDC40FA02F60131B4
:10069000F607C9B2F5D52370204B0121985C06F00E
:1006A000E1FF23781F4A2B7059B2013332F8111041
:1006B0001D4A1068084410601C4A1068014411600B
:1006C00042F6A37142F80C1C22E0174A237011680D
:1006D000C1F56A3303F5C073B3F5966F05DB4EF6CB
:1006E00060208342A8BF034601E04FF4966319449B
:1006F00011600E49086803440B600D4B42F6A3716C
:10070000196012680B4B9A4203D9074A0023136001
:10071000237070BDF888FF1F6487FF1F1689FF1FB5
:10072000FA88FF1FFE88FF1FF488FF1F0C6003403C
:10073000006003407FA90300074B10B50446036027
:10074000806B08B108F02EF90023A363204600F067
:10075000CDF8204610BD00BF00C3000010B5044610
:10076000FFF7EAFF204608F01DF9204610BD30B51E
:1007700085B0044600F0E8F860B366238DF80430D5
:100780000B2300258DF80530204641F20103ADF81A
:100790000630ADF8085000F0D5F8216B8DF80A004E
:1007A000E06B0BF0DDF8616B0BF098FACDF80B0005
:1007B0009DF805002B462A46834201A904DAC95C4C
:1007C0000A4492B20133F7E7E069ADF80820036804
:1007D0001B69984705B030BD70B5C56A04460E4622
:1007E000084629460BF082FB30B9A56A30462946F7
:1007F0000BF05EFB00B93546616B28460BF0BAF989
:10080000216B0BF0AFF8E0630BF07AFB203401466C
:100810002046BDE87040FFF7F1BE10B50446203019
:10082000FFF70CFF30B1A36B20461968BDE81040FC
:10083000FFF7D2BF10BDFFFFF7B50D9D0095044631
:100840001F46254609230C9E00F062F81A4B45F816
:10085000203B2846FFF72EFE012F0CBF0323042365
:100860002364089BE362099BA3620A9B23630B9B9F
:100870006363304611490BF011FB20B9042008F0E6
:100880008DF8066000E000200023A063E3632846A3
:100890004FF4FA63216C4FF47A72FFF72BFEA36BCF
:1008A00013B12046FFF7B9FF2046012100F048F8B8
:1008B000204603B0F0BD00BF00C3000000C0794473
:1008C000D1F80710FFF788BF38B500F120040546BE
:1008D0002046FFF765FE2846002100F031F820464B
:1008E000FFF7ACFE80F00100C0B238BD014B0360E1
:1008F000704700BF20C300007047704710B5034B1E
:100900000360044608F04EF8204610BD20C30000E6
:1009100038B50446002525732371049BA36006485F
:100920000B682060E161084665612261DB69214650
:1009300098472576204638BD20C3000000797047CF
:100940000173704700697047F8B5057E0446C5B16C
:100950000D4B1E6843698068F71A0BF0B3F80AF074
:1009600095FC02460B46002008490AF00DFE0022C5
:10097000074B0AF0DFFC0AF077FF87428CBF666105
:1009800000252846F8BD00BFD08BFF1F0000F03FB8
:1009900000408F4001767047014B0360704700BFF5
:1009A00040C3000010B5034B0360044607F0FAFF94
:1009B000204610BD40C3000038B50A4D83682A6840
:1009C000D31A8B4204460BD90D2006F06BFED0F1F2
:1009D000010138BF00210D2006F044FE2B68A36002
:1009E00038BD00BFD08BFF1F0171704710B5064B9B
:1009F0000360002304460371836001210D2006F08B
:100A00005FFE204610BD00BF40C300000079704764
:100A100003790BB1642101E04FF47A71FFF7CCBF89
:100A2000704706F0A7B838B5044608F007F8054641
:100A3000204607F0BBFF284438BD08B50368C9B29B
:100A40001B68984708BDFFFF38B506480C46154699
:100A5000FE21FFF7F2FF20462946BDE8384007F0A7
:100A60001BBB00BF888DFF1F10B50C460448FE213C
:100A7000FFF7E3FF20466178BDE8104007F00CBBAC
:100A8000888DFF1F70B50E4C0D462046FD21164681
:100A9000FFF7D3FF28460BF085FB2368C1B21B6824
:100AA0002046984728460BF07DFB236802462946DE
:100AB0005B682046984720463146FFF7BEFF70BD71
:100AC000888DFF1F10B500231A468B4204DAC45CE0
:100AD000224492B20133F8E7104610BD124B37B5ED
:100AE0001D68C36C40F6B832EB1A9342044619D91C
:100AF0000123072141F201028DF800308DF8063004
:100B0000684600238DF80110ADF80220ADF80430DE
:100B1000FFF7D8FF2368ADF804001B69204669463B
:100B20009847E56403B030BDD08BFF1F70B5044615
:100B30000025FFF75BFF0F4B2360E56025616561D2
:100B4000A561E56125626562A562E562256365636D
:100B5000A5636565E56365642564182007F01EFFDD
:100B6000064600F003FE6665E56484F850502046B2
:100B700070BD00BF70C30000F8B5C3680669C269E4
:100B8000F61A8369D31A0446B6109F100025BD4299
:100B9000A36905DA53F82500FFF796FE0135F6E75D
:100BA000E361636AA3620025B542E36807DA53F89C
:100BB000250010B103685B6998470135F4E7A06C24
:100BC0002361002584F850506564E563256418B1FD
:100BD00003685B689847A564F8BDFFFF114B10B52B
:100BE00004460360406D10B103685B6898470023BA
:100BF00020466365FFF7C0FF206B08B107F0D2FE07
:100C0000606A08B107F0CEFEA06908B107F0CAFE1D
:100C1000E06808B107F0C6FE2046FFF7BDFE20469B
:100C200010BD00BF70C3000010B50446FFF7D6FF2B
:100C3000204607F0B7FE204610BD0269C368D31AEC
:100C400070B505469E100024B44207DAEB6853F8ED
:100C5000240003681B6898470134F5E770BD38B578
:100C600000230C460B714B71084649781546FFF777
:100C700029FF2B1AA0805842584138BD826A436A26
:100C8000D31A70B505469E100024B44207DA6B6A89
:100C900053F8240003689B6998470134F5E770BD59
:100CA00013B569238DF8003008238DF8013041F227
:100CB0000103ADF802300B78672B08BF0B898DF864
:100CC00006304B788DF8073004460023684608212B
:100CD000ADF80430FFF7F6FE2368ADF804001B6999
:100CE00020466946984702B010BDFFFF7FB5044615
:100CF000FFF78CFE064600283FD1606D00F058FDDE
:100D000000283AD0606D00F03FFD0378652B054662
:100D100005D120462946AA88FFF7A1FF18B9606DC2
:100D200000F038FD29E0A9792046FFF75DFE29464D
:100D30002046FFF7B5FF76238DF8043041F201031A
:100D40000A21ADF8063001A80D4B8DF80510CDF83D
:100D50000A30ADF80860FFF7B5FE2368ADF808006B
:100D60001B6901A920469847142007F017FE1B2194
:100D7000054602F00DF8A564D1E704B070BD00BFD0
:100D80000000E0402DE9F047CB889CB005460C46BA
:100D90000E2B00F2EF81DFE813F028018F01B8017C
:100DA0009C01ED01CC014600C301AE010F007901A9
:100DB0007C01B400DF014C01C26983690026D31AAB
:100DC0009F103046BE420FDA002840F0CF81AB6959
:100DD000B4F8088053F82600FFF7B4FDB8EB000123
:100DE000484248410136EDE7002840F0BF814420E9
:100DF00007F0D4FDD4F816100091D4F81210019128
:100E0000D4F81A100291D4F81E100391D4F82210CD
:100E10000491D4F80A1005912289D4F80E3029469D
:100E2000FFF70AFDA2E1826A436A0026D31A9F10E7
:100E30003046BE420FDA002840F098816B6AB4F861
:100E4000088053F82600FFF77DFDB8EB0002504202
:100E500050410136EDE7002840F08881B02007F0CE
:100E60009DFD8046D4F812002789D4F80A600AF064
:100E70000DFACDE90001D4F80E000AF0E5F9D4F836
:100E800016300493D4F81A300593D4F83A30069308
:100E9000CDE90201D4F83E30D4F81E0007930AF0E1
:100EA000D3F9CDE90801D4F822000AF0EFF9CDE931
:100EB0000A01D4F826000AF0E9F9CDE90C01D4F8CA
:100EC0002A000AF0E3F9D4F82E301093D4F8323027
:100ED0001193D4F836301293D4F842301393D4F8E7
:100EE00046301493D4F84A301593D4F84E30169304
:100EF000CDE90E013A4640462946334601F0D4F981
:100F000034E1826A436A0026D31A9F103046BE42FB
:100F10000FDA002840F02A816B6AB4F8088053F891
:100F20002600FFF70FFDB8EB000358425841013689
:100F3000EDE7002840F01A81B02007F02FFD804631
:100F4000D4F812002789D4F80A600AF09FF9CDE995
:100F50000001D4F80E000AF077F9D4F816300493A3
:100F6000D4F81A300593D4F83A300693CDE902014B
:100F7000D4F83E30D4F81E0007930AF065F9CDE9A5
:100F80000801D4F822000AF081F9CDE90A01D4F869
:100F900026000AF07BF9CDE90C01D4F82A000AF00A
:100FA00075F9D4F82E301093D4F832301193D4F868
:100FB00036301293D4F842301393D4F84630149359
:100FC000D4F84A301593D4F84E301693D4F85230F2
:100FD000CDE90E011793D4F85630189340462946B0
:100FE0003A46334601F06AFAC0E0C36B002B40F08A
:100FF000BD80436AD1F8162053F82280D1F81A2018
:101000004C2053F8227007F0C9FCD4F80E10009160
:10101000D4F812100191D4F81E1004912289D4F84A
:101020000A30CDF8088003972946064601F0D6FD20
:101030002AE0436AD1F8162053F822A0D1F81A20EA
:1010400053F82290D1F81E2053F82280D1F82220A4
:101050005C2053F8227007F0A1FCD4F80E10009128
:10106000D4F812100191D4F8261006912289D4F8F0
:101070000A30CDF808A0CDF80C90CDF81080059777
:101080002946064605F0D0F8EE636FE01CAE0A2351
:1010900001E01CAE0B2306F8013D242007F07EFC86
:1010A000D4F80A300093D4F80E30019322892946EF
:1010B000334601F037FE59E0242007F06FFCD4F8E6
:1010C0000E1000912289D4F80A30294601F0D6FE8C
:1010D0004CE04FF48E7007F061FC618A0091217D35
:1010E00001910646D4F80A20D4F80E30294602F0C1
:1010F000A7F86E643AE0242007F050FC29462289C4
:10110000D4F80E3004F024F830E0FC2007F046FC60
:101110002946D4F80A20D4F80E3004F0A5F825E0CA
:10112000AC2007F03BFC2946D4F80A2004F06EFE00
:101130001CE0382007F032FCD4F812100091D4F8EB
:1011400016100191D4F81A1002912289D4F80E30A9
:10115000294604F0FBFE09E0242007F01FFC294685
:10116000D4F80A20D4F80E3004F02CFF284621468B
:10117000FFF796FD1CB0BDE8F087FFFF2DE9F041B9
:10118000044688B0FFF744FC606D00F08AFB2046FF
:10119000FFF73CFC28B9606D00F0D1FB002800F09F
:1011A0008281606D00F0CBFB0546F0B9A06C01F0C8
:1011B00003FED0B101238DF8043007238DF80530EC
:1011C00041F20103ADF8063023688DF80A5001A9F9
:1011D0001B69204698472046FFF7CEFC06F0D0FF5B
:1011E00020462946FFF700FC5DE1606D00F0E0FA63
:1011F000002800F04881606D00F0C6FA05462946D7
:101200002046AA88FFF72BFD002800F039812B78B3
:101210000F2B00F0928016D8072B36D00AD8022B5D
:1012200040D0062B40F02C81A26A636AD31A9F102B
:10123000002658E00B2B61D00C2B62D0082B40F01D
:101240001F81E06B5BE0512B50D00BD8132B00F0CB
:10125000D880142B40F014812769E368FF1ABF106F
:101260000026F9E0672B18D0752B7CD0652B40F059
:1012700007812046A979FFF7B7FB2046FFF7C6FB99
:1012800030B92046FFF778FC02E0AB7984F85030A3
:1012900020462946FFF704FDF2E020462946FFF7E5
:1012A00071FDEDE0E269A369D31A9F100026BE42EA
:1012B00080F2E680A36953F82600FFF743FBAB7981
:1012C00098424FEA860801D1A3692FE00136EEE784
:1012D000636A53F82600FFF735FBAB7998424FEA73
:1012E000860830D00136BE42F2DBC9E0E06B002850
:1012F00000F0C680294601F0C9FAC1E0606CB8B9B7
:10130000BEE0626B236BD31A9F10002600E001360B
:10131000BE4280F2B580236B53F82600FFF712FB24
:10132000AB7998424FEA8608F1D1236B53F8080055
:10133000036829465B689847A2E0A26A636AD31AE9
:101340009F1000260CE0636AF0E7636A53F82600FA
:10135000FFF7F8FAAB7998424FEA8608F3D00136E6
:10136000BE42F2DB8CE011238DF8043041F2010320
:101370001A25ADF80630E6200023ADF808308DF8C8
:101380000550FFF74EFBCDF80A00E720FFF749FBB9
:10139000CDF80E00E820FFF744FBCDF81200E9205D
:1013A000FFF73FFBCDF81600EA20FFF73AFB29468E
:1013B000CDF81A0001A8FFF785FB2946ADF8080013
:1013C00001A806F069FE0D213848FFF736FBDDF86D
:1013D0000A103748FFF727FBDDF80E103448FFF7F7
:1013E00022FBDDF812103248FFF71DFBDDF8161066
:1013F0002F48FFF718FBDDF81A102D48FFF713FBF5
:101400003EE02769E368FF1ABF100026BE4237DAC4
:10141000E36853F82600FFF791FAAB7983424FEA6D
:1014200086083ED1E36853F82600FFF78BFAEB7984
:10143000984236D1E368297A53F80800FFF7AAFAF0
:101440001EE0E36853F82600FFF778FAEB79834251
:101450004FEA860803D00136BE42F2DB10E0E368B3
:1014600053F82600FFF76EFAAB799842F3D1E368A0
:10147000297A53F80800D5F8092003689B68984733
:10148000606D00F087F994F8503063B12046FFF7A3
:10149000D4FB2046FFF7F2FB206C20B103F00EFFD7
:1014A00001E00136B2E708B0BDE8F081888DFF1F8A
:1014B000648DFF1FF8B590E84800F61AB61014BF07
:1014C000334601239B1904460F466FF0404603D272
:1014D000B34238BF1E4626B1B00007F05FFA05469A
:1014E00000E0354662682368D31A9B1005EB830140
:1014F0003A6809B145F8232094E882007F1ABF10AA
:101500004FEA870703D028463A460AF075FD20685F
:101510002F44043708B107F045FA84E8A00005EB32
:101520008605A560F8BDF8B590E84800F61AB61033
:1015300014BF334601239B1904460F466FF0404603
:1015400003D2B34238BF1E4626B1B00007F026FAD8
:10155000054600E0354662682368D31A9B1005EB08
:1015600083013A6809B145F8232094E882007F1A84
:10157000BF104FEA870703D028463A460AF03CFDE1
:1015800020682F44043708B107F00CFA84E8A00063
:1015900005EB8605A560F8BDF8B590E84800F61A99
:1015A000B61014BF334601239B1904460F466FF053
:1015B000404603D2B34238BF1E4626B1B00007F002
:1015C000EDF9054600E0354662682368D31A9B10A2
:1015D00005EB83013A6809B145F8232094E88200BD
:1015E0007F1ABF104FEA870703D028463A460AF011
:1015F00003FD20682F44043708B107F0D3F984E8CD
:10160000A00005EB8605A560F8BD38B54268846882
:10161000A242034606D0096802B111605A6804323A
:101620005A6038BDFFF7B8FF38BDF8B590E84800FC
:10163000F61AB61014BF334601239B1904460F4611
:101640006FF0404603D2B34238BF1E4626B1B00009
:1016500007F0A4F9054600E0354662682368D31A0E
:101660009B1005EB83013A6809B145F8232094E803
:1016700082007F1ABF104FEA870703D028463A46F8
:101680000AF0BAFC20682F44043708B107F08AF941
:1016900084E8A00005EB8605A560F8BD1FB50369C9
:1016A000426901919342044605D003B11960236950
:1016B0000433236103E00C3001A9FFF7FBFE01981E
:1016C000FFF73CF90238072834D8DFE800F031335F
:1016D000331616331F04E369216A019A03928B4281
:1016E00005D003B11A60E3690433E36122E004F139
:1016F000180003A9FFF717FF1CE004A9019B41F89C
:10170000043D04F12400FFF780FF13E0636BA16B3D
:10171000019A03928B4205D003B11A60636B0433C4
:10172000636307E004F1300003A9FFF77EFF01E0E7
:10173000019B236404B010BD05F0E6B9054B10B55C
:1017400004460360006908B107F02EF90023236105
:10175000204610BDA0C3000010B50446FFF7EEFF01
:10176000204607F01FF9204610BDFFFF054A026022
:10177000002202710261C260826042718271C27194
:10178000704700BFA0C3000003790BB10069704728
:101790001846704710B50446006908B107F004F90F
:1017A000002323612371A371E371E360A36010BD83
:1017B000007970470B78132B35D00FD8082B23D026
:1017C00005D8062B28D023D8022B25D02DE00C2BB2
:1017D00020D00F2B20D00B2B27D119E0652B17D051
:1017E00007D8512B12D0642B0ED0142B1DD10D23F2
:1017F0001CE06C2B08D0752B10D0672B15D10E2355
:10180000C3600123437112E00E230FE012230DE0A9
:1018100007230BE0082309E00B2307E00623C3603E
:101820000123C37103E0092300E00023C360C06803
:10183000704770B50446C0680E4607F0B1F8002343
:101840000546B342206903DAC25CEA540133F8E783
:1018500008B107F0A9F8256170BDCB880E2B1ED802
:10186000DFE803F00E1919101D170A1219081919CB
:101870000C191B00262311E052230FE05A230DE020
:1018800022230BE0152309E00E23C360012303711B
:1018900005E01E2302E0122300E02A23C360C06893
:1018A0007047F8B5044606F0E9FB002846D02379D6
:1018B000002B43D1A379002B39D02579002D35D1C8
:1018C00006F0DCFB0028F8D0E368002B12DC06F001
:1018D00093FB04F114012075A5602046FFF76AFF11
:1018E00007F05EF8A368227D2061C254A36801332B
:1018F000A360E2E7A6689E42DFDA731CA360276953
:1019000006F07AFBB855A668E3689E42D5D16379A4
:1019100013B901232371D0E721692046FFF79DFF0A
:1019200020463146FFF785FF6571C6E7F8BD06F032
:1019300063FBFE2802D10123A371F8BDF8BDC07975
:101940007047FFFF10B5034B03600446FEF7CEFF60
:10195000204610BDB0C3000010B50446FFF7F2FFEB
:10196000204607F01FF8204610BDFFFF37B5069D43
:1019700000950446FEF7CCFF024B2360204603B0DF
:1019800030BD00BFB0C300000C4B10B5044603606F
:10199000806A08B107F006F8206A10B103689B68F6
:1019A0009847606A08B106F0FDFF00236362236276
:1019B000A3622046FFF7C6FF204610BDD8C3000033
:1019C00010B50446FFF7E0FF204606F0EBFF204687
:1019D00010BD022938B50446104609D003290DD0A0
:1019E000012910D109F052FCA56AC5E90A010AE0F3
:1019F00009F04CFCA56AC5E90C0104E009F046FCBD
:101A0000A56AC5E90E01A06ABDE8384000F068BECD
:101A100010B50368017A1C7843681A78437A1A4033
:101A2000837A0C4203F0030318BF43F004030AB1A6
:101A300043F008039A10013B82720D2B14D8DFE8A3
:101A400003F0070A0D0A1310070710130A0D0A07FF
:101A5000C368013307E0C368013B04E0C368023395
:101A600001E0C368023BC36010BDFFFF08B5034B34
:101A7000D3F88400FFF7CCFF08BD00BF2489FF1F07
:101A800008B5034BD3F88000FFF7C2FF08BD00BFC5
:101A90002489FF1F08B5024BD86FFFF7B9FF08BDB7
:101AA0002489FF1F08B5024B986FFFF7B1FF08BDEF
:101AB0002489FF1F08B5024B586FFFF7A9FF08BD27
:101AC0002489FF1F08B5024B186FFFF7A1FF08BD5F
:101AD0002489FF1F08B5024BD86EFFF799FF08BD98
:101AE0002489FF1F08B5024B986EFFF791FF08BDD0
:101AF0002489FF1F08B5024B586EFFF789FF08BD08
:101B00002489FF1F08B5024B186EFFF781FF08BD3F
:101B10002489FF1F08B5024BD86DFFF779FF08BD78
:101B20002489FF1F08B5024B986DFFF771FF08BDB0
:101B30002489FF1F08B5024B586DFFF769FF08BDE8
:101B40002489FF1F08B5024B186DFFF761FF08BD20
:101B50002489FF1F08B5024BD86CFFF759FF08BD59
:101B60002489FF1F08B5024B986CFFF751FF08BD91
:101B70002489FF1F08B5024B586CFFF749FF08BDC9
:101B80002489FF1F08B5024B186CFFF741FF08BD01
:101B90002489FF1F08B5024BD86BFFF739FF08BD3A
:101BA0002489FF1F08B5024B986BFFF731FF08BD72
:101BB0002489FF1F08B5024B586BFFF729FF08BDAA
:101BC0002489FF1F08B5024B186BFFF721FF08BDE2
:101BD0002489FF1F08B5024BD86AFFF719FF08BD1B
:101BE0002489FF1F08B5024B986AFFF711FF08BD53
:101BF0002489FF1F08B5024B586AFFF709FF08BD8B
:101C00002489FF1F08B5024B186AFFF701FF08BDC2
:101C10002489FF1F08B5024BD869FFF7F9FE08BDFC
:101C20002489FF1F08B5024B9869FFF7F1FE08BD34
:101C30002489FF1F08B5024B5869FFF7E9FE08BD6C
:101C40002489FF1F08B5024B1869FFF7E1FE08BDA4
:101C50002489FF1F08B5024BD868FFF7D9FE08BDDD
:101C60002489FF1F08B5024B9868FFF7D1FE08BD15
:101C70002489FF1F08B5024B5868FFF7C9FE08BD4D
:101C80002489FF1F08B5024B1868FFF7C1FE08BD85
:101C90002489FF1F38B5446A237C012B054604D8EC
:101CA00072B62046FFF7B4FE00E072B6E36862B693
:101CB000D5F8A800584309F009FF38BD08B5212818
:101CC00000F2D580DFE810F0220027002C00310060
:101CD00036003C00410046004B00500055005A00C1
:101CE0005F00640069006E00730078007D00820070
:101CF00087008C00910096009B00A000A500AA0020
:101D0000AF00B400B900BE00C300CD00594B0020A5
:101D100019605949A0E0574B0120596057499BE091
:101D2000544B02209960564996E0524B0320D960EB
:101D3000544991E04F4B04201961024652498CE00E
:101D40004C4B05205961514986E04A4B0620996168
:101D50004F4981E0474B0720D9614E497CE0454B14
:101D6000082019624C4977E0424B092059624B49DF
:101D700072E0404B0A20996249496DE03D4B0B20CF
:101D8000D962484968E03B4B0C201963464963E03F
:101D9000384B0D20596345495EE0364B0E20996360
:101DA000434959E0334B0F20D963424954E0314B4A
:101DB0001020196440494FE02E4B112059643F49CF
:101DC0004AE02C4B122099643D4945E0294B1320F1
:101DD000D9643C4940E0274B142019653A493BE05F
:101DE000244B15205965394936E0224B1620996558
:101DF000374931E01F4B1720D96536492CE01D4B80
:101E000018201966344927E01A4B192059663349BE
:101E100022E0184B1A20996631491DE0154B1B2012
:101E2000D966304918E0134B1C2019672E4913E07E
:101E3000104B1D2059672D490EE00E4B1E2099674F
:101E40002B4909E00B4B1F20D9672A4904E0094BB5
:101E5000C3F8801028492020042205F095FB0120BA
:101E600008BD044B2120C3F884102449F4E7002066
:101E700008BD00BF2489FF1F851C0000751C0000E1
:101E8000651C0000551C0000451C0000351C0000AE
:101E9000251C0000151C0000051C0000F51B00009F
:101EA000E51B0000D51B0000C51B0000B51B000092
:101EB000A51B0000951B0000851B0000751B000082
:101EC000651B0000551B0000451B0000351B000072
:101ED000251B0000151B0000051B0000F51A000063
:101EE000E51A0000D51A0000C51A0000B51A000056
:101EF000A51A0000951A0000811A00006D1A000052
:101F00002DE9FF47424B8246186809F09DF9DAE94E
:101F10001423CDE9000109F059F8DAE92423064633
:101F20000F4600203B4909F02FFB00223A4B09F0F5
:101F300001FA02460B463046394609F081FC00287A
:101F40005DD0DAF800305046DB69984709F09EF919
:101F5000DAE91E23CDE9020109F038F802460B4602
:101F600009F036F828A3D3E9002309F0E3F9804605
:101F7000DAF89800894609F077F902460B464046A0
:101F8000494609F001FB0022804689463046394621
:101F9000214B09F0F9FA02460B464046494609F042
:101FA000F3FADAE9224502460B462046294609F0B3
:101FB000C1F922462B4606460F460020154909F076
:101FC00005F80446DAF848000D4609F05FF90246C4
:101FD0000B462046294609F0ADF902460B4630462D
:101FE000394608F0F5FF09F067FCDDE90223CAE98C
:101FF0001E23DDE90023CAE91423CAF8480004B00F
:10200000BDE8F087AFF30080182D4454FB21094050
:10201000D08BFF1F0000F03F00408F40AFF30080E7
:1020200008B5006A03681B68984708BD2DE9F047AA
:102030001F4690F83030DFF86C90804616465BB94A
:10204000D9F80000D8F8284009F0FEF80022144B17
:1020500009F09AFAC4E90401D8F860A0012388F8CD
:102060003030504609F012F932463B4604460D46E0
:1020700009F0D2FB60B90AF1004009F007F93246D5
:102080003B4604460D4609F0E5FB08B934463D469B
:10209000D9F80030C8F83430C8E92045BDE8F087E9
:1020A00000408F40D08BFF1F10B50446D1F80700C9
:1020B00009F0ECF802460B462046BDE81040FFF759
:1020C000B5BFFFFF38B5184B1A6890F8303004469A
:1020D000002B28D0436BD21A836B9A4223D900225B
:1020E000002500230021C0E91A23C0E91C23C0E910
:1020F0002023816480F83050006A036829461B68F9
:102100009847206A036829461B689847206A036835
:1021100029461B689847A06A00F0E2FA206A036823
:1021200029461B68984738BDD08BFF1FFFFFFFFF74
:10213000036870B5DB6906469847014609F012FC52
:1021400009F0A4F80AA3D3E9002309F0F3F8044640
:10215000D6F898000D4609F087F802460B4620464F
:10216000294609F011FA09F0A7FB306470BD00BFE1
:10217000182D4454FB210940224B2DE9D04304463D
:10218000186809F061F8D4E916238046894608F0FA
:102190001DFFD4E9282306460F4600201A4909F0FE
:1021A000F3F90022194B09F0C5F802460B463046F8
:1021B000394609F04FFB18B3E36B012B02D1A06C39
:1021C000606403E02046FFF7B3FF206C09F05EF87F
:1021D000C4E91A01A06A00F089FAE06A09F044F83B
:1021E000D4E91C2309F0A6F8C4E91689C4E91C0146
:1021F00009F03AFB01462046BDE8D043FFF710BF87
:10220000BDE8D083D08BFF1F0000F03F00408F401F
:1022100010B50446FFF774FE94F8303023B1204621
:10222000BDE81040FFF7A8BF10BD10B50446FFF78A
:1022300049FF2046BDE81040FFF7EABF1FB504463E
:10224000FEF782FB68B3A36C63646A238DF80030E9
:102250000F238DF80130204641F20103ADF8023022
:10226000FEF770FB8DF806002046FFF761FF636CF8
:10227000CDF80B309DF80110CDF807000023ADF824
:1022800004301A468B4205DA1DF80300024492B26C
:102290000133F7E7E069ADF80420036869461B697C
:1022A000984704B010BDFFFF2DE9F04389B0074601
:1022B00000930623DDF85090159EFFF757FB604B07
:1022C0003B60239BFB63002387F83030229BBB637A
:1022D000DDE91823C7E92823DDE91023C7E9222314
:1022E000DDE91223C7E92423219AC7F89820249A0C
:1022F000FA6240F2E7320024002500239145C7E945
:102300001A457B643B64C7E91C45C7E91E45C7E91C
:10231000204598460AD1102006F040FB314604467D
:10232000484D04F06BF93C6200240BE00C2006F0F1
:1023300035FB49460446324604F022F93C623EA58C
:10234000D5E90045404E33687B63306808F07CFF78
:10235000C7E91401306808F077FFC7F84880C7E97B
:102360001601582006F01AFBDDE91A23CDE90023F7
:10237000DDE91C23CDE90223DDE91E23CDE9042399
:10238000269B069307F1680207F18003064607F1D2
:10239000700100F071F9BE621420C6E9064506F02E
:1023A000FDFA9DF858609DF85C50044602213046C5
:1023B00005F086F92846022105F082F9234A52F8F1
:1023C000363003F5007121600121217252F8352069
:1023D000617202F500700021E16060604FF47A41A3
:1023E00001397FF4FDAF93F8003292F8002203F038
:1023F0000103D20744BF43F00203DBB2A3722146BC
:102400003046FFF75BFC214620742846FFF756FC58
:10241000237C1844209B20743B66259B7C623846B5
:10242000C7F8A8300A21FEF78BFA384609B0BDE894
:10243000F08300BFAFF300800000000000C05F40E9
:10244000D8C3000000407F40D08BFF1F20C7000092
:1024500010B50022044600230021C0E91A2380F8A9
:1024600030100020A064206AC4E91C23C4E92023A2
:1024700003681B689847A06ABDE8104000F030B9B7
:10248000084B10B504460360D0F8AC0008B106F064
:1024900089FA0023C4F8AC302046FFF775FA2046CD
:1024A00010BD00BF00C4000010B50446FFF7E8FFF0
:1024B000204606F077FA204610BDFFFFF0B599B030
:1024C000DDE91E45CDE90045DDE92045CDE90245C0
:1024D000229C0494239C0594249C0694259C079498
:1024E000DDE92645CDE90845DDE92845CDE90A4580
:1024F000DDE92A45CDE90C45DDE92C45CDE90E4560
:102500002E9C10942F9C1194309C1294319C139407
:10251000329C1494339C15940646349C1694FFF711
:10252000C3FE224B3360142006F038FA9DF8D470B5
:102530009DF8D85004460221384605F0C1F82846D7
:10254000022105F0BDF81A4A52F8373003F5007140
:1025500021600121217252F83520617202F500706C
:102560000021E16060604FF47A4101397FF4FDAFF2
:1025700093F8003292F8002203F00103D20744BF1F
:1025800043F00203DBB2A37221463846FFF796FB05
:10259000214620742846FFF791FB237C18442074C1
:1025A0003046C6F8AC4019B0F0BD00BF00C4000012
:1025B00020C7000070B50546FFF76CFBD5F8AC40AE
:1025C000237C012B064604D872B62046FFF720FA7A
:1025D00000E072B6E36862B6D5F8A800584309F087
:1025E00075FA0146304609F0BDF94FF07C5109F00B
:1025F000C1FA70BD014A017042607047548DFF1FDF
:1026000070B50446406803680E461B68217815467D
:1026100098476068036831461B689847606803689C
:1026200029461B6898476068227803683544A918D2
:102630001B6801F07F01984770BD7E2AA8BF7E22EB
:102640006FF07D039A42B8BF1A46002AB8BF5242C3
:10265000D2B2FFF7D5BF4B1E012B10B509D8022906
:1026600014BF0021042101EBD271BDE81040FFF737
:10267000E4BF10BDFFFFFFFF10B580E80E00DDE9ED
:102680000223C0E90A23DDE90423C0E90C23DDE9C4
:102690000623C0E90E23104B0446186808F0D4FD49
:1026A00000220E4B08F070FF00220023C4E9122321
:1026B000C4E9102306A3D3E90023C4E90401C4E953
:1026C0000623089808F0E2FDC4E91401204610BD75
:1026D0000000000000C05F40D08BFF1F00408F4013
:1026E00000220023C0E910237047FFFF2DE9F04FBF
:1026F0004F4B87B08046186808F0A6FD00224D4B6E
:1027000008F042FFD8E90423CDE9040108F05EFC9B
:10271000D8F80820D8F80430CDE90001D2E900014A
:10272000D3E9002308F052FCD8E9062382468B4601
:10273000D8E9140108F0FEFDDDE9002306460F4646
:102740005046594608F0F6FDD8E9102308F040FC41
:1027500032463B46CDE9020109F07CF810B1C8E9E8
:10276000106710E007F10045DDE9020132462B4613
:10277000344609F051F820B9DDE90223C8E91023F5
:1027800001E0C8E91045D8E90A235046594608F047
:10279000D1FDD8E9102304460D46D8E90C0108F014
:1027A000C9FD02460B462046294608F011FCD8E92F
:1027B000122304460D465046594608F007FCDDE951
:1027C000002308F0E1FED8E90E2308F0B3FD02462D
:1027D0000B462046294608F0FBFBD8F8009004463B
:1027E0000D46C9E90045D8E9066732463B4609F07F
:1027F00031F808B134463D46C9E90045D8F81C30E7
:10280000D8F8186003F100472046294632463B4677
:1028100009F002F808B134463D46DDE90423C9E970
:102820000045C8E912ABC8E9042307B0BDE8F08F42
:10283000D08BFF1F00408F4010B5034B0360044650
:10284000FEF754F8204610BD28C4000010B5044619
:10285000FFF7F2FF204606F0A5F8204610BDFFFF67
:1028600037B5069D1B7800950446FEF751F8064BD8
:102870002360079B63639DF8243084F82030089B15
:102880002363204603B030BD28C4000090F82030F8
:1028900043B1D1F806308362D1F80A30C362D1F86F
:1028A0000E304362704713B5D1F80630019302AB86
:1028B000D1F80A2043F8082D0268D46993E806008D
:1028C000A04702B010BDFFFF10B5034B03600446E4
:1028D000FFF7B2FF204610BD50C4000010B50446FB
:1028E000FFF7F2FF204606F05DF8204610BD2DE907
:1028F000F74302AB03E90600476B009E019D0446C7
:102900003946304609F0EAF9216B8046284609F03D
:1029100031F939468146384609F024F801464846DF
:1029200009F0DCF90146404609F01CF808F0AEFC5D
:1029300002460B46E06BFFF779FB676B3046394682
:1029400009F0CCF9216B0646284609F013F93946FF
:102950000546384609F006F80146284609F0BEF952
:102960000146304608F0FCFF08F090FC0246A06BE0
:102970000B4603B0BDE8F043FFF758BB10B5044663
:10298000C06BFFF79FFBE06BFFF742FCA06BFFF70C
:1029900099FBA06BBDE81040FFF73ABCFFFFFFFFBB
:1029A000F8B51046194614A3D3E9002308F010FB2C
:1029B00013A3D3E9002306460F4606F047FA002288
:1029C00004460D4630463946002308F025FF40B145
:1029D000204629460AA3D3E9002308F0F9FA044661
:1029E0000D462046294604A3D3E9002308F0EEFA59
:1029F000F8BD00BFAFF30080182D4454FB210940FF
:102A0000182D4454FB21194038B50446C06BFFF71C
:102A10008FFB616C054608F0A3FF616B09F0AAF813
:102A2000656438BD38B50446806BFFF781FB216CC7
:102A3000054608F095FF616B09F09CF8256438BDE8
:102A4000002170B50646016041601046194600221B
:102A5000094B08F06FFC04460D4606F057F908F0E4
:102A60002BFF2946B060204606F016F908F024FF37
:102A7000F060304670BD00BF0000E03F2DE9F04F30
:102A800091B08246FDF760FF002800F0A380504619
:102A9000FFF7BAFF04465046FFF7C4FF0546294634
:102AA000204608F05FFF4FF07C5109F063F829469B
:102AB0008346204608F054FFDAF8301009F00EF98A
:102AC000DAF8481009F056F8DAF8241008F04AFF4E
:102AD000CAF8240008F0DAFB02460B465046FFF71E
:102AE0005FFF08F0E9FE8146CAF82400584608F066
:102AF000CDFB064648460F4608F0C8FB04460D4687
:102B000006F0CAF80246DAF828000192009108F0AF
:102B1000BDFB019A009BCDE902013046394608F021
:102B200009FC0B460246DDE9020108F051FA08F003
:102B3000C3FE29468046CAF82800204606F0E6F87B
:102B40000246DAF82C000192009108F09FFB019AEE
:102B5000009BCDE902013046394608F0EBFB024606
:102B60000B46DDE9020108F033FA08F0A5FE224623
:102B70000646CAF82C002B4604A85146FFF760FF12
:102B80006C238DF820301E23069A8DF8213041F2F7
:102B90000103ADF82230CDF832200023079ACDF89A
:102BA0003620ADF82430CDF82680CDF82A60CDF857
:102BB0002E90CDF83AB01A4608A9505C0132034471
:102BC0001E2A9BB2F8D1DAF81C00ADF82430036855
:102BD0001B69984711B0BDE8F08FFFFF70B586B054
:102BE00006AD002605F8016D00930A9B01930B9B2F
:102BF00002930123044603932B46FFF731FE084B53
:102C000023600C9BA3630D9BE36300232364636435
:102C10006362A362E3620E9BA364204606B070BDAC
:102C200050C400007047FFFF10B5034B036004461B
:102C3000FDF75CFE204610BD78C4000010B50446C8
:102C4000FFF7F2FF204605F0ADFE204610BDFFFF66
:102C500038B5054690F8200004F0B2F8044628463E
:102C6000FDF76CFE0A28204606D108F02FFF08F079
:102C70000DFB0022104B06E008F028FF08F006FBD1
:102C800009A3D3E9002308F055FB09A3D3E90023E6
:102C900008F07AFC0022094B08F076FC08F00CFEE4
:102CA00038BD00BFAFF30080666666666666C940E1
:102CB00000000000E0FFEF400000B44000408F4003
:102CC00030B585B00446FDF73FFE40B36D238DF867
:102CD00004300B2300258DF80530204641F2010316
:102CE000ADF80630ADF80850FDF72CFE8DF80A005F
:102CF0002046FFF7ADFFCDF80B009DF805002B46F1
:102D00002A46834201A904DAC95C0A4492B201331B
:102D1000F7E7E069ADF8082003681B69984705B03C
:102D200030BDFFFF73B5079D069E1B7800960446D5
:102D3000FDF7EEFD0A4B2360012D01D10E2303E0C8
:102D4000022D0CBF0F231023236294F820000021D2
:102D500004F0B6FC102004F009F8204602B070BD63
:102D600078C40000044B10B504460360806808B1C5
:102D700005F018FE204610BD98C4000010B50446AA
:102D8000FFF7F0FF204605F00DFE204610BDFFFFC7
:102D900010B5084B036000238360C36003610446E1
:102DA0004160C8B2022104F08BFC102003F0DEFF6A
:102DB000204610BD98C4000070B50546007904F0A7
:102DC00071FC78B9EA68AB68D31A9E100446B44225
:102DD00006DAAB6853F82400FFF73AFB0134F6E754
:102DE000012070BD002070BD7047FFFF10B5034B80
:102DF00003600446FDF77AFD204610BDA8C400001C
:102E000010B50446FFF7F2FF204605F0CBFD204643
:102E100010BD37B50446FDF797FD68B36E238DF8F6
:102E20000030082300258DF80130204641F20103CF
:102E3000ADF80230ADF80450FDF784FD8DF80600C2
:102E400094F8200004F02EFC431B584258419DF892
:102E500001108DF807002B462A468B4205DA1DF833
:102E60000300024492B20133F7E7E069ADF80420B1
:102E7000036869461B69984703B030BD13B5044623
:102E800000930123FDF744FD094B2360049B012BB4
:102E90000CBF0B230C23236294F82000022104F0C2
:102EA0000FFC102003F062FF204602B010BD00BFEF
:102EB000A8C40000094B10B504460360806E10B131
:102EC00003685B6898470023A36604F16C0000F078
:102ED0001EFD2046FDF70AFD204610BDC8C40000B7
:102EE00010B50446FFF7E6FF204605F05BFD2046DF
:102EF00010BDFFFF38B50446C8300D4601F0FCFE9A
:102F00000368A0661B699847002809DDA36EE06985
:102F10001A797AB95B796BB103680E495B690DE088
:102F2000002384F80C3120466FF00101BDE83840E1
:102F3000FDF706BD036808495B6900229847012137
:102F400084F8C05084F8C11084F8C21084F80C11C1
:102F50002046EBE7E0C40000FAC40000FFFFFFFFDB
:102F60002DE9F0436E4BD3F80080436E93B00446D6
:102F7000B0F81801C3EB080508F0A4FD08F086F9C5
:102F800002460B460020674908F0FEFA0022664B15
:102F900008F0D0F908F068FC854240F2B980A06ED4
:102FA00003689B699847002800F0B08094F80D31C1
:102FB000002B76D102A800F073FF05A800F070FF87
:102FC00008A800F06DFFA16E02A8143100F04CFFBC
:102FD000A16E05A8083100F047FFA16E08A82031B6
:102FE00000F042FFA36EDB6A009302AA05A904F178
:102FF0006C0008AB00F0BAFDA06E03681B6A98472E
:103000000EA801F000F90BA800F04AFF04F1B4018A
:103010000BA800F029FF04F1A4010EA801F028F884
:10302000029B2362039B6362049BA362059BE36292
:10303000069B2363079B6363089BA363099BE3636E
:103040000A9B23640E9B63640F9BA364109BE36441
:10305000119B23650C980D9E0B9D08F017F92EA36C
:10306000D3E9002308F066F908F026FC60653046D5
:1030700008F00CF928A3D3E9002308F05BF908F065
:103080001BFC216E08F06CFCA065284608F0FEF8D9
:1030900021A3D3E9002308F04DF908F00DFCE06509
:1030A00034E094F80E6116BB0DF13809484600F083
:1030B000F7FEA16E4846203100F0D6FE254659F8AD
:1030C0000670D5F8F410384608F0F2FE08B1C5F8DD
:1030D000F4703846D5F8001108F008FF08B1C5F8BB
:1030E000007104360C2E05F10405E8D10EE0002530
:1030F000012384F8F23084F80D5184F80E512846EB
:1031000004F1F00101F0C8FFA36E1D71C4F86480E2
:1031100013B0BDE8F08300BFF8C1631ADCA54C40D2
:10312000D08BFF1F0000F03F00408F40AFF30080C6
:1031300030B5044693B0FFF713FF2046FDF704FCBB
:1031400000286BD094F80D3103AD002B3AD16F22DB
:103150008DF80C203A228DF80D2041F20102ADF8D5
:103160000E20E26ACDF81220226BCDF81620626B99
:10317000CDF81A20226ACDF81E20626ACDF82220EE
:10318000A26ACDF82620A26BCDF82A20E26BCDF8FA
:103190002E20226CCDF83220626CCDF83620A26C45
:1031A000CDF83A20E26CCDF83E20226DCDF84220D9
:1031B000ADF810301A46A95C01320B443A2A9BB292
:1031C000F9D124E0684600F06BFEA16E684620311C
:1031D00000F04AFE7923009A8DF80C3012238DF806
:1031E0000D30CDF8122041F20103019AADF80E30F6
:1031F000CDF816200023029ACDF81A20ADF8103031
:103200001A46A95C01320B44122A9BB2F9D1E0693B
:10321000ADF81030036829461B69984713B030BDDC
:1032200003460321002201391A62DA629A639A6422
:1032300003F10403F6D14FF07E5343647047FFFF60
:1032400037B504461D46009203230022FDF760FBBC
:103250002046194B40F86C3B00F07EFB04F1C8009F
:1032600001F00AFF154800F02DF92046FFF7D8FFBE
:1032700020460021FDF764FB00232566E365002559
:103280006365A365BDF81830A4F81831C4F814516B
:10329000C4F8105184F80C5184F80D51656620462D
:1032A0009DF81C10FFF726FE94F80C310BB184F842
:1032B0000E51204603B030BDC8C40000008AFF1F75
:1032C00010B5044604F1F001002001F0FAFE0023DD
:1032D00084F8F230084B094AC4F80031C4F80431CC
:1032E000C4F80831A36EC4F8F420C4F8F820C4F878
:1032F000FC2001221A7110BD809618CB8096184BC5
:1033000010B590F80D318A7904460BB112B110BD99
:1033100022B910BD012380F80E3110BD80F80E31A6
:10332000FFF7CEFF012384F80D3110BD03F0ECBB95
:10333000044BD878044B1A68C0B2904218BF18608A
:10334000704700BF006006406887FF1F08B5FFF7A1
:10335000EFFF8307FBD5024B0222DA7008BD00BFE6
:1033600000600640094B1B7813B9094B1B782BB141
:10337000084A1378202B03D90123037100207047DA
:10338000581C1070044A0120D1547047128AFF1F44
:10339000D589FF1F138AFF1FB489FF1F7047FFFFE6
:1033A000024B1878024B1B78C01A7047118AFF1F16
:1033B000108AFF1F064A074913780978994204D9F1
:1033C000591C1170044AD05C70474FF0FF307047B1
:1033D000108AFF1F118AFF1FD689FF1F054B064A5F
:1033E0001B7812789A4286BF044AD05C4FF0FF30B7
:1033F000704700BF108AFF1F118AFF1FD689FF1F69
:1034000070B50E4B1B78144613B90D4B1B7893B156
:103410000C4A1578C5F121039C42164602D90122B7
:1034200002711C46084822462844254403F002F94C
:103430003570204670BD184670BD00BF128AFF1F50
:10344000D589FF1F138AFF1FB489FF1F10B5114BC9
:10345000DB7803F0200303F0FF045BB9122004F0D3
:10346000D9F80D4B1B68A3B10C4A14700C4A1078A4
:10347000984710BD0B4A13780133DBB2012B137050
:1034800002D8094B1B7823B91220BDE8104004F084
:10349000C1B810BD00600640B089FF1F108AFF1F31
:1034A000118AFF1FFC89FF1FD589FF1F00220271AF
:1034B0004FF47A710273024A81600260704700BF64
:1034C00028C500000C4B00221A700C4B196841F003
:1034D000400119600A4B0B499A704FF419720A6047
:1034E00041F8042C27225A7004229A7120225A7122
:1034F00080229A70704700BFD589FF1F3480044036
:10350000006006400CA0044010B53649CB78DBB211
:1035100013F0100F03F0400201D12AB92CE0102063
:10352000C870002AF9D110BD03F0040303F0FF01B5
:103530002D4AC3B1002313702C4A13702C4B1B6807
:10354000144603B1984723782A4A1BB927491370B8
:1035500001200870234BD021997012781A71264BE4
:1035600001221A7039E001231370244B19701D4B8E
:10357000C0229A701B7930E01A4CA27802F0100237
:1035800002F0FF01AAB113F001030ED11A49174846
:103590000A780078904203D9531C0B70154B9B5C42
:1035A0002371104BD0229A7017E0C023A3702379A7
:1035B00013E0134B032219701220124903F0E4FFA9
:1035C0000E4A217913781F2BC9B206D80648007815
:1035D00018B1581C10700C4AD154024B0222DA70F8
:1035E00010BD00BF00600640AC89FF1F138AFF1F9B
:1035F000F889FF1FB489FF1F148AFF1F118AFF1F5C
:10360000FC89FF1F4D340000D689FF1F044B054A7B
:103610004900197001231370034A1370704700BFEB
:10362000B489FF1F128AFF1F138AFF1FF8B52B4BA7
:103630001222DA709A7892060F4601D5B42218E069
:10364000274B1C681D46FFF773FE00F0200000F0BA
:10365000FF0350B12B681B1B0F2BF4D91F4B00220B
:103660009A7080229A700420F8BD1E4A13701B4B7A
:10367000B0229A70FFF75CFE8306FBD500251A4B3B
:103680001B78ECB2A3421FD9184B1A5D134B1A7169
:10369000FFF74EFE860701D48006F9D40F4E0223B1
:1036A000F370FFF745FEC10601D4820603D48023E0
:1036B000B370042009E0C30705F10105DFD5002C34
:1036C0000CBF0220032001E0002017B1034B802231
:1036D0009A70074B00221A70F8BD00BF00600640C8
:1036E000D08BFF1FD589FF1F138AFF1FB489FF1FCF
:1036F000128AFF1F2DE9F8431446304A1F46002363
:1037000013702F4A13702F4B0D461221D9709978E0
:1037100011F0200F904601D0B4220BE0FFF708FE15
:1037200000F0200000F0FF020028F7D1264B1A70AD
:10373000244BB0229A706B0043F00103214DDBB2A1
:103740002B71FFF703FEFFF7F3FD10F0110004D01B
:103750008023AB700020BDE8F88334B9002F0CBF84
:10376000A0238023AB70BDE8F883012C0CBFA823F5
:10377000A023AB702B79DFF858902646012E114D0F
:103780000BD0013EFFF7E2FDF6B2012E04BFA823E5
:10379000AB702B7909F8013FF0E7FFF7D7FD661E04
:1037A000B023AB70F6B2094B2A799A550FB180233A
:1037B000AB7088F800402046BDE8F883108AFF1FF0
:1037C000118AFF1F00600640D589FF1FD689FF1FA1
:1037D000D589FF1F0123FFF78DBF0121FFF726BF0A
:1037E0000148FFF763BE00BF008AFF1FF8B5074618
:1037F0000C460D48394615461E46FFF707FF214681
:103800000948FFF7AFFD0024E3B2AB42064804D2FB
:10381000315DFFF7A7FD0134F6E7FFF7DEFFD0F1DA
:10382000010038BF0020F8BD008AFF1F07B502ABBA
:1038300003F8012D0122FFF7D9FF03B05DF804FB67
:103840002DE9F74F15462B4ABDF83060D2F80080BD
:103850000193002407468B46A2469146AC4223D2F0
:1038600025483946FFF7D2FE59462348FFF77AFD2F
:103870002148FFF7B2FF20483946FFF7C7FE2A1B51
:10388000202AA8BF20221C483946D2B2FFF7A2FF47
:103890001948FFF785FDC8B1F6B1D9F80020C8EB8B
:1038A0000202B24218D311E05EB1D9F80020C8EB91
:1038B0000208B04505D34FFA8AF2AA42B8BF4FF0CA
:1038C000FF0A4FFA8AF003B0BDE8F08F202DD4BF75
:1038D00064192034E4B2C1E74FFA8AF20648009234
:1038E000FFF768FD9DE80C0098540AF101035FFAA8
:1038F00083FACDE7D08BFF1F008AFF1F13B5144654
:10390000009301222346FFF79BFF02B010BD7047D2
:1039100030B5012385B080F85730044600F14805E2
:1039200001A800F0BDFA01A9284600F09DFA294639
:1039300004F1380000F04EFD04F12C0501A800F060
:10394000AFFA01A9284600F08FFA04F11C002946BD
:1039500000F040FD05B030BD10B50446043000F065
:1039600052FC04F11C0000F04EFC04F12C0000F0AD
:1039700097FA04F1380000F046FC04F1480000F02A
:103980008FFA084B6361084BA3610123204684F83A
:10399000543084F8553084F85630FFF7B9FF20468C
:1039A00010BD00BF6F12833A6F12033A2DE9F04F3A
:1039B00095B0064668460C46904600F024FC04A8E4
:1039C00000F021FC96F8553006F12C0723B1204673
:1039D000394600F0EFFA06E0384606F1480100F0FB
:1039E00043FA0023736396F85630002B6FD0F06AC9
:1039F0004FF07C5108F0BEF807F048FC04460D4635
:103A000005F04AF907F058FF29468146204605F09F
:103A10007DF907F051FF4FF07C518246306B08F082
:103A2000A9F807F033FC04460D4605F035F907F018
:103A300043FF29468346204605F068F907F03CFF1E
:103A400059460446484608F095F8594604905046B1
:103A500008F090F821460590484608F08BF821467A
:103A600006900AF1004008F085F800230093D8F88A
:103A700000300193D8F8043007906A46029308A8F2
:103A8000D8F80830039304A900F093FB0CA804A90C
:103A900000F037FD0CAA10A808A900F08AFB10A9B5
:103AA000684600F0E5FA029807F0F0FB044601983A
:103AB0000D4607F0EBFB02460B462046294605F073
:103AC000C3F907F0F9FE00F10040706301E0336DC7
:103AD000736306F11C052846394600F07BFCDFF8CD
:103AE000888000244FF0FF3A55F8243023F0004935
:103AF0004846414608F0FAF908B9C14600E0A24636
:103B00000134042C01D0C846EEE706EB8A040021FC
:103B1000D4F81C80404608F0CBF920B1A06B0021FE
:103B200008F0E4F948B94046002108F0DFF9C0B1D7
:103B3000A06B002108F0BCF998B1F36903F10043D0
:103B4000F361336A03F100433362736A03F10043A4
:103B50007362B36A03F10043B3622846394600F04A
:103B6000A3FB15B0BDE8F08F00007AC42DE9F04F3B
:103B700004468BB003A81E460F469046149D00F0E5
:103B80008FF994F85730ABB13246A56520464146CF
:103B900004F12C05FFF70AFF04F13800294600F074
:103BA00019FC04F14800294600F05EF9002384F86E
:103BB0005730FCE0A06D281A07F084FF7D4908F01B
:103BC0008DF8A5652060002108F07CF9002840F000
:103BD000EE80414632462046FFF7E8FE636C0193D3
:103BE00094F85430D4F838A0D4F83C80266C13B143
:103BF00003A8394604E006A800F052F903A806A974
:103C000000F032F903984FF07C5107F0B3FF4FF00A
:103C10007C510746049807F0ADFF4FF07C51814678
:103C2000059807F0A7FF4146834607F1004007F0DB
:103C3000A1FF314603464846009307F09BFF009BD7
:103C400025680146184607F08BFE01990346584641
:103C5000009307F08FFF009B0146184607F080FE97
:103C6000294607F087FF0146504607F07BFE514684
:103C7000A063384607F07EFF31460346584600935E
:103C800007F078FF009B0146184607F06BFE01998C
:103C900003464846009307F06DFF009B0146184617
:103CA00007F05EFE294607F065FF0146404607F033
:103CB00059FE5146E063484607F05CFF4146034623
:103CC0005846009307F056FF009B0146184607F040
:103CD00047FE019903463846009307F04BFF009BCF
:103CE0000146184607F03EFE294607F043FF01460D
:103CF000304607F037FE51462064584607F03AFF39
:103D000041468246484607F035FF0146504607F0D7
:103D100029FE31468046384607F02CFF01464046D2
:103D200007F01EFE294607F025FF0146019807F01F
:103D300019FE94F85630606404F1380504F11C074C
:103D4000261D06A813B994F8553023B139462A46E2
:103D500000F047FA01E000F056FA06A9304600F0FC
:103D600087F92A46394606A800F03BFA06A93046EC
:103D700000F07EF92168606907F0FCFEA169074642
:103D800007F0F0FD0146384607F0A8FF314602462D
:103D900006A800F01AFA06A9284600F074F9284689
:103DA00000F037FA284604F1480100F07DFA0BB024
:103DB000BDE8F08F00007A4410B50B4C4FF07C51F9
:103DC000A4EB600407F0D6FE214607F0D3FE21469F
:103DD00007F0D0FE01464FF07F5007F0C1FD0146CD
:103DE000204607F0C7FE10BDDF59375F70B50446A7
:103DF00016460D4602784078B3B140EA022000B280
:103E000007F064FE314607F0B5FE2860E378A0783D
:103E100043EA002000B207F059FE314607F0AAFE3F
:103E200068602079637915E042EA002000B207F06B
:103E30004DFE314607F09EFE2860A378E07843EA05
:103E4000002000B207F042FE314607F093FE6860A2
:103E50006079237943EA002000B207F037FE31464B
:103E600007F088FEA86070BD884205D00B6803602B
:103E70004B6843608B688360704770B505460E469B
:103E800000242859315907F06BFD285104340C2CBB
:103E9000F7D1284670BD00230360436083607047FC
:103EA00010B50446FFF7F7FF204610BD70B5054674
:103EB0000C460068096807F05DFE616806466868A0
:103EC00007F058FE0146304607F04CFDA168064653
:103ED000A86807F04FFE0146304607F043FD70BD6D
:103EE000F8B505460C4640688968164607F042FE5C
:103EF00061680746A86807F03DFE0146384607F0AE
:103F00002FFD30602168A86807F034FEA1680746DD
:103F1000286807F02FFE0146384607F021FD706043
:103F20006168286807F026FE21680746686807F080
:103F300021FE0146384607F013FDB060F8BD2DE9BB
:103F4000F041D0F800804768866841460446404604
:103F500007F010FE39460546384607F00BFE0146CD
:103F6000284607F0FFFC31460546304607F002FEC2
:103F70000146284607F0F6FCFFF71EFF0021054624
:103F800007F08CFFA0B928464FF07E5107F086FF5E
:103F900070B92946404607F0EDFD294620603846B5
:103FA00007F0E8FD29466060304607F0E3FDA060B9
:103FB000BDE8F0812DE9FF410E4607C801AB83E85B
:103FC00007001846FFF7BBFF029807F05FF90446A9
:103FD00003980D4607F05AF902460B46204629463B
:103FE00004F032FF07F068FC3060019807F04EF9EA
:103FF00004460298DDF80C800D46014607F0BAFD34
:1040000041460746404607F0B5FD0146384607F0F1
:10401000A9FC07F03BF904F073FF02460B4620466B
:10402000294604F011FF07F047FC002300F100408F
:104030007060B36004B0BDE8F0810346006870B5FD
:1040400001465E689D6807F095FD3146044630469E
:1040500007F090FD0146204607F084FC29460446FF
:10406000284607F087FD0146204607F07BFC70BD1F
:10407000884207D00B6803604B6843608B6883609D
:10408000CB68C360704770B505460E4600242859BA
:10409000315907F067FC28510434102CF7D1284619
:1040A00070BD70B505460E4600242859315907F0F9
:1040B00057FC28510434102CF7D1284670BDF0B5B8
:1040C0008BB0044601A80D46FFF7E5FE04A8FFF7F4
:1040D000E2FE07A8FFF7DFFE63680193A36802937F
:1040E000E36803936B680493AB68059304A9EB68DA
:1040F000069301A8FFF7DAFE07AA074604A901A85C
:10410000FFF7EEFE26682968304607F033FD394692
:1041100007F026FC04992060304607F02BFD01993A
:104120000746286807F026FD0146384607F01AFCC6
:10413000079907F017FC05996060304607F01AFDF3
:1041400002990746286807F015FD0146384607F032
:1041500009FC089907F006FC0699A060304607F0B4
:1041600009FD03990646286807F004FD014630461C
:1041700007F0F8FB099907F0F5FBE06020460BB06B
:10418000F0BD38B5044600680D4607F0F3FC29463B
:104190002060606807F0EEFC29466060A06807F0C8
:1041A000E9FC2946A060E06807F0E4FCE0602046F6
:1041B00038BD38B5044615460FC984E80F002046BF
:1041C0002946FFF77CFF204638BD38B50446154622
:1041D0000FC984E80F0020462946FFF7D2FF20468A
:1041E00038BD38B5044615460FC984E80F0020468F
:1041F0002946FFF756FF204638BD00230360436081
:104200008360C360704710B50446FFF7F6FF204691
:1042100010BD2DE9F843D0F80090D0F804808768ED
:10422000C66849460446484607F0A4FC4146054690
:10423000404607F09FFC0146284607F093FB3946AD
:104240000546384607F096FC0146284607F08AFBEB
:1042500031460546304607F08DFC0146284607F0FA
:1042600081FBFFF7A9FD0021054607F017FEC8B93D
:1042700028464FF07E5107F011FE98B9294648466E
:1042800007F078FC29462060404607F073FC294679
:104290006060384607F06EFC2946A060304607F0A3
:1042A00069FCE060BDE8F8832DE9F8430746D0F8E3
:1042B0000890D0F804800E464846F96807F05AFC8A
:1042C00039680446404607F055FC0146204607F091
:1042D00049FB06F0DBFF02460B4606F079FE04467A
:1042E0000D464046414607F045FC49468046484653
:1042F00007F040FC0146404607F034FB06F0C6FFDD
:1043000002460B4606F064FE02460B46002030498A
:1043100006F05CFE02460B462046294604F094FD5A
:1043200007F0CAFA3060B968386807F023FCF9680A
:104330000446786807F01EFC0146204607F010FB93
:1043400006F0A4FF02460B4606F042FE04F028FDEC
:1043500007F0B2FA7060D7F808907968D7F80C8047
:10436000484607F007FC39680446404607F002FC5F
:104370000146204607F0F6FA06F088FF02460B4693
:1043800006F026FE04460D464846494607F0F2FB75
:1043900041460746404607F0EDFB0146384607F028
:1043A000E1FA06F073FF02460B4606F011FE0246E4
:1043B0000B460020064906F009FE02460B46204641
:1043C000294604F041FD07F077FAB060BDE8F883B4
:1043D0000000F03F2DE9F74F04460D4608684FF006
:1043E0007C5107F0C7FB06F051FF06460F4604F06C
:1043F00053FC07F061FA39468146304604F086FCEA
:1044000007F05AFA4FF07C518346686807F0B2FB18
:1044100006F03CFF06460F4604F03EFC07F04CFA5F
:1044200039468246304604F071FC07F045FA4FF0F9
:104430007C510190A86807F09DFB06F027FF064617
:104440000F4604F029FC07F037FA39460546304696
:1044500004F05CFC07F030FA51460646484607F087
:1044600089FB01998046584607F084FB2946074698
:10447000404607F07FFB314603463846009307F07D
:1044800079FB009B0146184607F06CFA5146206004
:10449000584607F06FFB01998246484607F06AFBD1
:1044A00029468146504607F065FB3146834648461B
:1044B00007F060FB0146584607F052FA2946606053
:1044C000484607F057FB31468146504607F052FBFD
:1044D0000146484607F046FA3146A060404607F0DC
:1044E00049FB29460646384607F044FB014630465C
:1044F00007F036FAE060204603B0BDE8F04FFFF762
:1045000088BE38B50D460446FFF777FE2B6823605A
:104510006B6803F100436360AB6803F10043A36081
:10452000EB6803F10043E360204638BD40797047F3
:104530000048704740C5000005207047436B4FF4AA
:10454000C87090FBF3F0704710B5034B036004464E
:1045500000F0BEFB204610BD58C5000010B5044653
:10456000FFF7F2FF204604F01DFA204610BDFFFFC2
:1045700010B5044600F0CCFB014B2360204610BD73
:1045800058C500004B1FB3F5797F09D24FF47A72FA
:10459000B2FBF1F200234163C0E90E230120704712
:1045A00000207047112910B509D80122054B02FAE5
:1045B00001F423401BB180F88B10104610BD002081
:1045C00010BD00BF7F000300082910B50AD80122E2
:1045D00002FA01F440F27F1323401BB180F88C10E3
:1045E000104610BD002010BD4B1E632B9ABFC0F8B3
:1045F000901001200020704708290DD004D8B1B9CF
:1046000080F894100B4B0EE0102909D018290ED118
:1046100080F89410084B06E080F89410074B02E0F5
:10462000074B80F89410C0F89830012070470020A4
:10463000704700BFFDB30B39787D8B3AA96892397A
:10464000787D0B3A08290FD005D8D1B980F895109C
:104650004FF0625311E010290BD0182911D180F8C6
:1046600095104FF0685308E080F895104FF06453B0
:1046700003E080F895104FF06653C0F89C3001209D
:1046800070470020704710B538210446002290F88A
:104690008900FFF7CBF868B394F889002321002242
:1046A000FFF7C4F830B394F889006A210022FFF7BD
:1046B000BDF8F8B194F889006A210422FFF7B6F832
:1046C000C0B194F889006A216022FFF7AFF888B181
:1046D000322003F02FF894F8890038210122FFF7E7
:1046E000A5F838B194F8890023217822BDE810405C
:1046F000FFF79CB8002010BD70B5504E88B03388CD
:104700000446722190F889000093022202ABFFF761
:1047100097F888B19DF808509DF8093003EB0525FE
:10472000B5F5806F0AD12046FFF7ADFFE36AA26BB3
:10473000562101FB0233E36200207CE0B5F5F07FF7
:1047400011D93388009394F8890074210C2205ABA9
:10475000FFF776F80028EFD0E26AA36B0C3D134414
:10476000E362772DECE70B2DE6D93388009394F8BC
:10477000890074210C2205ABFFF762F80028DBD01A
:104780002E4B94F889001B8800934921082203AB23
:10479000FFF756F80028CFD005A804F11401D4F88B
:1047A0009C200123FFF722FB0DF11A0004F1080100
:1047B000D4F898200123FFF719FB214A0DF10D00D1
:1047C00004F120010023FFF711FBE368206AD4F80D
:1047D000A01003F10043E360236903F10043236168
:1047E000636903F10043636107F0C4F9D4F8A410CE
:1047F0000546606A07F0BEF9D4F8A8100646A06A1C
:1048000007F0B8F905F10045A0622662204665620E
:1048100000F008FB204600F0AFFB94F8883013B19D
:10482000084B1B6802E0E26AA36B1344E3620023B7
:1048300084F88830012008B070BD00BF6C87FF1F6E
:104840009A99193FD08BFF1F13B5174B04466A2165
:1048500090F889001B880DF10702FFF74FF808B99F
:1048600000241DE09DF8072094F8890022F0200222
:1048700042F002026A218DF80720FEF7D7FF0028D8
:10488000EED0322002F056FF94F8890037218222C0
:10489000FEF7CCFF04460028E2D0322002F04AFFA7
:1048A000204602B010BD00BF6C87FF1F13B5154B2B
:1048B00004466A2190F889001B880DF10702FFF772
:1048C0001DF808B900241AE09DF8072094F8890023
:1048D00042F020026A218DF80720FEF7A7FF00288A
:1048E000F0D0322002F026FF94F889003721802290
:1048F000FEF79CFF044610B1322002F01BFF204659
:1049000002B010BD6C87FF1F38B590F88B5090F83F
:104910009430C5F3C1021A4404461B2190F8890063
:10492000D2B2FEF783FF40B194F8890005F0070288
:104930001A21BDE83840FEF779BF38BD10B50446EE
:104940001C2190F8890094F89520FEF76FFF40B184
:1049500094F8890094F88C201D21BDE81040FEF7E2
:1049600065BF10BD436BB3F57A7F0ADC4FF47A72F2
:1049700092FBF3F35A1E90F889001921D2B2FEF788
:1049800055BF01207047426BD0F8903090F88900F5
:1049900092FBF3F2013A1F2AA8BF1F223421D2B2A0
:1049A000FEF744BF30B5012380F88830036B1A79D5
:1049B00080F88920044685B01969FFF7E3FD236B71
:1049C00020465969FFF710FE236B2046197EFFF73A
:1049D000E9FD236B2046197FFFF7F6FD236B204688
:1049E00093F82010FFF708FE236B204693F824105D
:1049F000FFF728FE204600F0B1F994F889006B21FA
:104A00008022FEF713FF002800F01781642002F0D7
:104A100091FE94F889006B210022FEF707FF002821
:104A200000F00E81A64D94F889002B8875210DF1B8
:104A30000B02FEF763FF002800F005819DF80B30A4
:104A4000712B40F003812046FFF75EFF002800F045
:104A500000812046FFF772FF002800F0FD8020460D
:104A6000FFF780FF002800F0FA802046FFF7ECFEF9
:104A7000002800F0F7800C200A210022FEF7D6FE65
:104A800028B92046FFF712FF6FF00B0016E10C204B
:104A90000A210F22FEF7CAFE28B92046FFF706FFBB
:104AA0006FF00C000AE12B8800930C2010210322E8
:104AB0000DEB0003FEF7C4FE28B92046FFF7F6FE13
:104AC0006FF00D00FAE09DF80C0006F0FBFF06F019
:104AD000DDFB00227B4B06F079FA00227A4B06F0D0
:104AE00029FC0022794B06F073FA06F0E5FEC4F8C3
:104AF000A0009DF80D0006F0E5FF06F0C7FB0022C0
:104B0000704B06F063FA00226F4B06F013FC002294
:104B10006E4B06F05DFA06F0CFFEC4F8A4009DF8D7
:104B20000E0006F0CFFF06F0B1FB0022654B06F049
:104B30004DFA0022644B06F0FDFB0022634B06F0A9
:104B400047FA06F0B9FE0A21C4F8A80000220C209A
:104B5000FEF76CFE28B92046FFF7A8FE6FF00E00A6
:104B6000ACE02046FFF7A2FE00287ED094F8890032
:104B700024214022FEF75AFE002879D094F88900BB
:104B800025218C22FEF752FE002874D094F889006B
:104B900026210222FEF74AFE00286FD094F88900F1
:104BA00027218822FEF742FE00286AD094F8890067
:104BB00028210C22FEF73AFE002865D094F88900DF
:104BC00029210A22FEF732FE002860D094F88900DD
:104BD0002A218122FEF72AFE00285BD094F8890062
:104BE00064210122FEF722FE002856D094F88900A5
:104BF00067210322FEF71AFE002851D02046FFF756
:104C0000C2FE00284FD094F889006B210122FEF7E4
:104C10000DFE00284AD094F889006C210022FEF78E
:104C200005FE002845D02046FFF72DFD002843D083
:104C3000204600F0E9F8012040E04FF0FF303DE071
:104C40006FF003003AE06FF0040037E06FF005000A
:104C500034E06FF0060031E06FF007002EE06FF0F7
:104C600008002BE06FF00A0028E06FF00F0025E04D
:104C70006FF0100022E06FF011001FE06FF01200E3
:104C80001CE06FF0130019E06FF0140016E06FF0F5
:104C9000150013E06FF0160010E06FF017000DE044
:104CA0006FF018000AE06FF01A0007E06FF01B00C9
:104CB00004E06FF01C0001E06FF01D0005B030BD96
:104CC0006C87FF1F000060400000703F0000F03F55
:104CD000014B0360704700BF88C5000090F8480092
:104CE0007047FFFF10B5034B0360044603F05AFE04
:104CF000204610BD88C5000038B50546B02003F039
:104D00004DFE29460446FFF733FC204638BDFFFF21
:104D100038B5114B044640F8083B0D46FFF7C0F884
:104D200004F11400FFF7BCF804F12000FFF7B8F815
:104D300004F14C00FFF7B4F804F15800FFF7B0F8A5
:104D400004F17C00FFF7ACF8002325632371637145
:104D500084F84830204638BD88C500002DE9F0436E
:104D6000064689B00020707101A900F0AAF9002858
:104D700045D09DF80630012B41D1224F6C460DF1F4
:104D80000C0860690434616806F0EAFD394605469E
:104D900007F0ACF800B93D46444501D02F46F0E796
:104DA0002846002107F084F8044640BB28464FF00F
:104DB0007C5106F0DFFE3546814601AB23440434C6
:104DC000D3F810805F684046394606F0C9FD4FF0C1
:104DD0007C5106F0CFFE0146484606F07FFF39467B
:104DE0002867404606F0BEFD4FF07C5106F0C2FE3B
:104DF0000C2C686605F10405DFD10123737109B03D
:104E0000BDE8F083000080BF10B50446406B06F09B
:104E10005DFE01464FF0804006F060FF00232064F5
:104E2000636410BD2DE9FF4700F15805804695E801
:104E3000070001AC08F1140684E80700314620465B
:104E4000FFF71BF831462846FFF70EF82046FFF71C
:104E5000F4F8464907F02CF808F1080A00287CD03D
:104E60005046FFF7EAF8424907F022F8002874D0CC
:104E7000D8F84090484606F009FA02460B46002052
:104E80003C4906F0A3F80446D8F84C000D4606F05D
:104E9000FDF902460B462046294606F04BFA064627
:104EA0000F464846D8F8081006F064FE06F0EEF902
:104EB00002460B463046394606F08AF806F0FCFCFE
:104EC000C8F84C00D8F8500006F0E0F902460B464E
:104ED0002046294606F02EFA06460F464846D8F8E0
:104EE0000C1006F047FE06F0D1F902460B4630469C
:104EF000394606F06DF806F0DFFCC8F85000D8F827
:104F0000540006F0C3F902460B462046294606F037
:104F100011FA04460D464846D8F8101006F02AFE4D
:104F200006F0B4F902460B462046294606F050F832
:104F300006F0C2FCD8F83430D8F84420C8F8540041
:104F400003EB83039A4208DA01329A4208BF012335
:104F5000C8F8442008BF88F84830504608F14C0192
:104F6000FEF78BFF04B0BDE8F08700BF0BD7233BF3
:104F70000BD7233D0000F03F037970B50646CBB94F
:104F80004379BBB1006A716E06F0EAFC316F06F03E
:104F9000F1FDB16E3062706A06F0E2FC716F06F0EE
:104FA000E9FDF16E7062B06A06F0DAFCB16F06F0EE
:104FB000E1FDB062306A2E4906F0DCFD06F066F9CC
:104FC0000446F06F0D4606F061F927A3D3E90023EC
:104FD00006F0B0F902460B462046294605F0F8FFD8
:104FE00006F06AFC2249F067706A06F0C3FD06F01D
:104FF0004DF90446D6F880000D4606F047F91AA38D
:10500000D3E9002306F096F902460B4620462946CE
:1050100005F0DEFF06F050FC1549C6F88000B06AC6
:1050200006F0A8FD06F032F90446D6F884000D46D5
:1050300006F02CF90CA3D3E9002306F07BF9024615
:105040000B462046294605F0C3FF06F035FC06F165
:105050007C01C6F8840006F12000BDE87040FEF730
:1050600003BF00BFAFF30080000000989999E93FAB
:10507000CDCC4C3EAFF300804FF0FF3202605022A7
:1050800002612822426103228261C261102202620F
:105090004262682202717047F8B5FC221C2310FBA3
:1050A00003F60A7015220D464A7013FB003734468A
:1050B000AB1B2046195D013401F070FDBC42F7D1F5
:1050C000F8BDF8B51C24002310FB04F506468B70D0
:1050D00028460F4601F04EFDFC2813D1012004FBA9
:1050E000060001F047FD15280CD114FB06462C469E
:1050F000204601F03FFD7B1B18550134B442F7D127
:105100000120F8BD0020F8BD01F0FEBC7047FFFF94
:1051100010B5034B03600446FBF7E8FB204610BDC7
:10512000B8C5000010B50446FFF7F2FF204603F0B3
:1051300039FC204610BD006AC0B201B1012102F065
:1051400091BAC979003118BF0121FFF7F4BFFFFF01
:1051500037B51D460023044600930823FBF7D8FB10
:10516000094B2360012D0CBF06230723236294F80B
:105170002000012102F0A4FA20460121FBF7E0FB08
:10518000204603B030BD00BFB8C500007047FFFF28
:1051900010B5034B03600446FBF7A8FB204610BD87
:1051A000D8C5000010B50446FFF7F2FF204603F013
:1051B000F9FB204610BDFFFF70B586B00446FBF733
:1051C000C3FB00284CD071238DF8003004F1200679
:1051D000172300258DF80130304641F20103ADF868
:1051E0000230ADF8045000F04FF906F065FBCDF841
:1051F0000600304600F070F906F05EFB84F8995026
:10520000CDF80A00D4F8A00006F02EF80022154BC5
:1052100006F0BAF906F050FBD4F8C030ADF8123001
:10522000D4F8B030ADF814309DF80120D4F8EC304B
:105230008DF81630CDF80E0084F8B95084F8A950D6
:105240002B46954205DA1DF805100B449BB201353B
:10525000F7E7E069ADF80430036869461B699847D1
:1052600006B070BD0000594037B504461D46009297
:1052700002230022FBF74CFB20460F4B40F8203B5B
:1052800000F02CF815B1C4F8F85003E04FF41653B1
:10529000C4F8F830D4F8F800430803F1376303F595
:1052A000D833B3FBF0F001F0FBFD20460121FBF702
:1052B00047FB204603B030BDD8C5000010B50446FA
:1052C00001F06AFF002808DD01F076FFC1B204F1A9
:1052D0002000BDE8104000F0A7BA10BD0022022156
:1052E00002704270828082600273028242610276A2
:1052F0008283026280F824200285C26280F8302016
:1053000080F8382080F83920C26380F8482080F87F
:105310004920C26480F8582080F85920026680F83D
:10532000682080F86920026780F8782080F879206A
:10533000C0F8802080F8882080F88920C0F890206C
:1053400080F8982080F89920C0F8A02080F8A82044
:1053500080F8A92080F8B91080F8BA2080F8BB2026
:1053600080F8BC20C0F8C020C0F8C420C0F8C82015
:10537000C0F8CC20C0F8D020C0F8D42080F8AA20F3
:105380007047A1F14103052B02D8A1F13700704706
:10539000A1F16103052B94BFA1F15700A1F13000E9
:1053A000704738B50578B5F12D035D425D4104467F
:1053B00005B1441C204606F0CEFD6423434322463B
:1053C00014F8011BA1F130000928F8D92E290BD1BE
:1053D00051783039092907D892780A20303A00FBF1
:1053E0000133092A98BF9B180DB1584238BD1846A1
:1053F00038BDFFFF38B50C46054606F0ACFD64230A
:10540000B0FBF3F21249228003FB12034B43284600
:10541000014610F8012BA2F13005092DF8D92E2AEA
:105420000CD10B4A084610F8011F3039092905D85C
:105430000A25B2FBF5F202FB0133F4E703EB830329
:1054400001330322B3FBF2F363600023237238BD00
:1054500080969800034653F81C2F42605A68826079
:105460001B7A0373034653F8282F02615A6842617E
:105470001B7A0376034B1B6843630123437003705D
:10548000704700BFD08BFF1F002370B543700646E6
:10549000808805F0E9FE0446B0680D4605F0D4FEAC
:1054A0000BA3D3E9002306F06FF80B46024629460A
:1054B000204605F08DFD337B1BB1024601F1004310
:1054C00001E002460B461046194670BDAFF300805E
:1054D0000000000065CDCD41002370B54370064645
:1054E000008A05F0C1FE044670690D4605F0ACFE69
:1054F0000BA3D3E9002306F047F80B4602462946E2
:10550000204605F065FD337E1BB1024601F10043E4
:1055100001E002460B461046194670BDAFF300800D
:105520000000000065CDCD4183684360034B1B68DC
:10553000C360012343700370704700BFD08BFF1F0F
:1055400083684360034B1B68C3600123437003708F
:10555000704700BFD08BFF1F10B504460846FFF709
:1055600020FFA06010BD10B50446084606F0F3FC0D
:10557000A06010BDC3688360034B1B6843600123B8
:1055800043700370704700BFD08BFF1F10B50446F7
:105590000846FFF706FFE06010BDFFFFC3688360A9
:1055A000034B1B684360012343700370704700BFC7
:1055B000D08BFF1F10B50446084606F0CCFCE06017
:1055C00010BDFFFF10B504462146103006F0E2FD85
:1055D000044B1B682362012384F8253084F82430AF
:1055E00010BD00BFD08BFF1F102206F0E3BDFFFFF0
:1055F000F8B590F8A9600446002E67D090F8AA107C
:10560000FFF7BFFE94F8AB1005462046FFF7B9FE42
:1056100094F8A83000EB0510C5B2AB424FD1D4F8D6
:10562000D4300133C4F8D43094F8BC3023B1D4F86A
:10563000CC300133C4F8CC3094F8B930B3B1012B7D
:105640002AD104F13800FFF76FFF04F14800FFF79B
:1056500077FF94F8BC30FBB12046FFF7FBFE04F166
:105660005800FFF787FF04F1680013E004F14800D9
:10567000FFF766FF94F8BC3033B12046FFF7EAFE2F
:1056800004F17800FFF776FF04F18800FFF786FF4A
:1056900004F19800FFF76EFFD4F8C450002D00F01D
:1056A000BD80D4F8C430A86A996A06F069FD002864
:1056B00040F0B4802846FFF785FF2D6BEEE7D4F865
:1056C000D0300133C4F8D0300026A7E090F8BA20DB
:1056D00022BB00F1AA052846514906F051FD08B940
:1056E000012308E028464F4906F04AFD10B984F826
:1056F000B96002E0022384F8B930D4F8C030C4F8AD
:10570000C430D4F8C470002F00F08880B86A2946ED
:1057100006F036FD00287DDA3B6BF0E790F8B91013
:10572000022960D090F8AA30002B5CD042EA4112E6
:10573000013A282A57D8DFE802F01520242B3142FD
:10574000494F515656565656565656565656565612
:1057500056565656565656565656151B20242B311D
:10576000383A3C00483004F1AA01FFF7F5FE3AE070
:10577000B3F141004342434125E0AA3004F11C014A
:1057800009E0B3F153014B424B4180F824302AE049
:10579000AA3004F12801FFF72DFE24E0B3F15702EF
:1057A0005342534180F830301DE0583017E06830E4
:1057B00015E0383004F1AA01FFF7D5FE13E0302BD5
:1057C00094BF0023012384F8BC300CE0883004F13E
:1057D000AA01FFF7EFFE06E0983000E0783004F110
:1057E000AA01FFF7D3FED4F8C450BDB1D4F8C43039
:1057F000A86A996A06F0C4FC80B9EB6A94F8BA20EA
:1058000093420BDC04D1284604F1AA01FFF7ECFE19
:105810002D6BEAE702D00023C4F8C4303046F8BD4F
:10582000F0C50000F6C5000038B5D0F8C83024290E
:1058300003F1010304460D46C0F8C8302AD090F8A1
:10584000BB3004D80A290CD00D2932D109E02A290D
:1058500007D02C292DD190F8A82082F02C0280F8B6
:10586000A8200E2B4FF0000005D8234483F8AA008F
:105870002046FFF7BDFE94F8BA30013384F8BA3001
:10588000002384F8BB30B5F12A035D425D4184F802
:10589000A95038BD0020022384F8BB0084F8BA0068
:1058A00084F8A80084F8B93084F8A90084F8BC0012
:1058B00038BD0D2B05D85A1C234484F8BB2083F82F
:1058C000AA5094F8A90028B994F8A8305D4084F84B
:1058D000A85038BD002038BD2D4B002230B51A60CD
:1058E00090F8943053B9D0F890305A6802F5965237
:1058F0005A6090F899201A60012345E0012B26D1C7
:1059000090F895309BB100EB830290F89710526CA1
:1059100001338B4288BF0023D0F88C10A2F5965239
:1059200091B1012B16BF00240B700C700CE090F8A5
:10593000964080F89740011F1A46A242E3D851F8DA
:10594000045F4D640132F8E780F8953001E0D0F84B
:1059500088204EF660239A42D0F89030596806D8D5
:105960000A445A6090F898201A6000230CE001F570
:10597000624190315960A2F5624290F89910196025
:10598000903AC0F88820022380F8943030BD00BFE0
:1059900054800340442380F88A307047334B30B53D
:1059A0001C684FF6FF7294421C46314A52D113686C
:1059B00003F07F03482B4DD14B1F0024122B47D8F7
:1059C000DFE803F00A1F46460D10464646464646A7
:1059D0004646461316191C00264A072313E0264A9A
:1059E000022310E0254A03230DE0254A05230AE09F
:1059F000244A062307E0244A002304E0234A012323
:105A000001E0234A0423C0F8844080F88B40FF253E
:105A100090F88A40026080F8885014601D4A42F86D
:105A200023001D4A0120147800FA03F32343137066
:105A30001A4B03EBC10140F244424B681A60184B09
:105A400020221A70A3F23A334FF080421A6030BD20
:105A5000002030BD134D002313602B604FF6FF75FF
:105A6000256048241460104A1360A5E708800340AD
:105A700000800340448003401C8003402480034096
:105A8000348003403C8003400C800340148003407A
:105A90002C8003401C8AFF1F198AFF1F20C70000AB
:105AA0003EE400E0048003405480034010B50368E6
:105AB00090F88A105A681960184BB2F5604F1B882D
:105AC00003D91749097801B1013B42EA0343D0F8F1
:105AD0008420C0F884309A1A124B9A4290F8883089
