:1000000000800020BD010000B18500007D8500005A
:100010007D8500007D8500007D8500007D850000D8
:100020007D8500007D8500007D850000B185000094
:10003000B18500007D850000B18500006D85000060
:10004000B1850000B1850000B1850000B1850000D8
:10005000B1850000B1850000B1850000B1850000C8
:10006000B1850000B1850000B1850000B1850000B8
:10007000B1850000B1850000B1850000B1850000A8
:10008000B1850000B1850000B1850000B185000098
:10009000B1850000B1850000B1850000B185000088
:1000A000B1330000B1850000B1850000B1850000CA
:1000B000B1850000B1850000B1850000B185000068
:1000C000B1850000B1850000B1850000B185000058
:1000D000B1850000B1850000B1850000B185000048
:1000E000B1850000B1850000B1850000B185000038
:1000F000B185000085840000B18500000171000019
:10010000B1850000F5680000B1850000B1850000F0
:10011000B1850000B1850000B1850000B185000007
:10012000B1850000B1850000B1850000B1850000F7
:10013000B1850000B1850000D1590000B1850000F3
:10014000B1850000B1850000B1850000B1850000D7
:10015000B1850000B1850000B1850000B1850000C7
:100160005906000035780000B1850000B185000017
:10017000B1850000B1850000B1850000B1850000A7
:10018000B1850000B1850000B1850000B185000097
:10019000B1850000B1850000B1850000B185000087
:1001A000B1850000B1850000B1850000B185000077
:1001B000B1850000B1850000B1850000574B4CF2BD
:1001C000205210B51A804DF628121A8000BF00BFC9
:1001D00008F0F2F9524B4FF010621A60514A9A60DF
:1001E000514ADA60A3F53043203B1A6812F480725A
:1001F00004D14E490A604FF4A8521A604C4B1A7849
:10020000110703D51A7842F008021A70494B2A22C6
:100210001A700023484A49499818884204D248492C
:10022000595899500433F5E7464A474B9A424FF0E4
:10023000000302D242F8043BF7E74449444A5958C4
:1002400099500433B3F5DE7FF7D1424B802103F898
:10025000011B41498B42F9D1404B1A60404B0A22A5
:100260001A70A3F6FF7324221A70A02203F8012C3F
:100270003C4B1A789207FBD51A78D406FCD41A782E
:1002800002F00C02082AFAD1374B03221A704022DE
:100290005A70344B1A789006FBD51A785106FCD563
:1002A000324B334A1A6002225A60324B20221A70B3
:1002B0002C4B1B7803F00C030C2BF9D12E4B2F4A3F
:1002C0001A602F4B2F4A1A6000225A60072243F807
:1002D000042C2D4AC3F80C2D62B607F093F9134B8A
:1002E0001B68DA0705D5294807F000F9284B294A89
:1002F0001A60294B1B785B0609D5254C254A2368D3
:10030000934204D1214807F0F1F8002323600BF059
:1003100041FD08F057F908F07FF9FEE70E2005408F
:1003200030800440823F04000100002B14D00340C1
:1003300002D0074000E007406087FF1F8088FF1F52
:1003400028D200008088FF1FB08DFF1F0000000032
:100350000082FF1F00E400E05FE400E008ED00E041
:1003600000500640064006400440064044800440D9
:10037000000003010040064004800440C010050056
:1003800014E000E0FF7601000000202018BBD555E6
:100390001CE00340A5C3945A00F00740FFFFFFFF95
:1003A000FFFFFFFFFFFFFFFFFFFFFFFFFFFFFFFF5D
:1003B000FFFFFFFFFFFFFFFFFFFFFFFFFFFFFFFF4D
:1003C000FFFFFFFFFFFFFFFFFFFFFFFFFFFFFFFF3D
:1003D000FFFFFFFFFFFFFFFFFFFFFFFFFFFFFFFF2D
:1003E000FFFFFFFFFFFFFFFFFFFFFFFFFFFFFFFF1D
:1003F000FFFFFFFFFFFFFFFFFFFFFFFFFFFFFFFF0D
:10040000FFFFFFFFFFFFFFFFFFFFFFFFFEFFFFFFFD
:1004100010B5054C237833B9044B13B10448AFF33E
:1004200000800123237010BD8088FF1F00000000A2
:1004300028D2000008B5064B1BB106480649AFF3A9
:1004400000800648036813B1054B03B1984708BD07
:100450000000000028D200008488FF1F8088FF1F52
:100460000000000042F2107006F0D2B810B5064C41
:1004700006F09EFA204600F053FB20460349044A4A
:10048000BDE810400BF066BC9C88FF1FC50B000048
:100490006087FF1F08B5064800F0BCFA10B9044891
:1004A00000F018FC0248BDE8084000F053BE00BF51
:1004B0009C88FF1F30B50D4C0023218803710C224E
:1004C00001230B4207D10A4A19432180118821EAEE
:1004D0000303138030BD05795B000135013A0571D6
:1004E0009BB2EED1FF23037130BD00BFF888FF1F20
:1004F000F488FF1F2DE9F0411F4603790B2B0446BA
:1005000016463DD85FFA81F84046012107F02CF8E5
:1005100025791D4B03F805801C4B44F2506223F8EB
:1005200015201B4B012202FA05F51A8815431D8080
:10053000184B1A6806EB460607EB4707B600BF00E4
:1005400012F480022680678016D1196841F4800178
:100550001960A3F59033383B4FF6FF7119605A606C
:100560009A6042F6A27243F8042C02F5803243F8F6
:10057000042C094B20221A70084B4FF480721A6029
:100580002079BDE8F08100BF1289FF1FFA88FF1FA4
:10059000F488FF1F3C80044048E400E008E100E0EC
:1005A00003790B2B10D8094A01219940C9431388BC
:1005B00089B20B401380064A1088014011801BB994
:1005C000044B4FF480721A60704700BFF488FF1F1D
:1005D000F888FF1F88E100E00C2359430388994203
:1005E00003DB43889942B8BF0B4602790B2A9CBFB4
:1005F000014921F812307047FA88FF1F13B50479BA
:100600000B2C024616D8B1F5087F04DB02B0BDE81A
:100610001040FFF7E1BF13885288009221EAE17091
:10062000B428A8BFB4200021B42208F06FF8024B10
:1006300023F8140002B010BDFA88FF1F03790B2BBA
:1006400005D8044A1088184100F0010070470020C6
:10065000704700BFF488FF1F70B52E4A2E4D1188D9
:1006600095F90030194111F0010F144606D02B4ABC
:100670000021D05C06F04AFF0C232B702088284C08
:100680002178CBB25AB20B2A1FDC40FA02F60131B4
:10069000F607C9B2F5D52370204B0121985C06F00E
:1006A00035FF23781F4A2B7059B2013332F81110ED
:1006B0001D4A1068084410601C4A1068014411600B
:1006C00042F6A37142F80C1C22E0174A237011680D
:1006D000C1F56A3303F5C073B3F5966F05DB4EF6CB
:1006E00060208342A8BF034601E04FF4966319449B
:1006F00011600E49086803440B600D4B42F6A3716C
:10070000196012680B4B9A4203D9074A0023136001
:10071000237070BDF488FF1F6487FF1F1289FF1FBD
:10072000F688FF1FFA88FF1FF088FF1F0C60034048
:10073000006003407FA90300074B10B50446036027
:10074000806B08B108F082F80023A363204600F014
:10075000D1F8204610BD00BF70C7000010B5044698
:10076000FFF7EAFF204608F071F8204610BD30B5CB
:1007700085B0044600F0ECF860B366238DF80430D1
:100780000B2300258DF80530204641F20103ADF81A
:100790000630ADF8085000F0D9F8216B8DF80A004A
:1007A000E06B0AF0E1FF616B0BF09CF9CDF80B00F8
:1007B0009DF805002B462A46834201A904DAC95C4C
:1007C0000A4492B20133F7E7E069ADF80820036804
:1007D0001B69984705B030BD70B5C56A04460E4622
:1007E000084629460BF086FA30B9A56A30462946F4
:1007F0000BF062FA00B93546616B28460BF0BEF883
:10080000216B0AF0B3FFE0630BF07EFA203401465F
:100810002046BDE87040FFF7F1BE10B50446203019
:10082000FFF70CFF38B1A36B2BB120461968BDE868
:100830001040FFF7D1BF10BDF7B50D9D00950446E0
:100840001F46254609230C9E00F066F81C4B45F810
:10085000203B2846FFF72EFE012F0CBF0323042365
:100860002364089BE362099BA3620A9B23630B9B9F
:100870006363304613490BF015FA20B9042007F0E2
:10088000E1FF066000E000200023A063E363284648
:100890004FF4FA63216C4FF47A72FFF72BFEA36BCF
:1008A000204613B1FFF7B9FF02E0E16BFFF794FFB9
:1008B0002046012100F048F8204603B0F0BD00BFFB
:1008C00070C7000000C07944D1F80710FFF784BF5B
:1008D00038B500F1200405462046FFF761FE2846A2
:1008E000002100F031F82046FFF7A8FE80F001005B
:1008F000C0B238BD014B0360704700BF90C7000015
:100900007047704710B5034B0360044607F09EFF25
:10091000204610BD90C7000038B504460025257359
:100920002371049BA36006480B682060E1610846C0
:1009300065612261DB69214698472576204638BDEE
:1009400090C70000007970470173704700697047D5
:10095000F8B5057E0446C5B10D4B1E684369806835
:10096000F71A0AF0B3FF0AF095FB02460B46002087
:1009700008490AF00DFD0022074B0AF0DFFB0AF0E0
:1009800077FE87428CBF666100252846F8BD00BF10
:10099000CC8BFF1F0000F03F00408F400176704776
:1009A000014B0360704700BFB0C7000010B5034B98
:1009B0000360044607F04AFF204610BDB0C70000A0
:1009C00038B50A4D83682A68D31A8B4204460BD97E
:1009D0000D2006F0BBFDD0F1010138BF00210D2034
:1009E00006F094FD2B68A36038BD00BFCC8BFF1FC1
:1009F0000171704710B5064B036000230446037174
:100A0000836001210D2006F0AFFD204610BD00BF20
:100A1000B0C700000079704703790BB1642101E091
:100A20004FF47A71FFF7CCBF704705F0F7BF08B5F8
:100A30000368C9B21B68984708BDFFFF38B5064870
:100A40000C461546FE21FFF7F2FF20462946BDE879
:100A5000384007F075BA00BF848DFF1F10B50C46F3
:100A60000448FE21FFF7E3FF20466178BDE810400F
:100A700007F066BA848DFF1F70B50E4C0D462046F8
:100A8000FD211646FFF7D3FF28460BF0B3FA236883
:100A9000C1B21B682046984728460BF0ABFA236882
:100AA000024629465B682046984720463146FFF7B4
:100AB000BEFF70BD848DFF1F10B500231A468B4208
:100AC00004DAC45C224492B20133F8E7104610BD48
:100AD000124B37B51D68836C40F6B832EB1A93425F
:100AE000044619D90123072141F201028DF8003093
:100AF0008DF80630684600238DF80110ADF802200D
:100B0000ADF80430FFF7D8FF2368ADF804001B6987
:100B1000204669469847A56403B030BDCC8BFF1FC3
:100B200070B504460025FFF765FF0F4B2360E560B5
:100B300025616561A561E56125626562A562E56281
:100B400025636563A5632565E563656425641820F1
:100B500007F078FE064600F0B7FD2665A56484F828
:100B60004C50204670BD00BFE0C70000F8B5C36818
:100B70000669C269F61A8369D31A0446B6109F1033
:100B80000025BD42A36905DA53F82500FFF7A0FE52
:100B90000135F6E7E361636AA3620025B542E368C5
:100BA00007DA53F8250010B103685B6998470135EF
:100BB000F4E72361002384F84C306364E363236427
:100BC000F8BDFFFF114B10B504460360006D10B176
:100BD00003685B689847002320462365FFF7C6FF3C
:100BE000206B08B107F032FE606A08B107F02EFEF4
:100BF000A06908B107F02AFEE06808B107F026FEF8
:100C00002046FFF7CDFE204610BD00BFE0C7000024
:100C100010B50446FFF7D6FF204607F017FE204622
:100C200010BD0269C368D31A70B505469E10002432
:100C3000B44207DAEB6853F8240003681B6898474E
:100C40000134F5E770BD38B500230C460B714B71CC
:100C5000084649781546FFF72FFF2B1AA080584207
:100C6000584138BD826A436AD31A70B505469E1052
:100C70000024B44207DA6B6A53F8240003689B69C6
:100C800098470134F5E770BD13B569238DF800303E
:100C900008238DF8013041F20103ADF802300B78E2
:100CA000672B08BF0B898DF806304B788DF807301D
:100CB0000446002368460821ADF80430FFF7FCFE27
:100CC0002368ADF804001B6920466946984702B0C6
:100CD00010BDFFFF7FB50446FFF79CFE06460028C7
:100CE00037D1206D00F012FD002832D0206D00F0C9
:100CF000F9FC0378652B054605D120462946AA88CC
:100D0000FFF7A1FF18B9206D00F0F2FC21E02046AA
:100D1000A979FFF76DFE20462946FFF7B5FF762338
:100D20008DF8043041F201030A21ADF8063001A824
:100D3000094B8DF80510CDF80A30ADF80860FFF7C3
:100D4000BBFE2368ADF808001B69204601A998473F
:100D5000D9E704B070BD00BF0000A0402DE9F04706
:100D6000CB889CB005460C460E2B00F2EF81DFE8E5
:100D700013F028018F01B8019C01ED01CC01460060
:100D8000C301AE010F0079017C01B400DF014C0109
:100D9000C26983690026D31A9F103046BE420FDA1B
:100DA000002840F0CF81AB69B4F8088053F82600E2
:100DB000FFF7CCFDB8EB0001484248410136EDE7B2
:100DC000002840F0BF81442007F03CFDD4F8161005
:100DD0000091D4F812100191D4F81A100291D4F8AD
:100DE0001E100391D4F822100491D4F80A10059132
:100DF0002289D4F80E302946FFF71EFDA2E1826A4F
:100E0000436A0026D31A9F103046BE420FDA0028EC
:100E100040F098816B6AB4F8088053F82600FFF719
:100E200095FDB8EB0002504250410136EDE7002835
:100E300040F08881B02007F005FD8046D4F812000C
:100E40002789D4F80A600AF025F9CDE90001D4F821
:100E50000E000AF0FDF8D4F816300493D4F81A30D6
:100E60000593D4F83A300693CDE90201D4F83E3028
:100E7000D4F81E0007930AF0EBF8CDE90801D4F886
:100E800022000AF007F9CDE90A01D4F826000AF099
:100E900001F9CDE90C01D4F82A000AF0FBF8D4F8E6
:100EA0002E301093D4F832301193D4F83630129398
:100EB000D4F842301393D4F846301493D4F84A301F
:100EC0001593D4F84E301693CDE90E013A464046BC
:100ED0002946334601F088F934E1826A436A0026E4
:100EE000D31A9F103046BE420FDA002840F02A8104
:100EF0006B6AB4F8088053F82600FFF727FDB8EBBB
:100F00000003584258410136EDE7002840F01A81AD
:100F1000B02007F097FC8046D4F812002789D4F857
:100F20000A600AF0B7F8CDE90001D4F80E000AF023
:100F30008FF8D4F816300493D4F81A300593D4F807
:100F40003A300693CDE90201D4F83E30D4F81E00C1
:100F500007930AF07DF8CDE90801D4F822000AF0E1
:100F600099F8CDE90A01D4F826000AF093F8CDE902
:100F70000C01D4F82A000AF08DF8D4F82E30109322
:100F8000D4F832301193D4F836301293D4F842307A
:100F90001393D4F846301493D4F84A301593D4F808
:100FA0004E301693D4F85230CDE90E011793D4F891
:100FB00056301893404629463A46334601F006FA21
:100FC000C0E0C36B002B40F0BD80436AD1F816200F
:100FD00053F82280D1F81A204C2053F8227007F0E1
:100FE00031FCD4F80E100091D4F812100191D4F80D
:100FF0001E1004912289D4F80A30CDF80880039796
:101000002946064601F072FD2AE0436AD1F816200F
:1010100053F822A0D1F81A2053F82290D1F81E20BC
:1010200053F82280D1F822205C2053F8227007F078
:1010300009FCD4F80E100091D4F812100191D4F8E4
:10104000261006912289D4F80A30CDF808A0CDF8F0
:101050000C90CDF8108005972946064605F038F823
:10106000EE636FE01CAE0A2301E01CAE0B2306F812
:10107000013D242007F0E6FBD4F80A300093D4F8B1
:101080000E30019322892946334601F0D3FD59E001
:10109000242007F0D7FBD4F80E1000912289D4F851
:1010A0000A30294601F030FE4CE04FF48E7007F014
:1010B000C9FB618A0091217D01910646D4F80A207E
:1010C000D4F80E30294602F00FF86E643AE024207E
:1010D00007F0B8FB29462289D4F80E3003F08CFFC4
:1010E00030E0FC2007F0AEFB2946D4F80A20D4F803
:1010F0000E3004F00DF825E0AC2007F0A3FB2946E4
:10110000D4F80A2004F0D6FD1CE0382007F09AFB42
:10111000D4F812100091D4F816100191D4F81A10D6
:1011200002912289D4F80E30294604F063FE09E0CA
:10113000242007F087FB2946D4F80A20D4F80E3083
:1011400004F094FE28462146FFF79EFD1CB0BDE842
:10115000F087FFFF2DE9F041044688B0FFF75CFC03
:10116000206D00F04CFB2046FFF754FC28B9206DA1
:1011700000F093FB002800F04581206D00F0C6FAD6
:10118000002800F02F81206D00F0ACFA05462946BA
:101190002046AA88FFF757FD002800F020812B7811
:1011A0000F2B00F0928016D8072B36D00AD8022BCE
:1011B00040D0062B40F01381A26A636AD31A9F10B5
:1011C000002658E00B2B61D00C2B62D0082B40F08E
:1011D0000681E06B5BE0512B50D00BD8132B00F055
:1011E000BF80142B40F0FB802769E368FF1ABF1013
:1011F0000026E0E0672B18D0752B7CD0652B40F0E3
:10120000EE802046A979FFF7F3FB2046FFF702FCAA
:1012100030B92046FFF7AAFC02E0AB7984F84C30E5
:1012200020462946FFF730FDD9E020462946FFF742
:1012300095FDD4E0E269A369D31A9F100026BE424F
:1012400080F2CD80A36953F82600FFF77FFBAB79CE
:1012500098424FEA860801D1A3692FE00136EEE7F4
:10126000636A53F82600FFF771FBAB7998424FEAA7
:10127000860830D00136BE42F2DBB0E0E06B0028D9
:1012800000F0AD80294601F089FAA8E0606CB8B999
:10129000A5E0626B236BD31A9F10002600E0013695
:1012A000BE4280F29C80236B53F82600FFF74EFB72
:1012B000AB7998424FEA8608F1D1236B53F80800C6
:1012C000036829465B68984789E0A26A636AD31A73
:1012D0009F1000260CE0636AF0E7636A53F826006B
:1012E000FFF734FBAB7998424FEA8608F3D001361A
:1012F000BE42F2DB73E011238DF8043041F20103AA
:101300001A25ADF80630E6200023ADF808308DF838
:101310000550FFF78AFBCDF80A00E720FFF785FBB1
:10132000CDF80E00E820FFF780FBCDF81200E92091
:10133000FFF77BFBCDF81600EA20FFF776FB294686
:10134000CDF81A0001A8FFF7B7FB2946ADF8080051
:1013500001A806F0F5FD0D212C48FFF768FB3EE0E3
:101360002769E368FF1ABF100026BE4237DAE36838
:1013700053F82600FFF7E6FAAB7983424FEA860876
:101380003ED1E36853F82600FFF7E0FAEB79984284
:1013900036D1E368297A53F80800FFF7FFFA1EE018
:1013A000E36853F82600FFF7CDFAEB7983424FEA62
:1013B000860803D00136BE42F2DB10E0E36853F842
:1013C0002600FFF7C3FAAB799842F3D1E368297A94
:1013D00053F80800D5F8092003689B689847206DEA
:1013E00000F086F994F84C3063B12046FFF719FC01
:1013F0002046FFF737FC206C20B103F0B3FE01E07C
:101400000136B2E708B0BDE8F08100BF848DFF1F50
:10141000F8B590E84800F61AB61014BF3346012319
:101420009B1904460F466FF0404603D2B34238BFC3
:101430001E4626B1B00007F005FA054600E0354625
:1014400062682368D31A9B1005EB83013A6809B1DF
:1014500045F8232094E882007F1ABF104FEA8707DF
:1014600003D028463A460AF0CBFC20682F440437C4
:1014700008B107F0EBF984E8A00005EB8605A5604C
:10148000F8BDF8B590E84800F61AB61014BF334618
:1014900001239B1904460F466FF0404603D2B34226
:1014A00038BF1E4626B1B00007F0CCF9054600E073
:1014B000354662682368D31A9B1005EB83013A68AE
:1014C00009B145F8232094E882007F1ABF104FEA43
:1014D000870703D028463A460AF092FC20682F443A
:1014E000043708B107F0B2F984E8A00005EB8605DF
:1014F000A560F8BDF8B590E84800F61AB61014BF1C
:10150000334601239B1904460F466FF0404603D231
:10151000B34238BF1E4626B1B00007F093F9054626
:1015200000E0354662682368D31A9B1005EB8301FF
:101530003A6809B145F8232094E882007F1ABF1069
:101540004FEA870703D028463A460AF059FC20683C
:101550002F44043708B107F079F984E8A00005EBBF
:101560008605A560F8BD38B542688468A242034686
:1015700006D0096802B111605A6804325A6038BD59
:10158000FFF7B8FF38BDF8B590E84800F61AB61076
:1015900014BF334601239B1904460F466FF04046A3
:1015A00003D2B34238BF1E4626B1B00007F04AF955
:1015B000054600E0354662682368D31A9B1005EBA8
:1015C00083013A6809B145F8232094E882007F1A24
:1015D000BF104FEA870703D028463A460AF010FCAE
:1015E00020682F44043708B107F030F984E8A000E0
:1015F00005EB8605A560F8BD1FB503694269019139
:101600009342044605D003B1196023690433236172
:1016100003E00C3001A9FFF7FBFE0198FFF792F9F8
:101620000238072834D8DFE800F031333316163398
:101630001F04E369216A019A03928B4205D003B12A
:101640001A60E3690433E36122E004F1180003A99E
:10165000FFF717FF1CE004A9019B41F8043D04F1CA
:101660002400FFF780FF13E0636BA16B019A0392E4
:101670008B4205D003B11A60636B0433636307E0E8
:1016800004F1300003A9FFF77EFF01E0019B236412
:1016900004B010BD05F08CB9054B10B504460360CD
:1016A000006908B107F0D4F800232361204610BD7B
:1016B00010C8000010B50446FFF7EEFF204607F003
:1016C000C5F8204610BDFFFF054A026000220271E6
:1016D0000261C260826042718271C271704700BF54
:1016E00010C8000003790BB10069704718467047B5
:1016F00010B50446006908B107F0AAF80023236179
:101700002371A371E371E360A36010BD007970479A
:101710000B78132B35D00FD8082B23D005D8062BE8
:1017200028D023D8022B25D02DE00C2B20D00F2B36
:1017300020D00B2B27D119E0652B17D007D8512BC0
:1017400012D0642B0ED0142B1DD10D231CE06C2B5A
:1017500008D0752B10D0672B15D10E23C360012341
:10176000437112E00E230FE012230DE007230BE07C
:10177000082309E00B2307E00623C3600123C3719C
:1017800003E0092300E00023C360C068704770B520
:101790000446C0680E4607F057F800230546B342DA
:1017A000206903DAC25CEA540133F8E708B107F0B4
:1017B0004FF8256170BDCB880E2B1ED8DFE803F0F3
:1017C0000E1919101D170A12190819190C191B00E6
:1017D000262311E052230FE05A230DE022230BE0D1
:1017E000152309E00E23C3600123037105E01E23C6
:1017F00002E0122300E02A23C360C0687047F8B5F6
:10180000044606F08FFB002846D02379002B43D1F5
:10181000A379002B39D02579002D35D106F082FB34
:101820000028F8D0E368002B12DC06F039FB04F145
:1018300014012075A5602046FFF76AFF07F004F841
:10184000A368227D2061C254A3680133A360E2E74C
:10185000A6689E42DFDA731CA360276906F020FBAE
:10186000B855A668E3689E42D5D1637913B90123C0
:101870002371D0E721692046FFF79DFF20463146BE
:10188000FFF785FF6571C6E7F8BD06F009FBFE2886
:1018900002D10123A371F8BDF8BDC0797047FFFFE5
:1018A00010B5034B03600446FFF724F8204610BD33
:1018B00020C8000010B50446FFF7F2FF204606F0EE
:1018C000C5FF204610BDFFFF37B5069D00950446B5
:1018D000FFF722F8024B2360204603B030BD00BF63
:1018E00020C800000C4B10B504460360806A08B1A4
:1018F00006F0ACFF206A10B103689B689847606AE5
:1019000008B106F0A3FF002363622362A3622046AE
:10191000FFF7C6FF204610BD48C8000010B50446BA
:10192000FFF7E0FF204606F091FF204610BD022998
:1019300038B50446104609D003290DD0012910D12D
:1019400009F0A8FBA56AC5E90A010AE009F0A2FBB3
:10195000A56AC5E90C0104E009F09CFBA56AC5E98C
:101960000E01A06ABDE8384000F042BE10B5036821
:10197000017A1C7843681A78437A1A40837A0C42B9
:1019800003F0030318BF43F004030AB143F0080354
:101990009A10013B82720D2B14D8DFE803F0070A7E
:1019A0000D0A1310070710130A0D0A07C368013345
:1019B00007E0C368013B04E0C368023301E0C36889
:1019C000023BC36010BDFFFF08B5034BD3F8840092
:1019D000FFF7CCFF08BD00BF2089FF1F08B5034BF0
:1019E000D3F88000FFF7C2FF08BD00BF2089FF1FAA
:1019F00008B5024BD86FFFF7B9FF08BD2089FF1F5C
:101A000008B5024B986FFFF7B1FF08BD2089FF1F93
:101A100008B5024B586FFFF7A9FF08BD2089FF1FCB
:101A200008B5024B186FFFF7A1FF08BD2089FF1F03
:101A300008B5024BD86EFFF799FF08BD2089FF1F3C
:101A400008B5024B986EFFF791FF08BD2089FF1F74
:101A500008B5024B586EFFF789FF08BD2089FF1FAC
:101A600008B5024B186EFFF781FF08BD2089FF1FE4
:101A700008B5024BD86DFFF779FF08BD2089FF1F1D
:101A800008B5024B986DFFF771FF08BD2089FF1F55
:101A900008B5024B586DFFF769FF08BD2089FF1F8D
:101AA00008B5024B186DFFF761FF08BD2089FF1FC5
:101AB00008B5024BD86CFFF759FF08BD2089FF1FFE
:101AC00008B5024B986CFFF751FF08BD2089FF1F36
:101AD00008B5024B586CFFF749FF08BD2089FF1F6E
:101AE00008B5024B186CFFF741FF08BD2089FF1FA6
:101AF00008B5024BD86BFFF739FF08BD2089FF1FDF
:101B000008B5024B986BFFF731FF08BD2089FF1F16
:101B100008B5024B586BFFF729FF08BD2089FF1F4E
:101B200008B5024B186BFFF721FF08BD2089FF1F86
:101B300008B5024BD86AFFF719FF08BD2089FF1FBF
:101B400008B5024B986AFFF711FF08BD2089FF1FF7
:101B500008B5024B586AFFF709FF08BD2089FF1F2F
:101B600008B5024B186AFFF701FF08BD2089FF1F67
:101B700008B5024BD869FFF7F9FE08BD2089FF1FA1
:101B800008B5024B9869FFF7F1FE08BD2089FF1FD9
:101B900008B5024B5869FFF7E9FE08BD2089FF1F11
:101BA00008B5024B1869FFF7E1FE08BD2089FF1F49
:101BB00008B5024BD868FFF7D9FE08BD2089FF1F82
:101BC00008B5024B9868FFF7D1FE08BD2089FF1FBA
:101BD00008B5024B5868FFF7C9FE08BD2089FF1FF2
:101BE00008B5024B1868FFF7C1FE08BD2089FF1F2A
:101BF00038B5446A237C012B054604D872B62046CA
:101C0000FFF7B4FE00E072B6E36862B6D5F8A8004C
:101C1000584309F05FFE38BD08B5212800F2D58091
:101C2000DFE810F0220027002C00310036003C00D5
:101C3000410046004B00500055005A005F00640010
:101C400069006E00730078007D00820087008C00C0
:101C5000910096009B00A000A500AA00AF00B40070
:101C6000B900BE00C300CD00594B0020196059498E
:101C7000A0E0574B0120596057499BE0544B02208C
:101C80009960564996E0524B0320D960544991E03F
:101C90004F4B04201961024652498CE04C4B052001
:101CA0005961514986E04A4B062099614F4981E0CC
:101CB000474B0720D9614E497CE0454B082019620B
:101CC0004C4977E0424B092059624B4972E0404B46
:101CD0000A20996249496DE03D4B0B20D962484981
:101CE00068E03B4B0C201963464963E0384B0D20FC
:101CF000596345495EE0364B0E209963434959E0EC
:101D0000334B0F20D963424954E0314B1020196402
:101D100040494FE02E4B112059643F494AE02C4B7B
:101D2000122099643D4945E0294B1320D9643C4970
:101D300040E0274B142019653A493BE0244B15201D
:101D40005965394936E0224B16209965374931E00B
:101D50001F4B1720D96536492CE01D4B18201966FA
:101D6000344927E01A4B19205966334922E0184BB1
:101D70001A20996631491DE0154B1B20D966304960
:101D800018E0134B1C2019672E4913E0104B1D203F
:101D900059672D490EE00E4B1E2099672B4909E02B
:101DA0000B4B1F20D9672A4904E0094BC3F8801068
:101DB00028492020042205F03BFB012008BD044BEC
:101DC0002120C3F884102449F4E7002008BD00BF97
:101DD0002089FF1FE11B0000D11B0000C11B000078
:101DE000B11B0000A11B0000911B0000811B000023
:101DF000711B0000611B0000511B0000411B000013
:101E0000311B0000211B0000111B0000011B000002
:101E1000F11A0000E11A0000D11A0000C11A0000F6
:101E2000B11A0000A11A0000911A0000811A0000E6
:101E3000711A0000611A0000511A0000411A0000D6
:101E4000311A0000211A0000111A0000011A0000C6
:101E5000F1190000DD190000C9190000FFFFFFFFA4
:101E60002DE9FF47424B8246186809F0F1F8DAE99C
:101E70001423CDE9000108F0ADFFDAE9242306467A
:101E80000F4600203B4909F083FA00223A4B09F043
:101E900055F902460B463046394609F0D5FB002875
:101EA0005DD0DAF800305046DB69984709F0F2F867
:101EB000DAE91E23CDE9020108F08CFF02460B4649
:101EC00008F08AFF28A3D3E9002309F037F98046F8
:101ED000DAF89800894609F0CBF802460B464046EE
:101EE000494609F055FA002280468946304639466F
:101EF000214B09F04DFA02460B464046494609F08F
:101F000047FADAE9224502460B462046294609F0FF
:101F100015F922462B4606460F460020154908F0C3
:101F200059FF0446DAF848000D4609F0B3F80246B6
:101F30000B462046294609F001F902460B46304679
:101F4000394608F049FF09F0BBFBDDE90223CAE985
:101F50001E23DDE90023CAE91423CAF8480004B0AF
:101F6000BDE8F087AFF30080182D4454FB210940F1
:101F7000CC8BFF1F0000F03F00408F40AFF300808C
:101F800008B5006A03681B68984708BD2DE9F0474B
:101F90001F4690F83030DFF86C90804616465BB9EB
:101FA000D9F80000D8F8284009F052F80022144B64
:101FB00009F0EEF9C4E90401D8F860A0012388F81B
:101FC0003030504609F066F832463B4604460D462E
:101FD00009F026FB60B90AF1004009F05BF83246CF
:101FE0003B4604460D4609F039FB08B934463D46E8
:101FF000D9F80030C8F83430C8E92045BDE8F0878A
:1020000000408F40CC8BFF1F10B50446D1F807006D
:1020100009F040F802460B462046BDE81040FFF7A5
:10202000B5BFFFFF114B1A6890F8303010B5044669
:10203000D3B1436BD21A836B9A4215D90022002385
:102040000021C0E91A2380F830100020A064206A23
:10205000C4E91C23C4E9202303681B689847A06ACD
:10206000BDE8104000F0C4BA10BD00BFCC8BFF1F0C
:10207000036870B5DB6906469847014609F076FBB0
:1020800009F008F80AA3D3E9002309F057F8044639
:10209000D6F898000D4608F0EBFF02460B462046A6
:1020A000294609F075F909F00BFB306470BD00BFDB
:1020B000182D4454FB210940224B2DE9D0430446FE
:1020C000186808F0C5FFD4E916238046894608F051
:1020D00081FED4E9282306460F4600201A4909F05C
:1020E00057F90022194B09F029F802460B463046F1
:1020F000394609F0B3FA18B3E36B012B02D1A06C97
:10210000606403E02046FFF7B3FF206C08F0C2FFD5
:10211000C4E91A01A06A00F071FAE06A08F0A8FFA9
:10212000D4E91C2309F00AF8C4E91689C4E91C01A2
:1021300009F09EFA01462046BDE8D043FFF720BFD4
:10214000BDE8D083CC8BFF1F0000F03F00408F40E4
:1021500010B50446FFF784FE94F8303023B12046D2
:10216000BDE81040FFF7A8BF10BD10B50446FFF74B
:1021700059FF2046BDE81040FFF7EABF1FB50446EF
:10218000FEF7E6FB68B3A36C63646A238DF8003046
:102190000F238DF80130204641F20103ADF80230E3
:1021A000FEF7D4FB8DF806002046FFF761FF636C55
:1021B000CDF80B309DF80110CDF807000023ADF8E5
:1021C00004301A468B4205DA1DF80300024492B22D
:1021D0000133F7E7E069ADF80420036869461B693D
:1021E000984704B010BDFFFF2DE9F04389B00746C2
:1021F00000930623DDF85090159EFFF765FB604BBA
:102200003B60239BFB63002387F83030229BBB633A
:10221000DDE91823C7E92823DDE91023C7E92223D4
:10222000DDE91223C7E92423219AC7F89820249ACC
:10223000FA6240F2E7320024002500239145C7E905
:102240001A457B643B64C7E91C45C7E91E45C7E9DD
:1022500020454FF00C00984609D106F0F3FA3146BC
:102260000446484D04F01EF93C6200240AE006F0E2
:10227000E9FA49460446324604F0D6F83C623EA5E7
:10228000D5E90045404E33687B63306808F0E0FED6
:10229000C7E91401306808F0DBFEC7F84880C7E9D9
:1022A0001601582006F0CEFADDE91A23CDE9002305
:1022B000DDE91C23CDE90223DDE91E23CDE904235A
:1022C000269B069307F1680207F18003064607F193
:1022D000700100F059F9BE621420C6E9064506F007
:1022E000B1FA9DF858609DF85C50044602213046D2
:1022F00005F03AF92846022105F036F9234A52F84A
:10230000363003F5007121600121217252F8352029
:10231000617202F500700021E16060604FF47A4163
:1023200001397FF4FDAF93F8003292F8002203F0F8
:102330000103D20744BF43F00203DBB2A37221467C
:102340003046FFF769FC214620742846FFF764FCFD
:10235000237C1844209B20743B66259B7C62384676
:10236000C7F8A8300A21FEF7EFFA384609B0BDE8F1
:10237000F08300BFAFF300800000000000C05F40AA
:1023800048C8000000407F40CC8BFF1FA8CB000056
:10239000084B10B504460360D0F8AC0008B106F055
:1023A00055FA0023C4F8AC302046FFF79BFA2046CC
:1023B00010BD00BF70C8000010B50446FFF7E8FF6D
:1023C000204606F043FA204610BDFFFFF0B599B055
:1023D000DDE91E45CDE90045DDE92045CDE90245B1
:1023E000229C0494239C0594249C0694259C079489
:1023F000DDE92645CDE90845DDE92845CDE90A4571
:10240000DDE92A45CDE90C45DDE92C45CDE90E4550
:102410002E9C10942F9C1194309C1294319C1394F8
:10242000329C1494339C15940646349C1694FFF702
:10243000DBFE224B3360142006F004FA9DF8D470C2
:102440009DF8D85004460221384605F08DF82846FC
:10245000022105F089F81A4A52F8373003F5007165
:1024600021600121217252F83520617202F500705D
:102470000021E16060604FF47A4101397FF4FDAFE3
:1024800093F8003292F8002203F00103D20744BF10
:1024900043F00203DBB2A37221463846FFF7BCFBD0
:1024A000214620742846FFF7B7FB237C184420748C
:1024B0003046C6F8AC4019B0F0BD00BF70C800008F
:1024C000A8CB000070B50546FFF792FBD5F8AC40ED
:1024D000237C012B064604D872B62046FFF746FA45
:1024E00000E072B6E36862B6D5F8A800584309F078
:1024F000F1F90146304609F039F94FF07C5109F005
:102500003DFA70BD014A017042607047508DFF1F57
:1025100070B50446406803680E461B68217815466E
:1025200098476068036831461B689847606803688D
:1025300029461B6898476068227803683544A918C3
:102540001B6801F07F01984770BD7E2AA8BF7E22DC
:102550006FF07D039A42B8BF1A46002AB8BF5242B4
:10256000D2B2FFF7D5BF4B1E012B10B509D80229F7
:1025700014BF0021042101EBD271BDE81040FFF728
:10258000E4BF10BDFFFFFFFF10B580E80E00DDE9DE
:102590000223C0E90A23DDE90423C0E90C23DDE9B5
:1025A0000623C0E90E23104B0446186808F050FDBE
:1025B00000220E4B08F0ECFE00220023C4E9122397
:1025C000C4E9102306A3D3E90023C4E90401C4E944
:1025D0000623089808F05EFDC4E91401204610BDEA
:1025E0000000000000C05F40CC8BFF1F00408F4008
:1025F00000220023C0E910237047FFFF2DE9F04FB0
:102600004F4B87B08046186808F022FD00224D4BE2
:1026100008F0BEFED8E90423CDE9040108F0DAFB96
:10262000D8F80820D8F80430CDE90001D2E900013B
:10263000D3E9002308F0CEFBD8E9062382468B4677
:10264000D8E9140108F07AFDDDE9002306460F46BB
:102650005046594608F072FDD8E9102308F0BCFB3B
:1026600032463B46CDE9020108F0F8FF10B1C8E957
:10267000106710E007F10045DDE9020132462B4604
:10268000344608F0CDFF20B9DDE90223C8E9102364
:1026900001E0C8E91045D8E90A235046594608F038
:1026A0004DFDD8E9102304460D46D8E90C0108F089
:1026B00045FD02460B462046294608F08DFBD8E929
:1026C000122304460D465046594608F083FBDDE9C7
:1026D000002308F05DFED8E90E2308F02FFD024626
:1026E0000B462046294608F077FBD8F800900446B0
:1026F0000D46C9E90045D8E9066732463B4608F071
:10270000ADFF08B134463D46C9E90045D8F81C3054
:10271000D8F8186003F100472046294632463B4668
:1027200008F07EFF08B134463D46DDE90423C9E9DF
:102730000045C8E912ABC8E9042307B0BDE8F08F33
:10274000CC8BFF1F00408F4010B5034B0360044645
:10275000FEF7D0F8204610BD98C8000010B504461A
:10276000FFF7F2FF204606F071F8204610BDFFFF8C
:1027700037B5069D1B7800950446FEF7CDF8064B4D
:102780002360079B63639DF8243084F82030089B06
:102790002363204603B030BD98C8000090F8203075
:1027A00043B1D1F806308362D1F80A30C362D1F860
:1027B0000E304362704713B5D1F80630019302AB77
:1027C000D1F80A2043F8082D0268D46993E806007E
:1027D000A04702B010BDFFFF10B5034B03600446D5
:1027E000FFF7B2FF204610BDC0C8000010B5044678
:1027F000FFF7F2FF204606F029F8204610BD2DE92C
:10280000F74302AB03E90600476B009E019D0446B7
:102810003946304609F066F9216B8046284609F0B2
:10282000ADF839468146384608F0A0FF01464846D3
:1028300009F058F90146404608F098FF08F02AFCD4
:1028400002460B46E06BFFF7A1FB676B304639464B
:1028500009F048F9216B0646284609F08FF83946F9
:102860000546384608F082FF0146284609F03AF945
:102870000146304608F078FF08F00CFC0246A06BD9
:102880000B4603B0BDE8F043FFF780BB10B504462C
:10289000C06BFFF7C7FBE06BFFF75AFCA06BFFF7BD
:1028A000C1FBA06BBDE81040FFF752BCFFFFFFFF6C
:1028B000F8B51046194614A3D3E9002308F08CFAA2
:1028C00013A3D3E9002306460F4606F0C3F90022FE
:1028D00004460D4630463946002308F0A1FE40B1BB
:1028E000204629460AA3D3E9002308F075FA0446D6
:1028F0000D462046294604A3D3E9002308F06AFACE
:10290000F8BD00BFAFF30080182D4454FB210940EF
:10291000182D4454FB21194038B50446C06BFFF70D
:10292000A7FB616C054608F01FFF616B09F026F8F4
:10293000656438BD38B50446806BFFF799FB216CA0
:10294000054608F011FF616B09F018F8256438BDE1
:10295000002170B50646016041601046194600220C
:10296000094B08F0EBFB04460D4606F0D3F808F0DF
:10297000A7FE2946B060204606F092F808F0A0FEB7
:10298000F060304670BD00BF0000E03F2DE9F04F21
:1029900091B08246FDF7DCFF002800F0A38050468E
:1029A000FFF7BAFF04465046FFF7C4FF0546294625
:1029B000204608F0DBFE4FF07C5108F0DFFF29468F
:1029C0008346204608F0D0FEDAF8301009F08AF885
:1029D000DAF8481008F0D2FFDAF8241008F0C6FE42
:1029E000CAF8240008F056FB02460B465046FFF793
:1029F0005FFF08F065FE8146CAF82400584608F0DB
:102A000049FB064648460F4608F044FB04460D467F
:102A100006F046F80246DAF828000192009108F024
:102A200039FB019A009BCDE902013046394608F096
:102A300085FB0B460246DDE9020108F0CDF908F0FE
:102A40003FFE29468046CAF82800204606F062F874
:102A50000246DAF82C000192009108F01BFB019A63
:102A6000009BCDE902013046394608F067FB02467B
:102A70000B46DDE9020108F0AFF908F021FE22461D
:102A80000646CAF82C002B4604A85146FFF760FF03
:102A90006C238DF820301E23069A8DF8213041F2E8
:102AA0000103ADF82230CDF832200023079ACDF88B
:102AB0003620ADF82430CDF82680CDF82A60CDF848
:102AC0002E90CDF83AB01A4608A9505C0132034462
:102AD0001E2A9BB2F8D1DAF81C00ADF82430036846
:102AE0001B69984711B0BDE8F08FFFFF70B586B045
:102AF00006AD002605F8016D00930A9B01930B9B20
:102B000002930123044603932B46FFF731FE084B43
:102B100023600C9BA3630D9BE36300232364636426
:102B20006362A362E3620E9BA364204606B070BD9D
:102B3000C0C800007047FFFF10B5034B0360044698
:102B4000FDF7D8FE204610BDE8C8000010B50446C9
:102B5000FFF7F2FF204605F079FE204610BDFFFF8B
:102B600038B5054690F8200004F07EF80446284663
:102B7000FDF7E8FE0A28204606D108F0ABFE08F073
:102B800089FA0022104B06E008F0A4FE08F082FA51
:102B900009A3D3E9002308F0D1FA09A3D3E900235C
:102BA00008F0F6FB0022094B08F0F2FB08F088FD64
:102BB00038BD00BFAFF30080666666666666C940D2
:102BC00000000000E0FFEF400000B44000408F40F4
:102BD00030B585B00446FDF7BBFE40B36D238DF8DC
:102BE00004300B2300258DF80530204641F2010307
:102BF000ADF80630ADF80850FDF7A8FE8DF80A00D4
:102C00002046FFF7ADFFCDF80B009DF805002B46E1
:102C10002A46834201A904DAC95C0A4492B201330C
:102C2000F7E7E069ADF8082003681B69984705B02D
:102C300030BDFFFF73B5079D069E1B7800960446C6
:102C4000FDF76AFE0A4B2360012D01D10E2303E03C
:102C5000022D0CBF0F231023236294F820000021C3
:102C600004F082FC102003F0D5FF204602B070BDB6
:102C7000E8C800007047FFFF10B5034B036004462F
:102C8000FDF738FE204610BD08C9000010B5044607
:102C9000FFF7F2FF204605F0D9FD204610BD37B5FD
:102CA0000446FDF755FE68B36E238DF80030082307
:102CB00000258DF80130204641F20103ADF80230C5
:102CC000ADF80450FDF742FE8DF8060094F82000A0
:102CD00004F03CFC431B584258419DF801108DF80C
:102CE00007002B462A468B4205DA1DF803000244F2
:102CF00092B20133F7E7E069ADF804200368694652
:102D00001B69984703B030BD13B5044600930123F7
:102D1000FDF702FE094B2360049B012B0CBF0B2324
:102D20000C23236294F82000022104F01DFC1020E3
:102D300003F070FF204602B010BD00BF08C90000BC
:102D4000094B10B504460360806E10B103685B68E0
:102D500098470023A36604F16C0000F02CFD204688
:102D6000FDF7C8FD204610BD28C9000010B5044677
:102D7000FFF7E6FF204605F069FD204610BDFFFF86
:102D800038B50446C8300D4601F00AFF0368A06656
:102D90001B699847002809DDA36EE0691A797AB9A2
:102DA0005B796BB103680E495B690DE0002384F821
:102DB0000C3120466FF00101BDE83840FDF7C4BD7D
:102DC000036808495B6900229847012184F8C050D4
:102DD00084F8C11084F8C21084F80C112046EBE787
:102DE00040C900005AC900002DE9F0478A4B1F680E
:102DF000436EB6B00646B0F81801FC1A08F066FD3E
:102E000008F048F902460B460020844908F0C0FA51
:102E10000022834B08F092F908F02AFC844240F229
:102E2000F180B06E03689B699847002800F0E98044
:102E300096F80D31002B76D10AA800F085FF0DA879
:102E400000F082FF10A800F07FFFB16E0AA81431D5
:102E500000F05EFFB16E0DA8083100F059FFB16EB1
:102E600010A8203100F054FFB36EDB6A00930AAA69
:102E70000DA906F16C0010AB00F0CCFDB06E03683C
:102E80001B6A984716A801F012F913A800F05CFF1E
:102E900006F1B40113A800F03BFF06F1A40116A847
:102EA00001F03AF80A9B33620B9B73620C9BB3628E
:102EB0000D9BF3620E9B33630F9B7363109BB36395
:102EC000119BF363129B3364169B7364179BB3646B
:102ED000189BF364199B33651498159D139C08F097
:102EE000D9F84BA3D3E9002308F028F908F0E8FB50
:102EF0007065284608F0CEF845A3D3E9002308F012
:102F00001DF908F0DDFB316E08F02EFCB06520469F
:102F100008F0C0F83EA3D3E9002308F00FF908F049
:102F2000CFFBF0656DE096F80E51002D5AD10DF1F2
:102F30004C09484600F008FFB16E4846203100F0C9
:102F4000E7FE3446AA4659F80580D4F8F410404606
:102F500008F0B2FE18B1C4F8F4804FF0010A404600
:102F6000D4F8001108F0C6FE18B1C4F800814FF083
:102F7000010A04350C2D04F10404E4D1BAF1000F68
:102F80003FD0D6F8F40008F085F80446D6F80001E2
:102F90000D4608F07FF8CDE90001D6F8F80008F0FA
:102FA00079F8CDE90201D6F8040108F073F8CDE90B
:102FB0000401D6F8FC0008F06DF8CDE90601D6F85A
:102FC000080108F067F82246CDE908012B4616A84B
:102FD000144908F0D9FFF069036816A95B6900225B
:102FE00098470EE00024012386F8F23086F80D4160
:102FF00086F80E41204606F1F00101F0A1FFB36E04
:103000001C71776636B0BDE8F08700BFAFF3008073
:10301000F8C1631ADCA54C40CC8BFF1F0000F03FC9
:1030200000408F407CC9000010B5044690B0FFF707
:10303000DBFE2046FDF78CFC002844D094F80D21DF
:10304000002A40D16F238DF804303A238DF80530E3
:1030500041F20103ADF80630E36ACDF80A30236B84
:10306000CDF80E30636BCDF81230236ACDF81630F0
:10307000636ACDF81A30A36ACDF81E30A36BCDF881
:103080002230E36BCDF82630236CCDF82A30636C08
:10309000CDF82E30A36CCDF83230E36CCDF836305D
:1030A000236DCDF83A30ADF80820134601A9585CDD
:1030B000013302443A2B92B2F8D1E069ADF808200E
:1030C00003681B69984710B010BD03460321002216
:1030D00001391A62DA629A639A6403F10403F6D141
:1030E0004FF07E534364704737B504461D46009247
:1030F00003230022FDF710FC2046194B40F86C3BDF
:1031000000F07EFB04F1C80001F00AFF154800F052
:103110002DF92046FFF7D9FF20460021FDF714FCCA
:1031200000232566E36500256365A365BDF81830B7
:10313000A4F81831C4F81451C4F8105184F80C5193
:1031400084F80D51656620469DF81C10FFF718FEA7
:1031500094F80C310BB184F80E51204603B030BD09
:1031600028C90000FC89FF1F10B5044604F1F001D6
:10317000002001F0FAFE002384F8F230084B094ADF
:10318000C4F80031C4F80431C4F80831A36EC4F89F
:10319000F420C4F8F820C4F8FC2001221A7110BDF4
:1031A000809618CB8096184B10B590F80D318A791F
:1031B00004460BB112B110BD22B910BD012380F835
:1031C0000E3110BD80F80E31FFF7CEFF012384F8D9
:1031D0000D3110BD03F0ECBB044BD878044B1A68DA
:1031E000C0B2904218BF1860704700BF0060064030
:1031F0006887FF1F08B5FFF7EFFF8307FBD5024B7A
:103200000222DA7008BD00BF00600640094B1B783F
:1032100013B9094B1B782BB1084A1378202B03D91B
:103220000123037100207047581C1070044A0120CC
:10323000D15470470E8AFF1FD189FF1F0F8AFF1FCD
:10324000B089FF1F7047FFFF024B1878024B1B78B5
:10325000C01A70470D8AFF1F0C8AFF1F064A0749D4
:1032600013780978994204D9591C1170044AD05C2A
:1032700070474FF0FF3070470C8AFF1F0D8AFF1F09
:10328000D289FF1F054B064A1B7812789A4286BFE7
:10329000044AD05C4FF0FF30704700BF0C8AFF1F1C
:1032A0000D8AFF1FD289FF1F70B50E4B1B78144685
:1032B00013B90D4B1B7893B10C4A1578C5F1210356
:1032C0009C42164602D9012202711C460848224639
:1032D0002844254403F002F93570204670BD184695
:1032E00070BD00BF0E8AFF1FD189FF1F0F8AFF1F0D
:1032F000B089FF1F10B5114BDB7803F0200303F0FA
:10330000FF045BB9122004F0D9F80D4B1B68A3B180
:103310000C4A14700C4A1078984710BD0B4A137869
:103320000133DBB2012B137002D8094B1B7823B990
:103330001220BDE8104004F0C1B810BD0060064086
:10334000AC89FF1F0C8AFF1F0D8AFF1FF889FF1F22
:10335000D189FF1F002202714FF47A710273024A71
:1033600081600260704700BFB0C900000C4B0022B2
:103370001A700C4B196841F0400119600A4B0B4957
:103380009A704FF419720A6041F8042C27225A707F
:1033900004229A7120225A7180229A70704700BFCD
:1033A000D189FF1F34800440006006400CA0044017
:1033B00010B53649CB78DBB213F0100F03F04002A2
:1033C00001D12AB92CE01020C870002AF9D110BD13
:1033D00003F0040303F0FF012D4AC3B1002313706F
:1033E0002C4A13702C4B1B68144603B19847237862
:1033F0002A4A1BB92749137001200870234BD0219A
:10340000997012781A71264B01221A7039E0012343
:103410001370244B19701D4BC0229A701B7930E039
:103420001A4CA27802F0100202F0FF01AAB113F0C8
:1034300001030ED11A4917480A780078904203D93F
:10344000531C0B70154B9B5C2371104BD0229A7050
:1034500017E0C023A370237913E0134B03221970E4
:103460001220124903F0E4FF0E4A217913781F2B32
:10347000C9B206D80648007818B1581C10700C4A1A
:10348000D154024B0222DA7010BD00BF006006402A
:10349000A889FF1F0F8AFF1FF489FF1FB089FF1F34
:1034A000108AFF1F0D8AFF1FF889FF1FF5320000E9
:1034B000D289FF1F044B054A49001970012313707C
:1034C000034A1370704700BFB089FF1F0E8AFF1FA9
:1034D0000F8AFF1FF8B52B4B1222DA709A789206EA
:1034E0000F4601D5B42218E0274B1C681D46FFF794
:1034F00073FE00F0200000F0FF0350B12B681B1B8F
:103500000F2BF4D91F4B00229A7080229A7004204E
:10351000F8BD1E4A13701B4BB0229A70FFF75CFE79
:103520008306FBD500251A4B1B78ECB2A3421FD9AA
:10353000184B1A5D134B1A71FFF74EFE860701D424
:103540008006F9D40F4E0223F370FFF745FEC10643
:1035500001D4820603D48023B370042009E0C3079A
:1035600005F10105DFD5002C0CBF0220032001E08E
:10357000002017B1034B80229A70074B00221A706B
:10358000F8BD00BF00600640CC8BFF1FD189FF1F34
:103590000F8AFF1FB089FF1F0E8AFF1F2DE9F84316
:1035A0001446304A1F46002313702F4A13702F4BC6
:1035B0000D461221D970997811F0200F904601D054
:1035C000B4220BE0FFF708FE00F0200000F0FF023D
:1035D0000028F7D1264B1A70244BB0229A706B004A
:1035E00043F00103214DDBB22B71FFF703FEFFF720
:1035F000F3FD10F0110004D08023AB700020BDE873
:10360000F88334B9002F0CBFA0238023AB70BDE832
:10361000F883012C0CBFA823A023AB702B79DFF813
:1036200058902646012E114D0BD0013EFFF7E2FDCA
:10363000F6B2012E04BFA823AB702B7909F8013F25
:10364000F0E7FFF7D7FD661EB023AB70F6B2094B6B
:103650002A799A550FB18023AB7088F80040204634
:10366000BDE8F8830C8AFF1F0D8AFF1F006006402B
:10367000D189FF1FD289FF1FD189FF1F0123FFF7C7
:103680008DBF0121FFF726BF0148FFF763BE00BFD2
:10369000FC89FF1FF8B507460C460D48394615460C
:1036A0001E46FFF707FF21460948FFF7AFFD00243C
:1036B000E3B2AB42064804D2315DFFF7A7FD013407
:1036C000F6E7FFF7DEFFD0F1010038BF0020F8BDBC
:1036D000FC89FF1F07B502AB03F8012D0122FFF79C
:1036E000D9FF03B05DF804FB2DE9F74F15462B4ACF
:1036F000BDF83060D2F800800193002407468B4665
:10370000A2469146AC4223D225483946FFF7D2FE65
:1037100059462348FFF77AFD2148FFF7B2FF2048BA
:103720003946FFF7C7FE2A1B202AA8BF20221C48C3
:103730003946D2B2FFF7A2FF1948FFF785FDC8B19D
:10374000F6B1D9F80020C8EB0202B24218D311E05A
:103750005EB1D9F80020C8EB0208B04505D34FFA96
:103760008AF2AA42B8BF4FF0FF0A4FFA8AF003B0BC
:10377000BDE8F08F202DD4BF64192034E4B2C1E736
:103780004FFA8AF206480092FFF768FD9DE80C00A8
:1037900098540AF101035FFA83FACDE7CC8BFF1F3F
:1037A000FC89FF1F13B51446009301222346FFF73F
:1037B0009BFF02B010BD704730B5012385B080F883
:1037C0005730044600F1480501A800F0BDFA01A9F0
:1037D000284600F09DFA294604F1380000F04EFD1D
:1037E00004F12C0501A800F0AFFA01A9284600F069
:1037F0008FFA04F11C00294600F040FD05B030BDF1
:1038000010B50446043000F052FC04F11C0000F036
:103810004EFC04F12C0000F097FA04F1380000F09F
:1038200046FC04F1480000F08FFA084B6361084B36
:10383000A3610123204684F8543084F8553084F87D
:103840005630FFF7B9FF204610BD00BF6F12833A14
:103850006F12033A2DE9F04F95B0064668460C46C4
:10386000904600F024FC04A800F021FC96F85530A6
:1038700006F12C0723B12046394600F0EFFA06E0A6
:10388000384606F1480100F043FA0023736396F8C6
:103890005630002B6FD0F06A4FF07C5108F06EF874
:1038A00007F0F8FB04460D4605F0FAF807F008FFAC
:1038B00029468146204605F02DF907F001FF4FF01B
:1038C0007C518246306B08F059F807F0E3FB044660
:1038D0000D4605F0E5F807F0F3FE2946834620463D
:1038E00005F018F907F0ECFE59460446484608F082
:1038F00045F859460490504608F040F82146059096
:10390000484608F03BF8214606900AF1004008F0CE
:1039100035F800230093D8F800300193D8F804302C
:1039200007906A46029308A8D8F80830039304A9C0
:1039300000F093FB0CA804A900F037FD0CAA10A816
:1039400008A900F08AFB10A9684600F0E5FA029881
:1039500007F0A0FB044601980D4607F09BFB0246CA
:103960000B462046294605F073F907F0A9FE00F141
:103970000040706301E0336D736306F11C05284657
:10398000394600F07BFCDFF8888000244FF0FF3AD6
:1039900055F8243023F000494846414608F0AAF97A
:1039A00008B9C14600E0A2460134042C01D0C84643
:1039B000EEE706EB8A040021D4F81C80404608F0AC
:1039C0007BF920B1A06B002108F094F948B940467A
:1039D000002108F08FF9C0B1A06B002108F06CF94C
:1039E00098B1F36903F10043F361336A03F10043D3
:1039F0003362736A03F100437362B36A03F10043F5
:103A0000B3622846394600F0A3FB15B0BDE8F08F3D
:103A100000007AC42DE9F04F04468BB003A81E467F
:103A20000F469046149D00F08FF994F85730ABB1D3
:103A30003246A5652046414604F12C05FFF70AFFF2
:103A400004F13800294600F019FC04F14800294629
:103A500000F05EF9002384F85730FCE0A06D281ACE
:103A600007F034FF7D4908F03DF8A565206000218E
:103A700008F02CF9002840F0EE80414632462046FE
:103A8000FFF7E8FE636C019394F85430D4F838A043
:103A9000D4F83C80266C13B103A8394604E006A88C
:103AA00000F052F903A806A900F032F903984FF08C
:103AB0007C5107F063FF4FF07C510746049807F0F4
:103AC0005DFF4FF07C518146059807F057FF414656
:103AD000834607F1004007F051FF31460346484650
:103AE000009307F04BFF009B25680146184607F03E
:103AF0003BFE019903465846009307F03FFF009BA9
:103B00000146184607F030FE294607F037FF014608
:103B1000504607F02BFE5146A063384607F02EFFB3
:103B2000314603465846009307F028FF009B0146A4
:103B3000184607F01BFE019903464846009307F01C
:103B40001DFF009B0146184607F00EFE294607F0B0
:103B500015FF0146404607F009FE5146E06348461E
:103B600007F00CFF414603465846009307F006FF56
:103B7000009B0146184607F0F7FD019903463846B9
:103B8000009307F0FBFE009B0146184607F0EEFD90
:103B9000294607F0F3FE0146304607F0E7FD51469F
:103BA0002064584607F0EAFE41468246484607F040
:103BB000E5FE0146504607F0D9FD314680463846BD
:103BC00007F0DCFE0146404607F0CEFD294607F02F
:103BD000D5FE0146019807F0C9FD94F8563060649F
:103BE00004F1380504F11C07261D06A813B994F842
:103BF000553023B139462A4600F047FA01E000F07B
:103C000056FA06A9304600F087F92A46394606A832
:103C100000F03BFA06A9304600F07EF921686069A1
:103C200007F0ACFEA169074607F0A0FD0146384643
:103C300007F058FF3146024606A800F01AFA06A916
:103C4000284600F074F9284600F037FA284604F1B7
:103C5000480100F07DFA0BB0BDE8F08F00007A4417
:103C600010B50B4C4FF07C51A4EB600407F086FEBE
:103C7000214607F083FE214607F080FE01464FF003
:103C80007F5007F071FD0146204607F077FE10BD1A
:103C9000DF59375F70B5044616460D460278407806
:103CA000B3B140EA022000B207F014FE314607F03B
:103CB00065FE2860E378A07843EA002000B207F0B0
:103CC00009FE314607F05AFE68602079637915E0F5
:103CD00042EA002000B207F0FDFD314607F04EFE3B
:103CE0002860A378E07843EA002000B207F0F2FDF4
:103CF000314607F043FE68606079237943EA00208B
:103D000000B207F0E7FD314607F038FEA86070BD4D
:103D1000884205D00B6803604B6843608B68836002
:103D2000704770B505460E4600242859315907F0F2
:103D30001BFD285104340C2CF7D1284670BD0023FC
:103D4000036043608360704710B50446FFF7F7FFD8
:103D5000204610BD70B505460C460068096807F09E
:103D60000DFE61680646686807F008FE01463046A9
:103D700007F0FCFCA1680646A86807F0FFFD0146B5
:103D8000304607F0F3FC70BDF8B505460C464068B8
:103D90008968164607F0F2FD61680746A86807F0D3
:103DA000EDFD0146384607F0DFFC30602168A86869
:103DB00007F0E4FDA1680746286807F0DFFD01462B
:103DC000384607F0D1FC70606168286807F0D6FDBE
:103DD00021680746686807F0D1FD0146384607F0BC
:103DE000C3FCB060F8BD2DE9F041D0F80080476811
:103DF000866841460446404607F0C0FD3946054600
:103E0000384607F0BBFD0146284607F0AFFC3146B7
:103E10000546304607F0B2FD0146284607F0A6FCED
:103E2000FFF71EFF0021054607F03CFFA0B928461A
:103E30004FF07E5107F036FF70B92946404607F033
:103E40009DFD29462060384607F098FD29466060B0
:103E5000304607F093FDA060BDE8F0812DE9FF41F9
:103E60000E4607C801AB83E807001846FFF7BBFF03
:103E7000029807F00FF9044603980D4607F00AF977
:103E800002460B462046294604F0E2FE07F018FCE5
:103E90003060019807F0FEF804460298DDF80C80C7
:103EA0000D46014607F06AFD41460746404607F0C9
:103EB00065FD0146384607F059FC07F0EBF804F0C1
:103EC00023FF02460B462046294604F0C1FE07F0B8
:103ED000F7FB002300F100407060B36004B0BDE860
:103EE000F0810346006870B501465E689D6807F082
:103EF00045FD31460446304607F040FD0146204668
:103F000007F034FC29460446284607F037FD0146F1
:103F1000204607F02BFC70BD884207D00B68036079
:103F20004B6843608B688360CB68C360704770B533
:103F300005460E4600242859315907F017FC285130
:103F40000434102CF7D1284670BD70B505460E46D6
:103F500000242859315907F007FC28510434102C4B
:103F6000F7D1284670BDF0B58BB0044601A80D46C8
:103F7000FFF7E5FE04A8FFF7E2FE07A8FFF7DFFE64
:103F800063680193A3680293E36803936B680493E7
:103F9000AB68059304A9EB68069301A8FFF7DAFE66
:103FA00007AA074604A901A8FFF7EEFE26682968BC
:103FB000304607F0E3FC394607F0D6FB0499206051
:103FC000304607F0DBFC01990746286807F0D6FC6D
:103FD0000146384607F0CAFB079907F0C7FB059969
:103FE0006060304607F0CAFC02990746286807F06F
:103FF000C5FC0146384607F0B9FB089907F0B6FB47
:104000000699A060304607F0B9FC03990646286877
:1040100007F0B4FC0146304607F0A8FB099907F009
:10402000A5FBE06020460BB0F0BD38B50446006843
:104030000D4607F0A3FC29462060606807F09EFC4F
:1040400029466060A06807F099FC2946A060E068F6
:1040500007F094FCE060204638BD38B504461546AC
:104060000FC984E80F0020462946FFF77CFF204651
:1040700038BD38B5044615460FC984E80F00204600
:104080002946FFF7D2FF204638BD38B5044615460D
:104090000FC984E80F0020462946FFF756FF204647
:1040A00038BD0023036043608360C360704710B570
:1040B0000446FFF7F6FF204610BD2DE9F843D0F87F
:1040C0000090D0F804808768C66849460446484690
:1040D00007F054FC41460546404607F04FFC0146B8
:1040E000284607F043FB39460546384607F046FCAC
:1040F0000146284607F03AFB31460546304607F0B0
:104100003DFC0146284607F031FBFFF7A9FD0021E1
:10411000054607F0C7FDC8B928464FF07E5107F0A5
:10412000C1FD98B92946484607F028FC2946206079
:10413000404607F023FC29466060384607F01EFC25
:104140002946A060304607F019FCE060BDE8F8831E
:104150002DE9F8430746D0F80890D0F804800E46C1
:104160004846F96807F00AFC39680446404607F0FB
:1041700005FC0146204607F0F9FA06F08BFF0246DF
:104180000B4606F029FE04460D464046414607F020
:10419000F5FB49468046484607F0F0FB014640469D
:1041A00007F0E4FA06F076FF02460B4606F014FE2E
:1041B00002460B460020304906F00CFE02460B4634
:1041C0002046294604F044FD07F07AFA3060B968C9
:1041D000386807F0D3FBF9680446786807F0CEFB2F
:1041E0000146204607F0C0FA06F054FF02460B468F
:1041F00006F0F2FD04F0D8FC07F062FA7060D7F820
:1042000008907968D7F80C80484607F0B7FB396802
:104210000446404607F0B2FB0146204607F0A6FAE6
:1042200006F038FF02460B4606F0D6FD04460D4662
:104230004846494607F0A2FB41460746404607F07C
:104240009DFB0146384607F091FA06F023FF02462F
:104250000B4606F0C1FD02460B460020064906F05B
:10426000B9FD02460B462046294604F0F1FC07F052
:1042700027FAB060BDE8F8830000F03F2DE9F74F62
:1042800004460D4608684FF07C5107F077FB06F0B6
:1042900001FF06460F4604F003FC07F011FA394609
:1042A0008146304604F036FC07F00AFA4FF07C51A4
:1042B0008346686807F062FB06F0ECFE06460F4690
:1042C00004F0EEFB07F0FCF939468246304604F074
:1042D00021FC07F0F5F94FF07C510190A86807F038
:1042E0004DFB06F0D7FE06460F4604F0D9FB07F05B
:1042F000E7F939460546304604F00CFC07F0E0F9D2
:1043000051460646484607F039FB01998046584613
:1043100007F034FB29460746404607F02FFB31469D
:1043200003463846009307F029FB009B01461846D8
:1043300007F01CFA51462060584607F01FFB019910
:104340008246484607F01AFB29468146504607F048
:1043500015FB31468346484607F010FB0146584698
:1043600007F002FA29466060484607F007FB31462D
:104370008146504607F002FB0146484607F0F6F931
:104380003146A060404607F0F9FA2946064638460D
:1043900007F0F4FA0146304607F0E6F9E0602046FF
:1043A00003B0BDE8F04FFFF788BE38B50D460446B0
:1043B000FFF777FE2B6823606B6803F100436360AF
:1043C000AB6803F10043A360EB6803F10043E360D3
:1043D000204638BD4079704700487047C8C9000082
:1043E00005207047436B4FF4C87090FBF3F07047A3
:1043F00010B5034B0360044600F0BEFB204610BD21
:10440000E0C9000010B50446FFF7F2FF204604F0B3
:104410001DFA204610BDFFFF10B5044600F0CCFB8E
:10442000014B2360204610BDE0C900004B1FB3F5CF
:10443000797F09D24FF47A72B2FBF1F20023416323
:10444000C0E90E230120704700207047112910B5E4
:1044500009D80122054B02FA01F423401BB180F870
:104460008B10104610BD002010BD00BF7F00030060
:10447000082910B50AD8012202FA01F440F27F138C
:1044800023401BB180F88C10104610BD002010BDD9
:104490004B1E632B9ABFC0F890100120002070477C
:1044A00008290DD004D8B1B980F894100B4B0EE058
:1044B000102909D018290ED180F89410084B06E075
:1044C00080F89410074B02E0074B80F89410C0F876
:1044D0009830012070470020704700BFFDB30B39B2
:1044E000787D8B3AA9689239787D0B3A08290FD0EC
:1044F00005D8D1B980F895104FF0625311E010291A
:104500000BD0182911D180F895104FF0685308E0AE
:1045100080F895104FF0645303E080F895104FF049
:104520006653C0F89C30012070470020704710B5DA
:1045300038210446002290F88900FFF7CBF868B3D1
:1045400094F8890023210022FFF7C4F830B394F8CF
:1045500089006A210022FFF7BDF8F8B194F88900BC
:104560006A210422FFF7B6F8C0B194F889006A21E5
:104570006022FFF7AFF888B1322003F02FF894F8EB
:10458000890038210122FFF7A5F838B194F8890095
:1045900023217822BDE81040FFF79CB8002010BD11
:1045A00070B5504E88B033880446722190F8890067
:1045B0000093022202ABFFF797F888B19DF80850EC
:1045C0009DF8093003EB0525B5F5806F0AD120462B
:1045D000FFF7ADFFE36AA26B562101FB0233E362F2
:1045E00000207CE0B5F5F07F11D93388009394F872
:1045F000890074210C2205ABFFF776F80028EFD074
:10460000E26AA36B0C3D1344E362772DECE70B2DBC
:10461000E6D93388009394F8890074210C2205AB05
:10462000FFF762F80028DBD02E4B94F889001B8836
:1046300000934921082203ABFFF756F80028CFD09A
:1046400005A804F11401D4F89C200123FFF722FBF4
:104650000DF11A0004F10801D4F898200123FFF7A6
:1046600019FB214A0DF10D0004F120010023FFF791
:1046700011FBE368206AD4F8A01003F10043E36063
:10468000236903F100432361636903F1004363611C
:1046900007F074F9D4F8A4100546606A07F06EF9C3
:1046A000D4F8A8100646A06A07F068F905F100459D
:1046B000A06226622046656200F008FB204600F0FA
:1046C000AFFB94F8883013B1084B1B6802E0E26A34
:1046D000A36B1344E362002384F88830012008B000
:1046E00070BD00BF6C87FF1F9A99193FCC8BFF1FCD
:1046F00013B5174B04466A2190F889001B880DF109
:104700000702FFF74FF808B900241DE09DF80720C5
:1047100094F8890022F0200242F002026A218DF80A
:104720000720FEF7D7FF0028EED0322002F056FF18
:1047300094F8890037218222FEF7CCFF0446002836
:10474000E2D0322002F04AFF204602B010BD00BF86
:104750006C87FF1F13B5154B04466A2190F889003A
:104760001B880DF10702FFF71DF808B900241AE0B5
:104770009DF8072094F8890042F020026A218DF804
:104780000720FEF7A7FF0028F0D0322002F026FF16
:1047900094F8890037218022FEF79CFF044610B16F
:1047A000322002F01BFF204602B010BD6C87FF1FB5
:1047B00038B590F88B5090F89430C5F3C1021A4484
:1047C00004461B2190F88900D2B2FEF783FF40B166
:1047D00094F8890005F007021A21BDE83840FEF779
:1047E00079BF38BD10B504461C2190F8890094F8B3
:1047F0009520FEF76FFF40B194F8890094F88C2063
:104800001D21BDE81040FEF765BF10BD436BB3F539
:104810007A7F0ADC4FF47A7292FBF3F35A1E90F817
:1048200089001921D2B2FEF755BF01207047426BB3
:10483000D0F8903090F8890092FBF3F2013A1F2AE9
:10484000A8BF1F223421D2B2FEF744BF30B50123E6
:1048500080F88830036B1A7980F88920044685B087
:104860001969FFF7E3FD236B20465969FFF710FE36
:10487000236B2046197EFFF7E9FD236B2046197F45
:10488000FFF7F6FD236B204693F82010FFF708FE94
:10489000236B204693F82410FFF728FE204600F0F3
:1048A000B1F994F889006B218022FEF713FF0028EC
:1048B00000F01781642002F091FE94F889006B21CA
:1048C0000022FEF707FF002800F00E81A64D94F8A5
:1048D00089002B8875210DF10B02FEF763FF00287C
:1048E00000F005819DF80B30712B40F003812046CC
:1048F000FFF75EFF002800F000812046FFF772FFFF
:10490000002800F0FD802046FFF780FF002800F01F
:10491000FA802046FFF7ECFE002800F0F7800C201C
:104920000A210022FEF7D6FE28B92046FFF712FF23
:104930006FF00B0016E10C200A210F22FEF7CAFED1
:1049400028B92046FFF706FF6FF00C000AE12B881C
:1049500000930C20102103220DEB0003FEF7C4FE90
:1049600028B92046FFF7F6FE6FF00D00FAE09DF83B
:104970000C0006F0ABFF06F08DFB00227B4B06F02F
:1049800029FA00227A4B06F0D9FB0022794B06F077
:1049900023FA06F095FEC4F8A0009DF80D0006F07D
:1049A00095FF06F077FB0022704B06F013FA002209
:1049B0006F4B06F0C3FB00226E4B06F00DFA06F0BB
:1049C0007FFEC4F8A4009DF80E0006F07FFF06F0FD
:1049D00061FB0022654B06F0FDF90022644B06F0F6
:1049E000ADFB0022634B06F0F7F906F069FE0A21E1
:1049F000C4F8A80000220C20FEF76CFE28B920465F
:104A0000FFF7A8FE6FF00E00ACE02046FFF7A2FE15
:104A100000287ED094F8890024214022FEF75AFE17
:104A2000002879D094F8890025218C22FEF752FEC7
:104A3000002874D094F8890026210222FEF74AFE4D
:104A400000286FD094F8890027218822FEF742FEC3
:104A500000286AD094F8890028210C22FEF73AFE3B
:104A6000002865D094F8890029210A22FEF732FE39
:104A7000002860D094F889002A218122FEF72AFEBE
:104A800000285BD094F8890064210122FEF722FE01
:104A9000002856D094F8890067210322FEF71AFEF9
:104AA000002851D02046FFF7C2FE00284FD094F8CE
:104AB00089006B210122FEF70DFE00284AD094F8F0
:104AC00089006C210022FEF705FE002845D0204613
:104AD000FFF72DFD002843D0204600F0E9F8012023
:104AE00040E04FF0FF303DE06FF003003AE06FF040
:104AF000040037E06FF0050034E06FF0060031E0AD
:104B00006FF007002EE06FF008002BE06FF00A0056
:104B100028E06FF00F0025E06FF0100022E06FF04A
:104B200011001FE06FF012001CE06FF0130019E09D
:104B30006FF0140016E06FF0150013E06FF0160030
:104B400010E06FF017000DE06FF018000AE06FF052
:104B50001A0007E06FF01B0004E06FF01C0001E09A
:104B60006FF01D0005B030BD6C87FF1F0000604076
:104B70000000703F0000F03F014B0360704700BF32
:104B800010CA000090F848007047FFFF10B5034BB3
:104B90000360044603F05AFE204610BD10CA000010
:104BA00038B50546B02003F04DFE29460446FFF710
:104BB00033FC204638BDFFFF38B5114B044640F8A2
:104BC000083B0D46FFF7C0F804F11400FFF7BCF8EE
:104BD00004F12000FFF7B8F804F14C00FFF7B4F837
:104BE00004F15800FFF7B0F804F17C00FFF7ACF8CF
:104BF000002325632371637184F84830204638BD53
:104C000010CA00002DE9F043064689B000207071FB
:104C100001A900F0AAF9002845D09DF80630012B23
:104C200041D1224F6C460DF10C0860690434616873
:104C300006F09AFD3946054607F05CF800B93D4696
:104C4000444501D02F46F0E72846002107F034F80C
:104C5000044640BB28464FF07C5106F08FFE354697
:104C6000814601AB23440434D3F810805F6840468A
:104C7000394606F079FD4FF07C5106F07FFE014683
:104C8000484606F02FFF39462867404606F06EFD7D
:104C90004FF07C5106F072FE0C2C686605F104059D
:104CA000DFD10123737109B0BDE8F083000080BF3C
:104CB00010B50446406B06F00DFE01464FF08040F3
:104CC00006F010FF00232064636410BD2DE9FF4748
:104CD00000F15805804695E8070001AC08F114067C
:104CE00084E8070031462046FFF71BF83146284686
:104CF000FFF70EF82046FFF7F4F8464906F0DCFF10
:104D000008F1080A00287CD05046FFF7EAF842492B
:104D100006F0D2FF002874D0D8F84090484606F03C
:104D2000B9F902460B4600203C4906F053F8044608
:104D3000D8F84C000D4606F0ADF902460B46204669
:104D4000294606F0FBF906460F464846D8F80810F3
:104D500006F014FE06F09EF902460B463046394630
:104D600006F03AF806F0ACFCC8F84C00D8F8500051
:104D700006F090F902460B462046294606F0DEF979
:104D800006460F464846D8F80C1006F0F7FD06F028
:104D900081F902460B463046394606F01DF806F00A
:104DA0008FFCC8F85000D8F8540006F073F902469A
:104DB0000B462046294606F0C1F904460D464846F2
:104DC000D8F8101006F0DAFD06F064F902460B463A
:104DD0002046294606F000F806F072FCD8F8343078
:104DE000D8F84420C8F8540003EB83039A4208DA49
:104DF00001329A4208BF0123C8F8442008BF88F84E
:104E00004830504608F14C01FEF78BFF04B0BDE876
:104E1000F08700BF0BD7233B0BD7233D0000F03FAB
:104E2000037970B50646CBB94379BBB1006A716EA0
:104E300006F09AFC316F06F0A1FDB16E3062706A27
:104E400006F092FC716F06F099FDF16E7062B06A27
:104E500006F08AFCB16F06F091FDB062306A2E490F
:104E600006F08CFD06F016F90446F06F0D4606F0CC
:104E700011F927A3D3E9002306F060F902460B4697
:104E80002046294605F0A8FF06F01AFC2249F067E3
:104E9000706A06F073FD06F0FDF80446D6F880004F
:104EA0000D4606F0F7F81AA3D3E9002306F046F9F9
:104EB00002460B462046294605F08EFF06F000FC10
:104EC0001549C6F88000B06A06F058FD06F0E2F811
:104ED0000446D6F884000D4606F0DCF80CA3D3E9AE
:104EE000002306F02BF902460B462046294605F022
:104EF00073FF06F0E5FB06F17C01C6F8840006F1BD
:104F00002000BDE87040FEF703BF00BFAFF3008094
:104F1000000000989999E93FCDCC4C3EAFF300805A
:104F20004FF0FF32026050220261282242610322C8
:104F30008261C2611022026242626822027170477D
:104F4000F8B5FC221C2310FB03F60A7015220D464F
:104F50004A7013FB00373446AB1B2046195D013401
:104F600001F070FDBC42F7D1F8BDF8B51C24002358
:104F700010FB04F506468B7028460F4601F04EFDE7
:104F8000FC2813D1012004FB060001F047FD152881
:104F90000CD114FB06462C46204601F03FFD7B1B3E
:104FA00018550134B442F7D10120F8BD0020F8BDF6
:104FB00001F0FEBC7047FFFF10B5034B03600446D1
:104FC000FBF798FC204610BD40CA000010B504460F
:104FD000FFF7F2FF204603F039FC204610BD006ABF
:104FE000C0B201B1012102F091BAC979003118BFF4
:104FF0000121FFF7F4BFFFFF37B51D46002304462C
:1050000000930823FBF788FC094B2360012D0CBF9C
:1050100006230723236294F82000012102F0A4FA5A
:1050200020460121FBF790FC204603B030BD00BFB5
:1050300040CA00007047FFFF10B5034B03600446F1
:10504000FBF758FC204610BD60CA000010B50446AE
:10505000FFF7F2FF204603F0F9FB204610BDFFFFEB
:1050600070B586B00446FBF773FC00284CD0712362
:105070008DF8003004F12006172300258DF801304B
:10508000304641F20103ADF80230ADF8045000F0B3
:105090004FF906F015FBCDF80600304600F070F928
:1050A00006F00EFB84F89950CDF80A00D4F8A00061
:1050B00005F0DEFF0022154B06F06AF906F000FB52
:1050C000D4F8C030ADF81230D4F8B030ADF81430A8
:1050D0009DF80120D4F8EC308DF81630CDF80E0094
:1050E00084F8B95084F8A9502B46954205DA1DF88A
:1050F00005100B449BB20135F7E7E069ADF80430C9
:10510000036869461B69984706B070BD00005940A6
:1051100037B504461D46009202230022FBF7FCFB34
:1051200020460F4B40F8203B00F02CF815B1C4F896
:10513000F85003E04FF41653C4F8F830D4F8F800F0
:10514000430803F1376303F5D833B3FBF0F001F004
:10515000FBFD20460121FBF7F7FB204603B030BDE5
:1051600060CA000010B5044601F06AFF002808DD9F
:1051700001F076FFC1B204F12000BDE8104000F05C
:10518000A7BA10BD002202210270427082808260A4
:1051900002730282426102768283026280F82420D6
:1051A0000285C26280F8302080F8382080F83920EB
:1051B000C26380F8482080F84920C26480F85820F3
:1051C00080F85920026680F8682080F8692002671C
:1051D00080F8782080F87920C0F8802080F8882036
:1051E00080F88920C0F8902080F8982080F89920D5
:1051F000C0F8A02080F8A82080F8A92080F8B91075
:1052000080F8BA2080F8BB2080F8BC20C0F8C0200D
:10521000C0F8C420C0F8C820C0F8CC20C0F8D02006
:10522000C0F8D42080F8AA207047A1F14103052BD3
:1052300002D8A1F137007047A1F16103052B94BF9B
:10524000A1F15700A1F13000704738B50578B5F1EC
:105250002D035D425D41044605B1441C204606F025
:105260007EFD64234343224614F8011BA1F1300064
:105270000928F8D92E290BD151783039092907D8B6
:1052800092780A20303A00FB0133092A98BF9B1814
:105290000DB1584238BD184638BDFFFF38B50C4631
:1052A000054606F05CFD6423B0FBF3F21249228050
:1052B00003FB12034B432846014610F8012BA2F1D1
:1052C0003005092DF8D92E2A0CD10B4A084610F8C2
:1052D000011F3039092905D80A25B2FBF5F202FB76
:1052E0000133F4E703EB830301330322B3FBF2F34F
:1052F00063600023237238BD80969800034653F8FC
:105300001C2F42605A6882601B7A0373034653F86D
:10531000282F02615A6842611B7A0376034B1B688F
:105320004363012343700370704700BFCC8BFF1FA2
:10533000002370B543700646808805F099FE044648
:10534000B0680D4605F084FE0BA3D3E9002306F0F8
:105350001FF80B4602462946204605F03DFD337BEB
:105360001BB1024601F1004301E002460B46104624
:10537000194670BDAFF300800000000065CDCD413F
:10538000002370B543700646008A05F071FE04469E
:1053900070690D4605F05CFE0BA3D3E9002305F010
:1053A000F7FF0B4602462946204605F015FD337EE1
:1053B0001BB1024601F1004301E002460B461046D4
:1053C000194670BDAFF300800000000065CDCD41EF
:1053D00083684360034B1B68C36001234370037001
:1053E000704700BFCC8BFF1F83684360034B1B6873
:1053F000C360012343700370704700BFCC8BFF1F55
:1054000010B504460846FFF720FFA06010BD10B598
:105410000446084606F0A3FCA06010BDC368836084
:10542000034B1B684360012343700370704700BF48
:10543000CC8BFF1F10B504460846FFF706FFE0605F
:1054400010BDFFFFC3688360034B1B6843600123EB
:1054500043700370704700BFCC8BFF1F10B504462C
:10546000084606F07CFCE06010BDFFFF10B5044666
:105470002146103006F0B6FD044B1B682362012361
:1054800084F8253084F8243010BD00BFCC8BFF1F7A
:10549000102206F0B7BDFFFFF8B590F8A9600446EA
:1054A000002E67D090F8AA10FFF7BFFE94F8AB105B
:1054B00005462046FFF7B9FE94F8A83000EB05102A
:1054C000C5B2AB424FD1D4F8D4300133C4F8D43094
:1054D00094F8BC3023B1D4F8CC300133C4F8CC30CC
:1054E00094F8B930B3B1012B2AD104F13800FFF799
:1054F0006FFF04F14800FFF777FF94F8BC30FBB171
:105500002046FFF7FBFE04F15800FFF787FF04F188
:10551000680013E004F14800FFF766FF94F8BC3020
:1055200033B12046FFF7EAFE04F17800FFF776FF7B
:1055300004F18800FFF786FF04F19800FFF76EFF83
:10554000D4F8C450002D00F0BD80D4F8C430A86A4F
:10555000996A06F03DFD002840F0B4802846FFF728
:1055600085FF2D6BEEE7D4F8D0300133C4F8D0308E
:105570000026A7E090F8BA2022BB00F1AA05284631
:10558000514906F025FD08B9012308E028464F4996
:1055900006F01EFD10B984F8B96002E0022384F819
:1055A000B930D4F8C030C4F8C430D4F8C470002F77
:1055B00000F08880B86A294606F00AFD00287DDAE6
:1055C0003B6BF0E790F8B910022960D090F8AA3050
:1055D000002B5CD042EA4112013A282A57D8DFE872
:1055E00002F01520242B3142494F5156565656563B
:1055F000565656565656565656565656565656564B
:105600005656151B20242B31383A3C00483004F103
:10561000AA01FFF7F5FE3AE0B3F1410043424341EE
:1056200025E0AA3004F11C0109E0B3F153014B421B
:105630004B4180F824302AE0AA3004F12801FFF71A
:105640002DFE24E0B3F157025342534180F830302D
:105650001DE0583017E0683015E0383004F1AA0139
:10566000FFF7D5FE13E0302B94BF0023012384F80D
:10567000BC300CE0883004F1AA01FFF7EFFE06E031
:10568000983000E0783004F1AA01FFF7D3FED4F897
:10569000C450BDB1D4F8C430A86A996A06F098FC29
:1056A00080B9EB6A94F8BA2093420BDC04D1284607
:1056B00004F1AA01FFF7ECFE2D6BEAE702D000230C
:1056C000C4F8C4303046F8BD78CA00007ECA000075
:1056D00038B5D0F8C830242903F1010304460D463B
:1056E000C0F8C8302AD090F8BB3004D80A290CD0B2
:1056F0000D2932D109E02A2907D02C292DD190F883
:10570000A82082F02C0280F8A8200E2B4FF0000079
:1057100005D8234483F8AA002046FFF7BDFE94F87D
:10572000BA30013384F8BA30002384F8BB30B5F1C5
:105730002A035D425D4184F8A95038BD0020022350
:1057400084F8BB0084F8BA0084F8A80084F8B93063
:1057500084F8A90084F8BC0038BD0D2B05D85A1C6C
:10576000234484F8BB2083F8AA5094F8A90028B9F0
:1057700094F8A8305D4084F8A85038BD002038BDAA
:105780002D4B002230B51A6090F8943053B9D0F800
:1057900090305A6802F596525A6090F899201A6033
:1057A000012345E0012B26D190F895309BB100EB09
:1057B000830290F89710526C01338B4288BF00230C
:1057C000D0F88C10A2F5965291B1012B16BF00248F
:1057D0000B700C700CE090F8964080F89740011F19
:1057E0001A46A242E3D851F8045F4D640132F8E74B
:1057F00080F8953001E0D0F888204EF660239A4278
:10580000D0F89030596806D80A445A6090F8982029
:105810001A6000230CE001F5624190315960A2F555
:10582000624290F899101960903AC0F888200223DB
:1058300080F8943030BD00BF54800340442380F88A
:105840008A307047334B30B51C684FF6FF72944274
:105850001C46314A52D1136803F07F03482B4DD1C7
:105860004B1F0024122B47D8DFE803F00A1F4646DF
:105870000D104646464646464646461316191C0037
:10588000264A072313E0264A022310E0254A032371
:105890000DE0254A05230AE0244A062307E0244AAE
:1058A000002304E0234A012301E0234A0423C0F833
:1058B000844080F88B40FF2590F88A40026080F891
:1058C000885014601D4A42F823001D4A01201478B4
:1058D00000FA03F3234313701A4B03EBC10140F2A8
:1058E00044424B681A60184B20221A70A3F23A33D4
:1058F0004FF080421A6030BD002030BD134D0023B0
:1059000013602B604FF6FF75256048241460104A21
:105910001360A5E7088003400080034044800340F3
:105920001C80034024800340348003403C800340BB
:105930000C800340148003402C800340188AFF1F12
:10594000158AFF1FA8CB00003EE400E0048003405E
:105950005480034010B5036890F88A105A681960A3
:10596000184BB2F5604F1B8803D91749097801B16C
:10597000013B42EA0343D0F88420C0F884309A1AED
:10598000124B9A4290F8883013D9FF2B0DD0021F8A
:105990000021994204DA0432546854640131F8E772
:1059A00080F88930012380F88B30002380F888301C
:1059B00010BD0F2B05D8591C80F8881000EB830010
:1059C000426010BD128AFF1F118AFF1F3F90020024
:1059D00038B5624B624D1A6812F0800F07D048222A
:1059E0001A60604B1A8801321A8001232B705E4BBB
:1059F0001C78E10703D55D4B1B681A065ED4A3072C
:105A000003D55B4B1B6818065DD4610703D5594B62
:105A10001B681A065CD4230703D5574B1B6818066E
:105A20005BD4E10603D5554B1B681A065AD4A3066E
:105A300003D5534B1B68180659D4610603D5514B47
:105A40001B681A0658D4230603D54F4B1B681C0647
:105A500057D44E4B1C78E00703D5444B1B681906FE
:105A600054D4A20703D5424B1B681B0653D46007CE
:105A700003D5404B1B68190652D4220703D53E4B71
:105A80001B681B0651D4E00603D53C4B1B68190666
:105A900050D4A20603D53A4B1B681B064FD46006B0
:105AA00003D5384B1B6819064ED4220603D5364B56
:105AB0001B681B064DD400232B7038BD344B18686F
:105AC000FFF748FF9BE7324B5868FFF743FF9CE71F
:105AD0002F4B9868FFF73EFF9DE72D4BD868FFF7E7
