:1000000000800020BD010000556800005568000018
:100010005568000055680000556800002168000020
:100020002168000021680000216800005568000078
:100030005568000021680000556800001168000044
:1000400055680000556800005568000055680000BC
:1000500055680000556800005568000055680000AC
:10006000556800005568000055680000556800009C
:10007000556800005568000055680000556800008C
:10008000556800005568000055680000556800007C
:10009000556800005568000055680000556800006C
:1000A00009360000556800005568000055680000DA
:1000B000556800005568000055680000556800004C
:1000C000556800005568000055680000556800003C
:1000D000556800005568000055680000556800002C
:1000E000556800005568000055680000556800001C
:1000F00055680000597B000055680000DD7600005F
:1001000055680000557F00005568000055680000E4
:1001100055680000556800005568000055680000EB
:1001200055680000556800005568000055680000DB
:100130005568000055680000DD5C0000556800004F
:1001400055680000556800005568000055680000BB
:1001500055680000556800005568000055680000AB
:10016000B50600009D81000055680000556800003C
:10017000556800005568000055680000556800008B
:10018000556800005568000055680000556800007B
:10019000556800005568000055680000356D000086
:1001A000856D00000D6E0000C96E00004D6F0000EF
:1001B000556800005568000055680000544B4CF22B
:1001C000205210B51A804DF628121A8000BF00BFC9
:1001D00006F044FB4F4B4FF010621A604E4A9A6093
:1001E0004E4ADA604E4B1A6812F4807204D14D49BF
:1001F0000A604FF4A8521A604B4B1A7802F00802BA
:10020000D2B21AB11A7842F008021A70474B484825
:10021000484C2A221A700023474A02E01959995083
:10022000043399188142F9D3444B454A002101E037
:1002300043F8041B9342FBD34249434800231A5816
:100240005A500433B3F5DE7FF9D1404B404A802148
:1002500003F8011B9342FBD13A4A3E4B1A603E4BD6
:100260000A221A703D4B24221A70A02203F8012C96
:100270003B4A137803F00203DBB2002BF9D0384A73
:10028000137803F01003DBB2002BF9D1344A137852
:1002900003F00C03082BFAD1324B03221A704022D0
:1002A0005A702F4A137803F02003DBB2002BF9D0E9
:1002B0002B4A137803F04003DBB2002BF9D02A4B12
:1002C0002A4A1A6002225A60294B20221A70244AB4
:1002D000137803F00C030C2BFAD1264A264B1A6034
:1002E000264B4BF67F321A60072243F8042C62B685
:1002F00006F0D0FE0B4B1B68DC0702D5204806F049
:100300003DFE0BF07DFE06F0AFFA08F073FCFEE751
:100310000E20054030800440823F04000100002B85
:1003200010D0034014D0034002D0074000E0074043
:10033000988DFF1F0C2701006087FF1F988DFF1FFE
:10034000FC92FF1F0082FF1F0000000000E400E09D
:100350005FE400E008ED00E0005006400140064088
:10036000064006400440064044800440000003115B
:1003700000400640C01005000480044014E000E086
:100380002F7FC355FFFFFFFFFFFFFFFFFFFFFFFFB3
:10039000FFFFFFFFFFFFFFFFFFFFFFFFFFFFFFFF6D
:1003A000FFFFFFFFFFFFFFFFFFFFFFFFFFFFFFFF5D
:1003B000FFFFFFFFFFFFFFFFFFFFFFFFFFFFFFFF4D
:1003C000FFFFFFFFFFFFFFFFFFFFFFFFFFFFFFFF3D
:1003D000FFFFFFFFFFFFFFFFFFFFFFFFFFFFFFFF2D
:1003E000FFFFFFFFFFFFFFFFFFFFFFFFFFFFFFFF1D
:1003F000FFFFFFFFFFFFFFFFFFFFFFFFFFFFFFFF0D
:10040000FFFFFFFFFFFFFFFFFFFFFFFFFEFFFFFFFD
:1004100008B548F69850074BC1F6FF701B1A062B1B
:1004200000D808BD40F20003C0F20003002BF8D052
:100430009847F6E79B8DFF1F08B548F6985048F699
:100440009853C1F6FF70C1F6FF731B1A9B1003EBA4
:10045000D373591000D108BD40F20002C0F200026F
:10046000002AF8D09047F6E710B548F69854C1F640
:10047000FF74237873B9FFF7CBFF40F20003C0F29B
:1004800000032BB142F20C70C0F20100AFF3008008
:100490000123237010BD00BF08B540F20003C0F275
:1004A00000034BB142F20C7048F69C51C0F20100BF
:1004B000C1F6FF71AFF3008048F69850C1F6FF70A7
:1004C00003682BB140F20003C0F2000303B1984768
:1004D000BDE80840B0E700BF42F2107007F0D0BBA3
:1004E00008B5064800F0D6FA10B9044800F042FCFE
:1004F0000248BDE8084000F07FBE00BFB48DFF1F7A
:1005000010B5054C204600F05DFB0449044A204626
:10051000BDE810400BF056BDB48DFF1F710C0000FC
:100520006087FF1F10B5002303710C4B0C22198844
:1005300001230B4208D1094A19431180084A118846
:1005400021EA0303138010BD04795B000134013AF2
:1005500004719BB2EDD1FF23037110BD108EFF1FFC
:100560000C8EFF1F2DE9F041984603790B2B0446B2
:10057000174634D8CEB23046012106F03BFD25792E
:10058000184B19485E55194B44F2506223F8152058
:10059000012303FA05F503881D43154B05801A68EE
:1005A0000C214F4301FB08F112F480022780618087
:1005B00011D1196841F4800119600E4B4FF6FF719B
:1005C00019605A609A6042F6A27243F8042C02F550
:1005D000803243F8042C084B4FF480721A60207963
:1005E000BDE8F0812A8EFF1F0C8EFF1F128EFF1FA9
:1005F0003C8004400460034008E100E003790B2BD9
:1006000010D8094A012101FA03F11388C9430B40AC
:100610001380064A1088014011801BB9044B4FF427
:1006200080721A60704700BF0C8EFF1F108EFF1F74
:1006300088E100E00C2359430388994203DB438897
:100640009942B8BF0B4602790B2A9CBF014921F899
:1006500012307047128EFF1F13B504790B2C02461F
:1006600016D8B1F5087F04DB02B0BDE81040FFF7F3
:10067000E1BF1388528821EAE1700092B428A8BF34
:10068000B4200021B42208F08BFA024B23F81400A6
:1006900002B010BD128EFF1F03790B2B06D8044A3F
:1006A000108840FA03F000F0010070470020704706
:1006B0000C8EFF1F70B5334A334C118894F900300B
:1006C00041FA03F111F0010F154606D02F4A00211F
:1006D000D05C06F063FC0C2323702D4B2C8819781A
:1006E00000234DB223E0581944FA00F6013316F006
:1006F000010F1CD0254B264C185C2270012106F0FE
:100700004DFC2378204A59B21370224A32F8111056
:10071000214A106808181060204A106809181160F2
:10072000013342F6A37142F80C1C237070BD5A18B5
:1007300050B20B28D7DD164B17491A700A68C2F55C
:100740006A3303F5C073B3F5966F05DB4EF6602090
:100750008342A8BF034601E04FF496639A180A60EB
:100760000E4908681B180B600D4B42F6A371196007
:100770000C4B9A4204D9084A00231360044A1370B0
:1007800070BD00BF0C8EFF1F6487FF1F2A8EFF1FE6
:100790000E8EFF1F128EFF1F088EFF1F0C6003407E
:1007A000006003407FA9030030B585B0044600F027
:1007B00009F960B366238DF804300B2300258DF80A
:1007C0000530204641F20103ADF80630ADF808507F
:1007D00000F0F6F8216B8DF80A00E06B0BF0FCF8E6
:1007E000616B0BF0B7FA2B46CDF80B002A469DF84B
:1007F000050003E0C95C521892B20133834201A99B
:10080000F8DBE069ADF8082003681B69984705B07C
:1008100030BDFFFF074B10B504460360806B08B185
:1008200008F0DCF80023A363204600F09DF8204682
:1008300010BD00BFB01A010010B50446FFF7EAFF73
:10084000204608F0CBF8204610BD70B5C56A0446B6
:100850000E46084629460BF085FB30B9A56A30469E
:1008600029460BF061FB00B93546616B28460BF059
:10087000BDF9216B0BF0B2F8E0630BF07DFB203487
:1008800001462046BDE87040FFF7E6BED1F80710EC
:10089000FFF7DBBF10B504462030FFF7FDFE38B18F
:1008A000A36B2BB119682046BDE81040FFF7CDBF00
:1008B00010BDFFFFF7B50D9D0C9E009504461F4629
:1008C000092300F063F825461C4B45F8203B2846D9
:1008D000FFF728FE012F01D1032300E00423236446
:1008E000089B1749E362099BA3620A9B23630B9B46
:1008F000304663630BF00EFB20B9042008F06AF861
:10090000066000E000200023A063E36328464FF464
:10091000FA63216C4FF47A72FFF724FEA36B204632
:1009200013B1FFF7B7FF02E0E16BFFF78EFF204640
:10093000012100F043F82046FEBD00BFB01A0100BF
:1009400000C0794438B500F1200405462046FFF781
:1009500055FE2846002100F031F82046FFF79CFEA6
:1009600080F00100C0B238BD014B0360704700BF8A
:10097000D01A010070477047034B10B5044603605E
:1009800008F02CF8204610BDD01A010038B50446F6
:1009900000252371049B25730648A3600B68206023
:1009A000E161084665612261DB6921469847257649
:1009B000204638BDD01A0100007970470173704796
:1009C00000697047037E73B504460BB900201AE036
:1009D0000D4B1B680193019D43698068EE1A0BF073
:1009E000ADF80AF08FFC02460B46002007490AF0DA
:1009F00007FE0022064B0AF0D9FC0AF071FF86427E
:100A0000E4D9656101207CBD0090FF1F0000F03F2C
:100A100000408F4001767047014B0360704700BF74
:100A2000F01A0100034B10B50446036007F0D6FF2F
:100A3000204610BDF01A010037B50C4D2B6800930D
:100A4000009A8368D31A8B4204460DD90D2006F014
:100A5000C5FAD0F1010138BF00210D2006F09EFA41
:100A60002B680193019BA3603EBD00BF0090FF1F58
:100A700001717047064B10B50360002304460371F3
:100A8000836001210D2006F0B5FA204610BD00BF9D
:100A9000F01A01000079704703790BB1642101E07D
:100AA0004FF47A71FFF7C8BF704708B107F096BFDF
:100AB000704708B107F092BF704708B107F08EBFCA
:100AC000704708B107F08ABF704708B50368C9B21C
:100AD0001B68984708BDFFFF70B50E4C0D462046B9
:100AE000FD211646FFF7F1FF284607F0A3F823681B
:100AF000C1B21B6820469847284607F09BF8236838
:100B0000024629465B682046984720463146FFF753
:100B1000DCFF70BD8092FF1F10B505480C46FE211A
:100B2000FFF7D3FF61782046BDE8104007F0A4B975
:100B30008092FF1F38B506480C46FE211546FFF788
:100B4000C4FF20462946BDE8384007F095B900BFEC
:100B50008092FF1F002310B51A4603E0C45C1219EF
:100B600092B201338B42F9DB104610BD30B5144B05
:100B700085B01B680193019D836C40F6B832EB1A77
:100B80009342044619D90123072141F201028DF84D
:100B900008308DF80E3002A800238DF80910ADF84A
:100BA0000A20ADF80C30FFF7D5FF2368ADF80C0034
:100BB0001B69204602A99847A56405B030BD00BF57
:100BC0000090FF1F70B50446FFF754FF114B00253E
:100BD0002360E56025616561A561E5612562656267
:100BE000A562E56225636563A56342F2107007F0B4
:100BF00047F82565E56365642564182007F0EAFE7B
:100C0000064600F0C3FD2665A56484F84C502046D6
:100C100070BD00BF201B0100F8B5C3680669C2693A
:100C2000F61A8369D31A0446B6109F10002504E013
:100C300053F82500FFF786FE0135BD42A369F7DBB7
:100C4000E361636A0025A36206E053F8250010B152
:100C500003685B6998470135B542E368F5DB2361BA
:100C6000002384F84C306364E3632364F8BDFFFF22
:100C70000F4B10B504460360006D10B103685B684C
:100C80009847002323652046FFF7C6FF206BFFF738
:100C900018FF606AFFF711FFA069FFF70AFFE0681D
:100CA000FFF703FF2046FFF7B7FE204610BD00BF49
:100CB000201B010010B50446FFF7DAFF204607F0BD
:100CC0008DFE204610BD0269C368D31A70B5054673
:100CD0009E10002406E0EB6853F8240003681B68AC
:100CE00098470134B442F6DB70BD38B500230C469A
:100CF0000B714B71084649781546FFF72BFF2B1AED
:100D0000A0805842584138BD826A436AD31A70B5F0
:100D100005469E10002406E06B6A53F82400036821
:100D20009B6998470134B442F6DB70BD13B5692363
:100D30008DF8003008238DF8013041F20103ADF841
:100D400002300B78672B08BF0B898DF806304B7883
:100D500004468DF80730082100236846ADF80430BA
:100D6000FFF7F8FE2368ADF804001B6920466946CA
:100D700098471CBD7FB50446FFF78CFE0646002849
:100D800038D1206D00F024FD50B933E020462946CB
:100D9000AA88FFF7AAFF58B9206D00F00BFD29E0E3
:100DA000206D00F001FD0378652B0546F4D1EDE7D9
:100DB0002046A979FFF75CFE20462946FFF7B6FFDB
:100DC00076238DF8043041F20103ADF806300A4B6A
:100DD000ADF808600A2101A88DF80510CDF80A3099
:100DE000FFF7B8FE2368ADF808001B69204601A98B
:100DF0009847D1E77FBD00BF000040402DE9F04794
:100E0000CB889CB005460C460E2B00F2F181DFE842
:100E100013F007016E0195017B01EF01A9013B0071
:100E2000A0018B010F0058015B019E00BC012B014A
:100E3000C26983690026D31A4FEAA30830464645A3
:100E400003DA002840F0D081AAE1002840F0CC81EC
:100E5000442007F0BFFDD4F8161022890091D4F881
:100E60001210D4F80E300191D4F81A100291D4F86F
:100E70001E100391D4F822100491D4F80A100591A1
:100E80002946FFF717FDAFE1826A436A0026D31AAD
:100E90004FEAA3083046464503DA002840F0A48113
:100EA0008CE1002840F0A081B02007F093FD80463F
:100EB000D4F812002789D4F80A600AF023FACDE9A1
:100EC0000001D4F80E000AF0FBF9D4F816300493B0
:100ED000D4F81A300593D4F83A300693D4F83E305B
:100EE000CDE90201D4F81E0007930AF0E9F9CDE933
:100EF0000801D4F822000AF005FACDE90A01D4F875
:100F000026000AF0FFF9CDE90C01D4F82A000AF016
:100F1000F9F9D4F82E301093D4F832301193D4F874
:100F200036301293D4F842301393D4F846301493E9
:100F3000D4F84A301593D4F84E30CDE90E0116930B
:100F4000404629463A46334601F0CEFA4CE1826AE1
:100F5000436A0026D31A4FEAA3083046464503DA0F
:100F6000002840F0418134E1002840F03D81B0206C
:100F700007F030FD8046D4F812002789D4F80A60C3
:100F80000AF0C0F9CDE90001D4F80E000AF098F992
:100F9000D4F816300493D4F81A300593D4F83A30C4
:100FA0000693D4F83E30CDE90201D4F81E00079331
:100FB0000AF086F9CDE90801D4F822000AF0A2F976
:100FC000CDE90A01D4F826000AF09CF9CDE90C011C
:100FD000D4F82A000AF096F9D4F82E301093D4F8F9
:100FE00032301193D4F836301293D4F84230139340
:100FF000D4F846301493D4F84A301593D4F84E30D0
:101000001693D4F85230CDE90E011793D4F8563028
:101010004046189329463A46334600F0C7FFE3E0BE
:10102000C36B002B40F0E080436AD1F8162053F8E0
:101030002280D1F81A204C2053F8227007F0CAFC05
:10104000D4F80E1022890091D4F81210D4F80A3086
:101050000191D4F81E10CDF8088004910397294619
:10106000064601F01FFE2AE0436AD1F8162053F825
:1010700022A0D1F81A2053F82290D1F81E2053F85C
:101080002280D1F822205C2053F8227007F0A2FCC5
:10109000D4F80E1022890091D4F81210D4F80A3036
:1010A0000191D4F82610CDF808A00691CDF80C9047
:1010B000CDF8108005972946064605F0A7F9EE639E
:1010C00092E01CAE0A2301E01CAE0B2306F8013DA2
:1010D000242007F07FFCD4F80A3022890093D4F84A
:1010E0000E3029460193334601F080FE7CE0242037
:1010F00007F070FCD4F80E1022890091D4F80A3061
:10110000294601F0DDFE6FE04FF4927007F062FCBB
:10111000618AD4F80A2000910646D4F80E30294698
:1011200002F01CF96E645FE0242007F053FC2946AE
:101130002289D4F80E3004F0B3F855E0FC2007F013
:1011400049FC2946D4F80A20D4F80E3004F036F9C8
:101150004AE0AC2007F03EFC2946D4F80A2004F00F
:1011600047FF41E0382007F035FCD4F812102289FF
:101170000091D4F81610D4F80E300191D4F81A105A
:101180000291294604F0D8FF2EE0242007F022FC2B
:101190002946D4F80A20D4F80E3005F00BF823E0E5
:1011A000AB69278953F82600FFF70AFCB7EB000E5E
:1011B000DEF1000050EB0E00013640E66B6A278935
:1011C00053F82600FFF7FCFB391A48424841013624
:1011D00061E66B6A278953F82600FFF7F1FB3A1A9C
:1011E000504250410136B9E628462146FFF79EFDA0
:1011F0001CB0BDE8F087FFFF2DE9F041044688B040
:10120000FFF74AFC206D00F05DFB206D00F0B2FBA3
:101210002046FFF73FFC002840F05481206D00F08D
:10122000A7FB002840F04E8156E1206D00F0BCFA8B
:10123000054629462046AA88FFF757FD002800F0FA
:1012400030812B780F2B00F0938010D8072B2CD0F7
:1012500005D8022B36D0062B40F0238148E00B2B1B
:1012600065D00C2B68D0082B40F01B8155E0512B2A
:1012700055D006D8132B00F0CE80142B40F01181EE
:10128000EBE0672B19D0752B00F08880652B40F0C0
:1012900008812046A979FFF7EBFB2046FFF7FAFB10
:1012A00030B92046FFF7B8FC02E0AB7984F84C3047
:1012B00020462946FFF73AFDF3E020462946FFF78E
:1012C0009DFDEEE0E269A369D31A9F1000260CE0B1
:1012D000A36953F82600FFF773FBAB7998424FEAF6
:1012E000860801D1A36938E00136BE42F0DBD8E0C0
:1012F000A26A636AD31A9F1000260BE0636A53F850
:101300002600FFF75DFBAB7998424FEA860800D1D3
:101310003EE00136BE42F1DBC3E0E06B08E0E06B8B
:10132000002800F0BE80294601F016FBB9E0606C91
:10133000002800F0B68012E0626B236BD31A9F1076
:10134000002612E0236B53F82600FFF739FBAB7938
:1013500098424FEA860807D1236B53F808000368C8
:1013600029465B6898479CE00136BE42EADB98E07C
:10137000A26A636AD31A9F1000260CE0636A53F8CE
:101380002600FFF71DFBAB7998424FEA860801D192
:10139000636AE2E70136BE42F0DB82E011238DF89A
:1013A00004301A238DF8053041F20103ADF8063000
:1013B000E62100234A48ADF8083002F033FBE7216C
:1013C000CDF80A00464802F02DFBE821CDF80E00CA
:1013D000434802F027FBE921CDF81200404802F013
:1013E00021FBEA21CDF816003D4802F01BFB9DF8D9
:1013F0000550CDF81A00294601A8FFF7ABFB294696
:10140000ADF8080001A805F0D9FE364803680D21A3
:101410001B68984745E02769E368FF1ABF1000265C
:1014200018E0E36853F82600FFF7C6FAAB79834269
:101430004FEA86084CD1E36853F82600FFF7C0FA5C
:10144000EB79984244D1E368297A53F80800FFF712
:10145000E1FA26E0BE42E4DB23E02769E368FF1AF5
:10146000BF1000261BE0E36853F82600FFF7A4FA3C
:10147000EB7983424FEA86082CD1E36853F82600C3
:10148000FFF79EFAAB79984224D1E368297A53F8A2
:101490000800D5F8092003689B68984701E0BE4220
:1014A000E1DB206D00F086F994F84C30A3B12046C2
:1014B000FFF709FC2046FFF727FC206C60B103F022
:1014C000A7FF09E0206D00F083F90028ECD0ACE61E
:1014D0000136BFE70136E2E708B0BDE8F08100BFA2
:1014E000298FFF1FA492FF1FF8B590E84800F61A55
:1014F000B61014BF334601239B1904460F466FF004
:10150000404603D2B34238BF1E4626B1B00007F0B2
:1015100061FA054600E0354662682368D31A9B10DD
:1015200005EB83013A6809B145F8232094E882006D
:101530007F1ABF1003D02846BA000BF023F905EB41
:1015400087072068FFF7B1FA0437256005EB8605A9
:101550006760A560F8BDF8B590E84800F61AB610C7
:1015600014BF334601239B1904460F466FF04046D3
:1015700003D2B34238BF1E4626B1B00007F02AFAA4
:10158000054600E0354662682368D31A9B1005EBD8
:1015900083013A6809B145F8232094E882007F1A54
:1015A000BF1003D02846BA000BF0ECF805EB870714
:1015B0002068FFF77EFA0437256005EB8605676033
:1015C000A560F8BDF8B590E84800F61AB61014BF4B
:1015D000334601239B1904460F466FF0404603D261
:1015E000B34238BF1E4626B1B00007F0F3F90546F6
:1015F00000E0354662682368D31A9B1005EB83012F
:101600003A6809B145F8232094E882007F1ABF1098
:1016100003D02846BA000BF0B5F805EB8707206821
:10162000FFF74BFA0437256005EB86056760A56078
:10163000F8BD38B542688468A24203460D4606D01C
:10164000096802B111605A6804325A6038BDFFF768
:10165000B9FF38BDF8B590E84800F61AB61014BFC7
:10166000334601239B1904460F466FF0404603D2D0
:10167000B34238BF1E4626B1B00007F0ABF90546AD
:1016800000E0354662682368D31A9B1005EB83019E
:101690003A6809B145F8232094E882007F1ABF1008
:1016A00003D02846BA000BF06DF805EB87072068D9
:1016B000FFF707FA0437256005EB86056760A5602C
:1016C000F8BD1FB50369426901919342044605D0F4
:1016D00003B1196023690433236103E00C3001A9CD
:1016E000FFF702FF0198FFF767F90238072834D89F
:1016F000DFE800F03133331616331F04E369216A43
:10170000019A8B42039205D003B11A60E369043356
:10171000E36122E004F1180003A9FFF71CFF1CE0BD
:1017200004A9019B04F1240041F8043DFFF781FF67
:1017300013E0636BA16B019A8B42039205D003B156
:101740001A60636B0433636307E004F1300003A99C
:10175000FFF780FF01E0019B23641FBD054B10B51F
:1017600004460360006908B107F03AF900232361D9
:10177000204610BD501B010010B50446FFF7EEFFD8
:10178000204607F02BF9204610BDFFFF054A0260F6
:10179000002202710261C260826042718271C27174
:1017A000704700BF501B010003790BB100697047FF
:1017B0001846704710B50446006908B107F010F9E3
:1017C000002323612371A371E371E360A36010BD63
:1017D000007970470B78132B34D00FD8082B22D008
:1017E00005D8062B27D022D8022B2FD123E00C2B93
:1017F0001FD00F2B1FD00B2B28D118E0652B16D034
:1018000006D8512B11D0642B0DD0142B1ED11BE008
:101810006C2B08D0752B10D0672B17D10E23C3600B
:101820000123437114E00E2311E012230FE007237C
:101830000DE008230BE00B2309E00623C36001231E
:10184000C37105E0092302E00D2300E00023C3601B
:10185000C068704770B50446C0680E4607F0BCF813
:101860000023054602E0C25CEA540133B34220691A
:10187000F9DB08B107F0B4F8256170BDCB880E2BF9
:101880001ED8DFE803F00E1919101D170A121908E7
:1018900019190C191B00262311E052230FE05A23BB
:1018A0000DE022230BE0142309E00E23C360012383
:1018B000037105E01E2302E0122300E02A23C36027
:1018C000C06870472DE9F843044606F0FDFA002889
:1018D0004CD02379002B49D144E006F0F5FA0028DA
:1018E00033D0E368002B11DC06F0FCFA414620758A
:1018F000A5602046FFF76EFF07F06EF8A368227D13
:101900002061C254A3680133A3601EE0A6689E4212
:101910001BDAD4F8109006F0E5FA09F80600E3683F
:1019200001369E42A66010D163790BB927710CE095
:1019300021692046FFF7A2FF20463146FFF78AFFC4
:10194000657102E0012704F114082579002DC4D047
:10195000BDE8F88306F0C6FAFE2807D10123A3717B
:10196000BDE8F883A379002BECD1F3E7BDE8F88359
:10197000C07970472DE9F843044605F011FC0028B2
:1019800053D02379002B50D14BE005F009FC0028FF
:101990003AD0E368002B18DC05F0BCFBC0B2752818
:1019A0002075A560204603D0BDE8F843FFF702BFCD
:1019B0004146FFF70FFF07F00FF8A368227D206173
:1019C000C254A3680133A3601EE0A6689E421BDADE
:1019D000D4F8109005F09EFB09F80600E368013684
:1019E0009E42A66010D163790BB927710CE0216982
:1019F0002046FFF743FF20463146FFF72BFF657176
:101A000002E0012704F114082579002DBDD0BDE8BE
:101A1000F88305F07FFBFE2807D10123A371BDE801
:101A2000F883A379002BECD1F3E7BDE8F883FFFF3F
:101A3000034B10B504460360FEF796FF204610BD29
:101A4000601B010010B50446FFF7F2FF204606F0C8
:101A5000C5FF204610BDFFFF37B5069D0095044623
:101A6000FEF794FF014B204623603EBD601B010042
:101A7000084B10B504460360D0F8AC0008B106F07E
:101A8000ADFF0023C4F8AC30204600F029FB20460F
:101A900010BD00BF881B010010B50446FFF7E8FF2A
:101AA000204606F09BFF204610BD10B50368017A62
:101AB0001C7843681A78437A1A40837A0C4203F000
:101AC000030318BF43F004030AB143F008039A105C
:101AD000013B82720D2B14D8DFE803F0070A0D0AD0
:101AE0001310070710130A0D0A07C368013307E034
:101AF000C368013B04E0C368023301E0C368023BF2
:101B0000C36010BD70B5054600F00FFBD5F8AC40C2
:101B10000646237C72B6012B02D82046FFF7C5FF8C
:101B200062B6E368D5F8A80058430AF00BF80146FE
:101B3000304609F053FF4FF07C510AF057F870BD62
:101B400008B5034BD3F88400FFF7AFFF08BD00BF13
:101B5000388EFF1F08B5034BD3F88000FFF7A5FFB1
:101B600008BD00BF388EFF1F08B5024BD86FFFF7C6
:101B70009CFF08BD388EFF1F08B5024B986FFFF71A
:101B800094FF08BD388EFF1F08B5024B586FFFF752
:101B90008CFF08BD388EFF1F08B5024B186FFFF78A
:101BA00084FF08BD388EFF1F08B5024BD86EFFF7C3
:101BB0007CFF08BD388EFF1F08B5024B986EFFF7FB
:101BC00074FF08BD388EFF1F08B5024B586EFFF733
:101BD0006CFF08BD388EFF1F08B5024B186EFFF76B
:101BE00064FF08BD388EFF1F08B5024BD86DFFF7A4
:101BF0005CFF08BD388EFF1F08B5024B986DFFF7DC
:101C000054FF08BD388EFF1F08B5024B586DFFF713
:101C10004CFF08BD388EFF1F08B5024B186DFFF74B
:101C200044FF08BD388EFF1F08B5024BD86CFFF784
:101C30003CFF08BD388EFF1F08B5024B986CFFF7BC
:101C400034FF08BD388EFF1F08B5024B586CFFF7F4
:101C50002CFF08BD388EFF1F08B5024B186CFFF72C
:101C600024FF08BD388EFF1F08B5024BD86BFFF765
:101C70001CFF08BD388EFF1F08B5024B986BFFF79D
:101C800014FF08BD388EFF1F08B5024B586BFFF7D5
:101C90000CFF08BD388EFF1F08B5024B186BFFF70D
:101CA00004FF08BD388EFF1F08B5024BD86AFFF746
:101CB000FCFE08BD388EFF1F08B5024B986AFFF77F
:101CC000F4FE08BD388EFF1F08B5024B586AFFF7B7
:101CD000ECFE08BD388EFF1F08B5024B186AFFF7EF
:101CE000E4FE08BD388EFF1F08B5024BD869FFF728
:101CF000DCFE08BD388EFF1F08B5024B9869FFF760
:101D0000D4FE08BD388EFF1F08B5024B5869FFF797
:101D1000CCFE08BD388EFF1F08B5024B1869FFF7CF
:101D2000C4FE08BD388EFF1F08B5024BD868FFF708
:101D3000BCFE08BD388EFF1F08B5024B9868FFF740
:101D4000B4FE08BD388EFF1F08B5024B5868FFF778
:101D5000ACFE08BD388EFF1F08B5024B1868FFF7B0
:101D6000A4FE08BD388EFF1F08B5212800F2D580DB
:101D7000DFE810F0220027002C00310036003C0084
:101D8000410046004B00500055005A005F006400BF
:101D900069006E00730078007D00820087008C006F
:101DA000910096009B00A000A500AA00AF00B4001F
:101DB000B900BE00C300CD00594B0020196059493D
:101DC000A0E0574B0120596057499BE0544B02203B
:101DD0009960564996E0524B0320D960544991E0EE
:101DE0004F4B04201961024652498CE04C4B0520B0
:101DF0005961514986E04A4B062099614F4981E07B
:101E0000474B0720D9614E497CE0454B08201962B9
:101E10004C4977E0424B092059624B4972E0404BF4
:101E20000A20996249496DE03D4B0B20D96248492F
:101E300068E03B4B0C201963464963E0384B0D20AA
:101E4000596345495EE0364B0E209963434959E09A
:101E5000334B0F20D963424954E0314B10201964B1
:101E600040494FE02E4B112059643F494AE02C4B2A
:101E7000122099643D4945E0294B1320D9643C491F
:101E800040E0274B142019653A493BE0244B1520CC
:101E90005965394936E0224B16209965374931E0BA
:101EA0001F4B1720D96536492CE01D4B18201966A9
:101EB000344927E01A4B19205966334922E0184B60
:101EC0001A20996631491DE0154B1B20D96630490F
:101ED00018E0134B1C2019672E4913E0104B1D20EE
:101EE00059672D490EE00E4B1E2099672B4909E0DA
:101EF0000B4B1F20D9672A4904E0094BC3F8801017
:101F000028492020042204F0D3FE012008BD044B00
:101F10002120C3F884102449F4E7002008BD00BF45
:101F2000388EFF1F591D0000491D0000391D00009B
:101F3000291D0000191D0000091D0000F91C0000EA
:101F4000E91C0000D91C0000C91C0000B91C0000DD
:101F5000A91C0000991C0000891C0000791C0000CD
:101F6000691C0000591C0000491C0000391C0000BD
:101F7000291C0000191C0000091C0000F91B0000AE
:101F8000E91B0000D91B0000C91B0000B91B0000A1
:101F9000A91B0000991B0000891B0000791B000091
:101FA000691B0000551B0000411B0000F0B599B0F3
:101FB000DDE91E45CDE90045DDE92045CDE90245D5
:101FC000229C0494239C0594249C0694259C0794AD
:101FD000DDE92645CDE90845DDE92845CDE90A4595
:101FE000DDE92A45CDE90C45DDE92C45CDE90E4575
:101FF0002E9C10942F9C1194309C1294319C13941D
:10200000329C1494339C1594349C0646169400F02C
:102010006BFA214B1420336006F0DCFC9DF8D47081
:102020009DF8D85004460221384604F0E3FF2846C4
:10203000022104F0DFFF194A52F8373003F500712E
:1020400021600121217252F83520617202F5007081
:102050000021E16060604FF4FA410139FDD193F84D
:10206000003292F8002203F00103D20744BF43F08C
:102070000203DBB2A37221463846FFF775FE214604
:1020800020742846FFF770FE237C18182074C6F8C9
:10209000AC40304619B0F0BD881B0100E81E0100BD
:1020A000022938B50446104609D003290DD001296C
:1020B00010D109F027F9A56AC5E90A010AE009F07B
:1020C00021F9A56AC5E90C0104E009F01BF9A56A2C
:1020D000C5E90E01A06ABDE8384000F055BBFFFF1E
:1020E0000C4B10B504460360806A08B106F076FC1C
:1020F000206A10B103689B689847606A08B106F0CF
:102100006DFC002363622362A3622046FFF790FC0C
:10211000204610BDB01B010010B50446FFF7E0FFDC
:10212000204606F05BFC204610BD38B5446A0546E3
:10213000237C72B6012B02D82046FFF7B6FC62B6AC
:10214000E368D5F8A800584309F0FCFC38BDFFFF50
:102150002DE9F047444B86B01B68059382460598ED
:1021600009F0AEF8DAE91423CDE9000108F06AFFBE
:10217000DAE9242306460F4600203C4909F040FADC
:1021800000223B4B09F012F902460B463046394615
:1021900009F092FB00285DD0DAF800305046DB6988
:1021A000984709F0AFF8DAE91E23CDE9020108F0FB
:1021B00049FF02460B4608F047FF29A3D3E9002355
:1021C00009F0F4F88046DAF89800894609F088F8B2
:1021D00002460B464046494609F012FA0022804664
:1021E000894630463946224B09F00AFA02460B4628
:1021F0004046494609F004FADAE9224502460B4610
:102200002046294609F0D2F822462B4606460F46BC
:102210000020164908F016FF0446DAF848000D467B
:1022200009F070F802460B462046294609F0BEF830
:1022300002460B463046394608F006FF09F078FBA7
:10224000DDE90223CAE91E23DDE90023CAE91423DC
:10225000CAF8480006B0BDE8F08700BFAFF30080C1
:10226000182D4454FB2109400090FF1F0000F03F4F
:1022700000408F40AFF30080006A08B503681B6818
:10228000984708BD2DE9F7431F4690F83030804647
:10229000164663B9194B846A1B680193019809F0CB
:1022A0000FF80022164B09F0ABF9C4E90401D8F885
:1022B0006090012388F83030484609F023F8324610
:1022C0003B4604460D4609F0E3FA60B909F10040C7
:1022D00009F018F832463B4604460D4609F0F6FA76
:1022E00008B934463D46054B1B680093009BC8E97E
:1022F0002045C8F83430BDE8FE8300BF0090FF1FC2
:1023000000408F4010B50446D1F8070008F0FAFFEE
:1023100002460B462046BDE81040FFF7B3BFFFFF63
:1023200013B5114B1B68019390F83030019A0446A5
:10233000C3B1436BD21A836B9A4213D90022002394
:102340000021C0E91A2380F830100020A064206A20
:10235000C4E91C23C4E9202303681B689847A06ACA
:1023600000F012FA1CBD00BF0090FF1FFFFFFFFF2F
:10237000036870B5DB6906469847014609F02EFBF5
:1023800008F0C0FF0AA3D3E9002309F00FF80446C0
:10239000D6F898000D4608F0A3FF02460B462046EB
:1023A000294609F02DF909F0C3FA306470BD00BF69
:1023B000182D4454FB2109402DE9D343214B1B68C0
:1023C00001930446019808F07BFFD4E91623804668
:1023D000894608F037FED4E9282306460F46002038
:1023E000194909F00DF90022184B08F0DFFF0246E9
:1023F0000B463046394609F069FA08B3E36B012B06
:1024000002D1A06C606403E02046FFF7B1FF206CAE
:1024100008F078FFC4E91A01A06A00F0BBF9E06A8D
:1024200008F05EFFD4E91C2308F0C0FFC4E9168958
:10243000C4E91C0109F054FA01462046FFF71CFFCD
:10244000BDE8DC830090FF1F0000F03F00408F409C
:1024500010B50446FFF77CFE94F8303023B12046D7
:10246000BDE81040FFF7A8BF10BD10B50446FFF748
:1024700057FF2046BDE81040FFF7EABF1FB50446EE
:10248000FEF7A0FA68B3A36C63646A238DF800308A
:102490000F238DF80130204641F20103ADF80230E0
:1024A000FEF78EFA8DF806002046FFF761FF636C99
:1024B000CDF80700CDF80B300023ADF804309DF8BF
:1024C00001101A4604E01DF80300121892B20133FD
:1024D0008B42F8DBE069ADF80420036869461B69AC
:1024E00098471FBDFFFFFFFF2DE9F0438DB0074662
:1024F00000930623DDF86090199EFFF7ADFA624B5A
:102500003B60279BFB63002387F83030269BBB632F
:10251000DDE91C23C7E92823DDE91423C7E92223C9
:10252000DDE91623C7E92423259AC7F89820289ABD
:10253000FA6240F2E7320024002500230C20914586
:10254000C7E91A457B643B64C7E91C45C7E91E45DA
:10255000C7E92045984609D106F03CFA31460446C1
:102560004A4D04F0F1F83C6200240AE006F032FA29
:1025700049460446324604F033F93C6240A5D5E9A9
:102580000045434E33680993099B7B6333680A9384
:102590000A9808F095FE33680B93C7E914010B986D
:1025A00008F08EFEC7F84880C7E91601582006F0EB
:1025B00011FADDE91E23CDE90023DDE92023CDE971
:1025C0000223DDE92223CDE904232A9B07F16802D7
:1025D000064607F17001069307F1800300F09CF8AE
:1025E000BE621420C6E9064506F0F4F99DF868605D
:1025F0009DF86C5004460221304604F0FBFC28464E
:10260000022104F0F7FC234A52F8363003F500713A
:1026100021600121217252F83520617202F50070AB
:102620000021E16060604FF4FA410139FDD193F877
:10263000003292F8002203F00103D20744BF43F0B6
:102640000203DBB2A37221463046FFF78DFB214621
:1026500020742846FFF788FB237C1818249B2074DD
:102660003B66299B7C623846C7F8A8300A21FEF7F2
:10267000A5F938460DB0BDE8F08300BFAFF3008088
:102680000000000000C05F40B01B010000407F4020
:102690000090FF1FE81E0100014A01704260704770
:1026A0007092FF1F70B50446406803680E461B68B1
:1026B0002178154698476068036831461B6898473B
:1026C0006068036829461B68984760682278036839
:1026D000B618A9191B6801F07F01984770BD7E2AC2
:1026E000A8BF7E226FF07D039A42B8BF1A46002A27
:1026F000B8BF5242D2B2FFF7D5BF10B54C1E012C65
:1027000009D802290CBF0421002101EBD271BDE8D8
:102710001040FFF7E4BF10BD13B580E80E00DDE9FF
:102720000423C0E90A23DDE90623C0E90C23DDE91F
:102730000823C0E90E23124B1B680193044601983D
:1027400008F0BEFD00220F4B08F05AFF00220023C4
:10275000C4E91223C4E9102307A3D3E90023C4E981
:102760000401C4E906230A9808F0CCFDC4E9140169
:1027700020461CBDAFF300800000000000C05F4099
:102780000090FF1F00408F4000220023C0E910236B
:102790007047FFFF2DE9F04F584B89B01B68079336
:1027A0008046079808F08CFD0022554B08F028FF62
:1027B000D8E90423CDE9040108F044FCD8F8082046
:1027C000D8F8043082468B46D2E90001D3E90023D1
:1027D00008F038FCD8E9062304460D46D8E9140170
:1027E00008F0E4FD524681460E465B4620462946E7
:1027F00008F0DCFDD8E9102308F026FC4A463346F1
:10280000CDE9020109F062F810B14A46334611E001
:1028100006F1004C6346DDE902014A46CDF804C0EA
:1028200009F036F8DDF804C010B9DDE9022301E053
:102830004A466346C8E910232046D8E90A232946B8
:1028400008F0B4FDD8E9102306460F46D8E90C017C
:1028500008F0ACFD02460B463046394608F0F4FB62
:10286000D8E9122306460F462046294608F0EAFB1F
:1028700052465B4608F0C4FED8E90E2308F096FDE8
:1028800002460B463046394608F0DEFBD8F8009089
:102890000B460246C9E90023D8F818B0D8F81CA0A6
:1028A0005A4653460E46074609F010F8002818BF4E
:1028B0005F4618BF56463A463346C9E90023D8F862
:1028C0001C30D8F818B003F1004A5A46534638462F
:1028D000314608F0DDFF00280CBF3A465A460CBFCF
:1028E00033465346C9E90023DDE90423C8E912450C
:1028F000C8E9042309B0BDE8F08F00BF0090FF1FB6
:1029000000408F40034B10B504460360FEF72CF8DF
:10291000204610BDD81B010010B50446FFF7F2FF9A
:10292000204606F05BF8204610BDFFFF37B5069D38
:102930001B7800950446FEF729F8064B2360079B99
:1029400063639DF8243084F82030089B204623637D
:102950003EBD00BFD81B010090F8203043B1D1F834
:1029600006308362D1F80A30C362D1F80E30436278
:10297000704713B5D1F806300193D1F80A2002ABA5
:1029800043F8082D0268D46993E80600A0471CBDEF
:1029900010B50446C06BFFF7C3FCE06BFFF758FDB2
:1029A000A06BFFF7BDFCA06BBDE81040FFF750BD6A
:1029B0002DE9F74302AB03E90600476B009E019D3A
:1029C00004463946304609F0C5F9216B8046284651
:1029D00009F00CF939468146384608F0FFFF0146F8
:1029E000484609F0B7F90146404608F0F7FF08F0FD
:1029F00089FC02460B46E06BFFF744FC676B3046F0
:102A0000394609F0A7F9216B0646284609F0EEF889
:102A100039460546384608F0E1FF0146284609F0E8
:102A200099F90146304608F0D7FF08F06BFC0246E2
:102A3000A06B0B4603B0BDE8F043FFF723BCFFFFDC
:102A4000034B10B504460360FFF75CFF204610BD42
:102A5000001C010010B50446FFF7F2FF204605F008
:102A6000BDFF204610BDFFFFF8B51046194614A360
:102A7000D3E9002308F0E8FA13A3D3E900230646BC
:102A80000F4606F001FA002204460D46304639464C
:102A9000002308F0FDFE40B1204629460AA3D3E9F1
:102AA000002308F0D1FA04460D462046294604A327
:102AB000D3E9002308F0C6FAF8BD00BFAFF30080E9
:102AC000182D4454FB210940182D4454FB21194072
:102AD00038B50446C06BFFF74BFC616C054608F047
:102AE0007BFF616B09F082F8656438BD38B5044638
:102AF000806BFFF73DFC216C054608F06DFF616BB4
:102B000009F074F8256438BD002170B506460160EF
:102B10004160104619460022094B08F047FC044664
:102B20000D4606F00FF908F003FF2946B060204675
:102B300006F0BEF808F0FCFEF060304670BD00BF45
:102B40000000E03F2DE9F04F91B08246FDF73AFFDB
:102B5000002800F0A3805046FFF7BAFF0446504615
:102B6000FFF7C4FF05462946204608F035FFDAF88E
:102B7000301009F0EFF8DAF8481009F037F8DAF811
:102B8000241008F02BFFCAF8240008F0BBFB024613
:102B90000B465046FFF768FF08F0CAFE29468346F9
:102BA000CAF82400204608F019FF4FF07C5109F0C4
:102BB0001DF808F0A7FB064658460F4608F0A2FB92
:102BC00004460D4606F074F80246DAF8280003922F
:102BD000029108F097FB039A029B80468946304693
:102BE000394608F0E3FB0B4602464946404608F0EA
:102BF0002BFA08F09DFE29468446CAF82800204694
:102C0000CDF804C006F09EF80246DAF82C000392D4
:102C1000029108F077FB039A029B80468946304672
:102C2000394608F0C3FB02460B464046494608F0C9
:102C30000BFA08F07DFE22460646CAF82C002B4609
:102C400005A85146FFF760FF6C23079A8DF82430E2
:102C50001A238DF82530DDF804C0CDF8362041F276
:102C60000103089AADF826300023CDF83A20ADF8DC
:102C70002830CDF82AC0CDF82E60CDF832B01A46F3
:102C800009A9505C01321B181A2A9BB2F8D1DAF854
:102C90001C00ADF8283003681B69984711B0BDE8E7
:102CA000F08FFFFF70B586B006AD002605F8016D08
:102CB00000930A9B01930B9B0293012303932B46E2
:102CC0000446FFF733FE084B23600C9BA3630D9B68
:102CD000E3630023236463646362A362E3620E9B85
:102CE0002046A36406B070BD001C01007047FFFFC2
:102CF000034B10B504460360FDF736FE204610BDB9
:102D0000281C010010B50446FFF7F2FF204605F02D
:102D100065FE204610BDFFFF38B5054690F820003F
:102D200003F0C8FE04462846FDF746FE0A28204662
:102D300006D108F007FF08F0E5FA0022104B06E084
:102D400008F000FF08F0DEFA09A3D3E9002308F039
:102D50002DFB09A3D3E9002308F052FC0022094B04
:102D600008F04EFC08F0E4FD38BD00BFAFF3008072
:102D7000666666666666C94000000000E0FFEF40D8
:102D80000000B44000408F4030B585B00446FDF7E8
:102D900019FE40B36D238DF804300B2300258DF808
:102DA0000530204641F20103ADF80630ADF8085079
:102DB000FDF706FE8DF80A002046FFF7ADFF2B4613
:102DC000CDF80B002A469DF8050003E0C95C5218B7
:102DD00092B20133834201A9F8DBE069ADF8082023
:102DE00003681B69984705B030BDFFFF73B5069EA9
:102DF0001B78079D00960446FDF7C8FD0A4B012D80
:102E0000236001D10E2304E0022D01D10F2300E045
:102E10001023236294F82000002104F0EBF8102026
:102E200003F01EFE20467CBD281C0100704737B50C
:102E30000446FDF7C7FD68B36E238DF80030082304
:102E400000258DF80130204641F20103ADF8023033
:102E5000ADF80450FDF7B4FD8DF8060094F820009D
:102E600004F0BCF8431B584258418DF807009DF808
:102E700001102B462A4604E01DF80300121892B2F6
:102E800001338B42F8DBE069ADF804200368694642
:102E90001B6998473EBDFFFF034B10B50446036016
:102EA000FDF762FD204610BD481C010010B5044628
:102EB000FFF7F2FF204605F091FD204610BDFFFF11
:102EC00013B5009301230446FDF760FD094B236011
:102ED000049B012B01D10B2300E00C23236294F807
:102EE0002000022104F086F8102003F0B9FD2046EE
:102EF0001CBD00BF481C0100094B10B5044603600F
:102F0000006F10B103685B6898470023236704F1E2
:102F1000740001F011FF2046FDF726FD204610BD8C
:102F2000681C010010B50446FFF7E6FF204605F0D7
:102F300055FD204610BDFFFF10B50446D03001F00E
:102F40003DFD036820671B699847002812DD236F49
:102F5000E0691A79E2B95B79D3B115E00121002368
:102F600084F8C83084F8C91084F8CA1084F81411A1
:102F7000204605E0002384F8143120466FF001015B
:102F8000BDE81040FDF71ABD036804495B6903E022
:102F9000036803495B6900229847DFE7801C010052
:102FA0009A1C0100F8B51148069D16461F460C46AE
:102FB00000F0B2FB31460D4800F054FA00210B48F6
:102FC00000F0BAFB214609483A4600F083FC002491
:102FD00005E0064800F06EFA28550134E4B20348D3
:102FE00000F05EFA0028F4D1F8BD00BF148FFF1F77
:102FF0001FB503AB0093682102234122FFF7D2FFE4
:103000009DF80C009DF80D3043EA002000B205B099
:1030100000BDFFFFFFFFFFFF2DE9F043964BB9B066
:103020001B680B930B9FC36E0646B0F82001FC1A79
:1030300008F084FD08F066F902460B4600208F492F
:1030400008F0DEFA00228E4B08F0B0F908F048FCD8
:10305000844240F20381306F03689B6998470028DF
:1030600000F0FB8096F81531002B40F08A800CA808
:1030700000F06CFD0FA800F069FD12A800F066FDDD
:10308000316F0CA8143100F03FFD316F0FA80831EB
:1030900000F03AFD316F12A8203100F035FD336F9A
:1030A000DB6A0CAA0FA9009306F1740012AB01F0C1
:1030B00073FF306F03681B6A984718A800F002FF7F
:1030C00015A800F043FD06F1BC0115A800F01CFD99
:1030D00006F1AC0118A800F029FE0C9B33620D9B91
:1030E00073620E9BB3620F9BF362109B3363119B61
:1030F0007363129BB363139BF363149B3364189B3A
:103100007364199BB3641A9BF3641B9B304633654D
:10311000FFF76EFF08F016FD08F0F4F852A3D3E9AC
:10312000002308F06DFA0022564B07F08DFF08F0DF
:10313000FFFB70651698179D159C08F0E3F84CA3EB
:10314000D3E9002308F032F908F0F2FBB065284615
:1031500008F0D8F846A3D3E9002308F027F908F0CF
:10316000E7FB716E08F038FCF065204608F0CAF8FD
:103170003FA3D3E9002308F019F908F0D9FB306622
:103180006BE096F81651002D58D115A800F0DEFC22
:10319000316F15A8203100F0B7FC3446A94615ABB5
:1031A000D4F8FC1055F80380404608F0BDFE18B175
:1031B000C4F8FC804FF001094046D4F8081108F02B
:1031C000D1FE18B1C4F808814FF001090435043468
:1031D0000C2DE4D1B9F1000F3FD0D6F8FC0008F077
:1031E00091F80446D6F808010D4608F08BF8CDE9B1
:1031F0000001D6F8000108F085F8CDE90201D6F803
:103200000C0108F07FF8CDE90401D6F8040108F0BC
:1032100079F8CDE90601D6F8100108F073F82246D6
:10322000CDE908012B4618A8174909F097FDF06968
:10323000036818A95B69002298470EE00024012367
:1032400086F8FA3086F8154186F81641204606F1D0
:10325000F80101F0C9FF336F1C71F76639B0BDE8A2
:10326000F08300BFAFF3008052B81E85EBDD7440E1
:10327000F8C1631ADCA54C400090FF1F0000F03F2E
:1032800000408F4000003540BC1C0100AFF30080BF
:1032900010B5044690B0FFF7BFFE2046FDF792FB45
:1032A000002847D094F81521002A43D10DE001A948
:1032B000585C013312183A2B92B2F8D1E069ADF89C
:1032C000082003681B69984734E06F238DF80430A9
:1032D0003A238DF8053041F20103ADF80630E36A78
:1032E000ADF80820CDF80A30236BCDF80E30636BB3
:1032F000CDF81230236ACDF81630636ACDF81A3053
:10330000A36ACDF81E30A36BCDF82230E36BCDF865
:103310002630236CCDF82A30636CCDF82E30A36CA8
:10332000CDF83230E36CCDF83630236DCDF83A303D
:103330001346BCE710B010BD00230362C362836371
:10334000836443620363C363C3648362436303644C
:1033500003654FF07E5343647047FFFF37B5044663
:103360001D46009203230022FDF710FB194B204657
:1033700040F8743B01F006FD04F1D00000F05BFB67
:10338000154800F01DF92046FFF7D6FF2046002122
:10339000FDF714FB0023A3662366A365E36563655D
:1033A000BDF8183065660025A4F82031C4F81C511A
:1033B000C4F8185184F8145184F81551E566204674
:1033C000FFF7BAFD94F814310BB184F8165120467A
:1033D0003EBD00BF681C0100148FFF1F10B50446DE
:1033E00004F1F801002001F015FF002384F8FA3001
:1033F000084B094AC4F80831C4F80C31C4F810313C
:10340000236FC4F8FC20C4F80021C4F80421012271
:103410001A7110BD809618CB8096184B10B590F895
:1034200015318A7904460BB112B110BD22B910BD15
:10343000012380F8163110BD80F81631FFF7CEFF5A
:10344000012384F8153110BD054A137803F00203F7
:10345000DBB2002BF9D0024B02221A70704700BF7A
:1034600003600640094B1B7813B9094B1B782BB13D
:10347000084A1378202B03D90123037100207047D9
:103480000548C1540133137001207047268FFF1F78
:10349000E98EFF1F278FFF1FC88EFF1F7047FFFF9A
:1034A000024B1878024B1B78C01A7047258FFF1FFC
:1034B000248FFF1F064A074913780978994204D9D7
:1034C0000549C85C0133137070474FF0FF307047F7
:1034D000248FFF1F258FFF1FEA8EFF1F054B064A13
:1034E0001B7812789A4202D9044AD05C70474FF098
:1034F000FF307047248FFF1F258FFF1FEA8EFF1FAD
:1035000038B50E4B1B78144613B90D4B1B788BB195
:103510000C4B1D78C5F121039C4202D90122027196
:103520001C4609482246401909F072F8054B2D192E
:103530001D7000E01C46204638BD00BF268FFF1FCF
:10354000E98EFF1F278FFF1FC88EFF1F10B5104B7E
:103550001B7813F020040BD1122003F0D3FB0D4B8A
:103560001B68A3B10C4A14700C4A1078984710BD20
:103570000B4A13780133DBB2012B137002D8094BCD
:103580001B7823B91220BDE8104003F0BBBB10BD6F
:1035900003600640C48EFF1F248FFF1F258FFF1F6F
:1035A000108FFF1FE98EFF1F002202710273034A72
:1035B0004FF47A7181600260704700BFF01C010017
:1035C0000C4B00221A700C4B196841F04001196035
:1035D0000A4B0B491A704FF419720A6041F8042C17
:1035E000084A272111700421517120211171802274
:1035F0001A707047E98EFF1F348004400260064055
:103600000CA004400160064010B5374A137803F05F
:103610001001C9B221B903F04002D2B242B92EE082
:103620001021117003F04002D2B2002AF3D110BD74
:1036300013F004032D4A18D0002313702C4A137082
:103640002C4B1B68144603B1984722782A4B1AB9B1
:1036500027491A7001200870284AD02111701A7861
:10366000274B1A700122274B21E001211170264AB5
:103670001370224BC0221A7002331B7830E01F4AAD
:103680001F4C117811F0100117D013F0010310D165
:103690001C4917480A780078904205D9164B9B5C64
:1036A000013223700A7000E02370144BD0221A708C
:1036B00016E0C0231370237812E0144B1220197007
:1036C0000322134903F0F4FA0F4A207813781F2BD2
:1036D00006D80649097819B10E49C8540133137048
:1036E000014B02221A7010BD03600640C08EFF1FFE
:1036F000278FFF1F0C8FFF1FC88EFF1F0260064021
:1037000004600640288FFF1F258FFF1F108FFF1FAB
:103710004D350000EA8EFF1F044B054A4900197021
:1037200001231370034A1370704700BFC88EFF1F38
:10373000268FFF1F278FFF1F2DE9F041204B1222FC
:103740001A70204A0D46117801F02001C9B211B15A
:10375000B42313700BE019460A7802F02002D3B2AA
:10376000002BF9D1184A1370164BB0221A7000249E
:10377000164E174FDFF8608013E03B5D88F800308D
:10378000FFF762FE0E4B1B78DA0704D5002C14BF3E
:10379000032002200BE003F01003DBB233B9013445
:1037A000E4B23378A342E8D8002000E0042015B149
:1037B000044B80221A70074B00221A70BDE8F0817A
:1037C0000360064002600640E98EFF1F278FFF1F3F
:1037D000C88EFF1F268FFF1F046006402DE9F047AB
:1037E0001446344A1E4600231370334A1370334B79
:1037F00012221A70324A107800F02000C0B210B1C4
:10380000B42313700BE01846027802F02002D3B202
:10381000002BF9D12B4A1370294BB0221A704900A2
:10382000294D41F001012970FFF70EFE234B244A78
:103830001B7813F0110F04D0802313700020BDE813
:10384000F0872CB9002E0CBFA02680261670F5E755
:10385000012C01D1A82300E0A02313702B781B4F6B
:10386000DFF86480DFF8589025464FF0A80A0BE097
:10387000013DEDB2FFF7E8FD012D08BF89F800A07A
:1038800098F8003007F8013F012DF1D1FFF7DCFD7A
:103890000B4B0F49B0221A700B4A1078621ED2B23D
:1038A000885420460EB180221A70034B1C70BDE86C
:1038B000F08700BF248FFF1F258FFF1F0360064086
:1038C00002600640E98EFF1F04600640E98EFF1F7C
:1038D000EA8EFF1F0123FFF781BF0121FFF72CBFF5
:1038E0000148FFF761BE00BF148FFF1F2DE9F04FA5
:1038F0001546324A89B09A4613680291059300240E
:103900000746BDF84860DDF81480A1462FE02C483A
:103910003946FFF701FF02992948FFF7A3FD284820
:10392000FFF7DBFF26483946FFF7F6FE2A1B202A61
:10393000A8BF202222483946D2B2FFF7CBFF4AFA6D
:1039400089F34FF0000B03930BEB0901C9B21C483C
:103950000191FFF7A5FD0199E8B11EB3174B186857
:1039600006900698C8EB0000B0421BD313E0AC42AF
:10397000CDD36EB1114A12680792079AC8EB0208BC
:10398000B04505D34FFA89F2AA42B8BF4FF0FF09FC
:103990004FFA89F00FE0202D94BF64192034E4B26F
:1039A0008946E4E70648FFF785FD039B03F80B0013
:1039B0000BF1010BC8E709B0BDE8F08F0090FF1FC5
:1039C000148FFF1F13B51446009301222346FFF7FF
:1039D0008DFF1CBDF8B507460C460D483946154607
:1039E0001E46FFF799FE21460948FFF73BFD0024DC
:1039F00003E0315DFFF736FD0134E3B2AB4204482A
:103A0000F7D3FFF76AFFD0F1010038BF0020F8BDFF
:103A1000148FFF1F07B502AB03F8012D0122FFF73A
:103A2000D9FF0EBD084603F001B90846114603F060
:103A300011B903F0BFB84FF0FF32026050220261AB
:103A40002822426103228261C26110220262426224
:103A5000682202717047FFFF10B50B4C4FF07C518C
:103A6000A4EB600408F0C2F8214608F0BFF8214634
:103A700008F0BCF801464FF07F5007F0ADFF01465B
:103A8000204608F0B3F810BDDF59375F70B5044623
:103A900016460D4602784078B3B140EA022000B2E3
:103AA00008F050F8314608F0A1F82860E378A078D3
:103AB00043EA002000B208F045F8314608F096F8D5
:103AC00068602079637915E042EA002000B208F0CE
:103AD00039F8314608F08AF82860A378E07843EA9C
:103AE000002000B208F02EF8314608F07FF8686038
:103AF0006079237943EA002000B208F023F83146C8
:103B000008F074F8A86070BD884205D00B680360A7
:103B10004B6843608B688360704738B504460D4638
:103B20000068096807F058FF20606968606807F05E
:103B300053FF6060A968A06807F04EFFA0602046B0
:103B400038BD0023036043608360704710B50446AE
:103B5000FFF7F7FF204610BD70B505460C4600681C
:103B6000096808F043F861680646686808F03EF89E
:103B70000146304607F032FFA1680646A86808F003
:103B800035F80146304607F029FF70BD2DE9F047B2
:103B9000D1F808A0D0F8088005460C465046696860
:103BA000164608F023F861680746404608F01EF8FC
:103BB0000146384607F010FF3060D4F800902F68B7
:103BC0004046494608F012F851468046384608F00B
:103BD0000DF80146404607F0FFFE70606168384608
:103BE00008F004F869680446484607F0FFFF0146FC
:103BF000204607F0F1FEB060BDE8F0872DE9F04106
:103C0000D0F800804768866841460446404607F081
:103C1000EDFF39460546384607F0E8FF01462846DD
:103C200007F0DCFE31460546304607F0DFFF01466F
:103C3000284607F0D3FEFFF70FFF0021054608F0E6
:103C400069F9A0B928464FF07E5108F063F970B9C0
:103C50002946404607F0CAFF29462060384607F04B
:103C6000C5FF29466060304607F0C0FFA060BDE890
:103C7000F0812DE9FF410E4607C801AB83E807003C
:103C80001846FFF7BBFF029807F03CFB0446039879
:103C90000D4607F037FB02460B462046294605F045
:103CA000F1F807F045FE3060019807F02BFB044661
:103CB0000298DDF80C800D46014607F097FF41465B
:103CC0000746404607F092FF0146384607F086FE59
:103CD00007F018FB05F034F90B460246294620464A
:103CE00005F0D0F807F024FE002300F100407060DA
:103CF000B360BDE8FF810346006870B501465E68A9
:103D00009D6807F073FF31460446304607F06EFFAA
:103D10000146204607F062FE29460446284607F081
:103D200065FF0146204607F059FE70BD884207D066
:103D30000B6803604B6843608B688360CB68C3602B
:103D4000704770B505460E4600242859315907F0D2
:103D500045FE28510434102CF7D1284670BD70B5AB
:103D600005460E4600242859315907F035FE2851E2
:103D70000434102CF7D1284670BDF0B58BB0044642
:103D800001A80D46FFF7DDFE04A8FFF7DAFE07A83D
:103D9000FFF7D7FE63680193A3680293E368039378
:103DA0006B680493AB680593EB6804A901A80693BC
:103DB000FFF7D2FE07AA074604A901A8FFF7E6FE0F
:103DC00026682968304607F011FF394607F004FEDF
:103DD00004992060304607F009FF2D6801990746D5
:103DE000284607F003FF0146384607F0F7FD07991C
:103DF00007F0F4FD05996060304607F0F7FE029980
:103E00000746284607F0F2FE0146384607F0E6FD71
:103E1000089907F0E3FD0699A060304607F0E6FE3A
:103E200003990646284607F0E1FE0146304607F0B2
:103E3000D5FD099907F0D2FDE06020460BB0F0BD3A
:103E400038B5044600680D4607F0D0FE29462060CC
:103E5000606807F0CBFE29466060A06807F0C6FEE8
:103E60002946A060E06807F0C1FEE060204638BD4A
:103E700038B5044615460FC984E80F002046294688
:103E8000FFF77BFF204638BD38B5044615460FC9FD
:103E900084E80F0020462946FFF7D2FF204638BDB0
:103EA00038B5044615460FC984E80F002046294658
:103EB000FFF755FF204638BD002303604360836051
:103EC000C360704710B50446FFF7F6FF204610BDEB
:103ED0002DE9F843D0F80090D0F804808768C668D0
:103EE00049460446484607F081FE4146054640469D
:103EF00007F07CFE0146284607F070FD394605466E
:103F0000384607F073FE0146284607F067FD314644
:103F10000546304607F06AFE0146284607F05EFD7A
:103F2000FFF79AFD0021054607F0F4FFC8B92846BF
:103F30004FF07E5107F0EEFF98B92946484607F04A
:103F400055FE29462060404607F050FE2946606035
:103F5000384607F04BFE2946A060304607F046FE83
:103F6000E060BDE8F883FFFF2DE9F8430746D0F88D
:103F70000890D0F804800E464846F96807F036FEEF
:103F800039680446404607F031FE0146204607F0F6
:103F900025FD07F0B7F902460B4607F055F8044631
:103FA0000D464046414607F021FE494680464846B8
:103FB00007F01CFE0146404607F010FD07F0A2F98D
:103FC00002460B4607F040F802460B4600203049F7
:103FD00007F038F802460B462046294604F052FF07
:103FE00007F0A6FCB9683060386807F0FFFDF96893
:103FF0000446786807F0FAFD0146204607F0ECFC1D
:1040000007F080F902460B4607F01EF804F0E6FEC2
:1040100007F08EFCD7F8089079687060484607F082
:10402000E5FDD7F80C8039680446404607F0DEFD10
:104030000146204607F0D2FC07F064F902460B4621
:1040400007F002F804460D464846494607F0CEFD03
:1040500041460746404607F0C9FD0146384607F08D
:10406000BDFC07F04FF902460B4606F0EDFF024695
:104070000B460020064906F0E5FF02460B462046A7
:10408000294604F0FFFE07F053FCB060BDE8F8835A
:104090000000F03F2DE9F74F04460D4608684FF049
:1040A0007C5107F0A3FD07F02DF906460F4604F0FA
:1040B000FFFD07F03DFC39468146304604F042FEE4
:1040C00007F036FC4FF07C518346686807F08EFDA0
:1040D00007F018F906460F4604F0EAFD07F028FC41
:1040E00039468246304604F02DFE07F021FC4FF0A1
:1040F0007C510190A86807F079FD07F003F90646A6
:104100000F4604F0D5FD07F013FC3946054630464E
:1041100004F018FE07F00CFC51460646484607F02E
:1041200065FD01998046584607F060FD294607461F
:10413000404607F05BFD314603463846009307F0E2
:1041400055FD009B0146184607F048FC514620608B
:10415000584607F04BFD01998246484607F046FD58
:1041600029468146504607F041FD31468346484680
:1041700007F03CFD0146584607F02EFC29466060DA
:10418000484607F033FD31468146504607F02EFD84
:104190000146484607F022FC3146A060404607F041
:1041A00025FD29460646384607F020FD01463046E3
:1041B00007F012FCE060204603B0BDE8F04FFFF7C7
:1041C00087BE38B50D460446FFF776FE2B682360A0
:1041D0006B6803F100436360AB6803F10043A360C5
:1041E000EB6803F10043E360204638BD4079704737
:1041F00000487047081D010005207047436B4FF4CD
:10420000C87090FBF3F07047034B10B50446036091
:1042100000F0C0FB204610BD201D010010B5044673
:10422000FFF7F2FF204604F0D9FB204610BDFFFF48
:1042300010B5044600F0CEFB014B2046236010BDB4
:10424000201D01004B1FB3F5797F4FF0000308D20A
:104250004FF47A724163B2FBF1F18163C3630120D1
:10426000704718467047FFFF112907D8044A4BB220
:104270009A4003D580F88B100120704700207047CA
:1042800000C000FE082907D8044A4BB29A4003D563
:1042900080F88C100120704700207047000080FEDD
:1042A0004B1E632B03D8C0F89010012070470020EC
:1042B0007047FFFF08290BD001D829B117E010295A
:1042C0000AD0182913D10BE080F89410094B0AE0AA
:1042D00080F89410084B06E080F89410074B02E039
:1042E000074B80F89410C0F89830012070470020E8
:1042F000704700BFFDB30B39A9689239787D0B3A3E
:10430000787D8B3A08290CD001D829B11BE01029FF
:104310000CD0182917D10EE080F895104FF0625399
:104320000DE080F895104FF0645308E080F8951088
:104330004FF0665303E080F895104FF06853C0F8D3
:104340009C30012070470020704710B5382104468A
:10435000002290F88900FFF75DFB00282DD094F82B
:10436000890023210022FFF755FB30B394F8890020
:104370006A210022FFF74EFBF8B194F889006A2108
:104380000422FFF747FBC0B194F889006A2160223C
:10439000FFF740FB88B1322002F066FE94F88900F6
:1043A00038210122FFF736FB38B194F88900232128
:1043B0007822BDE81040FFF72DBB002010BDFFFFA5
:1043C00070B5514E8AB033880446722190F8890046
:1043D0000093022203ABFFF789FA00B911E09DF8C0
:1043E0000C509DF80D3003EB0525B5F5806F0AD113
:1043F0002046FFF7AAFFE36AA26B562101FB0233B6
:10440000E36200207EE0B5F5F07F11D9338894F89F
:104410008900009374210C2207ABFFF767FA00288C
:10442000EFD0E26AA36B0C3DD318E362772DECE783
:104430000B2DE6D9344D94F889002B887421009314
:104440000C2207ABFFF752FA0028DAD02B8894F839
:10445000890000934921082205ABFFF747FA00289D
:10446000CFD007A804F11401D4F89C200123FFF752
:104470000DFB0DF1220004F10801D4F8982001236E
:10448000FFF704FB214A0DF1150004F12001002380
:10449000FFF7FCFAE368206AD4F8A01003F10043A8
:1044A000E360236903F100432361636903F100437F
:1044B000636107F09BFBD4F8A4100546606A07F01F
:1044C00095FBD4F8A8100646A06A07F08FFB05F10B
:1044D0000045A06226622046656200F001FB20468E
:1044E00000F0AAFB94F8883023B1094B1B680493B1
:1044F000049B02E0E26AA36BD318E362002384F812
:10450000883001200AB070BD6687FF1F9A99193F55
:104510000090FF1F13B5164B04466A2190F88900DE
:104520001B880DF10702FFF74DFA08B900201DE0C6
:104530009DF8072094F8890022F0200242F0020240
:104540006A218DF80720FFF765FA0028EED03220A7
:1045500002F08AFD94F8890037218222FFF75AFA87
:104560000028E3D0322002F07FFD01201CBD00BFF7
:104570006687FF1F13B5144B04466A2190F8890023
:104580001B880DF10702FFF71DFA08B900201AE099
:104590009DF8072094F8890042F020026A218DF8E6
:1045A0000720FFF737FA0028F0D0322002F05CFD38
:1045B00094F8890037218022FFF72CFA18B13220B5
:1045C00002F052FD01201CBD6687FF1F38B590F830
:1045D0008B5090F89430C5F3C102D21804461B21C9
:1045E00090F88900D2B2FFF715FA40B194F889002B
:1045F0001A2105F00702BDE83840FFF70BBA38BDB5
:1046000010B504461C2190F8890094F89520FFF716
:1046100001FA40B194F8890094F88C201D21BDE87E
:104620001040FFF7F7B910BD436BB3F57A7F0ADC92
:104630004FF47A7292FBF3F35A1E90F88900192115
:10464000D2B2FFF7E7B901207047426BD0F8903043
:1046500090F8890092FBF3F2013A1F2AA8BF1F22AB
:104660003421D2B2FFF7D6B91FB5012380F88830C4
:10467000036B1A79044680F889201969FFF7E2FD77
:10468000236B20465969FFF70BFE236B2046197EEA
:10469000FFF7EAFD236B2046197FFFF7F3FD236B3D
:1046A000204693F82010FFF705FE236B204693F871
:1046B0002410FFF727FE204600F0B2F994F8890095
:1046C0006B218022FFF7A6F9002800F018816420F2
:1046D00002F0CAFC94F889006B210022FFF79AF9D6
:1046E000002800F00F81A74B94F889001B887521E2
:1046F0000DF10B02FFF766F9002800F006819DF826
:104700000B30712B40F004812046FFF75FFF00283B
:1047100000F001812046FFF773FF002800F0FE80C3
:104720002046FFF781FF002800F0FB802046FFF7BE
:10473000F1FE002800F0F8800C200A210022FFF78B
:1047400069F928B92046FFF715FF6FF00B0017E154
:104750000C200A210F22FFF75DF928B92046FFF748
:1047600009FF6FF00C000BE1864B1B880C200093B7
:10477000102103220DEB0003FFF7B8F828B92046FB
:10478000FFF7F8FE6FF00D00FAE09DF80C0007F05F
:10479000D5F906F0B7FD00227B4B06F053FC002252
:1047A0007A4B06F003FE0022794B06F04DFC07F031
:1047B000BFF8C4F8A0009DF80D0007F0BFF906F09F
:1047C000A1FD0022704B06F03DFC00226F4B06F06D
:1047D000EDFD00226E4B06F037FC07F0A9F8C4F897
:1047E000A4009DF80E0007F0A9F906F08BFD002249
:1047F000654B06F027FC0022644B06F0D7FD002233
:10480000634B06F021FC07F093F80A21C4F8A800D6
:1048100000220C20FFF7FEF828B92046FFF7AAFE79
:104820006FF00E00ACE02046FFF7A4FE00287ED01B
:1048300094F8890024214022FFF7ECF8002879D071
:1048400094F8890025218C22FFF7E4F8002874D021
:1048500094F8890026210222FFF7DCF800286FD0A7
:1048600094F8890027218822FFF7D4F800286AD01D
:1048700094F8890028210C22FFF7CCF8002865D095
:1048800094F8890029210A22FFF7C4F8002860D093
:1048900094F889002A218122FFF7BCF800285BD018
:1048A00094F8890064210122FFF7B4F8002856D05B
:1048B00094F8890067210322FFF7ACF8002851D053
:1048C0002046FFF7C2FE00284FD094F889006B21E4
:1048D0000122FFF79FF800284AD094F889006C2144
:1048E0000022FFF797F8002845D02046FFF72DFD5E
:1048F000002843D0204600F0E5F8012040E04FF0CA
:10490000FF303DE06FF003003AE06FF0040037E065
:104910006FF0050034E06FF0060031E06FF0070043
:104920002EE06FF008002BE06FF00A0028E06FF037
:104930000F0025E06FF0100022E06FF011001FE083
:104940006FF012001CE06FF0130019E06FF014001C
:1049500016E06FF0150013E06FF0160010E06FF036
:1049600017000DE06FF018000AE06FF01A0007E082
:104970006FF01B0004E06FF01C0001E06FF01D0001
:1049800004B010BD6687FF1F000060400000703F4C
:104990000000F03F014B0360704700BF501D010055
:1049A00090F848007047FFFF034B10B504460360C2
:1049B00004F014F8204610BD501D010038B505461E
:1049C000B02004F007F829460446FFF731FC2046E2
:1049D00038BDFFFF38B5114B044640F8083B0D4683
:1049E000FFF7B4F804F11400FFF7B0F804F1200069
:1049F000FFF7ACF804F14C00FFF7A8F804F15800F9
:104A0000FFF7A4F804F17C00FFF7A0F8002325636A
:104A10002371637184F84830204638BD501D010071
:104A20002DE9F043064689B00020707101A900F01D
:104A3000F1FB002841D09DF80630012B3DD1204DDF
:104A40006C4603AF60690434616806F0C5FF29460F
:104A5000804607F087FA00B14546BC42F2D12846AD
:104A6000002107F061FA40BB28464FF07C5107F067
:104A7000BDF835468146002401AA13190434D3F841
:104A800010805F684046394606F0A6FF4FF07C5123
:104A900007F0ACF80146484607F05CF9394628674C
:104AA000404606F09BFF4FF07C5107F09FF804351D
:104AB00028660C2CE0D10123737109B0BDE8F083A6
:104AC000000080BF10B50446406B07F03BF801467C
:104AD0004FF0804007F03EF900232064636410BD6E
:104AE0002DE9F04300F15805804695E8070085B0B0
:104AF00001AC08F1140684E8070031462046FFF7B0
:104B00000CF831462846FEF7FFFF2046FFF7F3F882
:104B1000454907F009FA80B108F10800FFF7EBF802
:104B2000424907F001FA78B907E001329A42C8F821
:104B3000442002D1012388F8483008F1080008F128
:104B40004C01FEF7EAFF6CE0D8F84090484606F0CA
:104B5000D9FB02460B460020354906F073FA04469D
:104B6000D8F84C000D4606F0CDFB02460B46204619
:104B7000294606F01BFC06460F464846D8F80810A2
:104B800007F034F806F0BEFB02460B4630463946C5
:104B900006F05AFA06F0CCFEC8F84C00D8F85000DF
:104BA00006F0B0FB02460B462046294606F0FEFB07
:104BB00006460F464846D8F80C1007F017F806F0DE
:104BC000A1FB02460B463046394606F03DFA06F098
:104BD000AFFEC8F85000D8F8540006F093FB024628
:104BE0000B462046294606F0E1FB04460D464846A2
:104BF000D8F8101006F0FAFF06F084FB02460B46C8
:104C00002046294606F020FA06F092FED8F8343005
:104C1000D8F84420C8F8540005214B439A4284DB5D
:104C20008BE705B0BDE8F0830BD7233B0BD7233DC3
:104C30000000F03FFFFFFFFF037970B50646CBB9D8
:104C40004379BBB1006A716E06F0C6FE316F06F0A3
:104C5000CDFFB16E3062706A06F0BEFE716F06F075
:104C6000C5FFF16E7062B06A06F0B6FEB16F06F075
:104C7000BDFFB062306A2E4906F0B8FF06F042FB75
:104C80000446F06F0D4606F03DFB27A3D3E9002351
:104C900006F08CFB02460B462046294606F0D4F966
:104CA00006F046FE2249F067706A06F09FFF06F0A4
:104CB00029FB0446D6F880000D4606F023FB1AA314
:104CC000D3E9002306F072FB02460B462046294634
:104CD00006F0BAF906F02CFE1549C6F88000B06A55
:104CE00006F084FF06F00EFB0446D6F884000D465D
:104CF00006F008FB0CA3D3E9002306F057FB02469D
:104D00000B462046294606F09FF906F011FE06F1F3
:104D10007C01C6F8840006F12000BDE87040FEF773
:104D2000F3BE00BFAFF30080000000989999E93FFF
:104D3000CDCC4C3EAFF30080704730B5012385B039
:104D400080F85730044600F1480501A8FEF7FEFE42
:104D500001A92846FEF7D8FE294604F13800FFF7DE
:104D600099F904F12C0501A8FEF7F0FE01A92846E7
:104D7000FEF7CAFE04F11C002946FFF78BF905B0C7
:104D800030BDFFFF10B504460430FFF79BF804F177
:104D90001C00FFF797F804F12C00FEF7D7FE04F192
:104DA0003800FFF78FF804F14800FEF7CFFE084BFC
:104DB0006361084BA3610123204684F8543084F8D2
:104DC000553084F85630FFF7B8FF204610BD00BFBD
:104DD0006F12833A6F12033A2DE9F04794B00646FA
:104DE00068460C461746FFF76DF804A8FFF76AF807
:104DF00096F8552006F12C011AB12046FEF739FF2E
:104E000006E0084606F14801FEF77EFE00237363C4
:104E100096F85630002B6CD0F06A4FF07C5106F0BB
:104E2000E5FE06F06FFA04460D4603F041FF06F07A
:104E30007FFD29468046204603F084FF06F078FD7A
:104E40004FF07C518146306B06F0D0FE06F05AFAE6
:104E500004460D4603F02CFF06F06AFD2946824603
:104E6000204603F06FFF06F063FD514604464046BE
:104E700006F0BCFE51460490484606F0B7FE2146B7
:104E80000590404606F0B2FE2146069009F100402A
:104E900006F0ACFE002300933B68079001937B680B
:104EA0000293BB686A4608A804A90393FEF7E0FFD3
:104EB0000CA804A9FFF785F90CAA10A808A9FEF709
:104EC000D7FF10A96846FEF731FF029806F01AFADC
:104ED000044601980D4606F015FA02460B46204698
:104EE000294603F0CFFF06F023FD00F10040706378
:104EF00001E0336D736306F11C0806F12C07404690
:104F00003946FFF7C7F8DFF88C9000244FF0FF35E3
:104F100006F11C03494653F8243023F0004A50465A
:104F200007F020F808B1D14625460134042CEFD112
:104F300006EB85090021D9F81C40204606F0F4FF55
:104F400028B1D9F83800002107F00CF858B92046EC
:104F5000002107F007F8D0B106EB85050021A86B0A
:104F600006F0E2FF98B1F36903F10043F361336A9D
:104F700003F100433362736A03F100437362B36A5F
:104F800003F10043B36240463946FEF7EDFF14B02B
:104F9000BDE8F08700007AC42DE9F04F04468DB0DB
:104FA00002A81E460F469046169DFEF7CFFD94F8C8
:104FB0005730ABB13246A5652046414604F12C0579
:104FC000FFF70AFF04F138002946FFF763F804F100
:104FD00048002946FEF798FD002384F85730FDE08D
:104FE000A06D281A06F0AAFD7E4906F0B3FEA5655D
:104FF0002060002106F0A2FF002840F0EF8041462B
:1050000032462046FFF7E8FE636CD4F838A00193DF
:1050100094F85430D4F83C80266C13B102A8394679
:1050200004E005A8FEF792FD02A805A9FEF76CFDB5
:1050300002984FF07C5106F0D9FD4FF07C510746A5
:10504000039806F0D3FD4FF07C518146049806F09A
:10505000CDFD4146834607F1004006F0C7FD3146CD
:1050600003464846009306F0C1FD009B25680146B3
:10507000184606F0B1FC019903465846009306F025
:10508000B5FD009B0146184606F0A6FC294606F031
:10509000ADFD0146504606F0A1FC5146A0633846DE
:1050A00006F0A4FD314603465846009306F09EFDE7
:1050B000009B0146184606F091FC019903464846BC
:1050C000009306F093FD009B0146184606F084FC11
:1050D000294606F08BFD0146404606F07FFC51460E
:1050E000E063484606F082FD414603465846009379
:1050F00006F07CFD009B0146184606F06DFC019908
:1051000003463846009306F071FD009B01461846A1
:1051100006F064FC294606F069FD0146304606F0BB
:105120005DFC51462064584606F060FD41468246CB
:10513000484606F05BFD0146504606F04FFC3146FE
:105140008046384606F052FD0146404606F044FCD3
:10515000294606F04BFD0146019806F03FFC94F805
:105160005630606408A813B994F8553033B104F18F
:105170001C0104F13802FEF793FE01E0FEF7A2FEE7
:1051800004F1380508A9201DFEF7D0FD261D2A468A
:1051900008A804F11C01FEF783FE08A93046FEF7BB
:1051A000C5FD2168606906F021FDA169074606F08A
:1051B00015FC0146384606F0CDFD3146024608A8EA
:1051C000FEF762FE08A92846FEF7BBFD2846FEF75B
:1051D0007FFE284604F14801FEF7C6FE0DB0BDE88B
:1051E000F08F00BF00007A4470B583004401E41AD8
:1051F000FC230B7015234B7004F11C050E1B21467C
:10520000325D03480134FEF710FCAC42F7D170BDAB
:10521000298FFF1F70B583004401E41A00238B70AF
:105220000D460D482146FEF7FDFBFC2812D1611CFE
:105230000948FEF7F7FB15280CD104F11C062D1BBD
:1052400021460548FEF7EEFB28550134B442F7D15C
:10525000012070BD002070BD298FFF1F7047FFFF28
:10526000034B10B504460360FBF77EFB204610BDE0
:10527000801D010010B50446FFF7F2FF204603F041
:10528000ADFB204610BD006AC0B201B1012101F0A2
:1052900085BEC979003118BF0121FFF7F4BFFFFFB8
:1052A00037B51D460023009308230446FBF76EFB29
:1052B000094B012D236001D1062300E0072323625F
:1052C00094F82000012101F095FE20460121FBF712
:1052D00075FB20463EBD00BF801D01007047FFFFEB
:1052E000034B10B504460360FBF73EFB204610BDA0
:1052F000A01D010010B50446FFF7F2FF204603F0A1
:105300006DFB204610BDFFFFF0B587B00446FBF7EC
:1053100059FB00284ED071238DF8003004F120078E
:10532000172300258DF80130384641F20103ADF80E
:105330000230ADF8045000F067F906F0F9FACDF844
:105340000600384600F084F906F0F2FA84F8995025
:10535000CDF80A00D4F8A00005F0C2FF0022164BD9
:1053600006F04EF906F0E4FAD4F8C030CDF80E009D
:10537000ADF81230D4F8B03084F8B950ADF814302C
:10538000D4F8EC3084F8A9508DF816302E469DF8EC
:1053900001102B462A4604E01DF80300121892B2B1
:1053A00001338B42F8DBE069ADF8042003686946FD
:1053B0001B69984707B0F0BD0000594037B5044657
:1053C0001D46009202230022FBF7E0FA20460F4B15
:1053D00040F8203B00F02CF815B1C4F8F85003E079
:1053E0004FF41653C4F8F830D4F8F830580800F1E8
:1053F000B76000F55840B0FBF3F001F09FFF204686
:105400000121FBF7DBFA20463EBD00BFA01D0100D5
:1054100010B5044602F00AF9002808DD02F014F97C
:10542000C1B204F12000BDE8104000F0D3BA10BDB5
:105430000346002110B50224017041708180816013
:1054400001824161818301620185C162197319760C
:1054500083F8241083F8301083F83810C16383F880
:10546000391083F84810C16483F8491083F8581044
:1054700001660167C0F8801083F8591083F868103E
:1054800083F8691083F8781083F8791083F888100E
:1054900083F88910C0F8901083F8981083F8991059
:1054A000C0F8A01080F8B94083F8A81083F8A910BC
:1054B00083F8BA1083F8BB1083F8BC10C0F8C01092
:1054C000C0F8C410C0F8C810C0F8CC10C0F8D01094
:1054D000C0F8D41083F8AA1010BDA1F14103052B28
:1054E00002D8A1F137007047A1F16103052B94BFE9
:1054F000A1F15700A1F13000704738B50578B5F13A
:105500002D035D425D41044605B1441C204606F072
:105510005FFD64234343224614F8011BA1F13000D0
:105520000928F8D92E2910D15178A1F13000092885
:105530000BD809B2C800927800EB4101303AA1F5CE
:10554000F0715B18092A98BF9B1805B15B42184699
:1055500038BDFFFF38B50C46054606F039FD64231B
:10556000B0FBF3F21249228003FB12034B4328469F
:10557000014610F8012BA2F13005092DF8D92E2A89
:105580000CD108460A4A0A2503E0B2FBF5F202FBF9
:10559000013310F8011F30390929F6D90522534388
:1055A00001330322B3FBF2F363600023237238BD9F
:1055B00080969800034682B053F81C2F42605A68C8
:1055C00082601B7A0373034653F8282F02615A68DE
:1055D00042611B7A0376054B1B680193019B436371
:1055E00001234370037002B0704700BF0090FF1F9B
:1055F00000F11C0308461946FFF7ACBF00F1280371
:1056000008461946FFF7A6BF002370B5437006464B
:10561000808805F065FE0446B0680D4605F050FE32
:1056200009A3D3E9002305F0EBFF02460B46204611
:10563000294605F009FD0B46317B024609B103F10D
:1056400000431046194670BD0000000065CDCD41F5
:10565000002370B543700646008A05F041FE0446FB
:1056600070690D4605F02CFE09A3D3E9002305F06F
:10567000C7FF02460B462046294605F0E5FC0B46CF
:10568000317E024609B103F100431046194670BD50
:105690000000000065CDCD4183684360054B82B0BA
:1056A0001B680193019BC36001234370037002B028
:1056B000704700BF0090FF1F83684360054B82B0B6
:1056C0001B680193019BC36001234370037002B008
:1056D000704700BF0090FF1F10B504460846FFF753
:1056E0000CFFA06010BD10B50446084606F070FC23
:1056F000A06010BDC3688360054B82B01B68019336
:10570000019B436001234370037002B0704700BFE8
:105710000090FF1F10B504460846FFF7EEFEE0605C
:1057200010BDFFFFC3688360054B82B01B68019307
:10573000019B436001234370037002B0704700BFB8
:105740000090FF1F10B50446084606F041FCE060DB
:1057500010BDFFFF13B504462146103007F014FCBE
:10576000054B1B680193019B2362012384F82530BC
:1057700084F824301CBD00BF0090FF1F102207F0EA
:1057800061BCFFFF90F8A93070B50446002B62D0D1
:1057900090F8AA10FFF7A1FE94F8AB10054620463A
:1057A000FFF79BFE94F8A83000EB0510C5B2AB42A2
:1057B0004BD1D4F8D4300133C4F8D43094F8BC3091
:1057C00023B1D4F8CC300133C4F8CC3094F8B930DC
:1057D000B3B1012B2AD104F13800FFF75DFF04F1CA
:1057E0004800FFF769FF94F8BC30FBB12046FFF793
:1057F000E1FE04F15800FFF77DFF04F1680013E0BB
:1058000004F14800FFF758FF94F8BC3033B120464C
:10581000FFF7D0FE04F17800FFF76CFF04F1880079
:10582000FFF780FF04F19800FFF764FFD4F8C4503D
:10583000002D00F0BC80D4F8C430A86A996A07F043
:10584000B5FA002800F0B580B1E0D4F8D0300133CB
:10585000C4F8D0301DE090F8BA2042BB00F1AA0590
:1058600028465A4907F0A2FA08B9012308E0284659
:10587000574907F09BFA10B984F8B90002E00223F7
:1058800084F8B930D4F8C030C4F8C430D4F8C46057
:105890000EB9002070BDB06A294607F087FA0028CB
:1058A00080F290808AE00020C4F8C40070BD90F8B7
:1058B000B910022960D090F8AA30002B5CD042EADF
:1058C0004112013A282A57D8DFE802F01520252C8A
:1058D0003142494F515656565656565656565656BA
:1058E000565656565656565656565656151B20253B
:1058F0002C31383A3C00483004F1AA01FFF7ECFEA5
:105900003AE0B3F141004342434125E004F1AA01EA
:10591000FFF76EFE30E0B3F153014B424B4180F88C
:10592000243029E004F1AA01FFF768FE24E0B3F176
:1059300057025342534180F830301DE0583017E091
:10594000683015E0383004F1AA01FFF7CCFE13E00F
:10595000302B94BF0023012384F8BC300CE0883046
:1059600004F1AA01FFF7EEFE06E0983000E078307F
:1059700004F1AA01FFF7CEFED4F8C45004F1AA0640
:1059800004E028463146FFF7F9FE2D6B002D80D04C
:10599000D4F8C430A86A996A07F008FA00287FF49E
:1059A00078AFEB6A94F8BA20934209DD71E70120E1
:1059B00070BD2846FFF7CEFE2D6B39E7336B63E7EA
:1059C000E3D1DEE77FF46FAF63E700BFB81D0100EE
:1059D000BE1D010038B5D0F8C83001332429044673
:1059E0000D46C0F8C8302CD004D80A290CD00D2997
:1059F00036D109E02A2907D02C2931D190F8A830D6
:105A000083F02C0380F8A83094F8BB300E2B4FF0B5
:105A1000000005D8E31883F8AA002046FFF7B2FE7D
:105A200094F8BA30013384F8BA300023B5F12A0C67
:105A3000DCF1000555EB0C0584F8BB3084F8A95067
:105A400038BD0020022384F8BB0084F8BA0084F833
:105A5000A80084F8B93084F8A90084F8BC0038BDE7
:105A600094F8BB300D2B05D8E218013382F8AA5008
:105A700084F8BB3094F8A90028B994F8A8305D40A8
:105A800084F8A85038BD002038BDFFFF2E4B0022FF
:105A900030B51A6090F8943053B9D0F890305A6805
:105AA00002F596525A6090F899201A60012347E057
:105AB000012B28D190F8953073B100EB830290F858
:105AC0009710526C01338B4288BF0023D0F88C10A2
:105AD000A2F5965271B913E090F89640011F80F834
