:1000000000800020BD010000616400006164000008
:100010006164000061640000616400002D64000000
:100020002D6400002D6400002D6400006164000058
:10003000616400002D640000616400001D64000024
:10004000616400006164000061640000616400009C
:10005000616400006164000061640000616400008C
:10006000616400006164000061640000616400007C
:10007000616400006164000061640000616400006C
:10008000616400006164000061640000616400005C
:10009000616400006164000061640000616400004C
:1000A00005320000616400006164000061640000CA
:1000B000616400006164000061640000616400002C
:1000C000616400006164000061640000616400001C
:1000D000616400006164000061640000616400000C
:1000E00061640000616400006164000061640000FC
:1000F000616400006577000061640000E97200003F
:1001000061640000617B00006164000061640000C4
:1001100061640000616400006164000061640000CB
:1001200061640000616400006164000061640000BB
:100130006164000061640000055900006164000012
:10014000616400006164000061640000616400009B
:10015000616400006164000061640000616400008B
:10016000B5060000A97D0000616400006164000024
:10017000616400006164000061640000616400006B
:10018000616400006164000061640000616400005B
:100190006164000061640000616400004169000066
:1001A00091690000196A0000D56A0000596B0000CF
:1001B000616400006164000061640000544B4CF213
:1001C000205210B51A804DF628121A8000BF00BFC9
:1001D00006F04AF94F4B4FF010621A604E4A9A608F
:1001E0004E4ADA604E4B1A6812F4807204D14D49BF
:1001F0000A604FF4A8521A604B4B1A7802F00802BA
:10020000D2B21AB11A7842F008021A70474B484825
:10021000484C2A221A700023474A02E01959995083
:10022000043399188142F9D3444B454A002101E037
:1002300043F8041B9342FBD34249434800231A5816
:100240005A500433B3F5DE7FF9D1404B404A802148
:1002500003F8011B9342FBD13A4A3E4B1A603E4BD6
:100260000A221A703D4B24221A70A02203F8012C96
:100270003B4A137803F00203DBB2002BF9D0384A73
:10028000137803F01003DBB2002BF9D1344A137852
:1002900003F00C03082BFAD1324B03221A704022D0
:1002A0005A702F4A137803F02003DBB2002BF9D0E9
:1002B0002B4A137803F04003DBB2002BF9D02A4B12
:1002C0002A4A1A6002225A60294B20221A70244AB4
:1002D000137803F00C030C2BFAD1264A264B1A6034
:1002E000264B4BF67F321A60072243F8042C62B685
:1002F00006F0D6FC0B4B1B68DC0702D5204806F045
:1003000043FC0BF0D9FC06F0B5F808F07FFAFEE7E5
:100310000E20054030800440823F04000100002B85
:1003200010D0034014D0034002D0074000E0074043
:100330001C8DFF1FE8D800006087FF1F1C8DFF1F6A
:100340008092FF1F0082FF1F0000000000E400E019
:100350005FE400E008ED00E0005006400140064088
:10036000064006400440064044800440000003115B
:1003700000400640C01005000480044014E000E086
:10038000A0308755FFFFFFFFFFFFFFFFFFFFFFFFCD
:10039000FFFFFFFFFFFFFFFFFFFFFFFFFFFFFFFF6D
:1003A000FFFFFFFFFFFFFFFFFFFFFFFFFFFFFFFF5D
:1003B000FFFFFFFFFFFFFFFFFFFFFFFFFFFFFFFF4D
:1003C000FFFFFFFFFFFFFFFFFFFFFFFFFFFFFFFF3D
:1003D000FFFFFFFFFFFFFFFFFFFFFFFFFFFFFFFF2D
:1003E000FFFFFFFFFFFFFFFFFFFFFFFFFFFFFFFF1D
:1003F000FFFFFFFFFFFFFFFFFFFFFFFFFFFFFFFF0D
:10040000FFFFFFFFFFFFFFFFFFFFFFFFFEFFFFFFFD
:1004100008B548F61C50074BC1F6FF701B1A062B97
:1004200000D808BD40F20003C0F20003002BF8D052
:100430009847F6E71F8DFF1F08B548F61C5048F691
:100440001C53C1F6FF70C1F6FF731B1A9B1003EB20
:10045000D373591000D108BD40F20002C0F200026F
:10046000002AF8D09047F6E710B548F61C54C1F6BC
:10047000FF74237873B9FFF7CBFF40F20003C0F29B
:1004800000032BB14DF6E800C0F20000AFF300808E
:100490000123237010BD00BF08B540F20003C0F275
:1004A00000034BB14DF6E80048F62051C0F20000C1
:1004B000C1F6FF71AFF3008048F61C50C1F6FF7023
:1004C00003682BB140F20003C0F2000303B1984768
:1004D000BDE80840B0E700BF42F2107007F0D6B99F
:1004E00008B5064800F0CCFA10B9044800F0AAFBA1
:1004F0000248BDE8084000F0BDBE00BF388DFF1FB8
:1005000010B5054C204600F023FB0449044A204660
:10051000BDE810400BF0B2BB388DFF1F1512000074
:100520006087FF1F10B5002303710C4B0C22198844
:1005300001230B4208D1094A19431180084A118846
:1005400021EA0303138010BD04795B000134013AF2
:1005500004719BB2EDD1FF23037110BD948DFF1F79
:10056000908DFF1F2DE9F041984603790B2B04462F
:10057000174634D8CEB23046012106F041FB25792A
:10058000184B19485E55194B44F2506223F8152058
:10059000012303FA05F503881D43154B05801A68EE
:1005A0000C214F4301FB08F112F480022780618087
:1005B00011D1196841F4800119600E4B4FF6FF719B
:1005C00019605A609A6042F6A27243F8042C02F550
:1005D000803243F8042C084B4FF480721A60207963
:1005E000BDE8F081AE8DFF1F908DFF1F968DFF1F20
:1005F0003C8004400460034008E100E003790B2BD9
:1006000010D8094A012101FA03F11388C9430B40AC
:100610001380064A1088014011801BB9044B4FF427
:1006200080721A60704700BF908DFF1F948DFF1F6E
:1006300088E100E00C2359430388994203DB438897
:100640009942B8BF0B4602790B2A9CBF014921F899
:1006500012307047968DFF1F13B504790B2C02469C
:1006600016D8B1F5087F04DB02B0BDE81040FFF7F3
:10067000E1BF1388528821EAE1700092B428A8BF34
:10068000B4200021B42208F097F8024B23F814009C
:1006900002B010BD968DFF1F03790B2B06D8044ABC
:1006A000108840FA03F000F0010070470020704706
:1006B000908DFF1F70B5334A334C118894F9003088
:1006C00041FA03F111F0010F154606D02F4A00211F
:1006D000D05C06F069FA0C2323702D4B2C88197816
:1006E00000234DB223E0581944FA00F6013316F006
:1006F000010F1CD0254B264C185C2270012106F0FE
:1007000053FA2378204A59B21370224A32F8111052
:10071000214A106808181060204A106809181160F2
:10072000013342F6A37142F80C1C237070BD5A18B5
:1007300050B20B28D7DD164B17491A700A68C2F55C
:100740006A3303F5C073B3F5966F05DB4EF6602090
:100750008342A8BF034601E04FF496639A180A60EB
:100760000E4908681B180B600D4B42F6A371196007
:100770000C4B9A4204D9084A00231360044A1370B0
:1007800070BD00BF908DFF1F6487FF1FAE8DFF1FE0
:10079000928DFF1F968DFF1F8C8DFF1F0C600340F5
:1007A000006003407FA9030030B585B0044600F027
:1007B00003F958B36623ADF8003010230025ADF8D7
:1007C0000230204641F20103ADF80430ADF8065086
:1007D00000F0F0F8E16A0290A06B0AF059FF216B7B
:1007E0000BF014F9BDF8021003902B462A4604E0E2
:1007F0001DF80300121892B201338B42F8DBA06996
:10080000ADF80620036869461B69984705B030BDFE
:10081000074B10B504460360406B08B107F0E4FED7
:1008200000236363204600F09BF8204610BD00BF04
:1008300038CF000010B50446FFF7EAFF204607F066
:10084000D3FE204610BD70B5856A04460E460846A4
:1008500029460BF0E3F930B9656A304629460BF0BA
:10086000BFF900B93546216B28460BF01BF8E16A49
:100870000AF010FFA0630BF0DBF91C3401462046A0
:10088000BDE87040FFF7E8BEC968FFF7DCBF10B5F0
:1008900004461C30FFF700FF38B1636B2BB11968B9
:1008A0002046BDE81040FFF7CEBF10BDF7B50D9D47
:1008B0000C9E009504461F46092300F061F825466A
:1008C0001C4B45F81C3B2846FFF72CFE012F01D19D
:1008D000032300E00423E363089B1749A362099BF9
:1008E00063620A9BE3620B9B304623630BF06EF955
:1008F00020B9042007F074FE066000E00020002309
:100900006063A36328464FF4FA63E16B4FF47A7295
:10091000FFF728FE636B204613B1FFF7B8FF02E034
:10092000A16BFFF790FF2046012100F041F820461F
:10093000FEBD00BF38CF000000C0794438B500F1DB
:100940001C0405462046FFF759FE2846002100F00A
:100950002FF82046FFF7A0FE80F00100C0B238BD9E
:10096000014B0360704700BF50CF0000034B10B530
:100970000446036007F038FE204610BD50CF00004B
:1009800010B5044608482371002323742060A36037
:1009900002980B68A161E060626108469B6921468C
:1009A0009847204610BD00BF50CF00000079704727
:1009B000017470474069704773B50F4B1B68019312
:1009C000019D83680446C068EE1A0AF013FF0AF01E
:1009D000F5FA02460B46002008490AF06DFC002299
:1009E000074B0AF03FFB0AF0D7FD864202D9A5600B
:1009F000012000E000207CBD848FFF1F0000F03F3D
:100A000000408F40014B0360704700BF68CF00007B
:100A1000034B10B50446036007F0E6FD204610BD09
:100A200068CF000037B50C4D2B680093009A83689F
:100A3000D31A8B4204460DD90D2006F0D5F8D0F11B
:100A4000010138BF00210D2006F0AEF82B6801939C
:100A5000019BA3603EBD00BF848FFF1F01717047E3
:100A6000064B10B503600023044603718360012127
:100A70000D2006F0C5F8204610BD00BF68CF00006D
:100A80000079704703790BB1642101E04FF47A716A
:100A9000FFF7C8BF704708B50368C9B21B6898471D
:100AA00008BDFFFF10B505480C46FE21FFF7F3FF18
:100AB00061882046BDE8104006F086B92892FF1FE5
:100AC00038B506480C46FE211546FFF7E4FF2046E0
:100AD0002946BDE8384006F077B900BF2892FF1FCD
:100AE000002310B51A4603E0C45C121992B2013318
:100AF0008B42F9DB104610BD30B5144B85B01B6836
:100B00000093009D836C40F6B832EB1A9342044682
:100B100019D901230A2141F20102ADF80430ADF8E0
:100B20000C3001A80023ADF80610ADF80820ADF890
:100B30000A30FFF7D5FF2368ADF80A001B6920468D
:100B400001A99847A56405B030BD00BF848FFF1F81
:100B500070B50446FFF784FF0F4B00252360E56066
:100B600025616561A561E56125626562A562E56251
:100B700025636563A5632565E563656425641820C1
:100B800007F02EFD064600F02FFD2665A56484F8CB
:100B90004C50204670BD00BF98CF00000269C3686A
:100BA000D31A70B505469E10002406E0EB6853F892
:100BB000240003681B6898470134B442F6DB70BD1B
:100BC00038B500230C46CB80084649881546FFF708
:100BD00087FF2B1AE0805842584138BD826A436A29
:100BE000D31A70B505469E10002406E06B6A53F8D0
:100BF000240003681B6998470134B442F6DB70BDDA
:100C00001FB56923ADF800301023ADF8023041F272
:100C10000103ADF804300B88672B08BF4B890293A2
:100C20004B8804460393102100236846ADF8063034
:100C3000FFF756FF2368ADF806001B69204669469A
:100C400098471FBD38B50446FFF71AFF002823D187
:100C5000206D00F0EBFC58B938BD20462946EA88E3
:100C6000FFF7AEFF60B9206DBDE8384000F0D0BCA2
:100C7000206D00F0C7FC0388652B0546F3D1ECE737
:100C800029890031204618BF0121FFF7E7FE2046E1
:100C90002946FFF7B5FFE6E738BD2DE9F0470B8998
:100CA0009CB005460C460E2B00F2A281DFE813F043
:100CB000D8002F014F013A01A00160013400580112
:100CC00046010F001B011E0184006F01F600C2697E
:100CD00083690026D31A4FEAA3083046464503DA53
:100CE000002840F081815BE1002840F07D814020B8
:100CF00007F076FCA3696289009363690193E36955
:100D00000293236A0393636A0493E3682946059375
:100D10002369FFF7CBFD67E1826A436A0026D31A95
:100D20004FEAA3083046464503DA002840F05C81CC
:100D300044E1002840F05881A82007F051FC074604
:100D4000606966890AF03AF9CDE9000120690AF084
:100D500013F9A3690493E3690593E36B0693236C8A
:100D6000CDE90201206A07930AF006F9CDE90801EE
:100D7000606A0AF023F9CDE90A01A06A0AF01EF9B7
:100D8000CDE90C01E06A0AF019F9236B1093636B4B
:100D90001193A36B1293636C1393A36C1493E36C82
:100DA0001593236DCDE90E01169338462946324638
:100DB000E36801F041FA17E1826A436A0026D31A18
:100DC0004FEAA3083046464503DA002840F00C817C
:100DD000FFE0002840F00881A82007F001FC07464A
:100DE000606966890AF0EAF8CDE9000120690AF035
:100DF000C3F8A3690493E3690593E36B0693236C3B
:100E0000CDE90201206A07930AF0B6F8CDE908019E
:100E1000606A0AF0D3F8CDE90A01A06A0AF0CEF8B8
:100E2000CDE90C01E06A0AF0C9F8236B1093636BFB
:100E30001193A36B1293636C1393A36C1493E36CE1
:100E40001593236D1693636DCDE90E011793A36D72
:100E50003846189329463246E36800F077FFC3E02E
:100E6000C36B002B40F0C080436A8A6953F822802C
:100E7000CA69482053F8227007F0B2FB23696289DF
:100E800000936369CDF808800193236A0397049364
:100E90002946E368064601F0A1FD22E0436A8A691B
:100EA00053F822A0CA6953F822900A6A53F82280A4
:100EB0004A6A582053F8227007F092FB236962892E
:100EC00000936369CDF808A00193A36ACDF80C9054
:100ED0000693CDF8108005972946E368064605F08D
:100EE0009DF8EE6380E01CAE0A2301E01CAE0B23EC
:100EF00006F8013D202007F073FBE3686289009348
:100F0000236929460193334601F006FE6CE0202058
:100F100007F066FB2369628900932946E36801F0C4
:100F200063FE61E04FF48C7007F05AFB29460646D9
:100F3000E268236902F016F86E6455E0202007F09D
:100F40004FFB29466289236903F0A6FF4CE0F82095
:100F500007F046FB2946E268236904F041F843E0C4
:100F6000A82007F03DFB2946E26804F04DFE3BE077
:100F7000342007F035FB636962890093A36901930C
:100F8000E36929460293236904F0E2FE2CE0202065
:100F900007F026FB2946E268236904F017FF23E0E7
:100FA000AB69678953F82600FFF704FDB7EB000E25
:100FB000DEF1000050EB0E0001368FE66B6A6789A8
:100FC00053F82600FFF7F6FC391A4842484101362B
:100FD000A9E66B6A678953F82600FFF7EBFC3A1A1B
:100FE000504250410136EEE628462146FFF708FE02
:100FF0001CB0BDE8F087F8B590E84800F61AB610C6
:1010000014BF334601239B1904460F466FF0404638
:1010100003D2B34238BF1E4626B1B00007F0E0FA53
:10102000054600E0354662682368D31A9B1005EB3D
:1010300083013A6809B145F8232094E882007F1AB9
:10104000BF1003D02846BA000BF0F8F9206805EB72
:101050008707043708B107F0C7FA84E8A00005EB5A
:101060008605A560F8BD091A38B58C1005461346EB
:1010700005D010462946A2000BF0E0F9034603EB29
:10108000840038BDF8B590E84800F61AB61014BFD1
:10109000334601239B1904460F466FF0404603D2A6
:1010A000B34238BF1E4626B1B00007F099FA054694
:1010B00000E0354662682368D31A9B1005EB830174
:1010C0003A6809B145F8232094E803002A46FFF75F
:1010D000CAFF071D206808B107F086FA84E8A0005F
:1010E00005EB8605A560F8BD091A38B58C100546D4
:1010F000134605D010462946A2000BF09FF903467F
:1011000003EB840038BDF8B590E84800F61AB61035
:1011100014BF334601239B1904460F466FF0404627
:1011200003D2B34238BF1E4626B1B00007F058FACA
:10113000054600E0354662682368D31A9B1005EB2C
:1011400083013A6809B145F8232094E803002A4650
:10115000FFF7CAFF071D206808B107F045FA84E8C9
:10116000A00005EB8605A560F8BD38B54268846827
:10117000A24203460D4606D0096802B111605A68C2
:1011800004325A6038BDFFF7BEFF38BD091A38B5C2
:101190008C100546134605D010462946A2000BF0D8
:1011A0004DF9034603EB840038BDF8B5C368066902
:1011B000C269F61A8369D31A0446B6109F10002537
:1011C00004E053F82500FFF7B9FB0135BD42A369E0
:1011D000F7DBE269934218BFE361A26A636A934254
:1011E00018BFA362002506E053F8250010B103687C
:1011F000DB6898470135B542E368F5DB2269934225
:1012000018BF2361002384F84C306364E3632364D4
:10121000F8BDFFFF114B10B504460360006D10B11F
:1012200003685B689847002320462365FFF7BDFFEE
:10123000206B08B107F0D8F9606A08B107F0D4F95B
:10124000A06908B107F0D0F9E06808B107F0CCF95F
:101250002046FFF7D7FB204610BD00BF98CF000007
:1012600010B50446FFF7D6FF204607F0BDF920462B
:1012700010BDFFFF2DE9F041044688B0FFF702FCE6
:10128000206D00F041FA2046FFF7FAFB002840F0FD
:101290000581206D00F09AFA002840F0FF8003E1FC
:1012A000206D00F0AFF9054629462046EA88FFF791
:1012B00087FC002800F0E1802B880C2B75D00ED81D
:1012C000072B2AD005D8022B37D0062B40F0D5802B
:1012D00049E0082B5CD00B2B40F0CF8061E0652B00
:1012E0000CD005D80F2B76D0512B40F0C68051E0A2
:1012F000672B1DD0752B40F0C08088E02989003114
:10130000204618BF0121FFF7A9FB2046FFF7B8FBD5
:1013100048B92046FFF749FF05E02B89003318BF85
:10132000012384F84C3020462946FFF769FCA4E0ED
:1013300020462946FFF7B1FC9FE0E269A369D31A72
:101340009F1000260CE0A36953F82600FFF732FB3C
:10135000AB6898424FEA860801D1A3694CE0013698
:10136000BE42F0DB89E0A26A636AD31A9F100026AE
:101370000BE0636A53F82600FFF71CFBAB6898424A
:101380004FEA860800D136E00136BE42F1DB74E058
:10139000E06B07E0E06B00286FD0294601F082F98E
:1013A0006BE0606C002868D028E0626B236BD31A76
:1013B0009F1000260CE0236B53F82600FFF7FAFA83
:1013C000AB6898424FEA860801D1236B14E00136DE
:1013D000BE42F0DB51E0A26A636AD31A9F10002676
:1013E00012E0636A53F82600FFF7E4FAAB6898420C
:1013F0004FEA860807D1636A53F808000368294654
:101400005B68984739E00136BE42EADB35E01123DC
:10141000ADF804301C23ADF8063041F20103ADF8FD
:101420000830E62100232248ADF80A3002F0F8F82F
:10143000E72103901E4802F0F3F8E82104901C48CD
:1014400002F0EEF8E9210590194802F0E9F8EA21E6
:101450000690174802F0E4F8BDF8065007902946B8
:1014600001A8FFF73DFB2946ADF80A0001A805F0E9
:10147000ABFC10480D21FFF70EFB206D00F0C8F803
:1014800094F84C3083B12046FFF788FB2046FFF7E5
:10149000A5FB206C40B103F0CDFD05E0206D00F010
:1014A000C5F80028ECD0FBE608B0BDE8F08100BF2D
:1014B000AD8EFF1F2892FF1FF8B590E84800F61A7E
:1014C000B61014BF334601239B1904460F466FF034
:1014D000404603D2B34238BF1E4626B1B00007F0E3
:1014E0007FF8054600E0354662682368D31A9B10F2
:1014F00005EB83013A6809B145F8232094E803001D
:101500002A46FFF743FE071D206808B107F06CF874
:1015100084E8A00005EB8605A560F8BD1FB503694A
:10152000426901919342044605D003B119602369D1
:101530000433236103E00C3001A9FFF7BDFF0198DC
:10154000FFF734FA0238072834D8DFE800F03133E7
:10155000331616331F04E369216A019A8B42039202
:1015600005D003B11A60E3690433E36122E004F1BA
:10157000180003A9FFF786FD1CE004A9019B04F1F4
:10158000240041F8043DFFF7F0FD13E0636BA16B0D
:10159000019A8B42039205D003B11A60636B043346
:1015A000636307E004F1300003A9FFF724FD01E0C5
:1015B000019B23641FBDFFFF054B10B5044603606C
:1015C000006908B107F012F800232361204610BD1E
:1015D000C8CF000010B50446FFF7EEFF204607F025
:1015E00003F8204610BDFFFF054A02600022027189
:1015F0000261C260826042718271C271704700BF35
:10160000C8CF000003790BB10069704718467047D6
:1016100010B50446006908B106F0E8FF0023236115
:101620002371A371E371E360A36010BD007970477B
:101630000B880F2B27D00CD8072B19D003D8022BDF
:1016400021D0062B0BE00B2B1BD00C2B1BD0082B17
:1016500005E0652B0CD004D8512B10D0642B19D188
:1016600011E06C2B0FD0752B0FD0672B12D101E03E
:101670000A2310E01023C360012343710CE01423FC
:1016800009E00C2307E0102305E00823C3600123D1
:10169000C37101E00023C360C068704770B50446A1
:1016A000C0680E4606F09EFF0023054602E0C25CBD
:1016B000EA540133B3422069F9DB08B106F096FF22
:1016C000256170BD0B890E2B1CD8DFE803F00E17C7
:1016D00017171B150A10170817170C1719002823BE
:1016E0000FE054230DE05C230BE0242309E01023DA
:1016F000C3600123037105E0202302E0142300E00E
:101700002C23C360C06870472DE9F843044605F0F8
:101710004DFB002858D02379002B55D150E005F01F
:1017200045FB00283FD0E368A568002B1BDC05F0D3
:10173000F7FA70550135012DA56034D93146A760FF
:101740002046FFF775FF06F04DFFA3682061F25CAD
:10175000C254A36822690133A360F15CD154A36829
:101760000133A3601FE09D421DDAD4F8109005F00C
:10177000D7FA09F80500E36801359D42A56012D14A
:10178000637913B984F804800DE021692046FFF7DE
:1017900099FF20462946FFF781FF677103E04FF06C
:1017A000010804F114062779002FB8D0BDE8F883AA
:1017B00005F0B6FAFE2807D10123A371BDE8F8832E
:1017C000A379002BEBD1F3E7BDE8F883C07970472C
:1017D000034B10B504460360FFF7C2F8204610BD66
:1017E000D8CF000010B50446FFF7F2FF204606F000
:1017F000FBFE204610BDFFFF37B5069D0095044651
:10180000FFF7BEF8014B204623603EBDD8CF000055
:10181000084B10B504460360D0F8A40008B106F0E8
:10182000E3FE0023C4F8A430204600F009FB204664
:1018300010BD00BFF8CF000010B50446FFF7E8FF69
:10184000204606F0D1FE204610BD10B50368017A8F
:101850001C7843681A78437A1A40837A0C4203F062
:10186000030318BF43F004030AB143F008039A10BE
:10187000013B82720D2B14D8DFE803F0070A0D0A32
:101880001310070710130A0D0A07C368013307E096
:10189000C368013B04E0C368023301E0C368023B54
:1018A000C36010BD70B5054600F0EFFAD5F8A4404E
:1018B0000646237C72B6012B02D82046FFF7C5FFEF
:1018C00062B6E368D5F8A000584309F097FF0146D7
:1018D000304609F0DFFE4FF07C5109F0E3FF70BDA8
:1018E00008B5034BD3F88400FFF7AFFF08BD00BF76
:1018F000BC8DFF1F08B5034BD3F88000FFF7A5FF91
:1019000008BD00BFBC8DFF1F08B5024BD86FFFF7A5
:101910009CFF08BDBC8DFF1F08B5024B986FFFF7F9
:1019200094FF08BDBC8DFF1F08B5024B586FFFF731
:101930008CFF08BDBC8DFF1F08B5024B186FFFF769
:1019400084FF08BDBC8DFF1F08B5024BD86EFFF7A2
:101950007CFF08BDBC8DFF1F08B5024B986EFFF7DA
:1019600074FF08BDBC8DFF1F08B5024B586EFFF712
:101970006CFF08BDBC8DFF1F08B5024B186EFFF74A
:1019800064FF08BDBC8DFF1F08B5024BD86DFFF783
:101990005CFF08BDBC8DFF1F08B5024B986DFFF7BB
:1019A00054FF08BDBC8DFF1F08B5024B586DFFF7F3
:1019B0004CFF08BDBC8DFF1F08B5024B186DFFF72B
:1019C00044FF08BDBC8DFF1F08B5024BD86CFFF764
:1019D0003CFF08BDBC8DFF1F08B5024B986CFFF79C
:1019E00034FF08BDBC8DFF1F08B5024B586CFFF7D4
:1019F0002CFF08BDBC8DFF1F08B5024B186CFFF70C
:101A000024FF08BDBC8DFF1F08B5024BD86BFFF744
:101A10001CFF08BDBC8DFF1F08B5024B986BFFF77C
:101A200014FF08BDBC8DFF1F08B5024B586BFFF7B4
:101A30000CFF08BDBC8DFF1F08B5024B186BFFF7EC
:101A400004FF08BDBC8DFF1F08B5024BD86AFFF725
:101A5000FCFE08BDBC8DFF1F08B5024B986AFFF75E
:101A6000F4FE08BDBC8DFF1F08B5024B586AFFF796
:101A7000ECFE08BDBC8DFF1F08B5024B186AFFF7CE
:101A8000E4FE08BDBC8DFF1F08B5024BD869FFF707
:101A9000DCFE08BDBC8DFF1F08B5024B9869FFF73F
:101AA000D4FE08BDBC8DFF1F08B5024B5869FFF777
:101AB000CCFE08BDBC8DFF1F08B5024B1869FFF7AF
:101AC000C4FE08BDBC8DFF1F08B5024BD868FFF7E8
:101AD000BCFE08BDBC8DFF1F08B5024B9868FFF720
:101AE000B4FE08BDBC8DFF1F08B5024B5868FFF758
:101AF000ACFE08BDBC8DFF1F08B5024B1868FFF790
:101B0000A4FE08BDBC8DFF1F08B5212800F2D580BA
:101B1000DFE810F0220027002C00310036003C00E6
:101B2000410046004B00500055005A005F00640021
:101B300069006E00730078007D00820087008C00D1
:101B4000910096009B00A000A500AA00AF00B40081
:101B5000B900BE00C300CD00594B0020196059499F
:101B6000A0E0574B0120596057499BE0544B02209D
:101B70009960564996E0524B0320D960544991E050
:101B80004F4B04201961024652498CE04C4B052012
:101B90005961514986E04A4B062099614F4981E0DD
:101BA000474B0720D9614E497CE0454B082019621C
:101BB0004C4977E0424B092059624B4972E0404B57
:101BC0000A20996249496DE03D4B0B20D962484992
:101BD00068E03B4B0C201963464963E0384B0D200D
:101BE000596345495EE0364B0E209963434959E0FD
:101BF000334B0F20D963424954E0314B1020196414
:101C000040494FE02E4B112059643F494AE02C4B8C
:101C1000122099643D4945E0294B1320D9643C4981
:101C200040E0274B142019653A493BE0244B15202E
:101C30005965394936E0224B16209965374931E01C
:101C40001F4B1720D96536492CE01D4B182019660B
:101C5000344927E01A4B19205966334922E0184BC2
:101C60001A20996631491DE0154B1B20D966304971
:101C700018E0134B1C2019672E4913E0104B1D2050
:101C800059672D490EE00E4B1E2099672B4909E03C
:101C90000B4B1F20D9672A4904E0094BC3F8801079
:101CA00028492020042204F009FE012008BD044B2D
:101CB0002120C3F884102449F4E7002008BD00BFA8
:101CC000BC8DFF1FF91A0000E91A0000D91A0000A4
:101CD000C91A0000B91A0000A91A0000991A0000D8
:101CE000891A0000791A0000691A0000591A0000C8
:101CF000491A0000391A0000291A0000191A0000B8
:101D0000091A0000F9190000E9190000D9190000AA
:101D1000C9190000B9190000A9190000991900009B
:101D2000891900007919000069190000591900008B
:101D3000491900003919000029190000191900007B
:101D400009190000F5180000E1180000F0B599B07D
:101D5000DDE91E45CDE90045DDE92045CDE9024537
:101D6000229C0494239C0594249C0694259C07940F
:101D7000DDE92645CDE90845DDE92845CDE90A45F7
:101D8000DDE92A45CDE90C45DDE92C45CDE90E45D7
:101D90002E9C10942F9C1194309C1294319C13947F
:101DA000329C1494339C1594349C0646169400F08F
:101DB00043FA214B1420336006F012FC9DF8D470D6
:101DC0009DF8D85004460221384604F019FF2846F1
:101DD000022104F015FF194A52F8373003F500715B
:101DE00021600121217252F83520617202F50070E4
:101DF0000021E16060604FF4FA410139FDD193F8B0
:101E0000003292F8002203F00103D20744BF43F0EE
:101E10000203DBB2A37221463846FFF775FE214666
:101E200020742846FFF770FE237C18182074C6F82B
:101E3000A440304619B0F0BDF8CF000090D20000A9
:101E40000C4B10B504460360406A08B106F0CCFBA9
:101E5000E06910B103689B689847206A08B106F0F2
:101E6000C3FB00232362E36163622046FFF7B0FCFB
:101E7000204610BD18D0000010B50446FFF7E0FF63
:101E8000204606F0B1FB204610BD38B5046A054671
:101E9000237C72B6012B02D82046FFF7D6FC62B62F
:101EA000E368D5F8A000584309F0A8FC38BDFFFF4F
:101EB0002DE9F047444B86B01B6805938246059890
:101EC00009F05AF8DAE91223CDE9000108F016FF0B
:101ED000DAE9222306460F4600203C4909F0ECF9D6
:101EE00000223B4B09F0BEF802460B46304639460D
:101EF00009F03EFB00285DD0DAF8003050465B69FF
:101F0000984709F05BF8DAE91C23CDE9020108F0F3
:101F1000F5FE02460B4608F0F3FE29A3D3E90023A1
:101F200009F0A0F88046DAF89000894609F034F804
:101F300002460B464046494609F0BEF9002280465B
:101F4000894630463946224B09F0B6F902460B461F
:101F50004046494609F0B0F9DAE9204502460B4609
:101F60002046294609F07EF822462B4606460F46B3
:101F70000020164908F0C2FE0446DAF844000D4677
:101F800009F01CF802460B462046294609F06AF87B
:101F900002460B463046394608F0B2FE09F024FBF3
:101FA000DDE90223CAE91C23DDE90023CAE9122383
:101FB000CAF8440006B0BDE8F08700BFAFF3008068
:101FC000182D4454FB210940848FFF1F0000F03F6F
:101FD00000408F40AFF30080C06908B503681B68FC
:101FE000984708BD2DE9F7431F4690F82C308046EE
:101FF000164663B9194B446A1B680193019808F0AF
:10200000BBFF0022164B09F057F9C4E90401D8F8C8
:102010005890012388F82C30484608F0CFFF32460C
:102020003B4604460D4609F08FFA60B909F10040BD
:1020300008F0C4FF32463B4604460D4609F0A2FABA
:1020400008B934463D46054B1B680093009BC8E920
:102050001E45C8F83030BDE8FE8300BF848FFF1FE7
:1020600000408F4010B50446C86808F0A7FF02463C
:102070000B462046BDE81040FFF7B4BF13B5114B27
:102080001B68019390F82C30019A0446C3B1036B8E
:10209000D21A436B9A4213D9002200230021C0E9CF
:1020A000182380F82C1000206064E069C4E91A232A
:1020B000C4E91E2303681B689847606A00F00CFAA5
:1020C0001CBD00BF848FFF1F036870B55B690646A7
:1020D0009847014609F0DEFA08F070FF0AA3D3E939
:1020E000002308F0BFFF0446D6F890000D4608F024
:1020F00053FF02460B462046294609F0DDF809F059
:1021000073FAF06370BD00BF182D4454FB210940E1
:102110002DE9D343214B1B6801930446019808F035
:102120002BFFD4E914238046894608F0E7FDD4E963
:10213000262306460F460020194909F0BDF8002263
:10214000184B08F08FFF02460B463046394609F01F
:1021500019FA08B3A36B012B02D1606C206403E071
:102160002046FFF7B1FFE06B08F028FFC4E9180133
:10217000606A00F0B7F9A06A08F00EFFD4E91A23EC
:1021800008F070FFC4E91489C4E91A0109F004FADF
:1021900001462046FFF720FFBDE8DC83848FFF1F48
:1021A0000000F03F00408F4010B50446FFF780FE6E
:1021B00094F82C3023B12046BDE81040FFF7A8BFAB
:1021C00010BD10B50446FFF759FF2046BDE810408A
:1021D000FFF7EABF10B586B00446FEF7EDFB48B343
:1021E000636C23646A23ADF804301423ADF8063021
:1021F000204641F20103ADF80830FEF7DBFB039007
:102200002046FFF761FF236C049005930023ADF88F
:102210000A30BDF806001A4603E0C95C521892B2B3
:102220000133834201A9F8DBA069ADF80A200368F5
:102230001B69984706B010BD2DE9F0438DB00746E5
:1022400000930623DDF86090199EFFF7D5FA624BE4
:102250003B60279BBB63002387F82C30269B7B6366
:10226000DDE91C23C7E92623DDE91423C7E9202380
:10227000DDE91623C7E92223259AC7F89020289A7A
:10228000BA6240F2E7320024002500230C20914579
:10229000C7E918453B64FB63C7E91A45C7E91C4514
:1022A000C7E91E45984609D106F09AF93146044619
:1022B0004A4D04F04FF8FC6100240AE006F090F962
:1022C00049460446324604F091F8FC6140A5D5E940
:1022D0000045434E33680993099B3B6333680A9377
:1022E0000A9808F049FE33680B93C7E912010B986E
:1022F00008F042FEC7F84480C7E91401582006F0F0
:102300006FF9DDE91E23CDE90023DDE92023CDE9C6
:102310000223DDE92223CDE904232A9B07F1600291
:10232000064607F16801069307F1780300F09CF870
:102330007E621420C6E9064506F052F99DF86860F1
:102340009DF86C5004460221304604F059FC2846A2
:10235000022104F055FC234A52F8363003F500718F
:1023600021600121217252F83520617202F500705E
:102370000021E16060604FF4FA410139FDD193F82A
:10238000003292F8002203F00103D20744BF43F069
:102390000203DBB2A37221463046FFF7B5FB2146AC
:1023A00020742846FFF7B0FB237C1818249B207468
:1023B000BB65299B3C623846C7F8A0300A21FEF76E
:1023C000F7FA38460DB0BDE8F08300BFAFF30080E8
:1023D0000000000000C05F4018D0000000407F40B7
:1023E000848FFF1F90D20000014A01704260704745
:1023F000F491FF1F70B50446406803680E461B68E1
:102400002178154698476068036831461B689847ED
:102410006068036829461B689847606822780368EB
:10242000B618A9191B6801F07F01984770BD7E2A74
:10243000A8BF7E226FF07D039A42B8BF1A46002AD9
:10244000B8BF5242D2B2FFF7D5BF10B54C1E012C17
:1024500009D802290CBF0421002101EBD271BDE88B
:102460001040FFF7E4BF10BD13B580E80E00DDE9B2
:102470000423C0E90A23DDE90623C0E90C23DDE9D2
:102480000823C0E90E23124B1B68019304460198F0
:1024900008F072FD00220F4B08F00EFF002200230F
:1024A000C4E91223C4E9102307A3D3E90023C4E934
:1024B0000401C4E906230A9808F080FDC4E9140168
:1024C00020461CBDAFF300800000000000C05F404C
:1024D000848FFF1F00408F4000220023C0E910239B
:1024E0007047FFFF2DE9F04F584B89B01B680793E9
:1024F0008046079808F040FD0022554B08F0DCFEAE
:10250000D8E90423CDE9040108F0F8FBD8F8082045
:10251000D8F8043082468B46D2E90001D3E9002383
:1025200008F0ECFBD8E9062304460D46D8E914016F
:1025300008F098FD524681460E465B4620462946E5
:1025400008F090FDD8E9102308F0DAFB4A4633463C
:10255000CDE9020109F016F810B14A46334611E000
:1025600006F1004C6346DDE902014A46CDF804C09D
:1025700008F0EAFFDDF804C010B9DDE9022301E04C
:102580004A466346C8E910232046D8E90A2329466B
:1025900008F068FDD8E9102306460F46D8E90C017B
:1025A00008F060FD02460B463046394608F0A8FBAD
:1025B000D8E9122306460F462046294608F09EFB1E
:1025C00052465B4608F078FED8E90E2308F04AFD33
:1025D00002460B463046394608F092FBD8F8009088
:1025E0000B460246C9E90023D8F818B0D8F81CA059
:1025F0005A4653460E46074608F0C4FF002818BF47
:102600005F4618BF56463A463346C9E90023D8F814
:102610001C30D8F818B003F1004A5A4653463846E1
:10262000314608F091FF00280CBF3A465A460CBFCD
:1026300033465346C9E90023DDE90423C8E91245BE
:10264000C8E9042309B0BDE8F08F00BF848FFF1FE5
:1026500000408F40034B10B504460360FEF780F93D
:10266000204610BD38D0000010B50446FFF7F2FF39
:10267000204605F0B9FF204610BDFFFF37B5069D87
:102680001B7800950446FEF77BF9054B2360079BFA
:1026900023639DF824302377089B2046E3623EBDE8
:1026A00038D00000037F2BB18B684362CB68836214
:1026B0000B690362704713B58B68CA68019302AB5C
:1026C00043F8082D0268546993E80600A0471CBD32
:1026D00010B50446806BFFF7D1FCA06BFFF764FDDB
:1026E000606BFFF7CBFC606BBDE81040FFF75CBD93
:1026F0002DE9F74302AB03E90600076B009E019D3D
:1027000004463946304609F081F9E16A8046284698
:1027100009F0C8F839468146384608F0BBFF014643
:10272000484609F073F90146404608F0B3FF08F047
:1027300045FC02460B46A06BFFF754FC276B304666
:10274000394609F063F9E16A0646284609F0AAF815
:1027500039460546384608F09DFF0146284609F0EF
:1027600055F90146304608F093FF08F027FC024671
:10277000606B0B4603B0BDE8F043FFF733BCFFFFCF
:10278000034B10B504460360FFF764FF204610BDFD
:1027900058D0000010B50446FFF7F2FF204605F0C0
:1027A00023FF204610BDFFFFF8B51046194614A3BD
:1027B000D3E9002308F0A4FA13A3D3E900230646C3
:1027C0000F4606F0BDF9002204460D463046394654
:1027D000002308F0B9FE40B1204629460AA3D3E9F8
:1027E000002308F08DFA04460D462046294604A32E
:1027F000D3E9002308F082FAF8BD00BFAFF30080F0
:10280000182D4454FB210940182D4454FB21194034
:1028100038B50446806BFFF757FC216C054608F07D
:1028200037FF216B09F03EF8256438BD38B5044602
:10283000406BFFF749FCE16B054608F029FF216B6F
:1028400009F030F8E56338BD002170B50646016037
:102850004160104619460022094B08F003FC04466B
:102860000D4606F0CBF808F0BFFE2946B0602046C2
:1028700006F07AF808F0B8FEF060304670BD00BF90
:102880000000E03F2DE9F04F91B08246FEF794F84A
:10289000002800F0A0805046FFF7BAFF04465046DB
:1028A000FFF7C4FF05462946204608F0F1FEDAF896
:1028B0002C1009F0ABF8DAF8441008F0F3FFDAF85E
:1028C000201008F0E7FECAF8200008F077FB024667
:1028D0000B465046FFF768FF08F086FE2946834600
:1028E000CAF82000204608F0D5FE4FF07C5108F0D1
:1028F000D9FF08F063FB064658460F4608F05EFB1A
:1029000004460D4606F030F80246DAF82400039239
:10291000029108F053FB039A029B80468946304699
:10292000394608F09FFB0B4602464946404608F0F0
:10293000E7F908F059FE29468446CAF824002046E3
:10294000CDF804C006F05AF80246DAF828000392DF
:10295000029108F033FB039A029B80468946304679
:10296000394608F07FFB02460B464046494608F0D0
:10297000C7F908F039FE22460646CAF828002B4659
:1029800005A85146FFF760FF6C23079AADF8243085
:102990001C23ADF82630DDF804C00E9241F201038D
:1029A000089AADF8283000230F92ADF82A30CDF800
:1029B0002CC00C96CDF834B01A4609A9505C0132EF
:1029C0001B181C2A9BB2F8D1DAF81800ADF82A308F
:1029D00003681B69984711B0BDE8F08F70B586B0E9
:1029E00006AD002605F8016D00930A9B01930B9B31
:1029F0000293012303932B460446FFF73FFE084B47
:102A000023600C9B63630D9BA3630023E363236438
:102A100023626362A3620E9B2046636406B070BDAE
:102A200058D000007047FFFF034B10B50446036009
:102A3000FDF796FF204610BD78D0000010B5044683
:102A4000FFF7F2FF204605F0CFFD204610BDFFFF47
:102A500038B50546007F03F033FE04462846FDF7EF
:102A6000A5FF0A28204606D108F0C8FE08F0A6FAFD
:102A700000220F4B06E008F0C1FE08F09FFA08A301
:102A8000D3E9002308F0EEFA07A3D3E9002308F006
:102A900013FC0022074B08F00FFC08F0A5FD38BD21
:102AA000666666666666C94000000000E0FFEF40AB
:102AB0000000B44000408F4030B585B00446FDF7BB
:102AC0007BFF38B36D23ADF8003010230025ADF83F
:102AD0000230204641F20103ADF80430ADF8065053
:102AE000FDF768FF02902046FFF7B2FFBDF8021025
:102AF00003902B462A4604E01DF80300121892B2F8
:102B000001338B42F8DBA069ADF806200368694603
:102B10001B69984705B030BD73B5069E1B78079DAD
:102B200000960446FDF72CFF0A4B012D236001D1CE
:102B30000E2304E0022D01D10F2300E01023E361F6
:102B4000207F002104F05CF8102003F08FFD204668
:102B50007CBD00BF78D00000704730B585B004461A
:102B6000FDF72AFF50B36E23ADF800301023002587
:102B7000ADF80230204641F20103ADF80430ADF863
:102B80000650FDF717FF0290207F04F02DF8431B3D
:102B9000584258410390BDF802102B462A4604E0E3
:102BA0001DF80300121892B201338B42F8DBA069C2
:102BB000ADF80620036869461B69984705B030BD2B
:102BC000034B10B504460360FDF7CAFE204610BD56
:102BD00090D0000010B50446FFF7F2FF204605F044
:102BE00003FD204610BDFFFF13B5009301230446EB
:102BF000FDF7C6FE084B2360049B012B01D10B237C
:102C000000E00C23E361207F022103F0F9FF102094
:102C100003F02CFD20461CBD90D00000054B10B5E4
:102C2000044640F86C3B01F083FE2046FDF798FE19
:102C3000204610BDA8D0000010B50446FFF7EEFFF7
:102C4000204605F0D1FC204610BD10B50446C83022
:102C500001F0B2FC0368A0661B69984700280ADDF2
:102C6000012184F8C01084F8C11084F8C21084F8DF
:102C70000C11204605E0002384F80C3120466FF04B
:102C80000101BDE81040FDF793BEFFFFF8B5114804
:102C9000069D16461F460C4600F03CFB31460D488B
:102CA00000F0DEF900210B4800F044FB2146094802
:102CB0003A4600F00DFC002405E0064800F0F8F963
:102CC00028550134E4B2034800F0E8F90028F4D1B3
:102CD000F8BD00BF988EFF1F1FB503AB009368219E
:102CE00002234122FFF7D2FF9DF80C009DF80D3022
:102CF00043EA002000B205B000BDFFFFFFFFFFFF69
:102D000070B590F80C3192B00446002B00F0C780EB
:102D1000806E03689B699847002800F0C08094F893
:102D20000D31002B40F08A8002A800F00DFD05A8AF
:102D300000F00AFD08A800F007FDA16E02A81431FA
:102D400000F0E0FCA16E05A8083100F0DBFCA16EEC
:102D500008A8203100F0D6FCA36EDB6A02AA05A900
:102D6000009304F16C0008AB01F012FFA06E036841
:102D70001B6A98470EA800F0A3FE0BA800F0E4FC25
:102D800004F1B4010BA800F0BDFC04F1A4010EA8ED
:102D900000F0CAFD029BE361039B2362049B636214
:102DA000059BA362069BE362079B2363089B636307
:102DB000099BA3630A9BE3630E9B23640F9B6364DD
:102DC000109BA364119B2046E364FFF785FF08F086
:102DD00015FD08F0F3F834A3D3E9002308F06CFAEA
:102DE0000022354B07F08CFF08F0FEFB20650C98A5
:102DF0000D9E0B9D08F0E2F82DA3D3E9002308F007
:102E000031F908F0F1FB6065304608F0D7F828A3E7
:102E1000D3E9002308F026F908F0E6FB216E08F05C
:102E200037FCA065284608F0C9F821A3D3E90023A0
:102E300008F018F908F0D8FBE06530E094F80E517E
:102E4000F5B90BA800F080FCA16E0BA8203100F0B2
:102E500059FC0BABD4F8F410EE58304608F0C0FE25
:102E600008B1C4F8F4603046D4F8001108F0D6FE7A
:102E700008B1C4F80061043504340C2DE9D10EE02A
:102E80000025012384F8F23084F80D5184F80E51A6
:102E9000284604F1F00101F0A3FFA36E1D7112B0EA
:102EA00070BD00BFAFF3008052B81E85EBDD7440EB
:102EB000F8C1631ADCA54C4000003540AFF3008038
:102EC00010B590B00446FDF777FD002837D02046B6
:102ED000FFF716FFA26A0392E26A0492226B059240
:102EE000E2690692226A0792626A0892626B09920C
:102EF000A26B0A92E26B0B92226C0C92626C6F23B3
:102F00000D92A26CADF804303C23ADF806300E9261
:102F100041F20103E26CADF8083000230F92ADF8E6
:102F20000A301A4601A9505C01321B183C2A9BB298
:102F3000F8D1A069ADF80A3003681B69984710B052
:102F400010BD0023C3618362436343640362C362B1
:102F50008363836443620363C363C3644FF07E533C
:102F60000364704737B504461D46009203230022D0
:102F7000FDF706FD164B204640F86C3B01F0FEFCC9
:102F800004F1C80000F055FB124800F017F9204684
:102F9000FFF7D7FF20460021FDF70AFD0023256635
:102FA00000256366E3656365A3652365C4F8145172
:102FB000C4F8105184F80C5184F80D512046FFF7E5
:102FC00044FE94F80C310BB184F80E5120463EBDFE
:102FD000A8D00000988EFF1F10B5044604F1F00140
:102FE000002001F013FF002384F8F230084B094A57
:102FF000C4F80031C4F80431C4F80831A36EC4F831
:10300000F420C4F8F820C4F8FC2001221A7110BD85
:10301000809618CB8096184B90F80D318A6810B5C1
:1030200004460BB112B110BD22B910BD012380F8C6
:103030000E3110BD80F80E31FFF7CEFF012384F86A
:103040000D3110BD054A137803F00203DBB2002BEB
:10305000F9D0024B02221A70704700BF036006408D
:10306000094B1B7813B9094B1B782BB1084A13780D
:10307000202B03D901230371002070470548C15458
:103080000133137001207047AA8EFF1F6D8EFF1F42
:10309000AB8EFF1F4C8EFF1F7047FFFF024B18784F
:1030A000024B1B78C01A7047A98EFF1FA88EFF1F06
:1030B000064A074913780978994204D90549C85C3A
:1030C0000133137070474FF0FF307047A88EFF1F19
:1030D000A98EFF1F6E8EFF1F054B064A1B781278C4
:1030E0009A4202D9044AD05C70474FF0FF307047D3
:1030F000A88EFF1FA98EFF1F6E8EFF1F38B50E4BC7
:103100001B78144613B90D4B1B788BB10C4B1D78F3
:10311000C5F121039C4202D9012202711C460948D3
:103120002246401909F0D0F8054B2D191D7000E01A
:103130001C46204638BD00BFAA8EFF1F6D8EFF1FA4
:10314000AB8EFF1F4C8EFF1F10B5104B1B7813F07A
:1031500020040BD1122003F0DBFB0D4B1B68A3B145
:103160000C4A14700C4A1078984710BD0B4A13781B
:103170000133DBB2012B137002D8094B1B7823B942
:103180001220BDE8104003F0C3BB10BD0360064031
:10319000488EFF1FA88EFF1FA98EFF1F948EFF1F52
:1031A0006D8EFF1F002202710273034A4FF47A7181
:1031B00081600260704700BFC0D000000C4B00224D
:1031C0001A700C4B196841F0400119600A4B0B4909
:1031D0001A704FF419720A6041F8042C084A27212A
:1031E0001170042151712021117180221A707047D1
:1031F0006D8EFF1F34800440026006400CA0044026
:103200000160064010B5374A137803F01001C9B2C7
:1032100021B903F04002D2B242B92EE01021117060
:1032200003F04002D2B2002AF3D110BD13F0040320
:103230002D4A18D0002313702C4A13702C4B1B6896
:10324000144603B1984722782A4B1AB927491A70B5
:1032500001200870284AD02111701A78274B1A7063
:103260000122274B21E001211170264A1370224BC5
:10327000C0221A7002331B7830E01F4A1F4C1178AD
:1032800011F0100117D013F0010310D11C49174899
:103290000A780078904205D9164B9B5C0132237066
:1032A0000A7000E02370144BD0221A7016E0C0237D
:1032B0001370237812E0144B122019700322134963
:1032C00003F0FCFA0F4A207813781F2B06D8064922
:1032D000097819B10E49C85401331370014B022209
:1032E0001A7010BD03600640448EFF1FAB8EFF1F97
:1032F000908EFF1F4C8EFF1F026006400460064048
:10330000AC8EFF1FA98EFF1F948EFF1F4931000056
:103310006E8EFF1F044B054A49001970012313707C
:10332000034A1370704700BF4C8EFF1FAA8EFF1F09
:10333000AB8EFF1F2DE9F041204B12221A70204A5C
:103340000D46117801F02001C9B211B1B4231370F8
:103350000BE019460A7802F02002D3B2002BF9D113
:10336000184A1370164BB0221A700024164E174FCD
:10337000DFF8608013E03B5D88F80030FFF762FE05
:103380000E4B1B78DA0704D5002C14BF0320022053
:103390000BE003F01003DBB233B90134E4B233784D
:1033A000A342E8D8002000E0042015B1044B80229D
:1033B0001A70074B00221A70BDE8F08103600640C6
:1033C000026006406D8EFF1FAB8EFF1F4C8EFF1FED
:1033D000AA8EFF1F046006402DE9F0471446344AC8
:1033E0001E4600231370334A1370334B12221A7097
:1033F000324A107800F02000C0B210B1B42313702C
:103400000BE01846027802F02002D3B2002BF9D16B
:103410002B4A1370294BB0221A704900294D41F0F4
:1034200001012970FFF70EFE234B244A1B7813F08D
:10343000110F04D0802313700020BDE8F0872CB951
:10344000002E0CBFA02680261670F5E7012C01D1B6
:10345000A82300E0A02313702B781B4FDFF86480B3
:10346000DFF8589025464FF0A80A0BE0013DEDB279
:10347000FFF7E8FD012D08BF89F800A098F800309B
:1034800007F8013F012DF1D1FFF7DCFD0B4B0F4990
:10349000B0221A700B4A1078621ED2B288542046AD
:1034A0000EB180221A70034B1C70BDE8F08700BF7C
:1034B000A88EFF1FA98EFF1F036006400260064012
:1034C0006D8EFF1F046006406D8EFF1F6E8EFF1F06
:1034D0000123FFF781BF0121FFF72CBF0148FFF750
:1034E00061BE00BF988EFF1F2DE9F04F1546324A8E
:1034F00089B09A4613680291059300240746BDF8E7
:103500004860DDF81480A1462FE02C483946FFF7CB
:1035100001FF02992948FFF7A3FD2848FFF7DBFFC9
:1035200026483946FFF7F6FE2A1B202AA8BF20228C
:1035300022483946D2B2FFF7CBFF4AFA89F34FF05F
:10354000000B03930BEB0901C9B21C480191FFF773
:10355000A5FD0199E8B11EB3174B186806900698AF
:10356000C8EB0000B0421BD313E0AC42CDD36EB128
:10357000114A12680792079AC8EB0208B04505D3B2
:103580004FFA89F2AA42B8BF4FF0FF094FFA89F00B
:103590000FE0202D94BF64192034E4B28946E4E79B
:1035A0000648FFF785FD039B03F80B000BF1010BA9
:1035B000C8E709B0BDE8F08F848FFF1F988EFF1F0A
:1035C00013B51446009301222346FFF78DFF1CBD5F
:1035D000F8B507460C460D48394615461E46FFF716
:1035E00099FE21460948FFF73BFD002403E0315DC9
:1035F000FFF736FD0134E3B2AB420448F7D3FFF7DF
:103600006AFFD0F1010038BF0020F8BD988EFF1F7F
:1036100007B502AB03F8012D0122FFF7D9FF0EBD5C
:10362000084603F009B90846114603F019B903F03A
:10363000C7B84FF0FF320260502202612822426177
:1036400003228261C2611022026242626822027118
:103650007047FFFF10B50B4C4FF07C51A4EB60049A
:1036600008F020F9214608F01DF9214608F01AF962
:1036700001464FF07F5008F00BF80146204608F055
:1036800011F910BDDF59375F70B5044616460D4677
:1036900002784078B3B140EA022000B208F0AEF8F8
:1036A000314608F0FFF82860E378A07843EA00206C
:1036B00000B208F0A3F8314608F0F4F86860207909
:1036C000637915E042EA002000B208F097F831462D
:1036D00008F0E8F82860A378E07843EA002000B218
:1036E00008F08CF8314608F0DDF8686060792379DD
:1036F00043EA002000B208F081F8314608F0D2F821
:10370000A86070BD884205D00B6803604B684360B9
:103710008B688360704738B504460D4600680968B9
:1037200007F0B6FF20606968606807F0B1FF60606D
:10373000A968A06807F0ACFFA060204638BD002350
:10374000036043608360704710B50446FFF7F7FFDE
:10375000204610BD70B505460C460068096808F0A3
:10376000A1F861680646686808F09CF80146304692
:1037700007F090FFA1680646A86808F093F8014694
:10378000304607F087FF70BD2DE9F047D1F808A05B
:10379000D0F8088005460C4650466968164608F081
:1037A00081F861680746404608F07CF801463846D3
:1037B00007F06EFF3060D4F800902F68404649460D
:1037C00008F070F851468046384608F06BF801461C
:1037D000404607F05DFF70606168384608F062F8A7
:1037E00069680446484608F05DF80146204607F03F
:1037F0004FFFB060BDE8F0872DE9F041D0F80080C0
:103800004768866841460446404608F04BF839460A
:103810000546384608F046F80146284607F03AFFC4
:1038200031460546304608F03DF80146284607F087
:1038300031FFFFF70FFF0021054608F0C7F9A0B9D7
:1038400028464FF07E5108F0C1F970B9294640462C
:1038500008F028F829462060384608F023F8294661
:103860006060304608F01EF8A060BDE8F0812DE9E8
:10387000FF410E4607C801AB83E807001846FFF773
:10388000BBFF029807F09AFB044603980D4607F029
:1038900095FB02460B462046294605F04FF907F0F6
:1038A000A3FE3060019807F089FB04460298DDF81A
:1038B0000C800D46014607F0F5FF4146074640469D
:1038C00007F0F0FF0146384607F0E4FE07F076FB0C
:1038D00005F092F90B4602462946204605F02EF9DE
:1038E00007F082FE002300F100407060B360BDE885
:1038F000FF810346006870B501465E689D6807F069
:10390000D1FF31460446304607F0CCFF0146204641
:1039100007F0C0FE29460446284607F0C3FF0146CB
:10392000204607F0B7FE70BD884207D00B680360E1
:103930004B6843608B688360CB68C360704770B529
:1039400005460E4600242859315907F0A3FE285198
:103950000434102CF7D1284670BD70B505460E46CC
:1039600000242859315907F093FE28510434102CB3
:10397000F7D1284670BDF0B58BB0044601A80D46BE
:10398000FFF7DDFE04A8FFF7DAFE07A8FFF7D7FE72
:1039900063680193A3680293E36803936B680493DD
:1039A000AB680593EB6804A901A80693FFF7D2FE64
:1039B00007AA074604A901A8FFF7E6FE26682968BA
:1039C000304607F06FFF394607F062FE0499206029
:1039D000304607F067FF2D6801990746284607F033
:1039E00061FF0146384607F055FE079907F052FE81
:1039F00005996060304607F055FF02990746284652
:103A000007F050FF0146384607F044FE089907F0DA
:103A100041FE0699A060304607F044FF0399064630
:103A2000284607F03FFF0146304607F033FE09996C
:103A300007F030FEE06020460BB0F0BD38B504461C
:103A400000680D4607F02EFF29462060606807F0E9
:103A500029FF29466060A06807F024FF2946A0607E
:103A6000E06807F01FFFE060204638BD38B5044627
:103A700015460FC984E80F0020462946FFF77BFF53
:103A8000204638BD38B5044615460FC984E80F00F6
:103A900020462946FFF7D2FF204638BD38B50446F8
:103AA00015460FC984E80F0020462946FFF755FF49
:103AB000204638BD0023036043608360C3607047C5
:103AC00010B50446FFF7F6FF204610BD2DE9F84378
:103AD000D0F80090D0F804808768C668494604464C
:103AE000484607F0DFFE41460546404607F0DAFE4D
:103AF0000146284607F0CEFD39460546384607F010
:103B0000D1FE0146284607F0C5FD31460546304640
:103B100007F0C8FE0146284607F0BCFDFFF79AFDF6
:103B20000021054608F052F8C8B928464FF07E51EA
:103B300008F04CF898B92946484607F0B3FE2946E4
:103B40002060404607F0AEFE29466060384607F028
:103B5000A9FE2946A060304607F0A4FEE060BDE85B
:103B6000F883FFFF2DE9F8430746D0F80890D0F816
:103B700004800E464846F96807F094FE396804460A
:103B8000404607F08FFE0146204607F083FD07F010
:103B900015FA02460B4607F0B3F804460D464046B8
:103BA000414607F07FFE49468046484607F07AFEC8
:103BB0000146404607F06EFD07F000FA02460B464C
:103BC00007F09EF802460B460020304907F096F8B1
:103BD00002460B462046294604F0B0FF07F004FDDC
:103BE000B9683060386807F05DFEF96804467868A7
:103BF00007F058FE0146204607F04AFD07F0DEF9BF
:103C000002460B4607F07CF804F044FF07F0ECFC9A
:103C1000D7F8089079687060484607F043FED7F8F7
:103C20000C8039680446404607F03CFE01462046B9
:103C300007F030FD07F0C2F902460B4607F060F8C6
:103C400004460D464846494607F02CFE41460746C5
:103C5000404607F027FE0146384607F01BFD07F0F7
:103C6000ADF902460B4607F04BF802460B46002022
:103C7000064907F043F802460B462046294604F061
:103C80005DFF07F0B1FCB060BDE8F8830000F03FD5
:103C90002DE9F74F04460D4608684FF07C5107F0B8
:103CA00001FE07F08BF906460F4604F05DFE07F0B3
:103CB0009BFC39468146304604F0A0FE07F094FC98
:103CC0004FF07C518346686807F0ECFD07F076F909
:103CD00006460F4604F048FE07F086FC3946824649
:103CE000304604F08BFE07F07FFC4FF07C510190D2
:103CF000A86807F0D7FD07F061F906460F4604F003
:103D000033FE07F071FC39460546304604F076FE76
:103D100007F06AFC51460646484607F0C3FD019984
:103D20008046584607F0BEFD29460746404607F044
:103D3000B9FD314603463846009307F0B3FD009BBA
:103D40000146184607F0A6FC51462060584607F089
:103D5000A9FD01998246484607F0A4FD29468146FF
:103D6000504607F09FFD31468346484607F09AFDCE
:103D70000146584607F08CFC29466060484607F02B
:103D800091FD31468146504607F08CFD014648467C
:103D900007F080FC3146A060404607F083FD2946CD
:103DA0000646384607F07EFD0146304607F070FCB7
:103DB000E060204603B0BDE8F04FFFF787BE38B59E
:103DC0000D460446FFF776FE2B6823606B6803F10F
:103DD00000436360AB6803F10043A360EB6803F149
:103DE0000043E360204638BD407970470048704783
:103DF000D8D0000005207047436B4FF4C87090FB8B
:103E0000F3F07047034B10B50446036000F0C0FBAD
:103E1000204610BDF0D0000010B50446FFF7F2FFB9
:103E2000204604F0E1FB204610BDFFFF10B504461C
:103E300000F0CEFB014B2046236010BDF0D0000007
:103E40004B1FB3F5797F4FF0000308D24FF47A721D
:103E50004163B2FBF1F18163C363012070471846EF
:103E60007047FFFF112907D8044A4BB29A4003D587
:103E700080F88B10012070470020704700C000FEC2
:103E8000082907D8044A4BB29A4003D580F88C1011
:103E90000120704700207047000080FE4B1E632BFE
:103EA00003D8C0F890100120704700207047FFFF32
:103EB00008290BD001D829B117E010290AD01829F8
:103EC00013D10BE080F89410094B0AE080F89410AD
:103ED000084B06E080F89410074B02E0074B80F88F
:103EE0009410C0F89830012070470020704700BF40
:103EF000FDB30B39A9689239787D0B3A787D8B3AFE
:103F000008290CD001D829B11BE010290CD01829A0
:103F100017D10EE080F895104FF062530DE080F855
:103F200095104FF0645308E080F895104FF06653F9
:103F300003E080F895104FF06853C0F89C300120E2
:103F400070470020704710B538210446002290F8D1
:103F50008900FFF75DFB00282DD094F8890023210C
:103F60000022FFF755FB30B394F889006A21002244
:103F7000FFF74EFBF8B194F889006A210422FFF79D
:103F800047FBC0B194F889006A216022FFF740FB2B
:103F900088B1322002F06EFE94F8890038210122A7
:103FA000FFF736FB38B194F8890023217822BDE869
:103FB0001040FFF72DBB002010BDFFFF70B5514E24
:103FC0008AB033880446722190F889000093022257
:103FD00003ABFFF789FA00B911E09DF80C509DF88A
:103FE0000D3003EB0525B5F5806F0AD12046FFF7AC
:103FF000AAFFE36AA26B562101FB0233E3620020B1
:104000007EE0B5F5F07F11D9338894F889000093EC
:1040100074210C2207ABFFF767FA0028EFD0E26AA1
:10402000A36B0C3DD318E362772DECE70B2DE6D99B
:10403000344D94F889002B88742100930C2207AB2F
:10404000FFF752FA0028DAD02B8894F88900009301
:104050004921082205ABFFF747FA0028CFD007A86F
:1040600004F11401D4F89C200123FFF70DFB0DF19E
:10407000220004F10801D4F898200123FFF704FB83
:10408000214A0DF1150004F120010023FFF7FCFA8D
:10409000E368206AD4F8A01003F10043E3602369C9
:1040A00003F100432361636903F10043636107F097
:1040B000F9FBD4F8A4100546606A07F0F3FBD4F8C6
:1040C000A8100646A06A07F0EDFB05F10045A062C6
:1040D00026622046656200F001FB204600F0A8FB46
:1040E00094F8883023B1094B1B680493049B02E0C9
:1040F000E26AA36BD318E362002384F888300120BE
:104100000AB070BD6687FF1F9A99193F848FFF1F01
:1041100013B5164B04466A2190F889001B880DF1EF
:104120000702FFF74DFA08B900201DE09DF80720AF
:1041300094F8890022F0200242F002026A218DF8F0
:104140000720FFF765FA0028EED0322002F092FD3A
:1041500094F8890037218222FFF75AFA0028E3D029
:10416000322002F087FD01201CBD00BF6687FF1FC3
:1041700013B5144B04466A2190F889001B880DF191
:104180000702FFF71DFA08B900201AE09DF8072082
:1041900094F8890042F020026A218DF80720FFF789
:1041A00037FA0028F0D0322002F064FD94F889003C
:1041B00037218022FFF72CFA18B1322002F05AFD85
:1041C00001201CBD6687FF1F38B590F88B5090F812
:1041D0009430C5F3C102D21804461B2190F889001F
:1041E000D2B2FFF715FA40B194F889001A2105F010
:1041F0000702BDE83840FFF70BBA38BD10B50446DA
:104200001C2190F8890094F89520FFF701FA40B13D
:1042100094F8890094F88C201D21BDE81040FFF728
:10422000F7B910BD436BB3F57A7F0ADC4FF47A72AD
:1042300092FBF3F35A1E90F889001921D2B2FFF7CE
:10424000E7B901207047426BD0F8903090F88900B0
:1042500092FBF3F2013A1F2AA8BF1F223421D2B2E7
:10426000FFF7D6B91FB5012380F88830036B1A79A0
:10427000044680F889201969FFF7E2FD236B204688
:104280005969FFF70BFE236B2046197EFFF7EAFD05
:10429000236B2046197FFFF7F3FD236B204693F82D
:1042A0002010FFF705FE236B204693F82410FFF73C
:1042B00027FE204600F0B2F994F889006B21802295
:1042C000FFF7A6F9002800F01881642002F0D2FC64
:1042D00094F889006B210022FFF79AF9002800F07A
:1042E0000F81A74B94F889001B8875210DF10B02F3
:1042F000FFF766F9002800F006819DF80B30712B5E
:1043000040F004812046FFF75FFF002800F00181A4
:104310002046FFF773FF002800F0FE802046FFF7DD
:1043200081FF002800F0FB802046FFF7F1FE002807
:1043300000F0F8800C200A210022FFF769F928B963
:104340002046FFF715FF6FF00B0017E10C200A2144
:104350000F22FFF75DF928B92046FFF709FF6FF03C
:104360000C000BE1864B1B880C20009310210322CC
:104370000DEB0003FFF7B8F828B92046FFF7F8FE69
:104380006FF00D00FAE09DF80C0007F033FA06F02C
:1043900015FE00227B4B06F0B1FC00227A4B06F0A2
:1043A00061FE0022794B06F0ABFC07F01DF9C4F862
:1043B000A0009DF80D0007F01DFA06F0FFFD002299
:1043C000704B06F09BFC00226F4B06F04BFE002268
:1043D0006E4B06F095FC07F007F9C4F8A4009DF8B1
:1043E0000E0007F007FA06F0E9FD0022654B06F023
:1043F00085FC0022644B06F035FE0022634B06F07C
:104400007FFC07F0F1F80A21C4F8A80000220C2074
:10441000FFF7FEF828B92046FFF7AAFE6FF00E005E
:10442000ACE02046FFF7A4FE00287ED094F8890077
:1044300024214022FFF7ECF8002879D094F8890075
:1044400025218C22FFF7E4F8002874D094F8890025
:1044500026210222FFF7DCF800286FD094F88900AB
:1044600027218822FFF7D4F800286AD094F8890021
:1044700028210C22FFF7CCF8002865D094F8890099
:1044800029210A22FFF7C4F8002860D094F8890097
:104490002A218122FFF7BCF800285BD094F889001C
:1044A00064210122FFF7B4F8002856D094F889005F
:1044B00067210322FFF7ACF8002851D02046FFF710
:1044C000C2FE00284FD094F889006B210122FFF72B
:1044D0009FF800284AD094F889006C210022FFF749
:1044E00097F8002845D02046FFF72DFD002843D03F
:1044F000204600F0E5F8012040E04FF0FF303DE0BD
:104500006FF003003AE06FF0040037E06FF0050051
:1045100034E06FF0060031E06FF007002EE06FF03E
:1045200008002BE06FF00A0028E06FF00F0025E094
:104530006FF0100022E06FF011001FE06FF012002A
:104540001CE06FF0130019E06FF0140016E06FF03C
:10455000150013E06FF0160010E06FF017000DE08B
:104560006FF018000AE06FF01A0007E06FF01B0010
:1045700004E06FF01C0001E06FF01D0004B010BDFE
:104580006687FF1F000060400000703F0000F03FA2
:10459000014B0360704700BF20D1000090F8480035
:1045A0007047FFFF034B10B50446036004F01CF88E
:1045B000204610BD20D1000038B50546B02004F0DB
:1045C0000FF829460446FFF731FC204638BDFFFFAF
:1045D00038B5114B044640F8083B0D46FFF7B4F8D8
:1045E00004F11400FFF7B0F804F12000FFF7ACF875
:1045F00004F14C00FFF7A8F804F15800FFF7A4F805
:1046000004F17C00FFF7A0F8002325632371637198
:1046100084F84830204638BD20D100002DE9F04311
:10462000064689B00020707101A900F0EFFB002858
:1046300041D09DF80630012B3DD1204D6C4603AF93
:1046400060690434616807F023F82946804607F062
:10465000E5FA00B14546BC42F2D12846002107F0F8
:10466000BFFA40BB28464FF07C5107F01BF9354696
:104670008146002401AA13190434D3F810805F681E
:104680004046394607F004F84FF07C5107F00AF92C
:104690000146484607F0BAF939462867404606F011
:1046A000F9FF4FF07C5107F0FDF8043528660C2C1B
:1046B000E0D10123737109B0BDE8F083000080BF31
:1046C00010B50446406B07F099F801464FF0804062
:1046D00007F09CF900232064636410BD2DE9F043CA
:1046E00000F15805804695E8070085B001AC08F157
:1046F000140684E8070031462046FFF70CF83146DF
:104700002846FEF7FFFF2046FFF7F3F8454907F07C
:1047100067FA80B108F10800FFF7EBF8424907F0AB
:104720005FFA78B907E001329A42C8F8442002D112
:10473000012388F8483008F1080008F14C01FEF721
:10474000EAFF6CE0D8F84090484606F037FC024695
:104750000B460020354906F0D1FA0446D8F84C0043
:104760000D4606F02BFC02460B462046294606F075
:1047700079FC06460F464846D8F8081007F092F82C
:1047800006F01CFC02460B463046394606F0B8FAE5
:1047900006F02AFFC8F84C00D8F8500006F00EFCCE
:1047A00002460B462046294606F05CFC06460F46AC
:1047B0004846D8F80C1007F075F806F0FFFB0246E3
:1047C0000B463046394606F09BFA06F00DFFC8F856
:1047D0005000D8F8540006F0F1FB02460B46204684
:1047E000294606F03FFC04460D464846D8F810100E
:1047F00007F058F806F0E2FB02460B462046294631
:1048000006F07EFA06F0F0FED8F83430D8F84420EE
:10481000C8F8540005214B439A4284DB8BE705B06E
:10482000BDE8F0830BD7233B0BD7233D0000F03FBF
:10483000037970B50646CBB94379BBB1006A716E96
:1048400006F026FF316F07F02DF8B16E3062706A06
:1048500006F01EFF716F07F025F8F16E7062B06A06
:1048600006F016FFB16F07F01DF8B062306A2E49EE
:1048700007F018F806F0A2FB0446F06F0D4606F0AC
:104880009DFB27A3D3E9002306F0ECFB02460B4671
:104890002046294606F034FA06F0A6FE2249F067C3
:1048A000706A06F0FFFF06F089FB0446D6F8800028
:1048B0000D4606F083FB1AA3D3E9002306F0D2FBD2
:1048C00002460B462046294606F01AFA06F08CFEF0
:1048D0001549C6F88000B06A06F0E4FF06F06EFBEA
:1048E0000446D6F884000D4606F068FB0CA3D3E915
:1048F000002306F0B7FB02460B462046294606F089
:10490000FFF906F071FE06F17C01C6F8840006F19D
:104910002000BDE87040FEF7F5BE00BFAFF3008099
:10492000000000989999E93FCDCC4C3EAFF3008050
:10493000704730B5012385B080F85730044600F148
:10494000480501A8FEF700FF01A92846FEF7DAFE98
:10495000294604F13800FFF79BF904F12C0501A862
:10496000FEF7F2FE01A92846FEF7CCFE04F11C007A
:104970002946FFF78DF905B030BDFFFF10B504469D
:104980000430FFF79DF804F11C00FFF799F804F1DB
:104990002C00FEF7D9FE04F13800FFF791F804F17E
:1049A0004800FEF7D1FE084B6361084BA361012369
:1049B000204684F8543084F8553084F85630FFF798
:1049C000B8FF204610BD00BF6F12833A6F12033A42
:1049D0002DE9F04794B0064668460C461746FFF7A7
:1049E0006FF804A8FFF76CF896F8552006F12C0133
:1049F0001AB12046FEF73BFF06E0084606F14801E3
:104A0000FEF780FE0023736396F85630002B6CD0BF
:104A1000F06A4FF07C5106F045FF06F0CFFA0446ED
:104A20000D4603F0A1FF06F0DFFD29468046204633
:104A300003F0E4FF06F0D8FD4FF07C518146306B67
:104A400006F030FF06F0BAFA04460D4603F08CFF7C
:104A500006F0CAFD29468246204603F0CFFF06F045
:104A6000C3FD51460446404606F01CFF51460490E3
:104A7000484606F017FF21460590404606F012FF13
:104A80002146069009F1004006F00CFF0023009338
:104A90003B68079001937B680293BB686A4608A84D
:104AA00004A90393FEF7E2FF0CA804A9FFF787F916
:104AB0000CAA10A808A9FEF7D9FF10A96846FEF7AE
:104AC00033FF029806F07AFA044601980D4606F084
:104AD00075FA02460B462046294604F02FF806F0E8
:104AE00083FD00F10040706301E0336D736306F1F4
:104AF0001C0806F12C0740463946FFF7C9F8DFF8D5
:104B00008C9000244FF0FF3506F11C03494653F802
:104B1000243023F0004A504607F080F808B1D1460F
:104B200025460134042CEFD106EB85090021D9F884
:104B30001C40204607F054F828B1D9F8380000216D
:104B400007F06CF858B92046002107F067F8D0B19B
:104B500006EB85050021A86B07F042F898B1F369D0
:104B600003F10043F361336A03F100433362736A74
:104B700003F100437362B36A03F10043B36240463A
:104B80003946FEF7EFFF14B0BDE8F08700007AC4A5
:104B90002DE9F04F04468DB002A81E460F46904600
:104BA000169DFEF7D1FD94F85730ABB13246A5659E
:104BB0002046414604F12C05FFF70AFF04F13800B6
:104BC0002946FFF765F804F148002946FEF79AFDEB
:104BD000002384F85730FDE0A06D281A06F00AFE85
:104BE0007E4906F013FFA5652060002107F002F85A
:104BF000002840F0EF80414632462046FFF7E8FEAD
:104C0000636CD4F838A0019394F85430D4F83C8005
:104C1000266C13B102A8394604E005A8FEF794FDFE
:104C200002A805A9FEF76EFD02984FF07C5106F030
:104C300039FE4FF07C510746039806F033FE4FF0E3
:104C40007C518146049806F02DFE4146834607F1CB
:104C5000004006F027FE314603464846009306F022
:104C600021FE009B25680146184606F011FD0199BA
:104C700003465846009306F015FE009B0146184671
:104C800006F006FD294606F00DFE0146504606F0E8
:104C900001FD5146A063384606F004FE3146034646
:104CA0005846009306F0FEFD009B0146184606F0AC
:104CB000F1FC019903464846009306F0F3FD009B82
:104CC0000146184606F0E4FC294606F0EBFD0146D5
:104CD000404606F0DFFC5146E063484606F0E2FD40
:104CE000414603465846009306F0DCFD009B014612
:104CF000184606F0CDFC019903463846009306F0AD
:104D0000D1FD009B0146184606F0C4FC294606F07A
:104D1000C9FD0146304606F0BDFC514620645846A8
:104D200006F0C0FD41468246484606F0BBFD0146FE
:104D3000504606F0AFFC31468046384606F0B2FDDC
:104D40000146404606F0A4FC294606F0ABFD0146AC
:104D5000019806F09FFC94F85630606408A813B9D7
:104D600094F8553033B104F11C0104F13802FEF718
:104D700095FE01E0FEF7A4FE04F1380508A9201D08
:104D8000FEF7D2FD261D2A4608A804F11C01FEF7F5
:104D900085FE08A93046FEF7C7FD2168606906F068
:104DA00081FDA169074606F075FC0146384606F00C
:104DB0002DFE3146024608A8FEF764FE08A92846E3
:104DC000FEF7BDFD2846FEF781FE284604F14801A6
:104DD000FEF7C8FE0DB0BDE8F08F00BF00007A44BA
:104DE00070B583004401E41AFC230B7015234B704B
:104DF00004F11C050E1B2146325D03480134FEF709
:104E000012FCAC42F7D170BDAD8EFF1F70B58300B0
:104E10004401E41A00238B700D460D482146FEF72D
:104E2000FFFBFC2812D1611C0948FEF7F9FB15288D
:104E30000CD104F11C062D1B21460548FEF7F0FBA2
:104E400028550134B442F7D1012070BD002070BD57
:104E5000AD8EFF1F7047FFFF034B10B50446036084
:104E6000FBF77EFD204610BD50D1000010B5044672
:104E7000FFF7F2FF204603F0B7FB204610BDC069E4
:104E8000C0B201B1012101F08FBEC9680029D4BFB1
:104E900000210121FFF7F3BF37B51D460023009322
:104EA00008230446FBF76CFD084B012D236001D15C
:104EB000062300E00723E361207F012101F0A0FE2B
:104EC00020460121FBF774FD20463EBD50D1000075
:104ED0007047FFFF034B10B504460360FBF740FD2E
:104EE000204610BD68D1000010B50446FFF7F2FF60
:104EF000204603F079FB204610BD38B5044603F088
:104F0000F1FC0546204603F0A7FC281838BDFFFF3A
:104F1000F0B58DB00446FBF74FFD002857D0712344
:104F2000ADF8003004F11C0730230025ADF8023045
:104F3000384641F20103ADF80430ADF8065000F0F8
:104F400077F9CDE90201384600F096F984F89550DA
:104F5000CDE90401D4F89C001E4E06F01DF8002295
:104F60001D4B06F0A9F9D4F8BC3084F8B55008936D
:104F7000D4F8AC3084F8A550012209930023CDE980
:104F80000A233368CDE9060105225B6813493046E0
:104F90009847DDE90A2352EA0301304601D0012196
:104FA00000E02946FFF7A9FF0023BDF802101A46CA
:104FB00004E01DF80300121892B201338B42F8DBB3
:104FC000A069ADF80620036869461B6998470DB0D3
:104FD000F0BD00BF0492FF1F0000594078D10000CF
:104FE00037B504461D46009202230022FBF7C8FC99
:104FF00020460F4B40F81C3B00F02CF815B1C4F8CC
:10500000F45003E04FF41653C4F8F430D4F8F430FD
:10501000580800F1B76000F55840B0FBF3F001F01C
:1050200093FF20460121FBF7C3FC20463EBD00BF95
:1050300068D1000010B5044602F0FEF8002808DD33
:1050400002F008F9C1B204F11C00BDE8104000F004
:10505000D5BA10BD0346002110B50224017041707D
:105060008180816001824161818301620185C16229
:105070001973197683F8241083F8301083F83810E8
:10508000C16383F8391083F84810C16483F849106C
:1050900083F8581001660167C0F8801083F8591032
:1050A00083F8681083F8691083F8781083F8791012
:1050B00083F8881083F88910C0F8901083F898104E
:1050C00083F89910C0F8A01080F8B94083F8A810B0
:1050D00083F8A91083F8BA1083F8BB1083F8BC10CA
:1050E000C0F8C010C0F8C410C0F8C810C0F8CC1088
:1050F000C0F8D010C0F8D41083F8AA1010BDA1F1E8
:105100004103052B02D8A1F137007047A1F16103DB
:10511000052B94BFA1F15700A1F13000704738B5BD
:105120000578B5F12D035D425D41044605B1441C8F
:10513000204606F0A9FD64234343224614F8011BD0
:10514000A1F130000928F8D92E2910D15178A1F108
:10515000300009280BD809B2C800927800EB410151
:10516000303AA1F5F0715B18092A98BF9B1805B178
:105170005B42184638BDFFFF38B50C46054606F0C1
:1051800083FD6423B0FBF3F21249228003FB120378
:105190004B432846014610F8012BA2F13005092D9A
:1051A000F8D92E2A0CD108460A4A0A2503E0B2FB98
:1051B000F5F202FB013310F8011F30390929F6D945
:1051C0000522534301330322B3FBF2F36360002350
:1051D000237238BD80969800034682B053F81C2F86
:1051E00042605A6882601B7A0373034653F8282F83
:1051F00002615A6842611B7A0376054B1B68019372
:10520000019B436301234370037002B0704700BFEA
:10521000848FFF1F00F11C0308461946FFF7ACBF3F
:1052200000F1280308461946FFF7A6BFFFFFFFFF5E
:10523000002370B543700646808805F0ADFE044635
:10524000B0680D4605F098FE09A3D3E9002306F0E7
:1052500033F802460B462046294605F051FD0B4621
:10526000317B024609B103F100431046194670BD77
:105270000000000065CDCD41002370B543700646A7
:10528000008A05F089FE044670690D4605F074FE3B
:1052900009A3D3E9002306F00FF802460B46204687
:1052A000294605F02DFD0B46317E024609B103F17A
:1052B00000431046194670BD0000000065CDCD4189
:1052C00083684360054B82B01B680193019BC360F8
:1052D00001234370037002B0704700BF848FFF1F2B
:1052E00083684360054B82B01B680193019BC360D8
:1052F00001234370037002B0704700BF848FFF1F0B
:1053000010B504460846FFF70AFFA06010BD10B5AF
:105310000446084606F0B8FCA06010BDC368836070
:10532000054B82B01B680193019B436001234370CE
:10533000037002B0704700BF848FFF1F10B5044692
:105340000846FFF7ECFEE06010BDFFFFC368836016
:10535000054B82B01B680193019B4360012343709E
:10536000037002B0704700BF848FFF1F10B5044662
:10537000084606F089FCE06010BDFFFF13B5044647
:105380002146103007F0C6F9054B1B680193019BBD
:105390002362012384F8253084F824301CBD00BF2B
:1053A000848FFF1F102207F013BAFFFF90F8A93077
:1053B00070B50446002B62D090F8AA10FFF79FFE4C
:1053C00094F8AB1005462046FFF799FE94F8A830F4
:1053D00000EB0510C5B2AB424BD1D4F8D430013349
:1053E000C4F8D43094F8BC3023B1D4F8CC300133B5
:1053F000C4F8CC3094F8B930B3B1012B2AD104F100
:105400003800FFF75DFF04F14800FFF769FF94F8EB
:10541000BC30FBB12046FFF7DFFE04F15800FFF778
:105420007DFF04F1680013E004F14800FFF758FF26
:1054300094F8BC3033B12046FFF7CEFE04F178007B
:10544000FFF76CFF04F18800FFF780FF04F198007C
:10545000FFF764FFD4F8C450002D00F0BC80D4F8EE
:10546000C430A86A996A07F067F8002800F0B58090
:10547000B1E0D4F8D0300133C4F8D0301DE090F85A
:10548000BA2042BB00F1AA0528465A4907F054F851
:1054900008B9012308E02846574907F04DF810B92C
:1054A00084F8B90002E0022384F8B930D4F8C0309F
:1054B000C4F8C430D4F8C4600EB9002070BDB06A1E
:1054C000294607F039F8002880F290808AE0002011
:1054D000C4F8C40070BD90F8B910022960D090F8EB
:1054E000AA30002B5CD042EA4112013A282A57D850
:1054F000DFE802F01520252C3142494F515656560F
:10550000565656565656565656565656565656563B
:1055100056565656151B20252C31383A3C0048303B
:1055200004F1AA01FFF7ECFE3AE0B3F14100434277
:10553000434125E004F1AA01FFF76CFE30E0B3F12E
:1055400053014B424B4180F8243029E004F1AA0179
:10555000FFF766FE24E0B3F157025342534180F84F
:1055600030301DE0583017E0683015E0383004F175
:10557000AA01FFF7CCFE13E0302B94BF00230123D8
:1055800084F8BC300CE0883004F1AA01FFF7EEFE8D
:1055900006E0983000E0783004F1AA01FFF7CEFE73
:1055A000D4F8C45004F1AA0604E028463146FFF7B7
:1055B000F9FE2D6B002D80D0D4F8C430A86A996A0A
:1055C00006F0BAFF00287FF478AFEB6A94F8BA20AF
:1055D000934209DD71E7012070BD2846FFF7CEFE3A
:1055E0002D6B39E7336B63E7E3D1DEE77FF46FAF11
:1055F00063E700BF7ED1000084D1000038B5D0F849
:10560000C8300133242904460D46C0F8C8302CD0D8
:1056100004D80A290CD00D2936D109E02A2907D04F
:105620002C2931D190F8A83083F02C0380F8A830D1
:1056300094F8BB300E2B4FF0000005D8E31883F828
:10564000AA002046FFF7B2FE94F8BA30013384F87E
:10565000BA300023B5F12A0CDCF1000555EB0C053E
:1056600084F8BB3084F8A95038BD0020022384F8A8
:10567000BB0084F8BA0084F8A80084F8B93084F834
:10568000A90084F8BC0038BD94F8BB300D2B05D8B8
:10569000E218013382F8AA5084F8BB3094F8A900CC
:1056A00028B994F8A8305D4084F8A85038BD00208F
:1056B00038BDFFFF2E4B002230B51A6090F89430B1
:1056C00053B9D0F890305A6802F596525A6090F863
:1056D00099201A60012347E0012B28D190F89530DA
:1056E00073B100EB830290F89710526C01338B4238
:1056F00088BF0023D0F88C10A2F5965271B913E040
:1057000090F89640011F80F897401A4603E051F840
:10571000045F01324D64A242F9D9E2E7012B01D1C5
:105720000B7001E000240C7080F8953001E0D0F897
:1057300088204EF660239A42D0F89030596806D8F7
:105740008A185A6090F898201A6000230CE001F53E
:1057500062419031596090F89910A2F56242903AF6
:105760001960C0F88820022380F8943030BD00BF53
:1057700054800340442380F88A307047324B1A68C3
:105780004FF6FF739A4230B5304A51D1136803F097
:105790007F03482B4CD14B1F0024122B46D8DFE847
:1057A00003F00A1F45450D1045454545454545450E
:1057B000451316191C00264A072313E0254A022325
:1057C00010E0254A03230DE0244A05230AE0244A79
:1057D000062307E0234A002304E0234A012301E0D3
:1057E000224A0423C0F8844080F88B4090F88A4015
:1057F0000260FF2580F8885014601D4A42F823009B
:105800001C4A0120147800FA03F3234313701A4B47
:1058100003EBC10140F244424B681A60174B20224F
:105820001A70174B4FF080421A6030BD002030BD17
:10583000144C00234FF6FF75136023606560482405
:105840001460114A1360A6E70880034000800340FB
:10585000448003401C800340248003403480034084
:105860003C8003400C800340148003402C800340A4
:10587000B48EFF1FB38EFF1F90D200003EE400E005
:1058800004E100E00480034054800340036890F882
:105890008A105A6810B51960174BB2F5604F1B8813
:1058A00003D91649097801B1013B42EA0343D0F814
:1058B0008420C0F884309A1A114B9A4290F88830AC
:1058C00011D9FF2B0DD0021F002103E004325468D0
:1058D000013154649942F9DB80F88930012380F862
:1058E0008B30002305E00F2B05D800EB830101333B
:1058F0004A6080F8883010BDB08EFF1FAE8EFF1F4B
:105900003F9002006E4B1A6810B5140608D5482265
:105910001A606C4B1A8801321A806B4B01221A7084
:105920006A4B1C78E00703D5694B1B68190677D4CE
:1059300004F00203DBB21BB1664B1B681A0674D479
:1059400004F00403DBB21BB1634B1B681B0671D46C
:1059500004F00803DBB21BB1604B1B6818066ED461
:1059600004F01003DBB21BB15D4B1B6819066BD44E
:1059700004F02003DBB21BB15A4B1B681A0668D433
:1059800004F04003DBB21BB1574B1B681B0665D408
:10599000200603D5554B1B68190664D4544B1C785C
:1059A000E20703D54A4B1B681B0661D404F00203CF
:1059B000DBB21BB1474B1B6818065ED404F004032E
:1059C000DBB21BB1444B1B6819065BD404F008031F
:1059D000DBB21BB1414B1B681A0658D404F010030C
:1059E000DBB21BB13E4B1B681B0655D404F02003F1
:1059F000DBB21BB13B4B1B68180652D404F04003CA
:105A0000DBB21BB1384B1B6819064FD4220603D5F5
:105A1000364B1B681B064ED42B4B00221A7010BD50
:105A2000344B1868FFF732FF82E7324B5868FFF7B4
:105A30002DFF85E72F4B9868FFF728FF88E72D4B50
:105A4000D868FFF723FF8BE72A4B1869FFF71EFF83
:105A50008EE7284B5869FFF719FF91E7254B9869A6
:105A6000FFF714FF94E7234BD869FFF70FFF95E783
:105A7000214B1868FFF71EFE98E71F4B5868FFF789
:105A800019FE9BE71C4B9868FFF714FE9EE71A4B24
:105A9000D868FFF70FFEA1E7174B1869FFF70AFE5A
:105AA000A4E7154B5869FFF705FEA7E7124B986965
:105AB000FFF700FEAAE7104BD869FFF7FBFDABE745
:105AC00000800340B08EFF1FAE8EFF1FB38EFF1FFE
:105AD0000C800340148003401C800340248003405A
