:1000000000800020BD010000E11A0000E11A00009C
:10001000E11A0000E11A0000E11A0000AD1A000028
:10002000AD1A0000AD1A0000AD1A0000E11A000080
:10003000E11A0000AD1A0000E11A00009D1A00004C
:10004000E11A0000E11A0000E11A0000E11A0000C4
:10005000E11A0000E11A0000E11A0000E11A0000B4
:10006000E11A0000E11A0000E11A0000E11A0000A4
:10007000E11A0000E11A0000E11A0000E11A000094
:10008000E11A0000E11A0000E11A0000E11A000084
:10009000E11A0000E11A0000E11A0000E11A000074
:1000A00005110000E11A0000E11A0000E11A000049
:1000B000E11A0000E11A0000E11A0000E11A000054
:1000C000E11A0000E11A0000E11A0000E11A000044
:1000D000E11A0000E11A0000E11A0000E11A000034
:1000E000E11A0000E11A0000E11A0000E11A000024
:1000F000E11A0000792B0000E11A0000FD26000043
:10010000E11A0000752F0000E11A0000E11A00005A
:10011000E11A0000E11A0000E11A0000E11A0000F3
:10012000E11A0000E11A0000E11A0000E11A0000E3
:10013000E11A0000E11A0000A5180000E11A000011
:10014000E11A0000E11A0000E11A0000E11A0000C3
:10015000E11A0000E11A0000E11A0000E11A0000B3
:1001600079050000BD310000E11A0000E11A00002D
:10017000E11A0000E11A0000E11A0000E11A000093
:10018000E11A0000E11A0000E11A0000E11A000083
:10019000E11A0000E11A0000E11A0000551D0000FC
:1001A000A51D00002D1E0000E91E00006D1F0000AF
:1001B000E11A0000E11A0000E11A0000544B4CF271
:1001C000205210B51A804DF628121A8000BF00BFC9
:1001D00001F08AFC4F4B4FF010621A604E4A9A6051
:1001E0004E4ADA604E4B1A6812F4807204D14D49BF
:1001F0000A604FF4A8521A604B4B1A7802F00802BA
:10020000D2B21AB11A7842F008021A70474B484825
:10021000484C2A221A700023474A02E01959995083
:10022000043399188142F9D3444B454A002101E037
:1002300043F8041B9342FBD34249434800231A5816
:100240005A500433B3F5DE7FF9D1404B404A802148
:1002500003F8011B9342FBD13A4A3E4B1A603E4BD6
:100260000A221A703D4B24221A70A02203F8012C96
:100270003B4A137803F00203DBB2002BF9D0384A73
:10028000137803F01003DBB2002BF9D1344A137852
:1002900003F00C03082BFAD1324B03221A704022D0
:1002A0005A702F4A137803F02003DBB2002BF9D0E9
:1002B0002B4A137803F04003DBB2002BF9D02A4B12
:1002C0002A4A1A6002225A60294B20221A70244AB4
:1002D000137803F00C030C2BFAD1264A264B1A6034
:1002E000264B4BF67F321A60072243F8042C62B685
:1002F00001F0E0FE0B4B1B68DC0702D5204801F043
:100300004DFE03F0F9FC01F0F5FB03F07FFCFEE786
:100310000E20054030800440823F04000100002B85
:1003200010D0034014D0034002D0074000E0074043
:100330001C8DFF1F505400006087FF1F1C8DFF1F86
:10034000F091FF1F0082FF1F0000000000E400E0AA
:100350005FE400E008ED00E0005006400140064088
:10036000064006400440064044800440000003115B
:1003700000400640C01005000480044014E000E086
:1003800017368755FFFFFFFFFFFFFFFFFFFFFFFF50
:10039000FFFFFFFFFFFFFFFFFFFFFFFFFFFFFFFF6D
:1003A000FFFFFFFFFFFFFFFFFFFFFFFFFFFFFFFF5D
:1003B000FFFFFFFFFFFFFFFFFFFFFFFFFFFFFFFF4D
:1003C000FFFFFFFFFFFFFFFFFFFFFFFFFFFFFFFF3D
:1003D000FFFFFFFFFFFFFFFFFFFFFFFFFFFFFFFF2D
:1003E000FFFFFFFFFFFFFFFFFFFFFFFFFFFFFFFF1D
:1003F000FFFFFFFFFFFFFFFFFFFFFFFFFFFFFFFF0D
:10040000FFFFFFFFFFFFFFFFFFFFFFFFFEFFFFFFFD
:1004100008B548F61C50074BC1F6FF701B1A062B97
:1004200000D808BD40F20003C0F20003002BF8D052
:100430009847F6E71F8DFF1F08B548F61C5048F691
:100440001C53C1F6FF70C1F6FF731B1A9B1003EB20
:10045000D373591000D108BD40F20002C0F200026F
:10046000002AF8D09047F6E710B548F61C54C1F6BC
:10047000FF74237873B9FFF7CBFF40F20003C0F29B
:1004800000032BB145F25040C0F20000AFF30080F2
:100490000123237010BD00BF08B540F20003C0F275
:1004A00000034BB145F2504048F62051C0F2000025
:1004B000C1F6FF71AFF3008048F61C50C1F6FF7023
:1004C00003682BB140F20003C0F2000303B1984768
:1004D000BDE80840B0E700BF42F2107002F0E0BB98
:1004E00008B5064800F016F910B9044800F068FA9B
:1004F0000248BDE8084000F0CDB900BF388DFF1FAD
:1005000010B5054C204600F06DF90449044A204618
:10051000BDE8104003F0D8BB388DFF1F350C00003C
:100520006087FF1F03790B2B10D8094A012101FABC
:1005300003F11388C9430B401380064A1088014019
:1005400011801BB9044B4FF480721A60704700BFD2
:10055000908DFF1F948DFF1F88E100E003790B2B26
:1005600006D8044A108840FA03F000F001007047F2
:1005700000207047908DFF1F70B5334A334C1188AF
:1005800094F9003041FA03F111F0010F154606D03D
:100590002F4A0021D05C01F011FD0C2323702D4B5C
:1005A0002C88197800234DB223E0581944FA00F63C
:1005B000013316F0010F1CD0254B264C185C22701D
:1005C000012101F0FBFC2378204A59B21370224A22
:1005D00032F81110214A106808181060204A10687B
:1005E00009181160013342F6A37142F80C1C237004
:1005F00070BD5A1850B20B28D7DD164B17491A7028
:100600000A68C2F56A3303F5C073B3F5966F05DB6C
:100610004EF660208342A8BF034601E04FF4966384
:100620009A180A600E4908681B180B600D4B42F6B9
:10063000A37119600C4B9A4204D9084A0023136035
:10064000044A137070BD00BF908DFF1F6487FF1FA9
:10065000AE8DFF1F928DFF1F968DFF1F8C8DFF1F8C
:100660000C600340006003407FA9030038B500F12F
:100670001C0405462046FFF755FF2846002100F0E0
:1006800009F82046FFF76AFF80F00100C0B238BDCC
:100690000079704701747047014B0360704700BFD9
:1006A000784F0000034B10B50446036003F0A6F931
:1006B000204610BD784F000037B50C4D2B680093D5
:1006C000009A8368D31A8B4204460DD90D2001F09D
:1006D00095FCD0F1010138BF00210D2001F06EFC26
:1006E0002B680193019BA3603EBD00BFF48EFF1FEA
:1006F00001717047064B10B5036000230446037177
:10070000836001210D2001F085FC204610BD00BF53
:10071000784F00000079704703790BB1642101E044
:100720004FF47A71FFF7C8BF704708B50368C9B2C4
:100730001B68984708BDFFFF10B505480C46FE2111
:10074000FFF7F3FF61882046BDE8104001F046BD89
:100750009891FF1F38B506480C46FE211546FFF755
:10076000E4FF20462946BDE8384001F037BD00BF10
:100770009891FF1F002310B51A4603E0C45C1219BC
:1007800092B201338B42F9DB104610BD30B5144BE9
:1007900085B01B680093009D836C40F6B832EB1A5D
:1007A0009342044619D901230A2141F20102ADF80E
:1007B0000430ADF80C3001A80023ADF80610ADF8F8
:1007C0000820ADF80A30FFF7D5FF2368ADF80A001E
:1007D0001B69204601A99847A56405B030BD00BF3C
:1007E000F48EFF1F70B50446FFF784FF0F4B002502
:1007F0002360E56025616561A561E561256265624B
:10080000A562E56225636563A5632565E5636564A7
:100810002564182003F0EEF8064600F0D1FA2665AC
:10082000A56484F84C50204670BD00BFA84F00005E
:100830000269C368D31A70B505469E10002406E00D
:10084000EB6853F8240003681B6898470134B442EE
:10085000F6DB70BD38B500230C46CB8008464988CE
:100860001546FFF787FF2B1AE0805842584138BDE4
:10087000826A436AD31A70B505469E10002406E0CA
:100880006B6A53F8240003681B6998470134B4422B
:10089000F6DB70BD30B5044689B0FFF73DFF206D33
:1008A00000F01EFB2046FFF735FF00285AD1206DCF
:1008B00000F078FB002855D15AE0206D00F08EFA48
:1008C000054629462046EA88FFF7C4FF002838D0AD
:1008D0002B88752B35D11123ADF804301C23ADF8CE
:1008E000063041F20103ADF80830E621002321482B
:1008F000ADF80A3000F094FCE72103901D4800F0A9
:100900008FFCE82104901B4800F08AFCE921059047
:10091000184800F085FCEA210690164800F080FC9B
:10092000BDF806500790294601A8FFF723FF294686
:10093000ADF80A0001A801F051FC0F480D21FFF7A6
:10094000F4FE206D00F050FA94F84C3083B120464C
:10095000FFF76EFF2046FFF78BFF206C40B100F0E1
:1009600064FC05E0206D00F04DFA0028ECD0A4E70F
:1009700009B030BD218EFF1F9891FF1F1FB569235D
:10098000ADF800301023ADF8023041F20103ADF8AC
:1009900004300B88672B08BF4B8902934B880446B1
:1009A0000393102100236846ADF80630FFF7E2FEFE
:1009B0002368ADF806001B692046694698471FBDAD
:1009C00038B50446FFF7A6FE002823D1206D00F0BD
:1009D00019FA58B938BD20462946EA88FFF73AFF88
:1009E00060B9206DBDE8384000F0FEB9206D00F020
:1009F000F5F90388652B0546F3D1ECE72989003129
:100A0000204618BF0121FFF773FE20462946FFF755
:100A1000B5FFE6E738BDF8B590E84800F61AB6101D
:100A200014BF334601239B1904460F466FF040461E
:100A300003D2B34238BF1E4626B1B00002F0DAFF3F
:100A4000054600E0354662682368D31A9B1005EB23
:100A500083013A6809B145F8232094E882007F1A9F
:100A6000BF1003D02846BA0003F008FD206805EB4C
:100A70008707043708B102F0C1FF84E8A00005EB46
:100A80008605A560F8BD091A38B58C1005461346D1
:100A900005D010462946A20003F0F0FC034603EB04
:100AA000840038BDF8B590E84800F61AB61014BFB7
:100AB000334601239B1904460F466FF0404603D28C
:100AC000B34238BF1E4626B1B00002F093FF054680
:100AD00000E0354662682368D31A9B1005EB83015A
:100AE0003A6809B145F8232094E803002A46FFF745
:100AF000CAFF071D206808B102F080FF84E8A0004B
:100B000005EB8605A560F8BD091A38B58C100546B9
:100B1000134605D010462946A20003F0AFFC034659
:100B200003EB840038BDF8B590E84800F61AB6101B
:100B300014BF334601239B1904460F466FF040460D
:100B400003D2B34238BF1E4626B1B00002F052FFB6
:100B5000054600E0354662682368D31A9B1005EB12
:100B600083013A6809B145F8232094E803002A4636
:100B7000FFF7CAFF071D206808B102F03FFF84E8B5
:100B8000A00005EB8605A560F8BD38B5426884680D
:100B9000A24203460D4606D0096802B111605A68A8
:100BA00004325A6038BDFFF7BEFF38BD091A38B5A8
:100BB0008C100546134605D010462946A20003F0C6
:100BC0005DFC034603EB840038BDF8B5C3680669D5
:100BD000C269F61A8369D31A0446B6109F1000251D
:100BE00004E053F82500FFF741FD0135BD42A3693C
:100BF000F7DBE269934218BFE361A26A636A93423A
:100C000018BFA362002506E053F8250010B1036861
:100C1000DB6898470135B542E368F5DB226993420A
:100C200018BF2361002384F84C306364E3632364BA
:100C3000F8BDFFFF114B10B504460360006D10B105
:100C400003685B689847002320462365FFF7BDFFD4
:100C5000206B08B102F0D2FE606A08B102F0CEFE4D
:100C6000A06908B102F0CAFEE06808B102F0C6FE51
:100C70002046FFF711FD204610BD00BFA84F000021
:100C800010B50446FFF7D6FF204602F0B7FE204617
:100C900010BDF8B590E84800F61AB61014BF3346F8
:100CA00001239B1904460F466FF0404603D2B3421E
:100CB00038BF1E4626B1B00002F09CFE054600E09B
:100CC000354662682368D31A9B1005EB83013A68A6
:100CD00009B145F8232094E803002A46FFF766FF90
:100CE000071D206808B102F089FE84E8A00005EB2A
:100CF0008605A560F8BD1FB503694269019193425D
:100D0000044605D003B1196023690433236103E06D
:100D10000C3001A9FFF7BDFF0198FFF7B9FC0238BD
:100D2000072834D8DFE800F03133331616331F04B8
:100D3000E369216A019A8B42039205D003B11A60DC
:100D4000E3690433E36122E004F1180003A9FFF72B
:100D5000A9FE1CE004A9019B04F1240041F8043D14
:100D6000FFF713FF13E0636BA16B019A8B420392B1
:100D700005D003B11A60636B0433636307E004F1C9
:100D8000300003A9FFF747FE01E0019B23641FBD6C
:100D9000054B10B504460360006908B102F030FE4F
:100DA00000232361204610BDD84F000010B5044633
:100DB000FFF7EEFF204602F021FE204610BDFFFFA8
:100DC000054A0260002202710261C26082604271C3
:100DD0008271C271704700BFD84F000003790BB118
:100DE000006970471846704710B50446006908B19D
:100DF00002F006FE002323612371A371E371E36017
:100E0000A36010BD007970470B880F2B27D00CD83A
:100E1000072B19D003D8022B21D0062B0BE00B2B6C
:100E20001BD00C2B1BD0082B05E0652B0CD004D855
:100E3000512B10D0642B19D111E06C2B0FD0752BD6
:100E40000FD0672B12D101E00A2310E01023C360FA
:100E5000012343710CE0142309E00C2307E0102365
:100E600005E00823C3600123C37101E00023C360D0
:100E7000C068704770B50446C0680E4602F0BCFDFD
:100E80000023054602E0C25CEA540133B342206904
:100E9000F9DB08B102F0B4FD256170BD0B890E2BA2
:100EA0001CD8DFE803F00E1717171B150A101708D8
:100EB00017170C17190028230FE054230DE05C23AB
:100EC0000BE0242309E01023C3600123037105E034
:100ED000202302E0142300E02C23C360C068704785
:100EE0002DE9F843044601F06BF9002858D0237926
:100EF000002B55D150E001F063F900283FD0E368A2
:100F0000A568002B1BDC01F015F970550135012D8A
:100F1000A56034D93146A7602046FFF775FF02F07F
:100F20006BFDA3682061F25CC254A368226901339F
:100F3000A360F15CD154A3680133A3601FE09D421C
:100F40001DDAD4F8109001F0F5F809F80500E3680F
:100F500001359D42A56012D1637913B984F80480EC
:100F60000DE021692046FFF799FF20462946FFF74B
:100F700081FF677103E04FF0010804F1140627793F
:100F8000002FB8D0BDE8F88301F0D4F8FE2807D1CF
:100F90000123A371BDE8F883A379002BEBD1F3E71C
:100FA000BDE8F883C0797047094B1B7813B9094B2A
:100FB0001B782BB1084A1378202B03D90123037126
:100FC000002070470548C154013313700120704759
:100FD0001E8EFF1FE18DFF1F1F8EFF1FC08DFF1F85
:100FE0007047FFFF024B1878024B1B78C01A7047FE
:100FF0001D8EFF1F1C8EFF1F064A074913780978B4
:10100000994204D90549C85C0133137070474FF009
:10101000FF3070471C8EFF1F1D8EFF1FE28DFF1FCC
:10102000054B064A1B7812789A4202D9044AD05CD2
:1010300070474FF0FF3070471C8EFF1F1D8EFF1F43
:10104000E28DFF1F38B50E4B1B78144613B90D4BBC
:101050001B788BB10C4B1D78C5F121039C4202D942
:10106000012202711C4609482246401903F04CF93E
:10107000054B2D191D7000E01C46204638BD00BFF1
:101080001E8EFF1FE18DFF1F1F8EFF1FC08DFF1FD4
:1010900010B5104B1B7813F020040BD1122000F078
:1010A00041FE0D4B1B68A3B10C4A14700C4A10781A
:1010B000984710BD0B4A13780133DBB2012B137034
:1010C00002D8094B1B7823B91220BDE8104000F06C
:1010D00029BE10BD03600640BC8DFF1F1C8EFF1F84
:1010E0001D8EFF1F088EFF1FE18DFF1F0022027162
:1010F0000273034A4FF47A7181600260704700BF47
:10110000E84F000010B5374A137803F01001C9B258
:1011100021B903F04002D2B242B92EE01021117081
:1011200003F04002D2B2002AF3D110BD13F0040341
:101130002D4A18D0002313702C4A13702C4B1B68B7
:10114000144603B1984722782A4B1AB927491A70D6
:1011500001200870284AD02111701A78274B1A7084
:101160000122274B21E001211170264A1370224BE6
:10117000C0221A7002331B7830E01F4A1F4C1178CE
:1011800011F0100117D013F0010310D11C491748BA
:101190000A780078904205D9164B9B5C0132237087
:1011A0000A7000E02370144BD0221A7016E0C0239E
:1011B0001370237812E0144B122019700322134984
:1011C00000F086FD0F4A207813781F2B06D80649B9
:1011D000097819B10E49C85401331370014B02222A
:1011E0001A7010BD03600640BA8DFF1F1F8EFF1FCF
:1011F000048EFF1FC08DFF1F026006400460064082
:10120000208EFF1F1D8EFF1F088EFF1F91100000F4
:10121000E28DFF1F0148FFF769BF00BF0C8EFF1F63
:10122000084600F02DBD00F0EFBC10B5044601F0FB
:101230000DFA002808DD01F017FAC1B204F11C0014
:10124000BDE8104000F036BA10BDA1F14103052BF6
:1012500002D8A1F137007047A1F16103052B94BFBB
:10126000A1F15700A1F13000704738B50578B5F10C
:101270002D035D425D41044605B1441C204602F049
:1012800029FD64234343224614F8011BA1F13000D9
:101290000928F8D92E2910D15178A1F13000092858
:1012A0000BD809B2C800927800EB4101303AA1F5A1
:1012B000F0715B18092A98BF9B1805B15B4218466C
:1012C00038BDFFFF38B50C46054602F003FD642328
:1012D000B0FBF3F21249228003FB12034B43284672
:1012E000014610F8012BA2F13005092DF8D92E2A5C
:1012F0000CD108460A4A0A2503E0B2FBF5F202FBCC
:10130000013310F8011F30390929F6D9052253435A
:1013100001330322B3FBF2F363600023237238BD71
:1013200080969800034682B053F81C2F42605A689A
:1013300082601B7A0373034653F8282F02615A68B0
:1013400042611B7A0376054B1B680193019B436343
:1013500001234370037002B0704700BFF48EFF1F7B
:1013600000F11C0308461946FFF7ACBF00F1280343
:1013700008461946FFF7A6BF83684360054B82B055
:101380001B680193019BC36001234370037002B08B
:10139000704700BFF48EFF1F83684360054B82B027
:1013A0001B680193019BC36001234370037002B06B
:1013B000704700BFF48EFF1F10B504460846FFF7C4
:1013C00054FFA06010BD10B50446084602F082FC30
:1013D000A06010BDC3688360054B82B01B68019399
:1013E000019B436001234370037002B0704700BF4C
:1013F000F48EFF1F10B504460846FFF736FFE06085
:1014000010BDFFFFC3688360054B82B01B6801936A
:10141000019B436001234370037002B0704700BF1B
:10142000F48EFF1F10B50446084602F053FCE0603E
:1014300010BDFFFF13B504462146103003F08AF9B2
:10144000054B1B680193019B2362012384F825301F
:1014500084F824301CBD00BFF48EFF1F102203F05F
:10146000D7B9FFFF90F8A93070B50446002B62D0C1
:1014700090F8AA10FFF7E9FE94F8AB100546204655
:10148000FFF7E3FE94F8A83000EB0510C5B2AB42BD
:101490004BD1D4F8D4300133C4F8D43094F8BC30F4
:1014A00023B1D4F8CC300133C4F8CC3094F8B9303F
:1014B000B3B1012B2AD104F13800FFF75DFF04F12D
:1014C0004800FFF769FF94F8BC30FBB12046FFF7F6
:1014D00029FF04F15800FFF77DFF04F1680013E0D5
:1014E00004F14800FFF758FF94F8BC3033B12046B0
:1014F000FFF718FF04F17800FFF76CFF04F1880094
:10150000FFF780FF04F19800FFF764FFD4F8C450A0
:10151000002D00F0BC80D4F8C430A86A996A03F0AA
:101520002BF8002800F0B580B1E0D4F8D0300133BA
:10153000C4F8D0301DE090F8BA2042BB00F1AA05F3
:1015400028465A4903F018F808B9012308E028464C
:10155000574903F011F810B984F8B90002E00223EA
:1015600084F8B930D4F8C030C4F8C430D4F8C460BA
:101570000EB9002070BDB06A294602F0FDFF0028B8
:1015800080F290808AE00020C4F8C40070BD90F81A
:10159000B910022960D090F8AA30002B5CD042EA42
:1015A0004112013A282A57D8DFE802F01520252CED
:1015B0003142494F5156565656565656565656561D
:1015C000565656565656565656565656151B20259E
:1015D0002C31383A3C00483004F1AA01FFF7ECFE08
:1015E0003AE0B3F141004342434125E004F1AA014E
:1015F000FFF7B6FE30E0B3F153014B424B4180F8A8
:10160000243029E004F1AA01FFF7B0FE24E0B3F191
:1016100057025342534180F830301DE0583017E0F4
:10162000683015E0383004F1AA01FFF7CCFE13E072
:10163000302B94BF0023012384F8BC300CE08830A9
:1016400004F1AA01FFF7EEFE06E0983000E07830E2
:1016500004F1AA01FFF7CEFED4F8C45004F1AA06A3
:1016600004E028463146FFF7F9FE2D6B002D80D0AF
:10167000D4F8C430A86A996A02F07EFF00287FF48B
:1016800078AFEB6A94F8BA20934209DD71E7012044
:1016900070BD2846FFF7CEFE2D6B39E7336B63E74D
:1016A000E3D1DEE77FF46FAF63E700BF00500000D7
:1016B0000650000038B5D0F8C8300133242904465C
:1016C0000D46C0F8C8302CD004D80A290CD00D29FA
:1016D00036D109E02A2907D02C2931D190F8A83039
:1016E00083F02C0380F8A83094F8BB300E2B4FF019
:1016F000000005D8E31883F8AA002046FFF7B2FEE1
:1017000094F8BA30013384F8BA300023B5F12A0CCA
:10171000DCF1000555EB0C0584F8BB3084F8A950CA
:1017200038BD0020022384F8BB0084F8BA0084F896
:10173000A80084F8B93084F8A90084F8BC0038BD4A
:1017400094F8BB300D2B05D8E218013382F8AA506B
:1017500084F8BB3094F8A90028B994F8A8305D400B
:1017600084F8A85038BD002038BDFFFF2E4B002262
:1017700030B51A6090F8943053B9D0F890305A6868
:1017800002F596525A6090F899201A60012347E0BA
:10179000012B28D190F8953073B100EB830290F8BB
:1017A0009710526C01338B4288BF0023D0F88C1005
:1017B000A2F5965271B913E090F89640011F80F897
:1017C00097401A4603E051F8045F01324D64A2428B
:1017D000F9D9E2E7012B01D10B7001E000240C7074
:1017E00080F8953001E0D0F888204EF660239A42C8
:1017F000D0F89030596806D88A185A6090F8982026
:101800001A6000230CE001F562419031596090F8B4
:101810009910A2F56242903A1960C0F8882002231C
:1018200080F8943030BD00BF54800340036890F8C6
:101830008A105A6810B51960174BB2F5604F1B88B3
:1018400003D91649097801B1013B42EA0343D0F8B4
:101850008420C0F884309A1A114B9A4290F888304C
:1018600011D9FF2B0DD0021F002103E00432546870
:10187000013154649942F9DB80F88930012380F802
:101880008B30002305E00F2B05D800EB83010133DB
:101890004A6080F8883010BD248EFF1F228EFF1F03
:1018A0003F9002006E4B1A6810B5140608D5482206
:1018B0001A606C4B1A8801321A806B4B01221A7025
:1018C0006A4B1C78E00703D5694B1B68190677D46F
:1018D00004F00203DBB21BB1664B1B681A0674D41A
:1018E00004F00403DBB21BB1634B1B681B0671D40D
:1018F00004F00803DBB21BB1604B1B6818066ED402
:1019000004F01003DBB21BB15D4B1B6819066BD4EE
:1019100004F02003DBB21BB15A4B1B681A0668D4D3
:1019200004F04003DBB21BB1574B1B681B0665D4A8
:10193000200603D5554B1B68190664D4544B1C78FC
:10194000E20703D54A4B1B681B0661D404F002036F
:10195000DBB21BB1474B1B6818065ED404F00403CE
:10196000DBB21BB1444B1B6819065BD404F00803BF
:10197000DBB21BB1414B1B681A0658D404F01003AC
:10198000DBB21BB13E4B1B681B0655D404F0200391
:10199000DBB21BB13B4B1B68180652D404F040036A
:1019A000DBB21BB1384B1B6819064FD4220603D596
:1019B000364B1B681B064ED42B4B00221A7010BDF1
:1019C000344B1868FFF732FF82E7324B5868FFF755
:1019D0002DFF85E72F4B9868FFF728FF88E72D4BF1
:1019E000D868FFF723FF8BE72A4B1869FFF71EFF24
:1019F0008EE7284B5869FFF719FF91E7254B986947
:101A0000FFF714FF94E7234BD869FFF70FFF95E723
:101A1000214B1868FFF7AAFE98E71F4B5868FFF79D
:101A2000A5FE9BE71C4B9868FFF7A0FE9EE71A4BAC
:101A3000D868FFF79BFEA1E7174B1869FFF796FEE2
:101A4000A4E7154B5869FFF791FEA7E7124B986979
:101A5000FFF78CFEAAE7104BD869FFF787FEABE7CC
:101A600000800340248EFF1F228EFF1F278EFF1F42
:101A70000C800340148003401C80034024800340FA
:101A80002C800340348003403C800340448003406A
:101A9000268EFF1F288EFF1F488EFF1F024B1A68DD
:101AA00001321A60704700BFF48EFF1F38B50B4C2F
:101AB00025462368580301D501F080FB2B685905A2
:101AC00001D501F059F82B681A0501D500F016FE72
:101AD0002368DB04EDD501F04DFAEAE734800440D9
:101AE00008B5FFF7E3FFFFFF014B10221A80704794
:101AF000002005407047FFFF024A13681818106065
:101B0000184670476887FF1FFEE7FFFFEFF3138358
:101B10009BB9EFF3108098B9EFF3058323B10F2B36
:101B200004D9084A985C01E04FF48070EFF3118308
:101B30003BB1984228BF184670474FF0FF307047BE
:101B400018467047F0E300E0224B60221A70E12251
:101B50005A70214B214A1978214B082901D10121C2
:101B600002E00A2907D13921116013221A601D4BA6
:101B700019605A600BE00C291A4901D1352000E0A8
:101B80003D20106012221A60174B08601A60174B34
:101B900017491B78174A03B101230B601360164BDA
:101BA000164A1978164B012901D880210CE0042926
:101BB00001D8842108E0082901D8852104E01029F2
:101BC00001D8862100E08721116019600D4B0122A8
:101BD0001A707047004007406C87FF1F08B0034031
:101BE0000CB0034008B00B400CB00B40698EFF1FD7
:101BF00020B0034020B00B406D87FF1F24B003408E
:101C000024B00B40688EFF1F30B5194B85B06C4671
:101C100003F1100518685968224603C20833AB4225
:101C20001446F7D1134B1B7803F00203DBB2BBB1B0
:101C3000114B80221A7033221A710322DA7072B6A5
:101C40000E4C6B4643F001032046984762B623785A
:101C500013F0700304D0237008E0013B03D105E0CA
:101C6000044944F621630A78D207F6D505B030BDA1
:101C70003050000001000240070002400000024016
:101C8000B0F5006F10B5044609D2064B1B78D90792
:101C900001D4FFF7B9FF04F1A054207810BD002053
:101CA00010BD00BF01000240084B4FF400021A6053
:101CB0004FF080721A604FF000721A604FF080622D
:101CC0001A604FF000621A60704700BF08E100E040
:101CD000212830B521D8042A1FD8DFE802F00709EF
:101CE000050B03000B2306E00A2304E0082302E0AF
:101CF0000C2300E00923094A02EBC002526872B6C5
:101D00001468074D24F47024146044F0807444EA8D
:101D1000034345F82010136062B630BD4050000008
:101D20006C8EFF1F094B03EBC0035B6872B61A6829
:101D300022F0877222F4803242F080721A60044BE3
:101D4000002243F8202062B6704700BF40500000D8
:101D50006C8EFF1F114B10B51C68E0041C6004D58D
:101D60000F4BDA680AB1DB689847A10404D50C4B25
:101D70001A690AB11B699847A20604D5084B1A6E66
:101D80000AB11B6E9847E30606D5054BD3F88420AD
:101D900012B1D3F88430984710BD00BFA090044022
:101DA0006C8EFF1F1F4B10B51C68E0031C6004D530
:101DB0001D4B1A680AB11B689847A10304D51A4B3A
:101DC0005A680AB15B689847E20704D5164B1A6C4B
:101DD0000AB11B6C9847A30704D5134B5A6C0AB180
:101DE0005B6C9847200704D50F4B9A6C0AB19B6C2B
:101DF0009847610704D50C4BDA6C0AB1DB6C984745
:101E0000220304D5084B5A6E0AB15B6E98476303F0
:101E100006D5054BD3F8802012B1D3F8803098470F
:101E200010BD00BFA0A004406C8EFF1F2C4B10B54E
:101E30001C6820071C6004D52A4B5A6A0AB15B6AE9
:101E40009847E10604D5274B9A6A0AB19B6A9847DE
:101E5000620604D5234BDA6A0AB1DB6A9847230687
:101E600004D5204B1A6B0AB11B6B9847A00604D50A
:101E70001C4B5A6B0AB15B6B9847E10704D5194BB1
:101E8000DA6B0AB1DB6B9847A20704D5154B9A6D44
:101E90000AB19B6D9847630704D5124BDA6D0AB1FE
:101EA000DB6D9847A00504D50E4BDA6E0AB1DB6EE8
:101EB0009847E10504D50B4B1A6F0AB11B6F984781
:101EC000620504D5074B5A6F0AB15B6F984723052B
:101ED00004D5044B9A6F0AB19B6F984710BD00BFA1
:101EE000A0B004406C8EFF1F1E4B10B51C68E007AD
:101EF0001C6004D51C4B9A680AB19B689847210660
:101F000004D5194B5A690AB15B699847E20604D5B2
:101F1000154B9A690AB19B699847630704D5124B20
:101F2000DA690AB1DB699847200704D50E4B1A6AB3
:101F30000AB11B6A9847A10704D50B4B9A6B0AB1EB
:101F40009B6B9847A20604D5074B1A6D0AB11B6D0F
:101F50009847630604D5044B5A6D0AB15B6D9847E8
:101F600010BD00BFA0C004406C8EFF1F094B10B510
:101F70001C68A2071C6004D5074B9A6E0AB19B6EC1
:101F80009847E30704D5044BDA6F0AB1DB6F984733
:101F900010BD00BFA0D004406C8EFF1F044B05494C
:101FA00000221A600A60044A106010221A6070470A
:101FB00014D0034004D0034000D00340212810B5C2
:101FC00018D80D4A52F8303093F880423CB10122C3
:101FD00011B183F8802010BD83F8002110BD02EB01
:101FE000C00043681A6811B142F0030201E022F018
:101FF00002021A6010BD00BF40500000212805D821
:10200000034B53F8303093F80002704700207047BC
:1020100040500000212816D80B4A02EBC0030129CA
:102020005B6852F8302004D182F880124FF4A2721B
:1020300008E0002082F8800211B94FF4807201E0BC
:1020400040F203121A6070474050000072B60B4B0A
:102050000B491A680B4B1B68096862B6490102D527
:10206000322A88BF0133C2F53B427F323021B2FBB6
:10207000F1F24FF47A7000FB0320704718E000E0A3
:1020800004ED00E0F48EFF1F70B50446FFF7DEFF9D
:1020900005466CB140F2E736FFF7D8FF401BB0426F
:1020A00003D9013C04D005F57A7501F08FFDF3E703
:1020B00070BDFFFF10B5FFF7F7FD164B164A174C22
:1020C00000204BF6FF71186059602823136093605D
:1020D0001361936113629362136393630922226015
:1020E0000F4C20606160A360236144F8042C0D4C08
:1020F00020600D4801600D490B608B600C4B1A602D
:10210000FFF722FD0420FFF7BFFFBDE8104001F0FC
:1021100071BB00BF048003400C800340008003407B
:102120000490034004800B4008800B400C800B405F
:1021300000800B4038B5114C23684BB10F4D286817
:102140004288811801320C7A01888A4212D30CE04D
:102150000B4B1B7813B94FF0FF340CE0032000F059
:102160007FFF20600028E9D1F5E701F0AFFB0023F5
:102170002B6000E04280204638BD00BF048FFF1F67
:102180005F91FF1F10B50C4C23681BB10A4B1B68F5
:102190006BB902E0094B1B7813B94FF0FF3010BD4B
:1021A000032000F05DFF20600028EFD1F5E75A889A
:1021B0009B18187A10BD00BF048FFF1F5F91FF1F8F
:1021C000044B9888044B1B681BB11A885B88D31A90
:1021D000C0187047E491FF1F048FFF1F2DE9F843DB
:1021E0002D4B2E4DDFF8C08001220C461A7006469A
:1021F0004BE02B682BBBDFF8A09047F2095798F80B
:10220000003013B9244A137014E0042000F044FF96
:10221000072808D8012389F8003001F039FB28602D
:1022200078B989F80000013F1D4B01D01A782AB116
:1022300001221A704FF0FF30BDE8F88301F0C6FCB0
:10224000DDE72968164A488800231370C0F1400270
:10225000944238BF224600F108078018CF19488001
:10226000A41A02E0F05CF85401339342FAD1F61854
:102270004B883F2B06D940230B80042000F05EFFE3
:1022800000232B60074B05221A70002CB1D1024BA2
:1022900020461C70BDE8F883F98EFF1FFC8EFF1FDF
:1022A000008FFF1FF88EFF1F5F91FF1F07B502AB66
:1022B000012103F8010D1846FFF790FF0EBDFFFF47
:1022C000F8B5114B1B78EBB1104E114B3468114D22
:1022D00001271F704CB1638800272F7004202380D2
:1022E000214600F02BFF376009E001F0D1FA0146EA
:1022F00020B104202C7000F021FF00E02F70044B6F
:1023000000221A70F8BD00BF5F91FF1FFC8EFF1FF7
:10231000F98EFF1FF88EFF1F38B50D4B1D78ADB934
:102320000C4C216831B14B8804200B8000F006FF73
:10233000256038BD01F0ACFA014620B10420BDE8AB
:10234000384000F0FBBE044B01221A7038BD00BFBC
:10235000F98EFF1FFC8EFF1FF88EFF1F184B1A68A7
:1023600042F400621A60174A00231370164A137071
:10237000164A1370164A1370164A1370164B40F221
:1023800013321A604FF451725A60144BC0F3443246
:102390001A70C0F347125A7000F01F000422022185
:1023A00098729A70D9745A7588221A743C22DA701D
:1023B0000B4B40221A700B4B4FF400421A607047CF
:1023C00034800440738FFF1F0A8FFF1F7C8FFF1F15
:1023D000748FFF1F098FFF1F0CB0044000B0064030
:1023E0002FE400E004E100E0134A937800F00301D9
:1023F00003F0EC030B43410748BF43F01003937015
:1024000000F00F03042B0C4903D18B7943F04003F8
:102410008B715379C20603F0EF03074A48BF43F0BC
:10242000100353719379810603F0EF0348BF43F023
:1024300010039371704700BF00B006400E4B1B683D
:10244000180510B503D410BD01F0C0FB00E00B4C23
:102450002378002BF8D10A4A4FF400411160094A51
:102460000949D37040F203120A604A60074A1370A8
:10247000074A137010BD00BF34800440098FFF1F4E
:1024800084E100E000B006400CB00440738FFF1FF1
:102490000A8FFF1F38B5094B04461D78002DFCD16B
:1024A00020460121FFF7B6FD20462946FFF786FDAD
:1024B000034B53F83420034B1A6038BD098FFF1FBC
:1024C00040500000788FFF1F1D4B1B681A052DE937
:1024D000F041074631D51B4B1B680BB101221A7026
:1024E000194B1A4D1C781A4EDFF868800134272CDE
:1024F00088BF002414E0FFF709FB40280CDC337987
:102500001B060DD52B780133272B88BF002318F825
:102510000320F2712B7003E0FF2801DD01F056FB70
:102520002B78A342E7D00B4B1F550B4B01221A709F
:10253000054B1C70064BBC22DA70BDE8F08100BF71
:1025400034800440788FFF1F7C8FFF1F748FFF1F24
:1025500000B006400B8FFF1F098FFF1F2DE9F84FBA
:10256000254B1B6806461805894642D5234B1B6838
:102570000BB101221A70224DB346AA4632E0214B1C
:102580001C782F780134272C88BF0024A74209D05B
:102590001BF8012B1C4B1A551C4B01221A70194BAE
:1025A0001C701FE01A4BBC22DA709846FFF7AEFA97
:1025B00040280FDC98F8043019060FD52B78124A02
:1025C0000133272B88BF0023D25C88F807208AF8C4
:1025D000003003E0FF2801DD01F0F8FA2B78BB4260
:1025E000E4D0D5E706EB09039B45C8D3084BBC22D2
:1025F000DA70BDE8F88F00BF34800440788FFF1F89
:10260000748FFF1F7C8FFF1F0B8FFF1F098FFF1F12
:1026100000B0064010B5044C01E001F0D7FA237871
:10262000002BFAD110BD00BF098FFF1F054B064AD2
:102630001B781078834201D3273000E00138C01A9C
:10264000704700BF7C8FFF1F748FFF1F044B1878EB
:10265000044B1B78984238BF4030C01A704700BF07
:10266000738FFF1F0A8FFF1F084B094A19781378D1
:10267000994207D001333F2B88BF00230549C85C2E
:10268000137070474FF0FF30704700BF738FFF1F0C
:102690000A8FFF1F338FFF1F074B1A78074B1B78DA
:1026A0009A4206D001333F2B88BF0023044AD05CF6
:1026B00070474FF0FF307047738FFF1F0A8FFF1F67
:1026C000338FFF1F094B1B681B050ED5084BDA78AB
:1026D00002F0CB02DA7040225A74DA7842F0340207
:1026E000DA70044B1A78044B1A7070473480044037
:1026F00000B006400A8FFF1F738FFF1F70B52D4B70
:102700001A7912F0300F1DD072B6997D21B9DA799D
:1027100040225A7462B615E062B6274A27481278FA
:10272000274D00781C46531C3F2B88BF0023E679B9
:1027300083421CBFEE541A46013911F0FF01F2D159
:102740001D4B1A701B4AD37819465BB2002B1BDA5B
:102750001379180618D51B4B1B4C1D781B4B1B7887
:10276000AB4209D00133272B88BF00231079E05CEE
:10277000D071107D0728F3D9144A13700D4B1A79C4
:10278000120601D57C22DA7001F04003DBB27BB186
:10279000084B1A7902F04002D2B2194642B10C4BF2
:1027A00000221A700B4B1B6803B11A703C23CB70CC
:1027B00070BD00BF00B00640738FFF1F0A8FFF1F60
:1027C000338FFF1F7C8FFF1F0B8FFF1F748FFF1F27
:1027D000098FFF1F788FFF1F194B1A6842F4806220
:1027E0001A60184A00231370174A1370174A13709F
:1027F000174A1370174A1370174B40F213321A60BE
:102800004FF451725A60154BC0F344321A70C0F342
:1028100047125A700221042200F01F0098729A7029
:10282000D9745A7588221A743C22DA700C4B4022F3
:102830006FF44A711A705B184FF400521A607047B7
:1028400034800440FF8FFF1F7E8FFF1F0890FF1F03
:102850000090FF1F7D8FFF1F40A0044000A0064096
:102860002DE400E0134A937800F0030103F0EC0339
:102870000B43410748BF43F01003937000F00F0370
:10288000042B0C4903D18B7943F040038B715379AE
:10289000C20603F0EF03074A48BF43F01003537129
:1028A0009379800603F0EF0348BF43F01003937160
:1028B000704700BF00A006400E4B1B68580510B5BE
:1028C00003D410BD01F082F900E00B4C2378002BFB
:1028D000F8D10A4A4FF400511160094A0949D370EE
:1028E00040F203120A604A60074A1370074A1370E5
:1028F00010BD00BF348004407D8FFF1F84E100E0E5
:1029000000A0064040A00440FF8FFF1F7E8FFF1FE6
:1029100038B5094B04461D78002DFCD12046012115
:10292000FFF778FB20462946FFF748FB034B53F897
:102930003420034B1A6038BD7D8FFF1F40500000CC
:102940000490FF1F1D4B1B685A052DE9F0410746F7
:1029500031D51B4B1B680BB101221A70194B1A4D54
:102960001C781A4EDFF8688001343F2C88BF0024A1
:1029700014E0FFF7CBF840280CDC33791B060DD5AB
:102980002B7801333F2B88BF002318F80320F27106
:102990002B7003E0FF2801DD01F018F92B78A3422A
:1029A000E7D00B4B1F550B4B01221A70054B1C70C7
:1029B000064BBC22DA70BDE8F08100BF34800440D1
:1029C0000490FF1F0890FF1F0090FF1F00A006400B
:1029D0007F8FFF1F7D8FFF1F2DE9F84F254B1B6851
:1029E00006465805894642D5234B1B680BB1012288
:1029F0001A70224DB346AA4632E0214B1C782F783C
:102A000001343F2C88BF0024A74209D01BF8012BBA
:102A10001C4B1A551C4B01221A70194B1C701FE0DD
:102A20001A4BBC22DA709846FFF770F840280FDC8A
:102A300098F8043019060FD52B78124A01333F2B32
:102A400088BF0023D25C88F807208AF8003003E0B2
:102A5000FF2801DD01F0BAF82B78BB42E4D0D5E7BE
:102A600006EB09039B45C8D3084BBC22DA70BDE8CE
:102A7000F88F00BF348004400490FF1F0090FF1FB8
:102A80000890FF1F7F8FFF1F7D8FFF1F00A0064054
:102A900010B5044C01E001F099F82378002BFAD12D
:102AA00010BD00BF7D8FFF1F054B064A1B781078B5
:102AB000834201D33F3000E00138C01A704700BFA5
:102AC0000890FF1F0090FF1F044B1878044B1B78E1
:102AD000984238BF4030C01A704700BFFF8FFF1FB9
:102AE0007E8FFF1F084B094A19781378994207D047
:102AF00001333F2B88BF00230549C85C1370704722
:102B00004FF0FF30704700BFFF8FFF1F7E8FFF1F0A
:102B1000BF8FFF1F074B1A78074B1B789A4206D0CE
:102B200001333F2B88BF0023044AD05C70474FF02D
:102B3000FF307047FF8FFF1F7E8FFF1FBF8FFF1F6C
:102B4000094B1B685B050ED5084BDA7802F0CB0207
:102B5000DA7040225A74DA7842F03402DA70044BA8
:102B60001A78044B1A7070473480044000A0064065
:102B70007E8FFF1FFF8FFF1F70B52D4B1A7912F04C
:102B8000300F1DD072B6997D21B9DA7940225A747E
:102B900062B615E062B6274A27481278274D0078BA
:102BA0001C46531C3F2B88BF0023E67983421CBF81
:102BB000EE541A46013911F0FF01F2D11D4B1A7083
:102BC0001B4AD37819465BB2002B1BDA137918061F
:102BD00018D51B4B1B4C1D781B4B1B78AB4209D0E7
:102BE00001333F2B88BF00231079E05CD071107D4A
:102BF0000728F3D9144A13700D4B1A79120601D520
:102C00007C22DA7001F04003DBB27BB1084B1A7909
:102C100002F04002D2B2194642B10C4B00221A70A7
:102C20000B4B1B6803B11A703C23CB7070BD00BF07
:102C300000A00640FF8FFF1F7E8FFF1FBF8FFF1F6B
:102C40000890FF1F7F8FFF1F0090FF1F7D8FFF1FCA
:102C50000490FF1F002300E00133C25C002AFBD177
:102C60001846704710B50023B0FBF2F402FB1400C5
:102C7000092801D8303000E03730C85420460CB164
:102C80000133F1E7CA185470224605E0885CCC5C39
:102C90008C54C8540132013B9A42F7DB084610BD00
:102CA000174B1A6842F480521A60164A00231370B8
:102CB000154A1370154A1370154A1370154A13708C
:102CC000154A40F2133111604FF451715160134AAB
:102CD000C0F344311170C0F3471100F01F00517070
:102CE0009072937013742C23D3700D4B40226FF4A9
:102CF0004B711A705B184FF400321A60704700BFB6
:102D0000348004407390FF1F0A90FF1F7C90FF1FC8
:102D10007490FF1F0990FF1F08C0044000C00640C8
:102D200031E400E0134A937800F0030103F0EC0370
:102D30000B43410748BF43F01003937000F00F03AB
:102D4000042B0C4903D18B7943F040038B715379E9
:102D5000C20603F0EF03074A48BF43F01003537164
:102D60009379800603F0EF0348BF43F0100393719B
:102D7000704700BF00C006400E4B1B68D80410B55A
:102D800003D410BD00F022FF00E00B4C2378002B91
:102D9000F8D10A4A4FF400311160094A0949D37049
:102DA00040F203120A604A60074A1370074A137020
:102DB00010BD00BF348004400990FF1F84E100E093
:102DC00000C0064008C004407390FF1F0A90FF1F18
:102DD00038B5094B04461D78002DFCD12046012151
:102DE000FFF718F920462946FFF7E8F8034B53F898
:102DF0003420034B1A6038BD0990FF1F405000007B
:102E00007890FF1F1D4B1B68DA042DE9F04107463F
:102E100031D51B4B1B680BB101221A70194B1A4D8F
:102E20001C781A4EDFF868800134272C88BF0024F4
:102E300014E0FEF76BFE40280CDC33791B060DD541
:102E40002B780133272B88BF002318F80320F27159
:102E50002B7003E0FF2801DD00F0B8FE2B78A342C1
:102E6000E7D00B4B1F550B4B01221A70054B1C7002
:102E7000064BAC22DA70BDE8F08100BF348004401C
:102E80007890FF1F7C90FF1F7490FF1F00C00640CA
:102E90000B90FF1F0990FF1F38B54518044603E04B
:102EA00014F8010BFFF7AEFFAC42F9D138BDFFFFBC
:102EB00010B5044C01E000F089FE2378002BFAD114
:102EC00010BD00BF0990FF1F054B064A1B78107804
:102ED000834201D3273000E00138C01A704700BF99
:102EE0007C90FF1F7490FF1F044B1878044B1B78D5
:102EF000984238BF4030C01A704700BF7390FF1F20
:102F00000A90FF1F084B094A19781378994207D095
:102F100001333F2B88BF00230549C85C13707047FD
:102F20004FF0FF30704700BF7390FF1F0A90FF1FE4
:102F30003390FF1F074B1A78074B1B789A4206D035
:102F400001333F2B88BF0023044AD05C70474FF009
:102F5000FF3070477390FF1F0A90FF1F3390FF1FD1
:102F6000024B1A78024B1A70704700BF0A90FF1F7D
:102F70007390FF1F10B5214B1A7902F02002D2B2D4
:102F80006AB11F4AD8791F491378097801333F2B5A
:102F900088BF00238B4202D01B49C8541370174AC4
:102FA000D37818465BB2002B13DA1379190610D5C3
:102FB000164B17491C780B789C4202D16C23D370B6
:102FC00007E00133272B88BF0023124CE45CD47147
:102FD0000B7000F04003DBB27BB1084B1A7902F0B2
:102FE0004002D2B2194642B10B4B00221A700B4B71
:102FF0001B6803B11A702C23CB7010BD00C00640B3
:103000007390FF1F0A90FF1F3390FF1F7C90FF1FDC
:103010007490FF1F0B90FF1F0990FF1F7890FF1FF8
:10302000F0B50C4B0C4C1A7842F0020504EBC506C7
:1030300082F00102706009481A700678002E0CBFF9
:103040008827C82747EA014186F0010644F8351071
:103050000670F0BDE890FF1F0080FF1F6091FF1F0A
:10306000431E032B10B510D872B6094A52F823003C
:1030700048B1416842F82310064A018832F81340EB
:10308000611A22F8131062B610BD002010BD00BFF7
:10309000D890FF1FE491FF1F013803280BD872B6A8
:1030A000064B53F82030002001E05B680130002B14
:1030B000FBD162B670470020704700BF2C91FF1F04
:1030C00070B572B6184E194C01239A1912F8012CDA
:1030D00002F00802D2B2E2B19900144A54F8315019
:1030E0002DB902EB431308305860114B09E041F051
:1030F000010154F8315065B902EBC1030830586042
:103100000C4B42F831300C4B1A78013A1A7062B607
:1031100070BD0133052BD8D162B6074B00221A705F
:10312000BDE8704000F0D2BB605200000080FF1F7D
:1031300088004000C80040005691FF1F431E032B2B
:1031400030B532D84001194A40F01000101872B65C
:10315000174CE25C032A09D8DFE802F016021805D2
:103160000830022213E00830042210E01148124A0D
:1031700050F8234014B940F8231002E052F823001D
:10318000416042F823100FE0032200E00522E254E0
:1031900010F0080F01F108030A8843600CBF882370
:1031A000C82343EA0243036062B630BD0080FF1FBC
:1031B0009490FF1F2C91FF1F3C91FF1F2DE9F74FAB
:1031C000A54EA64C357805F00403DBB2ABB1A44B99
:1031D0001B7883B1A34A137823B1013BDBB2137090
:1031E00003B900BEA04A13782BB1013BDBB21370C8
:1031F0000BB9FFF791F80423337005F00802D2B23F
:10320000002A00F08082994B1B781D094FEA930930
:1032100040F0FE8104EBC903586854F83930C3F319
:103220008303013B0C2B00F2F081DFE813F0A901CE
:10323000A901EE01EE01EE01EE01EE01EE01C50184
:10324000EE01EE01EE010D004368894902684B6012
:10325000884B894844F83930884D0A600023036060
:103260000120287092B240F28165AA422361A361D5
:1032700017D8B2F5D06F80F02C81B2F5817F00F0C5
:10328000DC8006D8802A00F0C280822A40F03D818E
:10329000C1E040F202339A4200F00C81B2F5A06F17
:1032A00016E042F22105AA4200F0678108D8B2F583
:1032B000086F00F0A680B2F5106F40F026810AE09A
:1032C00042F22120824200F01C8142F221339A42D4
:1032D00040F01B811DE18A78614B604D1A702B6AAA
:1032E000180603D5686A083800F0F0FA644A083511
:1032F0009542F4D1DFF8B091DFF8B0B10025A846CF
:10330000CA4655F8090005E04368009300F0DEFA6C
:10331000009B18460028F7D15A4B4AF8050045F89B
:103320000B00E85807E042680093019200F0CEFAE3
:10333000019A009B10460028F5D15851524BE85095
:10334000524B23F81800524B18F80320023A032A74
:1033500008D8DFE802F002040204002200E00122A3
:1033600003F8082008F101080435B8F1040FC8D1AA
:10337000484BDFF83C9100221A7001259846464BD5
:1033800005EB0902EB1812F8012C9B001A7002F0F1
:103390000802D2B23AB300F07BFAAB0038B104EBCA
:1033A0004512083050603D4A44F8332006E044F8A6
:1033B000330098F80030013388F8003000F068FAE4
:1033C000AB0043F0010338B104EBC3020830506096
:1033D000284A44F8332006E044F8330098F80030D7
:1033E000013388F80030AA0042F00201013542F0B2
:1033F00003020023052D44F8313044F83230BED1A9
:1034000088E0174B264D1B782B70034685E0244D32
:103410002B706B7080E08A88042A00D975E0204DFB
:103420002B706B701F4B9200D3181B7803F00203B4
:10343000DBB2002B70D028706EE08A8802F07F0328
:10344000042B62DC4B8803B15FE09100154A8A18B7
:10345000117821F0020156E0802007400080FF1F14
:103460005F91FF1FE990FF1FF88EFF1F902007401C
:103470004C91FF1FC80040008090FF1F6091FF1F0C
:103480008080FF1F2C91FF1F3C91FF1FE491FF1FC5
:103490009490FF1F5691FF1F30C801108800400014
:1034A0005791FF1FC0200740D890FF1F8490FF1F37
:1034B000605200008A8802F07F03042B25DC4B88D1
:1034C00003B122E09100A14A8A18117841F002016B
:1034D00019E04A889E4B898853F8085CA3F10C00D8
:1034E0009DB133F80CCC944509D133F80ACC8C4506
:1034F00005D1120A032A0CBF2B7803890DE00C3387
:10350000EAE78978934A117004E0904B0F221A7011
:1035100033E000231D4600E002238F4AB2F80690F4
:103520004B4538BF9946B9F1400F34BFC8464FF0FC
:10353000400828464146FFF773FDB9EB08094544AA
:1035400003D1B8F1400F07D017E0B9F1400F34BFF5
:10355000C8464FF0400800E0C84628464146FFF7FD
:103560005FFDB9EB0809454402D1B8F1400F04D121
:103570007A4B7B4A1D60A2F800900122794B43E010
:10358000754B1A8842F221039A4211D1764A0023E0
:10359000C15C99540133072BFAD1734B1B68862BFE
:1035A00002D1724B0F221A7000200146FFF738FD3E
:1035B0006F4B44F8393028E0684BD3F80080B8F1FD
:1035C000000F18D0DFF89891B9F800A0BAF1400FB9
:1035D00034BF5546402540462946FFF721FDC5EB3F
:1035E0000A039BB2A9F800300BB9402D01D108EBBA
:1035F00005035A4A1360584B1A88B2F5A06F04D1DC
:1036000000225A709A785B4B1A700122554B6DE07C
:1036100004EBC90803F00803D8F80420013DD9B22F
:10362000A2F10800EDB2002937D000F04FF952485E
:10363000524B50F82510F1B14A6840F8252001F1AD
:103640000802C8F804205A5D032A0BD8DFE802F00C
:1036500002040608032204E0022202E0052200E040
:1036600004225A5518F0080F0A880CBF8823C82373
:1036700043EA024342E05A5D032A07D8DFE802F03A
:1036800040400204002206E0012204E018F0080F86
:103690000CBF022203225A5532E054F839301B0C79
:1036A00022F8083C23B322F8061C42F8041C344AD2
:1036B000344952F8257017B942F8250002E051F854
:1036C00025205060304A41F8250032F815105B186B
:1036D00022F8153000F0DCF818B10830C8F8040002
:1036E00006E02A4B44F839001A7801321A7007E0D4
:1036F0001F4B274A18F0080F08BF134644F839300B
:10370000082333705EE5E90752D516492048214C5D
:1037100002230B70204B1A70204B186098602048D1
:103720001A61D8609A615C60084B0D2018701D48C2
:10373000FF23037000F8083C02741B4A13701B4BF4
:103740009F221A7001230B704BE000BFC02007407E
:1037500070520000088FFF1F4C91FF1F8090FF1FC9
:103760005491FF1F94200740DC91FF1FE990FF1F39
:10377000C8004000982007402C91FF1F9490FF1F25
:10378000D890FF1F8490FF1FE491FF1F5691FF1FE9
:10379000880040009890FF1FE890FF1F0080FF1FE7
:1037A000EC90FF1F882007408C20074084200740B2
:1037B0002B0605D50C4B0D221A70802203F8402CE5
:1037C00005F00203DBB22BB1084B1A781A70022203
:1037D00003F8082C05F01005EDB215B1044B1022CA
:1037E0001A70BDE8FE8F00BFC02007408820074048
:1037F0008020074008B500F02FFA00231E491A4622
:103800005A50C8180833882B4260F9D11B4B1A68EC
:1038100042F480221A601A4B80221A701978184AD2
:103820000906FBD4144B1749C3F307200870C3F3F0
:1038300007401B0E08750B76FF2301F81C3C01F8AE
:10384000143C01F88C3C137843F0400313700021C2
:10385000012302F8783C02F80C1C02F8883C0A4B61
:1038600070226FF4507C1A7063444FF400721A6037
:10387000064B10221A7008BD0080FF1F34800440E0
:103880000C2107409C20074049E400E00821074044
:1038900072B60C4A1168B1FA81F30B2B02D962B6E9
:1038A000002070474FF0004020FA03F021EA0001A9
:1038B000116062B6044948225343C8180022CA5016
:1038C000426070477087FF1F0084FF1F0C4B482227
:1038D000C31AB3FBF2F30B2B11D80A4A127822B1A8
:1038E000094A12780AB1FFF7EBBB72B6074A4FF0EC
:1038F000004121FA03F311681943116062B6704761
:103900000084FF1F5691FF1F5F91FF1F7087FF1FED
:1039100008B50368C9B21B68984708BD08B50368B5
:10392000C9B21B68984708BD08B50368C9B21B68CF
:10393000984708BD08B50368C9B21B68984708BD19
:10394000084608B5FEF7FEFF012008BD084608B589
:10395000FEF7F8FF012008BD38B508460D46FFF711
:1039600079F9044621462846FFF736F8204638BD47
:1039700010B5084614461146FFF72EF8204610BD34
:10398000FFF792B8FFF7DCB8FFF782B8FFF7AAB8E5
:10399000FFF7C0B8FFF798B80846FEF7B9BFFEF7C3
:1039A0008BBF480800F1B76000F55840B0FBF1F05C
:1039B000FEF712BF480800F1B76010B500F5584097
:1039C000B0FBF1F01446FEF707FF2046BDE81040BB
:1039D000FEF748BF7047FFFF044B00221A711A73AD
:1039E000034A4FF47A7199601A6070476491FF1F1F
:1039F0005851000000F0ACB900F0AAB900F0B0B91D
:103A000000F0AEB908B50368C9B21B68984708BD95
:103A100008B50368C9B21B68984708BD08B50368B4
:103A2000C9B21B68984708BD08B50368C9B21B68CE
:103A3000984708BD084608B5FFF7E4F9012008BD1E
:103A4000084608B5FFF7DEF9012008BD38B508467D
:103A50000D46FFF7FFF8044621462846FFF71CFAFB
:103A6000204638BD10B5084614461146FFF714FA33
:103A7000204610BDFFF728BAFFF772BAFFF718BA51
:103A8000FFF740BAFFF756BAFFF72EBA0846FFF71E
:103A90009FB9FFF771B9480800F1B76000F55840C9
:103AA000B0FBF1F0FFF7FCB8480800F1B76010B5C3
:103AB00000F55840B0FBF1F01446FFF7F1F820464E
:103AC000BDE81040FFF72EB97047FFFF044B0022FE
:103AD0001A711A73034A4FF47A7199601A60704729
:103AE0007491FF1FA851000008B50368C9B21B6894
:103AF000984708BD08B50368C9B21B68984708BD58
:103B000008B50368C9B21B68984708BD08B50368C3
:103B1000C9B21B68984708BD084608B5FEF7D4FC33
:103B2000012008BD084608B5FEF7CEFC012008BDFF
:103B300038B508460D46FFF78DF80446214628465D
:103B4000FEF70CFD204638BD10B508461446114658
:103B5000FEF704FD204610BDFEF768BDFEF7B2BDBE
:103B6000FEF758BDFEF780BDFEF796BDFEF76EBDB1
:103B70000846FEF78FBCFEF761BC480800F1B7604D
:103B800000F55840B0FBF1F0FEF7E8BB480800F143
:103B9000B76010B500F55840B0FBF1F01446FEF7E1
:103BA000DDFB2046BDE81040FEF71EBC7047FFFF5E
:103BB000044B00221A711A73034A4FF47A71996008
:103BC0001A6070478491FF1FF851000008B50E4B32
:103BD0001A78C2B901221A70FEF7F2FA08B100F0A1
:103BE0002CF8FEF771FF08B1FFF7F4FEFEF72EFD8B
:103BF00008B1FFF7DBFFFFF777F908B1FFF764FFC4
:103C0000014B00221A7008BD9491FF1F08B5FCF704
:103C100063FCFCF765FCFFF7D9FFFAE7084611469D
:103C2000FEF7DCBA0846FEF741BBFEF749BBFEF7DC
:103C3000A9BAFEF77FBAFEF7C3BA7047044B002259
:103C40001A711A73034A4FF47A7199601A607047B7
:103C50009891FF1F485200001FB572B6154B702295
:103C60001A70154A412111700F2102F8011C80229F
:103C70001A701A781206FCD5104B186862B6104BF1
:103C8000984201D80A23584301A90A22FEF7EAFF05
:103C90000C48002301AA9A5C2AB100EB43010133CE
:103CA0000A2B4A80F6D10133064A5B00137005B037
:103CB00000BD00BF000002400700024008000240B3
:103CC0007F969800FC87FF1F03460846194600F0C0
:103CD00009B800BF00210A2200F06EBE00220A23AC
:103CE00000F0C8BD30B405460C46134602202946F4
:103CF000224630BC00F06EBE70B545F2304645F24B
:103D00003045C0F20006C0F20005761BB61007D0A1
:103D1000043D002455F8043F01349847A642F9D1E8
:103D200045F2504645F23045C0F20006C0F20005AB
:103D3000761B01F077FBB61008D0043D002455F83F
:103D4000043F01349847A642F9D170BD70BD00BF51
:103D500048F614030146C1F6FF73186800F008B86E
:103D600048F614030146C1F6FF73186800F0F4BE6C
:103D70002DE9F04F01F10B04162C83B0074630D922
:103D800024F00704E30F8C422CBF194643F00101D5
:103D900000292FD1384600F0D7FBB4F5FC7F2ED296
:103DA0004FEAD40C48F60816C1F6FF7606EBCC02B3
:103DB000D368934200F01182596803F10808DA6869
:103DC000384621F0030499681B195C68CA6044F006
:103DD000010491605C6000F0B9FB404603B0BDE8AF
:103DE000F08F002310248C422CBF194643F00101B0
:103DF0000029CFD00C234FF000083B60EDE75FEACD
:103E0000542C04BF4FEAD40C4FEA4C0540F08F808D
:103E100048F60816C1F6FF7606EB8505EB689D426D
:103E200006D10DE0002A80F25581DB689D4207D063
:103E3000596821F003010A1B0F2AF3DD0CF1FF3C46
:103E40000CF1010C48F608123369C1F6FF7202F159
:103E5000080E734508BFD2F8049022D0586820F0AD
:103E60000300011B0F2900F384810029C2F814E02C
:103E7000C2F810E066DAB0F5007F80F04E81C1082C
:103E80004FF0010802EBC100891008FA01F85168EF
:103E90008568D86048EA0109C2F804909D60EB602B
:103EA000836001224FEAAC0302FA03F34B4554D876
:103EB00019EA030F0DD193402CF0030C19EA030FFC
:103EC0000CF1040C05D15B000CF1040C19EA030F92
:103ED000F9D006EBCC09E0464846C268904207D1CB
:103EE0005BE1002980F28381D268904200F0558125
:103EF000556825F00305291B0F29F2DD904613199B
:103F0000D56844F0010058F8084F41F0010C5060AA
:103F10003846C3F804C0E560AC6073613361C3F830
:103F20000CE0C3F808E0595000F010FB55E7BCF175
:103F3000040F00F2DE804FEA941C0CF1380C4FEABB
:103F40004C0565E71A1803F108083846536843F032
:103F50000103536000F0FAFA3FE7B5686B6823F09D
:103F6000030A544504D8C4EB0A030F2B00F3A480C2
:103F700049F2A819D6F80814C1F6FF7905EB0A0230
:103F80000131D9F80030234408BF03F1100B06D0EB
:103F900003F580530F3323F47F6323F00F0B384670
:103FA0005946019200F0D4FA019A411C804600F073
:103FB0006881824200F23181D9F8043042455B4485
:103FC000C9F8043000F06681D6F8081448F60810E5
:103FD000C1F6FF70013117BFC2EB0802C0F80884B8
:103FE0009B18C9F8043018F0070338461FBFC3F107
:103FF0000802C3F58053904403F1080208EB0B0359
:1040000008BF4FF480521B051B0DC3EB020B594632
:1040100000F09EFA431C00F04981C8EB00015944AE
:1040200041F00101D9F80430B54249F2A812C6F8AE
:1040300008805B44C1F6FF72C8F80410C9F8043068
:1040400018D0BAF10F0F40F20B81AAF10C00696889
:1040500020F007004FF0050C05EB000E0F2801F0D3
:10406000010140EA01016960CEF804C0CEF808C041
:1040700000F2208149F2A812D9F82C10C1F6FF7283
:10408000B5688B42D9F8301088BFD36249F2A812C4
:10409000C1F6FF728B4288BF13636A6822F0030285
:1040A0009442C4EB020301D80F2B05DC38464FF0D5
:1040B000000800F04BFA90E62A1943F0010344F09F
:1040C000010438466C6005F108085360B26000F0E6
:1040D0003DFA82E65918DA689C6838464D6803F163
:1040E000080845F00105E26094604D6000F02EFA8A
:1040F00073E6BCF1140F9CBF0CF15B0C4FEA4C054E
:104100007FF686AEBCF1540F00F293804FEA143C68
:104110000CF16E0C4FEA4C057AE6420A042A75D976
:10412000142A9CBF02F15B094FEA490508D9542AB9
:1041300000F2C9804FEA103909F16E094FEA4905CA
:1041400006EB850548F60818C1F6FF78AA68AA426A
:1041500079D0516821F00301884202D292689542D9
:10416000F7D1D068D6F80490D8609A60D3608360A5
:1041700097E61D1941F00106556144F001041561EF
:1041800038465C6003F10808C5F80CE0C5F808E0A3
:104190006E60695000F0DAF91FE608F10108083096
:1041A00018F0030F7FF499AE4A461CF0030FA2F1FA
:1041B00008010CF1FF3C00F09E8012688A42F4D0A6
:1041C00072685B0093423FF6C8AE002B3FF4C5AE69
:1041D0001A4200F09580C4467BE603F108025B6951
:1041E0009A4208BF0CF1020C3FF42CAEE4E5904675
:1041F0005519D368384658F8082F6968D36041F0DC
:1042000001019A60696000F0A1F9E6E54FEA9019B2
:1042100009F138094FEA490592E7B54248F6081313
:10422000C1F6FF733FF4C8AE9D686A6822F00302CE
:1042300036E7BCF5AA7F19D84FEAD43C0CF1770CCD
:104240004FEA4C05E4E50125D8F804104FEAA90926
:10425000104605FA09F545EA0109C8F8049083E714
:1042600001234546C8F80430002219E740F25453B0
:104270009C450BD84FEA944C0CF17C0C4FEA4C0552
:10428000C6E5B5686A6822F0030209E7FC254FF02D
:104290007E0CBDE51105090D00297FF495AEB268CD
:1042A0000BEB0A0141F001015160E3E601214FF0FF
:1042B000000BB7E6384605F10801019200F04CFC0E
:1042C000019A5368D6E6B2F5AA7F06D84FEAD039EC
:1042D00009F177094FEA490532E740F25451FC25CC
:1042E0008A424FF07E099EBF4FEA904909F17C094E
:1042F0004FEA490524E7726822EA0302726060E728
:104300005B0008F1040863E7032A2DE9F00F09D8E0
:104310002AB10023CC5CC45401339342FAD1BDE8E6
:10432000F00F7047830702440ED0441C4D1C15F853
:10433000017C04F00306234601342946013504F8C4
:10434000027C002EF3D100E0034611F003046DD08F
:10435000D71A0D1B032F2E6819DDC4F1040C4FEA88
:10436000C4081C1D4FEACC0C55F8047FC4EB0209AD
:10437000234604310434B9F1030F26FA08FA07FA88
:104380000CFB3E464BEA0A0744F8087CECDC9A42F8
:10439000C5D901330131013211F8014C013301312A
:1043A000934203F8024CF7D1B9E70C68403340312F
:1043B00043F8404C51F83C4C43F83C4C51F8384CD5
:1043C00043F8384C51F8344C43F8344C51F8304CE5
:1043D00043F8304C51F82C4C43F82C4C51F8284CF5
:1043E00043F8284C51F8244C43F8244C51F8204C05
:1043F00043F8204C51F81C4C43F81C4C51F8184C15
:1044000043F8184C51F8144C43F8144C51F8104C24
:1044100043F8104C51F80C4C43F80C4C51F8084C34
:1044200043F8084C51F8044C43F8044CD41A3F2C80
:10443000BBDC11E00C681033103143F8104C51F81C
:104440000C4C43F80C4C51F8084C43F8084C51F80C
:10445000044C43F8044CD41A0F2CEBDC032C96DDEF
:104460001C1D0D1D55F8047C161B234629460434DB
:104470000435032E44F8087CF4DC88E78842F0B465
:1044800011D98C18A0420ED28518531E4AB121466C
:104490002A4611F8014D013BB3F1FF3F02F8014DEF
:1044A000F7D1F0BC70470F2A47D941EA00039B07B8
:1044B00045D10C4603461546266810331034103D8E
:1044C0000F2D43F8106C54F80C6C43F80C6C54F836
:1044D000086C43F8086C54F8046C43F8046CEBD88F
:1044E000A2F1100502F00F0425F00F051035032C82
:1044F00000EB0503294424D9A4F1040C1D460C4605
:104500004FEA9C0C01EB8C07043754F8046BBC4257
:1045100045F8046BF9D10CF1010402F00302A40088
:1045200009191B19002ABCD001399A1811F8014F3A
:1045300003F8014B9342F9D1B3E70346F2E7034690
:10454000F2E72246EEE700BF704700BF704700BFAA
:1045500038B549F2EC14C1F6FF740546084600234D
:104560002360FDF7C9FA431C00D038BD2368002B37
:10457000FBD02B6038BD00BF80EA010212F0030FB0
:104580003AD110F0030220F0030021F0030150F8AB
:1045900004CB08BF51F8043B0DD082F003024FEA70
:1045A000C2026FF07F4323FA02F251F8043B4CEA57
:1045B000020C43EA020300BFACF101329C4501BF8B
:1045C00022EA0C0212F0803F50F804CB51F8043B71
:1045D000F2D04FEA0C604FEA1C2C012828BFB0EB48
:1045E000036F08BF1B0AF4D003F0FF034FEA10600B
:1045F000A0EB0300704700BF10F0030F0AD010F8C3
:10460000012B11F8013B012A28BF9A42F4D0A2EBFA
:10461000030070474DF8045D4DF8044D4FF0010262
:1046200042EA022242EA024201F0030C21F00301B5
:1046300050F8044B51F8045BBCF1020F26D04BD864
:1046400024F07F4CBCEB152FA4EB020323EA0403F8
:104650000DD113EAC21308BF51F8045B0AD18CEAEA
:10466000040CBCEB056F0CD150F8044BE8E74FEAA3
:1046700015255CE033F07F4352D10D784FEA146C7E
:1046800055E04FEA146C05F0FF0550E04FEA044C8A
:10469000A4EB02034FEA1C4C23EA0403BCEB154FC6
:1046A00017D113EAC21308BF51F8045B07D18CEA93
:1046B000040CBCEB054F08D150F8044BE6E71B0493
:1046C0002ED10D884FEA144C31E04FEA05454FEAF0
:1046D000144C4FEA15452AE004F0FF0CBCEB156FB3
:1046E000A4EB020323EA04030DD113EAC21308BFAB
:1046F00051F8045B0AD18CEA040CBCEB052F0AD1FB
:1047000050F8044BE8E74FEA156510E014F0FF0F8E
:1047100006D051F8045B4FEA142C25F07F4506E0E3
:104720004FF000005DF8044B5DF8045B70470CF03F
:10473000FF0205F0FF00012828BF904204BF4FEAA6
:104740001C2C2D0AF3D0A2EB00005DF8044B5DF8A1
:10475000045B704780EA0102844612F0030F4FD1D8
:1047600011F0030F32D14DF8044D11F0040F51F840
:10477000043B0BD0A3F101329A4312F0803F04BFF7
:104780004CF8043B51F8043B16D100BF51F8044BE0
:10479000A3F101329A4312F0803FA4F101320BD110
:1047A0004CF8043BA24312F0803F04BF51F8043B95
:1047B0004CF8044BEAD023460CF8013B13F0FF0FF2
:1047C0004FEA3323F8D15DF8044B704711F0010F25
:1047D00006D011F8012B0CF8012B002A08BF7047F6
:1047E00011F0020FBFD031F8022B12F0FF0F16BFED
:1047F0002CF8022B8CF8002012F47F4FB3D17047B5
:1048000011F8012B0CF8012B002AF9D1704700BFD9
:1048100041EA000313F0030F034670B425D0AAB198
:104820000C78013A03F8014B4CB11C4672B111F8F7
:10483000015F013A04F8015B2346002DF6D12AB14D
:104840009A18002103F8011B9342FBD170BC7047FA
:104850000E4651F8044BA4F1013525EA040515F084
:10486000803F05D1043A43F8044B032AF0D8D6E739
:104870003146D4E72DE9F04F48F61854C1F6FF74DD
:1048800085B099460B46D4F80080029103901C46EF
:1048900014F8015B08EB05012346497801F0080193
:1048A000C9B20029F3D12D2D7BD02B2D05BF244675
:1048B0000B460B4614F8015B39F0100112D1D9F107
:1048C000010038BF0020302D04D058B14FF00A0944
:1048D000CB4608E0217801F0DF01582965D008B106
:1048E0004FF00809CB46002B59460CBF6FF000462D
:1048F0004FF000468DE80C003046002700F026FB04
:1049000030468A46594600F0F3F9BC469DE80C0053
:1049100016E0303DA94525DD844594BF00210121E5
:1049200051EAD77729D15545D4BF002101218445CB
:1049300018BF002109BB0BFB0C5C012714F8015BBD
:1049400008EB0501497801F00406F6B2002EE0D12B
:1049500011F0030106D0012914BF572137216D1A28
:10496000A945D9DC791C0BD0C3B9604612B197B9FF
:10497000029B136005B0BDE8F08F4FF0FF37DDE715
:104980000399002B0CBF6FF000404FF00040222332
:104990000B60002AEED0013C0294E9E7CCF1000C58
:1049A000E3E714F8015B012386E74FF0100965780F
:1049B000CB46023497E700BF30B448F61404C1F682
:1049C000FF740D46134601462A46206830BCFFF7A7
:1049D00051BF00BF2DE9F04145F2B824C0F20004F8
:1049E00084B007462568AC6C002C42D066681F2E48
:1049F0001ADD43F65154C0F2000424B94FF0FF30E1
:104A000004B0BDE8F0818C20039102920193FFF77E
:104A10009FF90399029A019B04460028EED0A86CE6
:104A2000002684E84100AC64DFB1D4F8886026B386
:104A3000D6F8008165680120022F05F1200C00FAEC
:104A400005F046F8252048EA000246F82C3008BF59
:104A5000D6F80431C6F8002104BF1843C6F8040193
:104A600000E06568AB1C00200135656044F8231048
:104A7000C6E705F14C04AC64B8E743F65150C0F208
:104A800000000028BAD04FF4847003910292019381
:104A9000FFF75EF90399029A019B06460028ADD004
:104AA0000020C6F80001C6F804018046C4F88860FA
:104AB000C0E700BFF8B548F60814C1F6FF740F460A
:104AC0000546FFF741FDA3685E6826F0030606F67B
:104AD000EF73DF1B3F0B013F3F03B7F5805F07DB41
:104AE00000212846FFF734FDA3689B19984204D0A3
:104AF0002846FFF72BFD0020F8BD79422846FFF736
:104B000027FD013010D049F2AC13A168C1F6FF7344
:104B1000F61B284646F001061A684E60D71B1F6038
:104B2000FFF714FD0120F8BD00212846FFF710FD16
:104B3000A368C21A0F2ADBDD48F6105449F2AC1103
:104B4000C1F6FF74C1F6FF7142F001025A6023689A
:104B5000C01A0860CCE700BF2DE9F0410E46804640
:104B600000295CD0FFF7F0FC48F6081556F8041C45
:104B7000C1F6FF75A6F1080421F00103AF68E21841
:104B80009742506820F0030067D011F00101506097
:104B900035D000211618766816F0010F06D11B18C3
:104BA000906800294DD0D268C260906043F0010245
:104BB000E3506260F1B9B3F5007F32D35A0A042A98
:104BC0006CD898093830410005EB810548F608118A
:104BD000C1F6FF71AA68AA426BD0516821F00301A7
:104BE0008B4202D292689542F7D1D368E360A2600B
:104BF000D4609C604046BDE8F041FFF7A7BC56F882
:104C0000086C05F1080CA41B9B19A668664543D0E7
:104C1000D4F80CC0C6F80CC0CCF80860BAE7BDE800
:104C2000F081DB080121686805EBC3029B1001FAE3
:104C300003F3E260916818436860A160CC609460FF
:104C4000D8E7294EB042AED16C6143F001022C612D
:104C5000E060A0606260E350CCE7C018CB0707D4E7
:104C600056F8083CE41AC018A268E368D3609A605A
:104C700048F6145240F00103C1F6FF726360AC6065
:104C800013689842B6D349F2A8134046C1F6FF73A1
:104C90001968FFF70FFFADE701217BE702F15B0029
:104CA0004100142A90D9542A0CD8180B6E304100B8
:104CB0008AE701264D688010134606FA00F0054386
:104CC0004D6093E7B2F5AA7F03D8D80B7730410047
:104CD0007AE740F254518A4203D8980C7C30410064
:104CE00072E7FC217E206FE71089FF1FFFFFFFFFA7
:104CF0004A1E08BF7047C0F02481884240F21681E6
:104D0000114200F01781B0FA80F3B1FA81F2A2EB00
:104D10000303C3F11F0304A202EB03134FF00002CD
:104D20009F4600BFAFF30080B0EBC17F00BF42EBF6
:104D3000020228BFA0EBC170B0EB817F00BF42EB45
:104D4000020228BFA0EB8170B0EB417F00BF42EBB5
:104D5000020228BFA0EB4170B0EB017F00BF42EB25
:104D6000020228BFA0EB0170B0EBC16F00BF42EBA5
:104D7000020228BFA0EBC160B0EB816F00BF42EB25
:104D8000020228BFA0EB8160B0EB416F00BF42EB95
:104D9000020228BFA0EB4160B0EB016F00BF42EB05
:104DA000020228BFA0EB0160B0EBC15F00BF42EB85
:104DB000020228BFA0EBC150B0EB815F00BF42EB05
:104DC000020228BFA0EB8150B0EB415F00BF42EB75
:104DD000020228BFA0EB4150B0EB015F00BF42EBE5
:104DE000020228BFA0EB0150B0EBC14F00BF42EB65
:104DF000020228BFA0EBC140B0EB814F00BF42EBE5
:104E0000020228BFA0EB8140B0EB414F00BF42EB54
:104E1000020228BFA0EB4140B0EB014F00BF42EBC4
:104E2000020228BFA0EB0140B0EBC13F00BF42EB44
:104E3000020228BFA0EBC130B0EB813F00BF42EBC4
:104E4000020228BFA0EB8130B0EB413F00BF42EB34
:104E5000020228BFA0EB4130B0EB013F00BF42EBA4
:104E6000020228BFA0EB0130B0EBC12F00BF42EB24
:104E7000020228BFA0EBC120B0EB812F00BF42EBA4
:104E8000020228BFA0EB8120B0EB412F00BF42EB14
:104E9000020228BFA0EB4120B0EB012F00BF42EB84
:104EA000020228BFA0EB0120B0EBC11F00BF42EB04
:104EB000020228BFA0EBC110B0EB811F00BF42EB84
:104EC000020228BFA0EB8110B0EB411F00BF42EBF4
:104ED000020228BFA0EB4110B0EB011F00BF42EB64
:104EE000020228BFA0EB0110B0EBC10F00BF42EBE4
:104EF000020228BFA0EBC100B0EB810F00BF42EB64
:104F0000020228BFA0EB8100B0EB410F00BF42EBD3
:104F1000020228BFA0EB4100B0EB010F00BF42EB43
:104F2000020228BFA0EB0100104670470CBF012011
:104F300000207047B1FA81F2C2F11F0220FA02F09C
:104F4000704708B14FF0FF3000F00EB80029F8D0DC
:104F50002DE90340FFF7CCFEBDE8064002FB00F35D
:104F6000A1EB0301704700BF704700BFFFFFFFFFC9
:104F70000000000000000000091B0000091B0000E9
:104F8000091B0000091B0000091B0000091B000091
:104F9000091B000099060000A506000000000000A3
:104FA00000000000000000008D070000C1090000A3
:104FB0002907000055070000390700009508000088
:104FC000F70C0000350C0000810C00000000000010
:104FD0000000000000000000910D0000AD0D000079
:104FE0000000000000000000A90F000045100000B4
:104FF000E50F0000F90F000021100000E10F000094
:105000004750524D43004750474741004E004E4ED7
:105010004500454E45004553450053534500530058
:105020005353570057535700574E57004E4E570093
:105030006FF07F030370037813F0800FFBD070478D
:105040004008FE4340A004404408FE4344A00440FE
:105050000018FE4300C004403000FE43309004407E
:105060003400FE43349004401C18FE431CC004402E
:105070001018FE4310C004400818FE4308C0044046
:105080000C18FE430CC004400C10FE430CB004404E
:105090001010FE4310B004401810FE4318B0044036
:1050A0001C10FE431CB004401410FE4314B0044016
:1050B0000418FE4304C004400010FE4300B0044046
:1050C0000008FE4300A004400408FE4304A004407E
:1050D0000C08FE430CA004400808FE4308A004404E
:1050E0001418FE4314C004401818FE4318C00440AE
:1050F0000410FE4304B004400810FE4308B004400E
:105100001400FE43149004404C08FE434CA004409D
:105110000420FE4304D004402410FE4324B0044085
:105120002010FE4320B004402810FE4328B0044065
:105130002C10FE432CB004400020FE4300D004405D
:105140004808FE4348A004401000FE43109004406D
:1051500000000000000000004D390000713900001F
:10516000953900008D39000091390000893900001F
:10517000A3390000B53900009F39000099390000BB
:105180008539000081390000113900001D39000007
:105190002939000035390000593900004139000033
:1051A0000000000000000000413A0000653A0000E5
:1051B000893A0000813A0000853A00007D3A0000FB
:1051C000973A0000A93A0000933A00008D3A000097
:1051D000793A0000753A0000053A0000113A0000E3
:1051E0001D3A0000293A00004D3A0000353A00000F
:1051F0000000000000000000253B0000493B0000CB
:105200006D3B0000653B0000693B0000613B000016
:105210007B3B00008D3B0000773B0000713B0000B2
:105220005D3B0000593B0000E93A0000F53A000000
:10523000013B00000D3B0000313B0000193B00002A
:105240000000000000000000253C00001D3C0000A4
:10525000373C0000333C00002F3C00002B3C00009A
:1052600000151915000100007487FF1F12000000CF
:10527000000200009E87FF1F4300000000030000A3
:10528000F887FF1F00000000010309048687FF1F45
:105290000000000002030904E287FF1F0000000075
:1052A00003030904FC87FF1F00000000000000004A
:1052B00000000000000000001888FF1F43000000ED
:1052C00000202020202020202020282828282820D6
:1052D00020202020202020202020202020202020CE
:1052E0002088101010101010101010101010101036
:1052F0001004040404040404040404101010101026
:1053000010104141414141410101010101010101EF
:105310000101010101010101010101011010101041
:1053200010104242424242420202020202020202C1
:105330000202020202020202020202021010101015
:10534000200000000000000000000000000000003D
:10535000000000000000000000000000000000004D
:10536000000000000000000000000000000000003D
:10537000000000000000000000000000000000002D
:10538000000000000000000000000000000000001D
:10539000000000000000000000000000000000000D
:1053A00000000000000000000000000000000000FD
:1053B00000000000000000000000000000000000ED
:1053C00000000000000000000000000000000000DD
:1053D00000000000000000000000000000000000CD
:1053E00000000000000000000000000000000000BD
:1053F00000000000000000000000000000000000AD
:10540000000000000000000000000000000000009C
:10541000000000000000000000000000000000008C
:1054200000000000F8B500BFF8BC08BC9E467047FD
:105430009904000001050000151200002712000069
:10544000D9390000CD3A0000B13B00003D3C0000DE
:10545000000000000C000000F091FF1F0A04000093
:10546000FFFFFFFF1201000202000040C01683048C
:1054700000010102030118035400650065006E007D
:10548000730079006400750069006E006F00090206
:105490004300020100C032090400000102020100C1
:1054A000052400100105240101010424020605243D
:1054B0000600010705820310004009040100020AEA
:1054C00000000007050302400000070584024000B9
:1054D00000001603550053004200200053006500F1
:1054E0007200690061006C00040309040C030000F1
:1054F00000000000000000000000000000000000AC
:10550000000000001888FF1F000000000454000085
:10551000E4530000C453000000000000000000003D
:105520000000000000000000BC520000000000006D
:10553000000000000000000000000000000000006B
:10554000000000000000000000000000000000005B
:10555000000000000000000000000000000000004B
:10556000000000000000000000000000000000003B
:10557000000000000000000000000000000000002B
:10558000000000000000000000000000000000001B
:10559000000000000000000000000000000000000B
:1055A00000000000000000000000000000000000FB
:1055B00000000000000000000000000000000000EB
:1055C00000000000000000000000000000000000DB
:1055D00000000000000000000000000000000000CB
:1055E00000000000000000000000000000000000BB
:1055F00000000000000000000000000000000000AB
:105600000889FF1F0889FF1F1089FF1F1089FF1FCE
:105610001889FF1F1889FF1F2089FF1F2089FF1F7E
:105620002889FF1F2889FF1F3089FF1F3089FF1F2E
:105630003889FF1F3889FF1F4089FF1F4089FF1FDE
:105640004889FF1F4889FF1F5089FF1F5089FF1F8E
:105650005889FF1F5889FF1F6089FF1F6089FF1F3E
:105660006889FF1F6889FF1F7089FF1F7089FF1FEE
:105670007889FF1F7889FF1F8089FF1F8089FF1F9E
:105680008889FF1F8889FF1F9089FF1F9089FF1F4E
:105690009889FF1F9889FF1FA089FF1FA089FF1FFE
:1056A000A889FF1FA889FF1FB089FF1FB089FF1FAE
:1056B000B889FF1FB889FF1FC089FF1FC089FF1F5E
:1056C000C889FF1FC889FF1FD089FF1FD089FF1F0E
:1056D000D889FF1FD889FF1FE089FF1FE089FF1FBE
:1056E000E889FF1FE889FF1FF089FF1FF089FF1F6E
:1056F000F889FF1FF889FF1F008AFF1F008AFF1F1C
:10570000088AFF1F088AFF1F108AFF1F108AFF1FC9
:10571000188AFF1F188AFF1F208AFF1F208AFF1F79
:10572000288AFF1F288AFF1F308AFF1F308AFF1F29
:10573000388AFF1F388AFF1F408AFF1F408AFF1FD9
:10574000488AFF1F488AFF1F508AFF1F508AFF1F89
:10575000588AFF1F588AFF1F608AFF1F608AFF1F39
:10576000688AFF1F688AFF1F708AFF1F708AFF1FE9
:10577000788AFF1F788AFF1F808AFF1F808AFF1F99
:10578000888AFF1F888AFF1F908AFF1F908AFF1F49
:10579000988AFF1F988AFF1FA08AFF1FA08AFF1FF9
:1057A000A88AFF1FA88AFF1FB08AFF1FB08AFF1FA9
:1057B000B88AFF1FB88AFF1FC08AFF1FC08AFF1F59
:1057C000C88AFF1FC88AFF1FD08AFF1FD08AFF1F09
:1057D000D88AFF1FD88AFF1FE08AFF1FE08AFF1FB9
:1057E000E88AFF1FE88AFF1FF08AFF1FF08AFF1F69
:1057F000F88AFF1FF88AFF1F008BFF1F008BFF1F17
:10580000088BFF1F088BFF1F108BFF1F108BFF1FC4
:10581000188BFF1F188BFF1F208BFF1F208BFF1F74
:10582000288BFF1F288BFF1F308BFF1F308BFF1F24
:10583000388BFF1F388BFF1F408BFF1F408BFF1FD4
:10584000488BFF1F488BFF1F508BFF1F508BFF1F84
:10585000588BFF1F588BFF1F608BFF1F608BFF1F34
:10586000688BFF1F688BFF1F708BFF1F708BFF1FE4
:10587000788BFF1F788BFF1F808BFF1F808BFF1F94
:10588000888BFF1F888BFF1F908BFF1F908BFF1F44
:10589000988BFF1F988BFF1FA08BFF1FA08BFF1FF4
:1058A000A88BFF1FA88BFF1FB08BFF1FB08BFF1FA4
:1058B000B88BFF1FB88BFF1FC08BFF1FC08BFF1F54
:1058C000C88BFF1FC88BFF1FD08BFF1FD08BFF1F04
:1058D000D88BFF1FD88BFF1FE08BFF1FE08BFF1FB4
:1058E000E88BFF1FE88BFF1FF08BFF1FF08BFF1F64
:1058F000F88BFF1FF88BFF1F008CFF1F008CFF1F12
:10590000088CFF1F088CFF1F108CFF1F108CFF1FBF
:10591000188CFF1F188CFF1F208CFF1F208CFF1F6F
:10592000288CFF1F288CFF1F308CFF1F308CFF1F1F
:10593000388CFF1F388CFF1F408CFF1F408CFF1FCF
:10594000488CFF1F488CFF1F508CFF1F508CFF1F7F
:10595000588CFF1F588CFF1F608CFF1F608CFF1F2F
:10596000688CFF1F688CFF1F708CFF1F708CFF1FDF
:10597000788CFF1F788CFF1F808CFF1F808CFF1F8F
:10598000888CFF1F888CFF1F908CFF1F908CFF1F3F
:10599000988CFF1F988CFF1FA08CFF1FA08CFF1FEF
:1059A000A88CFF1FA88CFF1FB08CFF1FB08CFF1F9F
:1059B000B88CFF1FB88CFF1FC08CFF1FC08CFF1F4F
:1059C000C88CFF1FC88CFF1FD08CFF1FD08CFF1FFF
:1059D000D88CFF1FD88CFF1FE08CFF1FE08CFF1FAF
:1059E000E88CFF1FE88CFF1FF08CFF1FF08CFF1F5F
:1059F000F88CFF1FF88CFF1F008DFF1F008DFF1F0D
:0C5A0000FFFFFFFF00000200C05200008A
:00000001FF
