:1000000000800020BD01000005660000D1650000F1
:10001000D1650000D1650000D1650000D165000008
:10002000D1650000D1650000D165000005660000C3
:1000300005660000D165000005660000C16500008E
:100040000566000005660000056600000566000004
:1000500005660000056600000566000005660000F4
:1000600005660000056600000566000005660000E4
:1000700005660000056600000566000005660000D4
:1000800005660000056600000566000005660000C4
:1000900005660000056600000566000005660000B4
:1000A0003D4A000005660000056600000566000088
:1000B0000566000005660000056600000566000094
:1000C0000566000005660000056600000566000084
:1000D0000566000005660000056600000566000074
:1000E0000566000005660000056600000566000064
:1000F00005660000357E000005660000495F0000CF
:100100000566000005790000056600000566000030
:100110000566000005660000056600000566000033
:100120000566000005660000056600000566000023
:100130000566000005660000056600000566000013
:100140000566000005660000056600000566000003
:1001500005660000056600000566000005660000F3
:10016000912700003D6A000005660000056600005A
:1001700005660000056600000566000005660000D3
:1001800005660000056600000566000005660000C3
:1001900005660000056600000566000005660000B3
:1001A00005660000056600000566000005660000A3
:1001B000056600000566000005660000564B4CF21F
:1001C000205210B51A804DF628121A8000BF00BFC9
:1001D00006F01CFA514B4FF010621A60504A9A60B8
:1001E000504ADA60A3F53043203B1A6812F480725B
:1001F00004D14D490A604FF4A8521A604B4B1A784B
:10020000110703D51A7842F008021A70484B2A22C7
:100210001A700023474A48499818884204D247492F
:10022000595899500433F5E7454A464B9A424FF0E6
:10023000000302D242F8043BF7E74349434A5958C6
:1002400099500433B3F5DE7FF7D1414B802103F899
:10025000011B40498B42F9D13F4B1A603F4B0A22A8
:100260001A70A3F5805324225A70A0221A709A792A
:100270009207FCD59A79D406FCD4394B9A7902F0CE
:100280000C02082AF9D103221A7140225A719A7974
:100290009006FCD5324B9A795106FBD5314A32494A
:1002A00011600221516020221A702D4B9B7903F0BE
:1002B0000C030C2BF9D12D4B2D4A1A602D4B2E4AD5
:1002C0001A6000225A60072243F8042C2B4AC3F814
:1002D0000C2D62B606F026F9134B1B68DA0705D51C
:1002E000274806F093F8274B274A1A60274B1B78BC
:1002F0005B0609D5234C244A2368934204D1204845
:1003000006F084F8002323600AF0F8FD06F084F973
:1003100006F00AFFFEE700BF0E20054030800440D3
:10032000823F04000100002B14D0034002D007409C
:1003300000E007406087FF1F8488FF1F14BD000096
:100340008488FF1FEC92FF1F000000000082FF1F47
:1003500000E400E05FE400E008ED00E0005006404B
:100360000040064044800440000003010480044033
:10037000C010050014E000E0FF760100000020201E
:10038000A92569571CE00340A5C3945A00F0074013
:10039000FFFFFFFFFFFFFFFFFFFFFFFFFFFFFFFF6D
:1003A000FFFFFFFFFFFFFFFFFFFFFFFFFFFFFFFF5D
:1003B000FFFFFFFFFFFFFFFFFFFFFFFFFFFFFFFF4D
:1003C000FFFFFFFFFFFFFFFFFFFFFFFFFFFFFFFF3D
:1003D000FFFFFFFFFFFFFFFFFFFFFFFFFFFFFFFF2D
:1003E000FFFFFFFFFFFFFFFFFFFFFFFFFFFFFFFF1D
:1003F000FFFFFFFFFFFFFFFFFFFFFFFFFFFFFFFF0D
:10040000FFFFFFFFFFFFFFFFFFFFFFFFFEFFFFFFFD
:1004100010B5054C237833B9044B13B10448AFF33E
:1004200000800123237010BD8488FF1F000000009E
:1004300014BD000008B5064B1BB106480649AFF3D2
:1004400000800648036813B1054B03B1984708BD07
:100450000000000014BD00008888FF1F8488FF1F73
:10046000000000007047FFFF10B5034B0360044617
:1004700000F082F9204610BD38B2000010B50446E5
:10048000FFF7F2FF204606F06AFE204610BD13B5C6
:100490000446103001F0BEFD28B300230722204699
:1004A0008DF801308DF805208DF80020ADF8023070
:1004B00000F07CF98DF80400207B05F0D7FFD0F127
:1004C000010038BF00208DF8060069469DF8002025
:1004D000A06800F079FD6946ADF802009DF80020A3
:1004E000A06800F0B5FD02B010BDFFFF38B50446AE
:1004F0001D4600F053F920460B4B40F8103BC82135
:1005000001F080FD02212846257305F0BDFF0A2079
:1005100005F068FA00F0E6F9044900F038FA2046E0
:1005200000F046F9204638BD38B2000050B2000055
:1005300005F086BD10B5054B044640F8343B02F08B
:10054000EBF8204600F018F9204610BD68B2000014
:1005500010B50446FFF7EEFF204606F000FE2046E9
:1005600010BD283001F056BD70B54B79062B0446FE
:100570001FD1D1F806608569304629460AF06EFC25
:1005800030B9E569304629460AF04AFC00B93546DB
:10059000216928460AF0A6FA61690AF09BF92063EE
:1005A0000AF066FC343401462046BDE8704002F093
:1005B000CFB80D2B0BD1D1F806300361D1F80A303A
:1005C0004361D1F80E308361D1F81230C36170BD40
:1005D0007FB50446203001F01DFD68B305230025DA
:1005E00004F134008DF809308DF8055002F0C2F89E
:1005F0000A23064620468DF80430ADF8065000F078
:10060000D5F88DF8080030460AF018FA61690AF04A
:100610005FF921690AF01AFB01A9CDF80A009DF8DB
:100620000420A06800F0D0FC01A9ADF806009DF8F8
:100630000420A06800F00CFD04B070BD70B5044645
:100640001D4600F0ABF82046164B40F8203B322107
:1006500001F0D8FC04F134064FF47A7104F128005B
:1006600001F0D0FC304601F0E1FF049B2361059BC3
:100670006361069BA361079BE361002329464FF456
:100680007A72236325734FF4FA63304601F0EEFF6C
:10069000204600F08DF800F025F9034900F077F9C5
:1006A000204670BD68B2000080B2000005F0C8BCF2
:1006B0007047FFFF10B5034B0360044600F05CF881
:1006C000204610BDE8B2000010B50446FFF7F2FF67
:1006D000204606F044FD204610BD37B504461030D4
:1006E00001F098FC10B3207B05F0A6F90023082246
:1006F000054620468DF801308DF805208DF8002044
:10070000ADF8023000F052F869468DF804009DF80B
:100710000020A068ADF8065000F056FC6946ADF820
:1007200002009DF80020A06800F092FC03B030BDEC
:1007300038B504461D4600F031F820460B4B40F812
:10074000103B642101F05EFC00212846257305F072
:100750009BFE0A2005F046F9204600F029F800F03B
:10076000C1F8034900F013F9204638BDE8B2000093
:10077000C9B2000005F064BC014B0360704700BFC4
:1007800008B300007047FFFF10B5034B0360044639
:1007900006F0E5FC204610BD08B3000010B5024C81
:1007A00004600171826010BD08B3000000797047D9
:1007B00013B501228DF8052002798DF8062000235B
:1007C00004460722694680688DF801308DF80430B0
:1007D0008DF80020ADF8023000F0F6FB6946ADF868
:1007E00002009DF80020A06800F032FC02B010BDAD
:1007F0007047FFFF10B5034B03600446FFF7BCFFD3
:10080000204610BD28B3000010B50446FFF7F2FFE4
:10081000204606F0A4FC204610BD8979007B01B17A
:10082000012105F003BEFFFF38B504461D46FFF762
:10083000B5FF064B236028460121257305F024FEF1
:100840002046FFF7B5FF204638BD00BF28B30000A3
:1008500005F0F6BB10B50446D0F824030AF07CFB83
:10086000204610BD0023C21801330021B3F5807F5C
:100870001176F8D1704710B54FF47A71044601F043
:10088000C1FB04F108004FF47A7101F0BBFB40F6A4
:10089000B83104F1100001F0B5FB04F58C7000F0E4
:1008A0008DFB0023C4F81C33C4F82033C4F8243370
:1008B00001210D2005F0E8FD2046FFF7D3FF20467B
:1008C00010BD08B501F0A6FB58B10D2005F0CEFD16
:1008D000D0F1010138BF00210D20BDE8084005F02E
:1008E000A5BD08BD10B50A4C2368DB070ED4204611
:1008F00005F09DFE50B10748FFF7BDFF204605F00B
:100900009CFE04480449054A0AF0D8FA014810BD83
:10091000C88BFF1FA088FF1F550800006087FF1FBE
:1009200070B59EB001238DF8053073238DF8043027
:1009300000238DF8082004460D46ADF806301A460F
:1009400001AB1344013200266E2A5E71F8D12846AD
:100950000AF0C4FB6D28024610D904F58C7401A975
:100960002046732200F030FB01A9ADF806009DF887
:100970000420204600F06CFB1EB070BD334693424D
:10098000EBD001A91944E85C48710133F7E7002274
:10099000FFF7C6BF0122FFF7C3BF0222FFF7C0BFA8
:1009A00070B5D0F81C630446B6B10025D4F82433E2
:1009B00053F8250010B103685B6898470135B542CC
:1009C000F4D10025C4F81C53C4F82053D4F82403F0
:1009D0000AF0C2FAC4F8245370BD012910B50446C8
:1009E00080F818130AD004290ED14FF47A7101F05F
:1009F0001FFB2046BDE81040FFF7D2BF103001F0CA
:100A00001FFB2046322101E04FF47A71BDE810400F
:100A100001F00EBB37B50D4609790446FFF7DDFF3F
:100A200002238DF801300023ADF8023004F58C74F8
:100A30002B798DF8043006226423694620468DF810
:100A400000208DF8053000F0BFFA6946ADF80200CD
:100A50009DF80020204600F0FBFA03B030BDF8B549
:100A600090E828009D4204460F4610D10DB1680061
:100A700000E00120606080000AF066FAA168AA0028
:100A8000064604F047FEA0680AF066FAA6602368EE
:100A9000A1685A1C22603A6841F82320F8BDFFFF84
:100AA0002DE9F04F0C46AFB0B0490546FFF76FFF98
:100AB000A379082B00F2B781DFE813F0090080006A
:100AC0006A015E004A002F001C008401970128463D
:100AD000A749FFF75CFF00231820229395F81C73A9
:100AE00006F03BFB394605F58C72E379064601F0CA
:100AF00099FB8CE128469F49FFF749FF0023182006
:100B0000229395F81C7306F028FB394605F58C7284
:100B1000E3790646FFF70CFE79E128469649FFF790
:100B200036FF00233C20229395F81C7306F015FB3A
:100B3000A268E3790092E2680192226902926269F6
:100B40000392394605F58C720646FFF777FD5EE1A4
:100B500028468A49FFF71BFF0023EC20229395F8D3
:100B60001C7306F0FAFA394605F58C72D4F8073092
:100B7000064601F0F5FA4AE181492846FFF707FFEA
:100B800000234FF48070229395F81C7306F0E5FA69
:100B9000627AB4F807300092A27A0192394605F5DC
:100BA0008C72064601F0F2FC284676492296FFF741
:100BB000EEFE229B002B40F02C8130E1284672494A
:100BC000FFF7E5FE00231793E37A002B68D0012B93
:100BD00040F0C58028466D49FFF7D9FED4F8226061
:100BE000B4F812C0D4F81A10B4F80E90B4F810800B
:100BF000D4F81600D4F81E201196D4F8263012939B
:100C0000D4F82A601396D4F82F301493D4F83360B4
:100C1000159694F80DB094F80CA02792119A94F8B8
:100C200014E0677D28924AEA0B2A129A94F82E3033
:100C30008DF890E0269195F81C63ADF88C80ADF8A6
:100C40008EC08DF891702590ADF888A0ADF88A908F
:100C50002992139A2A92149A2B924FF48C70159A17
:100C60002C928DF8B43006F078FA637A94F807E0A5
:100C70000093A37A0193237A029322AF80460FCF89
:100C800003AC0FC40FCF0FC497E80F0084E80F0028
:100C90004046314605F58C72734601F025F95CE05B
:100CA00094F82E3094F82F6011931296D4F82660A1
:100CB000D4F81A10B4F81080B4F812C0D4F81600A2
:100CC000D4F81E20D4F82230B4F80E901396D4F83D
:100CD0002A60149694F80CA094F80DB094F814E0DF
:100CE000677D1D921E93139A149B8DF868E04AEA63
:100CF0000B2A1C9195F81C63ADF86480ADF866C0B2
:100D00008DF869701B901F92ADF860A0ADF86290ED
:100D10004FF498702093119A129B8DF884208DF8CF
:100D2000853006F01AFA637A94F807E00093A37A04
:100D30000193237A029318AF80460FCF03AC0FC400
:100D40000FCF0FC497E8030005F58C7284E8030009
:100D500073464046314601F035F8CDF85C80179B6C
:100D6000002B5CD005F5477017A955E040B3000093
:100D700046B3000060B300006FB3000079B3000019
:100D800081B3000089B3000098B30000A8B300004D
:100D900028462649FFF7FBFD00231C20229395F8E7
:100DA0001C7306F0DAF9227AE3790092627A0192F2
:100DB000D4F80A200292394605F58C72064601F0F5
:100DC000CFF824E028461A49FFF7E1FD0023182058
:100DD000229395F81C7306F0C0F9394605F58C721C
:100DE000E3790646FFF782FB11E012492846FFF738
:100DF000CEFD00231020229395F81C7306F0ADF968
:100E0000394605F58C72E3790646FFF70DFD22960B
:100E10002EB105F5477022A9FFF721FE03E0284611
:100E20000549FFF7BAFD2FB0BDE8F08FACB3000065
:100E3000C0B30000CBB300004EB3000038B54B790F
:100E400005460C46102B1FD8DFE803F0091E0D1EC7
:100E5000151E151E1E151E1E1E151E151500BDE89D
:100E60003840FFF71DBED0F824330A7953F822002A
:100E70000368DB689847D5F82433227953F82200B9
:100E800003682146DB68984738BDFFFFF7B5044685
:100E900004F58C7604F11805FFF713FD304629465A
:100EA0004FF4807200F0C1F860B30023678B227E9C
:100EB000A376E3763046294600F086F8B8421AD188
:100EC00094F81833012B637E0ED1022B0ED0032B26
:100ED00005D0A3B920462946FFF7B0FF0FE004F183
:100EE000100001F0ADF80AE0022B08D12046294697
:100EF000FFF790FD03E020462249FFF74EFD204614
:100F0000FFF7B0FC94F81833012B39D104F1080035
:100F100001F080F8B0B1032305228DF80130694655
:100F2000002330468DF80020ADF802308DF80430F3
:100F300000F04AF86946ADF802009DF800203046FE
:100F400000F086F804F1100001F064F818B12046B2
:100F50000421FFF742FDD4F81C630025B5420FD0F1
:100F6000D4F8243353F8250003681B699847D4F854
:100F7000243353F8250003689B6898470135EDE753
:100F800003B0F0BDD5B3000005F05AB810B500238A
:100F90001A0292B20821D40B01F1FF314FEA42024A
:100FA00018BF82F0D80211F0FF0192B2F3D120F8FD
:100FB00013200133B3F5807FEAD110BD10B504468C
:100FC000FFF7E4FF204610BD002330B50446184665
:100FD000934209DACD5C85EA1025013334F81550C7
:100FE00085EA002080B2F3E730BDF8B50E4615461D
:100FF00005F086FB0028FBD005F040FB0124307093
:10100000C7B2BC420CD2AC420AD205F079FB002830
:10101000F9D005F033FB0134E4B206F8010FF0E734
:10102000AC422CBF00200120F8BD70B504460D462F
:10103000164605F065FB50B105F020FBFF28F8D1FE
:10104000204629463246BDE87040FFF7CEBF70BD4E
:1010500070B5064804680D461646FF212268904781
:1010600028463146BDE8704005F058BBA891FF1FE7
:10107000704770477047FFFF2DE9F04D3C4B86B03D
:101080000646186809F098F8D6E93623CDE900013C
:1010900008F054FFD6E93223CDE9020109F088FBBC
:1010A00000285BD0336830469B69984709F0A6F862
:1010B000D6F80481824640468B4609F09FF83746B1
:1010C000F7E94823CDE904015046594608F036FFB8
:1010D00002460B4608F034FF23A3D3E9002309F0AE
:1010E000E1F80446B6F8FC000D4609F075F8024632
:1010F0000B462046294609F0FFF9002204460D461A
:101100001C4BDDE9020109F0F7F902460B462046C7
:10111000294609F0F1F902460B46DDE9040109F020
:10112000C1F804460D464FF07E50414609F0D0FB11
:10113000D6F8E01009F0D6FC09F060F802460B463C
:101140002046294608F0FCFE09F06EFBDDE900238D
:10115000C6F8E000C7E900ABC6E9362306B0BDE833
:10116000F08D00BFAFF3008000000060FB2109405C
:101170008C90FF1F00408F400B88A0F8F830CB68A0
:10118000C0F804314B88A0F8FA300B69C0F8083178
:101190004B69C0F80C318B69C0F810317047FFFF04
:1011A0002DE9FF4D3E4B0646186809F005F8D6E9D3
:1011B0003623CDE9000108F0C1FED6E93223CDE99E
:1011C000020109F0F5FA002860D0336830469B69C7
:1011D0009847D6F8F0800746404609F00FF8824657
:1011E00038468B4609F00AF80446D6F814010D4635
:1011F00009F004F802460B462046294608F09EFEF8
:1012000002460B4608F09CFE23A3D3E9002309F015
:1012100049F80446B6F8E8000D4608F0DDFF02463E
:101220000B462046294609F067F9002204460D4680
:101230001C4BDDE9020109F05FF902460B4620462E
:10124000294609F059F902460B465046594609F01D
:1012500029F804460D464FF07E50414609F038FB10
:10126000D6F8E01009F03EFC08F0C8FF02460B4635
:101270002046294608F064FE09F0D6FADDE900238D
:10128000C6E93623C6F8E000C6F8147104B0BDE81C
:10129000F08D00BFAFF3008000000060FB2109402B
:1012A0008C90FF1F00408F400B88A0F8E430CB6883
:1012B000C0F8F0304B88A0F8E6300B69C0F8F43085
:1012C0004B69C0F8F8308B69C0F8FC307047FFFFFD
:1012D00010B5034B03600446FFF74EFA204610BDDD
:1012E000E8B3000010B50446FFF7F2FF204605F012
:1012F00036FF204610BDFFFF10B5054B044640F8F1
:10130000983B01F009FA2046FFF7E2FF204610BDA6
:1013100090B4000010B50446FFF7EEFF204605F03C
:101320001EFF204610BDFFFF10B5034B03600446AF
:10133000FFF7E2FF204610BD60B4000010B5044680
:10134000FFF7F2FF204605F00AFF204610BDFFFF21
:1013500010B5034B03600446FFF7CEFF204610BDD7
:1013600008B4000010B50446FFF7F2FF204605F070
:10137000F6FE204610BDFFFF10B5054B044640F8B1
:10138000103B01F0C9F92046FFF7A2FF204610BD2F
:10139000C0B4000010B50446FFF7EEFF204605F08C
:1013A000DEFE204610BD13B5044690F8100104F08F
:1013B00043FB40F2FF32009200230D2105F0D1FEE5
:1013C00009F03CFBD4F8081109F08CFBD4F80C119F
:1013D00009F080FA02B010BD4B79102B23D1CA79E5
:1013E0008B7943EA0223A0F8E430D1F80A30C0F840
:1013F000F0300B7A4A7A43EA0223A0F8E630D1F8BB
:101400000E30C0F8F430D1F81230C0F8F830D1F80E
:101410001630C0F8FC30D1F81A30C0F80831D1F8D5
:101420001E30C0F80C31704770B50446407B05F0A3
:101430001DF8A67BD0F1010538BF0025012E06D18D
:101440002DB9FFF74FFA0749FFF7A4FAE673A37B1C
:101450003BB935B1FFF746FA0249FFF79BFA012382
:10146000E37370BD30B4000030B5044685B0D030B1
:1014700000F0D0FD002835D0236820469B699847AE
:101480000322002305468DF8052020460E228DF804
:101490000130ADF802308DF80020FFF787F98DF8A4
:1014A0000400D4E92E0109F0BFF9CDF80600D4E913
:1014B000300109F0B9F9CDF80A00A0689DF80020C4
:1014C0006946FFF781FD6946ADF802009DF80020EE
:1014D000A068FFF7BDFD284608F090FE04F5907463
:1014E000C4E9000105B030BD30B5044685B0D03048
:1014F00000F090FD80B3236820469B699847032243
:10150000002305468DF8052020460E228DF8013077
:10151000ADF802308DF80020FFF748F98DF804008F
:10152000D4E92E0109F080F9CDF80600D4E93001A4
:1015300009F07AF96946CDF80A009DF80020A06804
:10154000FFF742FD6946ADF802009DF80020A06853
:10155000FFF77EFDC4F8145105B030BD10B5036827
:10156000017A1C7843681A78437A1A40837A0C42CD
:1015700003F0030318BF43F004030AB143F0080368
:101580009A10013B82720D2B14D8DFE803F0070A92
:101590000D0A1310070710130A0D0A07C368013359
:1015A00007E0C368013B04E0C368023301E0C3689D
:1015B000023BC36010BDFFFF08B5034BD3F88400A6
:1015C000FFF7CCFF08BD00BF048CFF1F08B5034B1D
:1015D000D3F88000FFF7C2FF08BD00BF048CFF1FD7
:1015E00008B5024BD86FFFF7B9FF08BD048CFF1F89
:1015F00008B5024B986FFFF7B1FF08BD048CFF1FC1
:1016000008B5024B586FFFF7A9FF08BD048CFF1FF8
:1016100008B5024B186FFFF7A1FF08BD048CFF1F30
:1016200008B5024BD86EFFF799FF08BD048CFF1F69
:1016300008B5024B986EFFF791FF08BD048CFF1FA1
:1016400008B5024B586EFFF789FF08BD048CFF1FD9
:1016500008B5024B186EFFF781FF08BD048CFF1F11
:1016600008B5024BD86DFFF779FF08BD048CFF1F4A
:1016700008B5024B986DFFF771FF08BD048CFF1F82
:1016800008B5024B586DFFF769FF08BD048CFF1FBA
:1016900008B5024B186DFFF761FF08BD048CFF1FF2
:1016A00008B5024BD86CFFF759FF08BD048CFF1F2B
:1016B00008B5024B986CFFF751FF08BD048CFF1F63
:1016C00008B5024B586CFFF749FF08BD048CFF1F9B
:1016D00008B5024B186CFFF741FF08BD048CFF1FD3
:1016E00008B5024BD86BFFF739FF08BD048CFF1F0C
:1016F00008B5024B986BFFF731FF08BD048CFF1F44
:1017000008B5024B586BFFF729FF08BD048CFF1F7B
:1017100008B5024B186BFFF721FF08BD048CFF1FB3
:1017200008B5024BD86AFFF719FF08BD048CFF1FEC
:1017300008B5024B986AFFF711FF08BD048CFF1F24
:1017400008B5024B586AFFF709FF08BD048CFF1F5C
:1017500008B5024B186AFFF701FF08BD048CFF1F94
:1017600008B5024BD869FFF7F9FE08BD048CFF1FCE
:1017700008B5024B9869FFF7F1FE08BD048CFF1F06
:1017800008B5024B5869FFF7E9FE08BD048CFF1F3E
:1017900008B5024B1869FFF7E1FE08BD048CFF1F76
:1017A00008B5024BD868FFF7D9FE08BD048CFF1FAF
:1017B00008B5024B9868FFF7D1FE08BD048CFF1FE7
:1017C00008B5024B5868FFF7C9FE08BD048CFF1F1F
:1017D00008B5024B1868FFF7C1FE08BD048CFF1F57
:1017E00010B590F8F430012B044604D872B6E430FA
:1017F000FFF7B4FE00E072B6D4F8F03062B694F9A8
:101800000101584309F01AF910BDFFFF08B521285E
:1018100000F2D580DFE810F0220027002C00310014
:1018200036003C00410046004B00500055005A0075
:101830005F00640069006E00730078007D00820024
:1018400087008C00910096009B00A000A500AA00D4
:10185000AF00B400B900BE00C300CD00594B00205A
:1018600019605949A0E0574B0120596057499BE046
:10187000544B02209960564996E0524B0320D960A0
:10188000544991E04F4B04201961024652498CE0C3
:101890004C4B05205961514986E04A4B062099611D
:1018A0004F4981E0474B0720D9614E497CE0454BC9
:1018B000082019624C4977E0424B092059624B4994
:1018C00072E0404B0A20996249496DE03D4B0B2084
:1018D000D962484968E03B4B0C201963464963E0F4
:1018E000384B0D20596345495EE0364B0E20996315
:1018F000434959E0334B0F20D963424954E0314BFF
:101900001020196440494FE02E4B112059643F4983
:101910004AE02C4B122099643D4945E0294B1320A5
:10192000D9643C4940E0274B142019653A493BE013
:10193000244B15205965394936E0224B162099650C
:10194000374931E01F4B1720D96536492CE01D4B34
:1019500018201966344927E01A4B19205966334973
:1019600022E0184B1A20996631491DE0154B1B20C7
:10197000D966304918E0134B1C2019672E4913E033
:10198000104B1D2059672D490EE00E4B1E20996704
:101990002B4909E00B4B1F20D9672A4904E0094B6A
:1019A000C3F8801028492020042204F0D1FC012033
:1019B00008BD044B2120C3F884102449F4E700201B
:1019C00008BD00BF048CFF1FD1170000C117000025
:1019D000B1170000A1170000911700008117000047
:1019E0007117000061170000511700004117000037
:1019F0003117000021170000111700000117000027
:101A0000F1160000E1160000D1160000C11600001A
:101A1000B1160000A116000091160000811600000A
:101A200071160000611600005116000041160000FA
:101A300031160000211600001116000001160000EA
:101A4000F1150000E1150000CD150000B9150000EA
:101A500070B504461E469DF81050FEF79FFE074BDA
:101A600023609DF81430A373002328462673657302
:101A7000E373022104F008FD204670BDE8B30000C6
:101A80002DE9F04788B006469DF8404000949DF847
:101A9000444001949A46FFF7DBFF3046BDF84E10F4
:101AA000394B40F8343B4FF47A7898FBF1F100F071
:101AB000A9FA179808F0A2FBCDE90001189808F0E0
:101AC0009DFBCDE90201199808F098FB06F1400949
:101AD0001B9B069306F1B00706F1A80506F1A004CA
:101AE0002A462346CDE904013946484610AF06F19F
:101AF000980902F0C3FD00240025484600F096FD39
:101B000037F80C0FC6E92845C6E92A45C6E92C4531
:101B100008F052FB02460B4600201C4908F0ECFC82
:101B200000221B4B08F0BEFBC6E9320106F1D000D3
:101B3000142100F067FA0FCF06F1100EAEE80F0087
:101B40000FCFAEE80F003B68CEF80030114B18689D
:101B500008F032FB4246C6E936014FF4FA635146BB
:101B6000484600F083FD9DF8483086F89E30C6E96F
:101B70002E45C6E93045FEF7B5FE0749FEF707FFDB
:101B8000304608B0BDE8F08790B400000000F03F98
:101B900000408F408C90FF1F3BB40000B1F5FA7FEE
:101BA00004DC064B9942B8BF194601E04FF4FA71C4
:101BB000983001F2DC5100F0CBBD00BF0CFEFFFFFE
:101BC000F8B5C37B04460D46002B72D14B79022B2E
:101BD00017D1C66AD1F806703046394609F020F9A7
:101BE00030B906F100463846314609F019F908B116
:101BF000C5F80660D5F8060008F000FBC4E9280126
:101C0000F8BD042B4FD1FEF76DFE2F49FEF7BFFE46
:101C1000EA79AB7943EA022323826A7A2B7A43EA90
:101C200002236382D5F80A30E361D5F80E302362CF
:101C3000D5F8123063622146D5F81630A36251F808
:101C4000103B2046DB699847206A08F0D7FAC4E9C0
:101C50001A01606A08F0D2FAC4E91C01A06A08F00F
:101C6000CDFAC4E91E01208A08F0A6FA02460B4606
:101C70000020164908F040FC0022154B08F012FB2A
:101C8000144BC4E93201186808F096FA638AC4E973
:101C900036014FF47A7104F1340091FBF3F1BDE8A1
:101CA000F84000F0C5B9102B0CD103681B6A9847A7
:101CB000F8BD0021FFF772FF04F14000BDE8F840D5
:101CC00002F00EBDF8BD00BF47B400000000F03FB9
:101CD00000408F408C90FF1F38B50446343000F030
:101CE00099F9002833D094F89E30A3B1012B18D174
:101CF000236820469B699847014608F0EBFD14498C
:101D000008F0F0FE0546A08A08F098FE0146284635
:101D100008F09CFF01E0D4F8E00008F06FFAC4E995
:101D20002A0104F1400002F0E1FC94F9180008F0E7
:101D300053FAD4E92C2308F0B5FAC4E92C0108F0D1
:101D40004BFD01462046BDE83840FFF727BF38BDB0
:101D5000DB0F494038B50446FFF766FB2368204691
:101D60005B699847E37B204613B9FFF7B5FF06E0B0
:101D70000021FFF713FF04F1400002F0B1FC2368DB
:101D800020469B699847014608F0A4FD0A4908F0DF
:101D9000A9FE0546A08A08F051FE0146284608F033
:101DA00055FF08F02BFAC4E92E01D4F8E00008F042
:101DB00025FAC4E9300138BDDB0F4940FFF7CABF3F
:101DC000FFF7C8BFF0B58DB01F469DF848300093AF
:101DD0009DF84C3001939DF85030029315AE0446A7
:101DE0008C4696460FCE03AD0FC50FCE0FC530689B
:101DF0002860614672463B462046FFF741FE9DF84B
:101E00007860374B9DF8795023603046022104F00A
:101E10003BFB2846022104F037FB324A52F83630A9
:101E200003F50071C4F8E410012184F8EC1052F8B5
:101E3000352084F8ED1002F500700021C4F8F01090
:101E4000C4F8E8004FF47A4101397FF4FDAF93F80C
:101E5000003292F8002203F00103D20744BF43F09E
:101E60000203DBB284F8EE3004F1E4031946304695
:101E70001E46FFF7CBFC314684F8F4002846FFF7F6
:101E8000C5FC94F8F4301844BDF8543084F8F400DC
:101E90004FF47A7191FBF3F104F5947000F0B2F80D
:101EA0000023C4F8E0300022002304F59071C1E95A
:101EB00000231DAE15AA04F1F803154603CDB54263
:101EC000186059602A4603F10803F6D128681860A3
:101ED000AA889A802046FEF76BFC20460DB0F0BD24
:101EE00008B40000A0B60000F0B58DB01F469DF804
:101EF000483000939DF84C3001939DF85030029388
:101F000015AD06468C4696460FCD03AC0FC40FCDDB
:101F10000FC42868206072463B4630466146FFF792
:101F2000AFFD33460D4A43F8E42B1FAD15AA144606
:101F300003CCAC4218605960224603F10803F6D185
:101F40002068186022791A710A2003F04BFD304690
:101F5000FEF72EFC30460DB0F0BD00BF60B40000AF
:101F600073B505469DF81840009401942C461E4612
:101F7000FFF76EFD0B4B44F8103B204600F056FB7C
:101F800031464FF47A7220464FF4FA6300F06EFB4C
:101F9000089BAB61FEF7A6FC0349FEF7F8FC284658
:101FA00002B070BDC0B400003BB400004FF4FA733F
:101FB0005943103001F2DC5100F0CABBF8B5C37BC5
:101FC00005460C46D3B9D1F80670866938463146C5
:101FD00008F044FF30B906F100463846314608F0B3
:101FE0001FFF08B1C4F80660D4F8060008F040FFEF
:101FF00001462846BDE8F840FFF7D8BFF8BD04F019
:102000001FB8FFFF024A416012680260704700BFBC
:102010008C90FF1F054B02681B68991A4268914219
:10202000C6BF036001200020704700BF8C90FF1FD7
:10203000024B41601B680360704700BF8C90FF1F1C
:10204000014B1B68036070478C90FF1F704708B5F9
:10205000FEF748FCBDE80840FEF718BF08B503F0DE
:10206000EFFF034840F6B831BDE80840FFF7CABFAC
:10207000CC8BFF1F7047FFFF10B5034B0360044676
:10208000FEF77AFB204610BDE0B4000010B5044610
:10209000FFF7F2FF204605F062F8204610BDFFFF73
:1020A00070B5044686B0E430FFF7B4FF002852D084
:1020B00003F0EAFE00284EDD03F0F6FE04F10C0604
:1020C000C1B2304600F06EFE0A2300258DF80530BF
:1020D000204617238DF800308DF80150ADF80250DE
:1020E000FEF764FB8DF80400304600F097FC08F022
:1020F0009BFBCDF80600304600F0B2FC08F094FBE4
:1021000084F88550CDF80A00D4F88C0008F096FCCD
:10211000124908F09BFDD4F8AC30ADF81230D4F879
:102120009C30CDF80E00ADF814306946D4F8D830A4
:102130009DF8002084F8A55084F89550A0688DF88B
:102140001630FEF741FF6946ADF802009DF8002009
:10215000A068FEF77DFF06B070BD00BF0000C8425A
:1021600038B504461D46FEF719FB20460A4B40F8D9
:102170000C3B00F07DFB642104F1E400FFF742FF1B
:102180006A0802F1376000F5D830B0FBF5F003F0D3
:10219000C3FC204638BD00BFE0B4000003F050BFD0
:1021A0007047FFFF10B5034B03600446FEF7E4FAE7
:1021B000204610BD10B5000010B50446FFF7F2FF31
:1021C000204604F0CCFF204610BD37B50446103041
:1021D000FFF720FF18B3207B03F02EFC0C22002316
:1021E00005468DF80520204608228DF801308DF82F
:1021F0000020ADF80230FEF7D9FA69468DF80400E8
:102200009DF80020A068ADF80650FEF7DDFE694697
:10221000ADF802009DF80020A068FEF719FF03B09A
:1022200030BDFFFF38B504461D46FEF7B7FA20461D
:102230000C4B40F8103B4FF4FA71FFF7E3FE00211E
:102240002846257304F020F90A2003F0CBFB204632
:10225000FEF7AEFAFEF746FB0349FEF798FB204671
:1022600038BD00BF10B50000F8B4000003F0E8BEB0
:10227000094B10B504460360806E10B103685B68BB
:1022800098470023A36604F16C0001F026FA20466B
:10229000FEF772FA204610BD30B5000010B50446B6
:1022A000FFF7E6FF204604F05AFF204610BD10B5A8
:1022B000044690B0F030FFF7ADFE00286AD094F8E5
:1022C0005C30002B36D10B228DF8092020463A22B3
:1022D0008DF80530ADF806308DF80420FEF766FA6B
:1022E000E368CDF816302369CDF81A306369CDF86C
:1022F0001E30A369CDF80A30E369CDF80E30236AA9
:10230000CDF81230636ACDF82230A36ACDF82630BA
:10231000E36ACDF82A30236BCDF82E30636BCDF80D
:102320003230A36BCDF83630E36B8DF80800CDF872
:102330003A3021E00E2200238DF8092020461E228B
:102340008DF80530ADF806308DF80420FEF72EFA32
:10235000236DCDF80A30636DCDF80E30A36DCDF846
:102360001230636CCDF81630A36CCDF81A30E36CE4
:102370008DF80800CDF81E3001A99DF80420A06852
:10238000FEF722FE01A9ADF806009DF80420A06822
:10239000FEF75EFE10B010BD10B5044604F140011A
:1023A000002002F046F9084A6264002384F84230B3
:1023B000A264064BE264A26E23656365A3650123F4
:1023C000137184F85C3010BD8096184B809618CB42
:1023D0008A79012A034601D1FFF7DEBF022A07D11D
:1023E000012280F8422003F14001002002F00CB9E4
:1023F000032A04D1836E002280F85C201A71704792
:1024000003460321002201391A635A629A61DA6095
:1024100003F10403F6D1C2637047FFFFF0B5044631
:1024200093B0F830FFF7F6FD00287CD0A06E03686B
:102430009B699847002871D094F85C300EAD002B52
:1024400050D102A800F00CFE05A800F009FE08A873
:1024500000F006FEA16E02A8143100F0E5FDA16EA9
:1024600005A8083100F0E0FDA16E08A8203100F0B9
:10247000DBFDA36EDB6A009302AA05A904F16C00E0
:1024800008AB01F059FAA06E03681B6A984728460A
:1024900000F099FF0BA800F0E3FD04F1B4010BA8D4
:1024A00000F0C2FD284604F1A40100F0C1FE029B29
:1024B000E360039B2361049B6361059BA361069B0F
:1024C000E361079B2362089B6362099BA3620A9BEB
:1024D000E3620F9B2363109B6363119BA3630E9BBB
:1024E000E36320E0284600F0BBFDA16E28462031C2
:1024F00000F09AFD0026AF59616C384608F090FC58
:1025000000B167643846216D08F0A8FC00B127656A
:1025100004360C2E04F10404EDD104E0FEF7E2F9D8
:102520000249FEF737FA13B0F0BD00BF48B500000E
:10253000FFF774BF70B50446C8300D46164601F06B
:1025400005FF0368A0661B699847002808DDA36E95
:102550001A794AB95B793BB1FEF7C4F9094906E03B
:10256000002384F8643070BDFEF7BCF90649FEF71D
:102570000EFA012384F8C05084F8C13084F8C26098
:10258000EFE700BF68B5000082B5000070B50446F3
:102590001D46FEF703F920461E4B40F86C3B01F048
:1025A000C1F804F1C80001F0ADFE142104F1F000FF
:1025B000FFF728FD284608F03DFA01461648174D5A
:1025C00008F044FB08F054FC04F1F80601463046DC
:1025D000FFF718FD284602F0F9F92846104902F0E5
:1025E00017FA2046FFF70CFF002384F8643084F8C4
:1025F0005C309DF814209DF810102046FFF79AFFDC
:10260000FEF770F90749FEF7C2F92046FEF7D0F849
:10261000204670BD30B5000000007A44E08CFF1FFA
:10262000801A0600A4B5000003F00ABD30B50D4CB9
:102630000023218803710C2201230B4207D10A4A8F
:1026400019432180118821EA0303138030BD0579E5
:102650005B000135013A05719BB2EED1FF23037196
:1026600030BD00BFDC8BFF1FD88BFF1F2DE9F04171
:102670001F4603790B2B044616463DD85FFA81F8B6
:102680004046012103F000FF25791D4B03F805802A
:102690001C4B44F2506223F815201B4B012202FA16
:1026A00005F51A8815431D80184B1A6806EB460677
:1026B00007EB4707B600BF0012F480022680678050
:1026C00016D1196841F480011960A3F59033383BA5
:1026D0004FF6FF7119605A609A6042F6A27243F891
:1026E000042C02F5803243F8042C094B20221A7086
:1026F000084B4FF480721A602079BDE8F08100BF6A
:10270000F68BFF1FDE8BFF1FD88BFF1F3C80044022
:1027100048E400E008E100E003790B2B10D8094AF7
:1027200001219940C943138889B20B401380064A9E
:102730001088014011801BB9044B4FF480721A605D
:10274000704700BFD88BFF1FDC8BFF1F88E100E0C4
:102750000C2359430388994203DB43889942B8BF4D
:102760000B4602790B2A9CBF014921F812307047B1
:10277000DE8BFF1F03790B2B06D8044A32F81300B7
:102780000C2390FBF3F0704700207047DE8BFF1F97
:1027900070B52E4A2E4D118895F90030194111F06F
:1027A000010F144606D02B4A0021D05C03F03EFEF8
:1027B0000C232B702088284C2178CBB25AB20B2ADC
:1027C0001FDC40FA02F60131F607C9B2F5D52370D5
:1027D000204B0121985C03F029FE23781F4A2B70BF
:1027E00059B2013332F811101D4A106808441060C4
:1027F0001C4A10680144116042F6A37142F80C1C97
:1028000022E0174A23701168C1F56A3303F5C073DB
:10281000B3F5966F05DB4EF660208342A8BF0346F2
:1028200001E04FF49663194411600E4908680344AF
:102830000B600D4B42F6A371196012680B4B9A4264
:1028400003D9074A00231360237070BDD88BFF1F84
:102850006487FF1FF68BFF1FDA8BFF1FDE8BFF1FC6
:10286000D48BFF1F0C600340006003407FA903006E
:102870000022022102704270828082600273028212
:10288000426102768283026280F824200285C2625D
:1028900080F8302080F8382080F83920C26380F832
:1028A000482080F84920C26480F8582080F85920D8
:1028B000026680F8682080F86920026780F8782036
:1028C00080F87920C0F8802080F8882080F889205E
:1028D000C0F8902080F8982080F89920C0F8A020B7
:1028E00080F8A82080F8A92080F8B91080F8BA20D4
:1028F00080F8BB2080F8BC20C0F8C020C0F8C420FD
:10290000C0F8C820C0F8CC20C0F8D020C0F8D4202F
:1029100080F8AA207047A1F14103052B02D8A1F14C
:1029200037007047A1F16103052B94BFA1F1570057
:10293000A1F13000704738B50578B5F12D035D423F
:102940005D41044605B1441C204608F0BCFA6423EE
:102950004343224614F8011BA1F130000928F8D99D
:102960002E290BD151783039092907D892780A20BD
:10297000303A00FB0133092A98BF9B180DB1584229
:1029800038BD184638BDFFFF38B50C46054608F07F
:102990009AFA6423B0FBF3F21249228003FB12037C
:1029A0004B432846014610F8012BA2F13005092DB2
:1029B000F8D92E2A0CD10B4A084610F8011F3039DD
:1029C000092905D80A25B2FBF5F202FB0133F4E729
:1029D00003EB830301330322B3FBF2F363600023B1
:1029E000237238BD80969800034653F81C2F42602E
:1029F0005A6882601B7A0373034653F8282F0261DA
:102A00005A6842611B7A0376034B1B6843630123B8
:102A100043700370704700BF8C90FF1F38B50023D0
:102A200043700446808808F009F80546A06808F05D
:102A300001F80A4908F00AF90146284607F04AFF5A
:102A400007F0DCFB237B1BB1024601F1004301E0F0
:102A500002460B461046194638BD00BF286B6E4E25
:102A600038B5002343700446008A07F0E7FF0546A7
:102A7000606907F0DFFF0A4908F0E8F801462846D8
:102A800007F028FF07F0BAFB237E1BB1024601F1D5
:102A9000004301E002460B461046194638BD00BF10
:102AA000286B6E4E83684360034B1B68C360012331
:102AB00043700370704700BF8C90FF1F83684360B2
:102AC000034B1B68C360012343700370704700BF52
:102AD0008C90FF1F10B504460846FFF72CFFA0603E
:102AE00010BD10B50446084608F0EDF9A06010BD11
:102AF000C3688360034B1B6843600123437003700A
:102B0000704700BF8C90FF1F10B504460846FFF7C2
:102B100012FFE06010BDFFFFC3688360034B1B68BA
:102B20004360012343700370704700BF8C90FF1F08
:102B300010B50446084608F0C6F9E06010BDFFFF76
:102B400010B504462146103008F0C0FA044B1B684B
:102B50002362012384F8253084F8243010BD00BF9F
:102B60008C90FF1F102208F0C1BAFFFFF8B590F853
:102B7000A9600446002E67D090F8AA10FFF7CBFE9C
:102B800094F8AB1005462046FFF7C5FE94F8A83030
:102B900000EB0510C5B2AB424FD1D4F8D4300133AD
:102BA000C4F8D43094F8BC3023B1D4F8CC3001331D
:102BB000C4F8CC3094F8B930B3B1012B2AD104F168
:102BC0003800FFF76FFF04F14800FFF777FF94F834
:102BD000BC30FBB12046FFF707FF04F15800FFF7B8
:102BE00087FF04F1680013E004F14800FFF766FF77
:102BF00094F8BC3033B12046FFF7F6FE04F17800BC
:102C0000FFF776FF04F18800FFF786FF04F19800D4
:102C1000FFF76EFFD4F8C450002D00F0BD80D4F84B
:102C2000C430A86A996A08F047FA002840F0B480D6
:102C30002846FFF785FF2D6BEEE7D4F8D03001333F
:102C4000C4F8D0300026A7E090F8BA2022BB00F1EB
:102C5000AA052846514908F02FFA08B9012308E0CF
:102C600028464F4908F028FA10B984F8B96002E004
:102C7000022384F8B930D4F8C030C4F8C430D4F892
:102C8000C470002F00F08880B86A294608F014FA52
:102C900000287DDA3B6BF0E790F8B910022960D08C
:102CA00090F8AA30002B5CD042EA4112013A282A5F
:102CB00057D8DFE802F01520242B3142494F5156F6
:102CC00056565656565656565656565656565656A4
:102CD000565656565656151B20242B31383A3C0072
:102CE000483004F1AA01FFF7F5FE3AE0B3F14100E4
:102CF0004342434125E0AA3004F11C0109E0B3F14D
:102D000053014B424B4180F824302AE0AA3004F1B1
:102D10002801FFF739FE24E0B3F157025342534133
:102D200080F830301DE0583017E0683015E038305A
:102D300004F1AA01FFF7D5FE13E0302B94BF002366
:102D4000012384F8BC300CE0883004F1AA01FFF7BD
:102D5000EFFE06E0983000E0783004F1AA01FFF7BA
:102D6000D3FED4F8C450BDB1D4F8C430A86A996A6F
:102D700008F0A2F980B9EB6A94F8BA2093420BDC10
:102D800004D1284604F1AA01FFF7ECFE2D6BEAE717
:102D900002D00023C4F8C4303046F8BDB1B50000FD
:102DA000B7B5000038B5D0F8C830242903F10103C5
:102DB00004460D46C0F8C8302AD090F8BB3004D87D
:102DC0000A290CD00D2932D109E02A2907D02C2953
:102DD0002DD190F8A82082F02C0280F8A8200E2B8C
:102DE0004FF0000005D8234483F8AA002046FFF7DF
:102DF000BDFE94F8BA30013384F8BA30002384F869
:102E0000BB30B5F12A035D425D4184F8A95038BD5D
:102E10000020022384F8BB0084F8BA0084F8A800DC
:102E200084F8B93084F8A90084F8BC0038BD0D2BB3
:102E300005D85A1C234484F8BB2083F8AA5094F880
:102E4000A90028B994F8A8305D4084F8A85038BD8E
:102E5000002038BDF8B507460C460D4839461546E2
:102E60001E4601F06DFE2146094801F0FFFC0024DA
:102E7000E3B2AB42064804D2315D01F0F7FC013405
:102E8000F6E701F044FFD0F1010038BF0020F8BDA3
:102E9000E08CFF1F07B502AB03F8012D0122FFF7FD
:102EA000D9FF03B05DF804FB2DE9F74F15462B4A17
:102EB000BDF83060D2F800800193002407468B46AD
:102EC000A2469146AC4223D22548394601F038FE4D
:102ED0005946234801F0CAFC214801F018FF204858
:102EE000394601F02DFE2A1B202AA8BF20221C48AB
:102EF0003946D2B201F008FF194801F0D5FCC8B13B
:102F0000F6B1D9F80020C8EB0202B24218D311E0A2
:102F10005EB1D9F80020C8EB0208B04505D34FFADE
:102F20008AF2AA42B8BF4FF0FF0A4FFA8AF003B004
:102F3000BDE8F08F202DD4BF64192034E4B2C1E77E
:102F40004FFA8AF20648009201F0B8FC9DE80C00A6
:102F500098540AF101035FFA83FACDE78C90FF1FC2
:102F6000E08CFF1F13B51446009301222346FFF7A0
:102F70009BFF02B010BDFFFF10B50B4C4FF07C5112
:102F8000A4EB600407F0AEFD214607F0ABFD21463F
:102F900007F0A8FD01464FF07F5007F099FC01466D
:102FA000204607F09FFD10BDDF59375F70B504461E
:102FB00016460D4602784078B3B140EA022000B2CE
:102FC00007F03CFD314607F08DFD2860E378A078DE
:102FD00043EA002000B207F031FD314607F082FDE0
:102FE00068602079637915E042EA002000B207F0BA
:102FF00025FD314607F076FD2860A378E07843EAA6
:10300000002000B207F01AFD314607F06BFD686042
:103010006079237943EA002000B207F00FFD3146C2
:1030200007F060FDA86070BD884205D00B680360A2
:103030004B6843608B688360704770B505460E46E9
:1030400000242859315907F043FC285104340C2C32
:10305000F7D1284670BD002303604360836070474A
:1030600010B50446FFF7F7FF204610BD70B50546C2
:103070000C460068096807F035FD61680646686817
:1030800007F030FD0146304607F024FCA1680646F3
:10309000A86807F027FD0146304607F01BFC70BD0D
:1030A000F8B505460C4640688968164607F01AFDD3
:1030B00061680746A86807F015FD0146384607F025
:1030C00007FC30602168A86807F00CFDA16807467E
:1030D000286807F007FD0146384607F0F9FB7060E5
:1030E0006168286807F0FEFC21680746686807F0F9
:1030F000F9FC0146384607F0EBFBB060F8BD2DE95E
:10310000F041D0F800804768866841460446404652
:1031100007F0E8FC39460546384607F0E3FC01466F
:10312000284607F0D7FB31460546304607F0DAFC63
:103130000146284607F0CEFBFFF71EFF002105469B
:1031400007F064FEA0B928464FF07E5107F05EFEFE
:1031500070B92946404607F0C5FC2946206038462C
:1031600007F0C0FC29466060304607F0BBFCA06059
:10317000BDE8F0812DE9FF410E4607C801AB83E8A9
:1031800007001846FFF7BBFF029807F037F8044620
:1031900003980D4607F032F802460B4620462946B2
:1031A00004F0A4FF07F040FB3060019807F026F818
:1031B00004460298DDF80C800D46014607F092FCAB
:1031C00041460746404607F08DFC0146384607F069
:1031D00081FB07F013F804F08BFF02460B462046F4
:1031E000294604F083FF07F01FFB002300F1004095
:1031F0007060B36004B0BDE8F0810346006870B54C
:1032000001465E689D6807F06DFC31460446304615
:1032100007F068FC0146204607F05CFB294604469F
:10322000284607F05FFC0146204607F053FB70BDBF
:10323000884207D00B6803604B6843608B688360EB
:10324000CB68C360704770B505460E460024285908
:10325000315907F03FFB28510434102CF7D1284690
:1032600070BD70B505460E4600242859315907F047
:103270002FFB28510434102CF7D1284670BDF0B52F
:103280008BB0044601A80D46FFF7E5FE04A8FFF742
:10329000E2FE07A8FFF7DFFE63680193A3680293CD
:1032A000E36803936B680493AB68059304A9EB6828
:1032B000069301A8FFF7DAFE07AA074604A901A8AA
:1032C000FFF7EEFE26682968304607F00BFC39460A
:1032D00007F0FEFA04992060304607F003FC0199DC
:1032E0000746286807F0FEFB0146384607F0F2FA69
:1032F000079907F0EFFA05996060304607F0F2FB96
:1033000002990746286807F0EDFB0146384607F0AA
:10331000E1FA089907F0DEFA0699A060304607F056
:10332000E1FB03990646286807F0DCFB01463046BE
:1033300007F0D0FA099907F0CDFAE06020460BB00B
:10334000F0BD38B5044600680D4607F0CBFB2946B2
:103350002060606807F0C6FB29466060A06807F03F
:10336000C1FB2946A060E06807F0BCFBE060204696
:1033700038BD38B5044615460FC984E80F0020460D
:103380002946FFF77CFF204638BD38B50446154670
:103390000FC984E80F0020462946FFF7D2FF2046D8
:1033A00038BD38B5044615460FC984E80F002046DD
:1033B0002946FFF756FF204638BD002303604360CF
:1033C0008360C360704710B50446FFF7F6FF2046E0
:1033D00010BD2DE9F843D0F80090D0F8048087683C
:1033E000C66849460446484607F07CFB4146054608
:1033F000404607F077FB0146284607F06BFA39464E
:103400000546384607F06EFB0146284607F062FA8B
:1034100031460546304607F065FB0146284607F071
:1034200059FAFFF7A9FD0021054607F0EFFCC8B9DE
:1034300028464FF07E5107F0E9FC98B929464846E6
:1034400007F050FB29462060404607F04BFB294619
:103450006060384607F046FB2946A060304607F01A
:1034600041FBE060BDE8F8832DE9F8430746D0F85A
:103470000890D0F804800E464846F96807F032FB01
:1034800039680446404607F02DFB0146204607F008
:1034900021FA014607F01EFA06F0B0FE04460D467A
:1034A0004046414607F01EFB49468046484607F025
:1034B00019FB0146404607F00DFA014607F00AFAEB
:1034C00001464FF07E5007F003FA06F097FE0246E1
:1034D0000B462046294604F009FE07F0A5F93060A6
:1034E000B968386807F0FEFAF9680446786807F0AA
:1034F000F9FA0146204607F0EBF9014607F0EAF930
:1035000006F07CFE04F09EFD07F08EF97060D7F89F
:1035100008907968D7F80C80484607F0E3FA3968D4
:103520000446404607F0DEFA0146204607F0D2F98D
:10353000014607F0CFF906F061FE04460D46484605
:10354000494607F0CFFA41460746404607F0CAFA17
:103550000146384607F0BEF9014607F0BBF90146BF
:103560004FF07E5007F0B4F906F048FE02460B46D5
:103570002046294604F0BAFD07F056F9B060BDE8D0
:10358000F8832DE9F74F04460D4608684FF07C514B
:1035900007F0A8FA06F032FE06460F4604F0CEFC0D
:1035A00007F042F939468146304604F001FD07F044
:1035B0003BF94FF07C518346686807F093FA06F0B8
:1035C0001DFE06460F4604F0B9FC07F02DF93946FA
:1035D0008246304604F0ECFC07F026F94FF07C51AF
:1035E0000190A86807F07EFA06F008FE06460F462E
:1035F00004F0A4FC07F018F939460546304604F0FB
:10360000D7FC07F011F951460646484607F06AFA1A
:1036100001998046584607F065FA29460746404614
:1036200007F060FA314603463846009307F05AFA2D
:10363000009B0146184607F04DF951462060584658
:1036400007F050FA01998246484607F04BFA29469E
:103650008146504607F046FA31468346484607F011
:1036600041FA0146584607F033F92946606048465A
:1036700007F038FA31468146504607F033FA0146E2
:10368000484607F027F93146A060404607F02AFA7D
:1036900029460646384607F025FA0146304607F027
:1036A00017F9E060204603B0BDE8F04FFFF791BE88
:1036B00038B50D460446FFF780FE2B6823606B6823
:1036C00003F100436360AB6803F10043A360EB6860
:1036D00003F10043E360204638BD704730B5012355
:1036E00085B080F85730044600F1480501A8FFF77F
:1036F000B7FC01A92846FFF797FC294604F13800DA
:10370000FFF73FFF04F12C0501A8FFF7A9FC01A971
:103710002846FFF789FC04F11C002946FFF731FF1A
:1037200005B030BD10B504460430FFF74CFE04F17F
:103730001C00FFF748FE04F12C00FFF791FC04F198
:103740003800FFF740FE04F14800FFF789FC084B02
:103750006361084BA3610123204684F8543084F848
:10376000553084F85630FFF7B9FF204610BD00BF32
:103770006F12833A6F12033A2DE9F04F95B0064667
:1037800068460C469046FFF71EFE04A8FFF71BFE96
:1037900096F8553006F12C0723B120463946FFF73D
:1037A000E9FC06E0384606F14801FFF73DFC00233E
:1037B000736396F85630002B6FD0F06A4FF07C514F
:1037C00007F090F906F01AFD04460D4604F0B6FB2A
:1037D00007F02AF829468146204604F0E9FB07F065
:1037E00023F84FF07C518246306B07F07BF906F0EE
:1037F00005FD04460D4604F0A1FB07F015F8294627
:103800008346204604F0D4FB07F00EF859460446E0
:10381000484607F067F959460490504607F062F9A8
:1038200021460590484607F05DF9214606900AF1C9
:10383000004007F057F900230093D8F800300193B7
:10384000D8F8043007906A46029308A8D8F80830E0
:10385000039304A9FFF78DFD0CA804A9FFF728FF27
:103860000CAA10A808A9FFF784FD10A96846FFF765
:10387000DFFC029806F0C2FC044601980D4606F0F3
:10388000BDFC02460B462046294604F02FFC06F0FC
:10389000CBFF00F10040706301E0336D736306F10C
:1038A0001C0528463946FFF76CFEDFF888800024A7
:1038B0004FF0FF3A55F8243023F00049484641467E
:1038C00007F0CCFA08B9C14600E0A2460134042C46
:1038D00001D0C846EEE706EB8A040021D4F81C802C
:1038E000404607F09DFA20B1A06B002107F0B6FA20
:1038F00048B94046002107F0B1FAC0B1A06B0021E1
:1039000007F08EFA98B1F36903F10043F361336A6B
:1039100003F100433362736A03F100437362B36AD5
:1039200003F10043B36228463946FFF79DFD15B009
:10393000BDE8F08F00007AC42DE9F04F04468BB04B
:1039400003A81E460F469046149DFFF789FB94F886
:103950005730ABB13246A5652046414604F12C05EF
:10396000FFF70AFF04F138002946FFF70AFE04F1C9
:1039700048002946FFF758FB002384F85730FCE045
:10398000A06D281A07F056F87D4907F05FF9A56584
:103990002060002107F04EFA002840F0EE804146FA
:1039A00032462046FFF7E8FE636C019394F85430EA
:1039B000D4F838A0D4F83C80266C13B103A839465B
:1039C00004E006A8FFF74CFB03A806A9FFF72CFBB1
:1039D00003984FF07C5107F085F84FF07C51074673
:1039E000049807F07FF84FF07C518146059807F066
:1039F00079F84146834607F1004007F073F83146F5
:103A000003464846009307F06DF8009B2568014681
:103A1000184606F05DFF019903465846009307F0EB
:103A200061F8009B0146184606F052FF294607F050
:103A300059F80146504606F04DFF5146A0633846FE
:103A400007F050F8314603465846009307F04AF80D
:103A5000009B0146184606F03DFF01990346484683
:103A6000009307F03FF8009B0146184606F030FF30
:103A7000294607F037F80146404606F02BFF51462D
:103A8000E063484607F02EF8414603465846009347
:103A900007F028F8009B0146184606F019FF019927
:103AA00003463846009307F01DF8009B0146184670
:103AB00006F010FF294607F015F80146304606F0DB
:103AC00009FF51462064584607F00CF841468246EB
:103AD000484607F007F80146504606F0FBFE31461F
:103AE0008046384606F0FEFF0146404606F0F0FEEE
:103AF000294606F0F7FF0146019806F0EBFE94F820
:103B00005630606404F1380504F11C07261D06A830
:103B100013B994F8553023B139462A46FFF741FCD2
:103B200001E0FFF750FC06A93046FFF781FB2A466B
:103B3000394606A8FFF735FC06A93046FFF778FBA3
:103B40002168606906F0CEFFA169074606F0C2FE53
:103B50000146384607F07AF83146024606A8FFF7D4
:103B600014FC06A92846FFF76EFB2846FFF731FC38
:103B7000284604F14801FFF777FC0BB0BDE8F08F51
:103B800000007A444079704700487047DDB5000076
:103B900005207047436B4FF4C87090FBF3F07047FB
:103BA00010B5034B0360044600F0BCFB204610BD7B
:103BB000F0B5000010B50446FFF7F2FF204603F011
:103BC000CEFA204610BDFFFF10B5044600F0CAFB38
:103BD000014B2360204610BDF0B500004B1FB3F52C
:103BE000797F09D24FF47A72B2FBF1F2002341637C
:103BF000C0E90E230120704700207047112910B53D
:103C000009D80122054B02FA01F423401BB180F8C8
:103C10008B10104610BD002010BD00BF7F000300B8
:103C2000082910B50AD8012202FA01F440F27F13E4
:103C300023401BB180F88C10104610BD002010BD31
:103C40004B1E632B9ABFC0F89010012000207047D4
:103C500008290DD004D8B1B980F894100B4B0EE0B0
:103C6000102909D018290ED180F89410084B06E0CD
:103C700080F89410074B02E0074B80F89410C0F8CE
:103C80009830012070470020704700BFFDB30B390A
:103C9000797D8B3AA9689239797D0B3A08290FD042
:103CA00005D8D1B980F895104FF0625311E0102972
:103CB0000BD0182911D180F895104FF0685308E007
:103CC00080F895104FF0645303E080F895104FF0A2
:103CD0006653C0F89C30012070470020704710B533
:103CE00038210446002290F88900FFF7D3F868B322
:103CF00094F8890023210022FFF7CCF830B394F820
:103D000089006A210022FFF7C5F8F8B194F889000C
:103D10006A210422FFF7BEF8C0B194F889006A2135
:103D20006022FFF7B7F888B1322002F0E7FB94F881
:103D3000890038210122FFF7ADF838B194F88900E5
:103D400023217822BDE81040FFF7A4B8002010BD61
:103D500070B5504E88B033880446722190F88900BF
:103D60000093022202ABFFF79FF8002811DB9DF8B9
:103D700008509DF8093003EB0525B5F5806F0AD191
:103D80002046FFF7ACFFE36AA26B562101FB02332A
:103D9000E36200207CE0B5F5F07F11D93388009311
:103DA00094F8890074210C2205ABFFF77DF80028F8
:103DB000EFDBE26AA36B0C3D1344E362772DECE783
:103DC0000B2DE6D93388009394F8890074210C22D6
:103DD00005ABFFF769F80028DBDB2E4B94F8890070
:103DE0001B8800934921082203ABFFF75DF80028E8
:103DF000CFDB05A804F11401D4F89C200123FFF7C0
:103E0000D5F80DF11A0004F10801D4F89820012327
:103E1000FFF7CCF8204A0DF10D0004F1200100233A
:103E2000FFF7C4F8E368206AD4F8A01003F1004358
:103E3000E360236903F100432361636903F10043F5
:103E4000636106F04FFED4F8A4100546606A06F0E0
:103E500049FED4F8A8100646A06A06F043FE05F114
:103E60000045A06226622046656200F005FB204600
:103E700000F072FB94F8883013B1084B1B6802E025
:103E8000E26AA36B1344E362002384F888300120C4
:103E900008B070BD6687FF1F9A99193F8C90FF1F6D
:103EA00013B5174B04466A2190F889001B880DF161
:103EB0000702FFF757F808B900241DE09DF8072016
:103EC00094F8890022F0200242F002026A218DF863
:103ED0000720FEF7DFFF0028EED0322002F00EFBB5
:103EE00094F8890037218222FEF7D4FF0446002887
:103EF000E2D0322002F002FB204602B010BD00BF2B
:103F00006687FF1F13B5154B04466A2190F8890098
:103F10001B880DF10702FFF725F808B900241AE005
:103F20009DF8072094F8890042F020026A218DF85C
:103F30000720FEF7AFFF0028F0D0322002F0DEFAB3
:103F400094F8890037218022FEF7A4FF044610B1BF
:103F5000322002F0D3FA204602B010BD6687FF1F60
:103F600038B590F88B5090F89430C5F3C1021A44DC
:103F700004461B2190F88900D2B2FEF78BFF40B1B6
:103F800094F8890005F007021A21BDE83840FEF7D1
:103F900081BF38BD10B504461C2190F8890094F803
:103FA0009520FEF777FF40B194F8890094F88C20B3
:103FB0001D21BDE81040FEF76DBF10BD436BB3F58A
:103FC0007A7F0ADC4FF47A7292FBF3F35A1E90F870
:103FD00089001921D2B2FEF75DBF01207047426B04
:103FE000D0F8903090F8890092FBF3F2013A1F2A42
:103FF000A8BF1F223421D2B2FEF74CBF30B5012337
:1040000080F88830036B1A7980F88920044685B0DF
:104010001969FFF7E3FD236B20465969FFF710FE8E
:10402000236B2046197EFFF7E9FD236B2046197F9D
:10403000FFF7F6FD236B204693F82010FFF708FEEC
:10404000236B204693F82410FFF728FE204600F04B
:10405000AFF994F889006B218022FEF71BFF00283E
:1040600000F00B81642002F049FA94F889006B217A
:104070000022FEF70FFF002800F00281A04D94F807
:1040800089002B8875210DF10B02FEF76BFF0028CC
:1040900000F0F9809DF80B30712B40F0F78020463E
:1040A000FFF75EFF002800F0F4802046FFF772FF64
:1040B000002800F0F1802046FFF780FF002800F084
:1040C000EE802046FFF7ECFE002800F0EB800C208D
:1040D0000A210022FEF7DEFE28B92046FFF712FF74
:1040E0006FF00B000AE10C200A210F22FEF7D2FE2E
:1040F00028B92046FFF706FF6FF00C00FEE02B8882
:1041000000930C20102103220DEB0003FEF7CCFEE0
:1041100028B92046FFF7F6FE6FF00D00EEE09DF89F
:104120000C0006F087FC4FF0864106F0D1FB4FF003
:104130006E5106F0D7FC4FF07E5106F0CBFBC4F871
:10414000A0009DF80D0006F075FC4FF0864106F0CA
:10415000BFFB4FF06E5106F0C5FC4FF07E5106F0EC
:10416000B9FBC4F8A4009DF80E0006F063FC4FF004
:10417000864106F0ADFB4FF06E5106F0B3FC4FF0F8
:104180007E5106F0A7FB0A21C4F8A80000220C20EB
:10419000FEF780FE28B92046FFF7B4FE6FF00E0050
:1041A000ACE02046FFF7AEFE00287ED094F88900F0
:1041B00024214022FEF76EFE002879D094F8890071
:1041C00025218C22FEF766FE002874D094F8890021
:1041D00026210222FEF75EFE00286FD094F88900A7
:1041E00027218822FEF756FE00286AD094F889001D
:1041F00028210C22FEF74EFE002865D094F8890095
:1042000029210A22FEF746FE002860D094F8890092
:104210002A218122FEF73EFE00285BD094F8890017
:1042200064210122FEF736FE002856D094F889005A
:1042300067210322FEF72EFE002851D02046FFF70B
:10424000CEFE00284FD094F889006B210122FEF7A2
:1042500021FE00284AD094F889006C210022FEF744
:1042600019FE002845D02046FFF739FD002843D02D
:10427000204600F0F3F8012040E04FF0FF303DE031
:104280006FF003003AE06FF0040037E06FF00500D4
:1042900034E06FF0060031E06FF007002EE06FF0C1
:1042A00008002BE06FF00A0028E06FF00F0025E017
:1042B0006FF0100022E06FF011001FE06FF01200AD
:1042C0001CE06FF0130019E06FF0140016E06FF0BF
:1042D000150013E06FF0160010E06FF017000DE00E
:1042E0006FF018000AE06FF01A0007E06FF01B0093
:1042F00004E06FF01C0001E06FF01D0005B030BD60
:104300006687FF1F4FF0FF32026032220261426176
:1043100003228261C261102202624262682202713B
:104320007047FFFF014B0360704700BF20B60000DD
:1043300090F848007047FFFF10B5034B0360044638
:1043400002F00DFF204610BD20B6000038B505462E
:10435000B02002F002FF29460446FFF735FC204654
:1043600038BDFFFF38B5114B044640F8083B0D46F9
:10437000FEF776FE04F11400FEF772FE04F1200051
:10438000FEF76EFE04F14C00FEF76AFE04F15800E1
:10439000FEF766FE04F17C00FEF762FE0023256353
:1043A0002371637184F84830204638BD20B6000080
:1043B0002DE9F043064689B00020707101A900F094
:1043C00038F9002845D09DF80630012B41D1224F05
:1043D0006C460DF10C0860690434616806F078FAE7
:1043E0003946054606F03AFD00B93D46444501D040
:1043F0002F46F0E72846002106F012FD044640BB98
:1044000028464FF07C5106F06DFB3546814601ABE6
:1044100023440434D3F810805F684046394606F0E0
:1044200057FA4FF07C5106F05DFB0146484606F016
:104430000DFC39462867404606F04CFA4FF07C5197
:1044400006F050FB0C2C686605F10405DFD1012352
:10445000737109B0BDE8F083000080BF10B5044659
:10446000406B06F0EBFA01464FF0804006F0EEFBA1
:1044700000232064636410BD2DE9FF4100F158065C
:10448000044696E8070001AD04F1140785E807002B
:1044900039462846FEF7D1FD39463046FEF7C4FDC1
:1044A0002846FEF7AAFE2A4906F0BAFC04F10806DF
:1044B000002845D03046FEF7A0FE264906F0B0FCA5
:1044C00000283DD0256C4FF07E50294606F000FABA
:1044D000E16C074606F006FBA1688046284606F018
:1044E00001FB0146404606F0F5F9216DE0643846CF
:1044F00006F0F8FAE1688046284606F0F3FA01462D
:10450000404606F0E7F9616D2065384606F0EAFAA4
:1045100021690746284606F0E5FA0146384606F0C6
:10452000D9F9636B626C606503EB83039A4207DA27
:1045300001329A4208BF0123626408BF84F8483000
:10454000304604F14C01FEF778FD04B0BDE8F0817F
:104550000BD7233B0BD7233D38B503790446CBB9A2
:104560004379BBB1006A616E06F0B2F9216F06F0C3
:10457000B9FAA16E2062606A06F0AAF9616F06F0CE
:10458000B1FAE16E6062A06A06F0A2F9A16F06F0CE
:10459000A9FAA062206A1A4906F0A4FA1949054648
:1045A000E06F06F09FFA0146284606F093F9144999
:1045B000E067606A06F096FA12490546D4F8800072
:1045C00006F090FA0146284606F084F90C49C4F832
:1045D0008000A06A06F086FA0A490546D4F88400ED
:1045E00006F080FA0146284606F074F904F17C01D1
:1045F000C4F8840004F12000BDE83840FEF714BD83
:10460000CDCC4C3ECDCC4C3FF8B5FC221C2310FB4E
:1046100003F60A7015220D464A7013FB0037344624
:10462000AB1B2046195D013401F054FDBC42F7D1AB
:10463000F8BDF8B51C24002310FB04F506468B706A
:1046400028460F4601F032FDFC2813D1012004FB5F
:10465000060001F02BFD15280CD114FB06462C4654
:10466000204601F023FD7B1B18550134B442F7D1DD
:104670000120F8BD0020F8BD01F0E2BC10B580E8D3
:104680000E00DDE90223C0E90A23DDE90423C0E9C5
:104690000C23DDE90623C0E90E230E4B04461868FF
:1046A00005F08AFD00220C4B05F026FF00220023B6
:1046B000C4E91223C4E91023084B0022C4E9040111
:1046C000C4E90623089805F099FDC4E914012046C1
:1046D00010BD00BF8C90FF1F00408F4000407F4006
:1046E00000220023C0E910237047FFFF2DE9F04F9F
:1046F0004F4B87B08046186805F05EFD00224D4B99
:1047000005F0FAFED8E90423CDE9040105F016FC12
:10471000D8F80820D8F80430CDE90001D2E900012A
:10472000D3E9002305F00AFCD8E9062382468B462C
:10473000D8E9140105F0B6FDDDE9002306460F4671
:104740005046594605F0AEFDD8E9102305F0F8FBB8
:1047500032463B46CDE9020106F034F810B1C8E913
:10476000106710E007F10045DDE9020132462B46F3
:10477000344606F009F820B9DDE90223C8E9102320
:1047800001E0C8E91045D8E90A235046594605F02A
:1047900089FDD8E9102304460D46D8E90C0105F03F
:1047A00081FD02460B462046294605F0C9FBD8E9A3
:1047B000122304460D465046594605F0BFFBDDE97D
:1047C000002305F099FED8E90E2305F06BFD0246A3
:1047D0000B462046294605F0B3FBD8F80090044666
:1047E0000D46C9E90045D8E9066732463B4605F063
:1047F000E9FF08B134463D46C9E90045D8F81C3008
:10480000D8F8186003F100472046294632463B4657
:1048100005F0BAFF08B134463D46DDE90423C9E995
:104820000045C8E912ABC8E9042307B0BDE8F08F22
:104830008C90FF1F00408F40044BD878044B1A68BF
:10484000C0B2904218BF1860704700BF00600640B9
:104850006887FF1F08B5FFF7EFFF8307FBD5024B03
:104860000222DA7008BD00BF00600640094B1B78C9
:1048700013B9094B1B782BB1084A1378202B03D9A5
:104880000123037100207047581C1070044A012056
:10489000D1547047F28CFF1FB58CFF1FF38CFF1FA4
:1048A000948CFF1F7047FFFF024B1878024B1B7858
:1048B000C01A7047F18CFF1FF08CFF1F064A074992
:1048C00013780978994204D9591C1170044AD05CB4
:1048D00070474FF0FF307047F08CFF1FF18CFF1FC7
:1048E000B68CFF1F054B064A1B7812789A4286BF8A
:1048F000044AD05C4FF0FF30704700BFF08CFF1FC0
:10490000F18CFF1FB68CFF1F70B50E4B1B78144641
:1049100013B90D4B1B7893B10C4A1578C5F12103DF
:104920009C42164602D9012202711C4608482246C2
:104930002844254400F0EEFE3570204670BD184630
:1049400070BD00BFF28CFF1FB58CFF1FF38CFF1FE3
:10495000948CFF1F10B5114BDB7803F0200303F09C
:10496000FF045BB9122001F039FD0D4B1B68A3B1A8
:104970000C4A14700C4A1078984710BD0B4A1378F3
:104980000133DBB2012B137002D8094B1B7823B91A
:104990001220BDE8104001F021BD10BD00600640AE
:1049A000908CFF1FF08CFF1FF18CFF1FDC8CFF1F12
:1049B000B58CFF1F002202714FF47A710273024A14
:1049C00081600260704700BF50B600000C4B0022AF
:1049D0001A700C4B196841F0400119600A4B0B49E1
:1049E0009A704FF419720A6041F8042C27225A7009
:1049F00004229A7120225A7180229A70704700BF57
:104A0000B58CFF1F34800440006006400CA00440B9
:104A1000074B9942074B01D8272204E0064A9142EE
:104A200094BF1A220D225A7004229A71704700BF57
:104A30007F1A0600006006403F420F0010B536495D
:104A4000CB78DBB213F0100F03F0400201D12AB98A
:104A50002CE01020C870002AF9D110BD03F0040327
:104A600003F0FF012D4AC3B1002313702C4A1370C9
:104A70002C4B1B68144603B1984723782A4A1BB96C
:104A80002749137001200870234BD02199701278A8
:104A90001A71264B01221A7039E001231370244B3E
:104AA00019701D4BC0229A701B7930E01A4CA27805
:104AB00002F0100202F0FF01AAB113F001030ED1BF
:104AC0001A4917480A780078904203D9531C0B7092
:104AD000154B9B5C2371104BD0229A7017E0C023BA
:104AE000A370237913E0134B03221970122012498B
:104AF00001F02EFC0E4A217913781F2BC9B206D87B
:104B00000648007818B1581C10700C4AD154024B5A
:104B10000222DA7010BD00BF006006408C8CFF1FBF
:104B2000F38CFF1FD88CFF1F948CFF1FF48CFF1F8A
:104B3000F18CFF1FDC8CFF1F55490000B68CFF1F56
:104B4000044B054A4900197001231370034A13707E
:104B5000704700BF948CFF1FF28CFF1FF38CFF1F68
:104B6000F8B52B4B1222DA709A7892060F4601D5CF
:104B7000B42218E0274B1C681D46FFF75DFE00F0CD
:104B8000200000F0FF0350B12B681B1B0F2BF4D942
:104B90001F4B00229A7080229A700420F8BD1E4A92
:104BA00013701B4BB0229A70FFF746FE8306FBD5AD
:104BB00000251A4B1B78ECB2A3421FD9184B1A5D83
:104BC000134B1A71FFF738FE860701D48006F9D41B
:104BD0000F4E0223F370FFF72FFEC10601D48206A9
:104BE00003D48023B370042009E0C30705F1010555
:104BF000DFD5002C0CBF0220032001E0002017B1FC
:104C0000034B80229A70074B00221A70F8BD00BF38
:104C1000006006408C90FF1FB58CFF1FF38CFF1FB8
:104C2000948CFF1FF28CFF1F2DE9F8431446304A85
:104C30001F46002313702F4A13702F4B0D4612216D
:104C4000D970997811F0200F904601D0B4220BE072
:104C5000FFF7F2FD00F0200000F0FF020028F7D17E
:104C6000264B1A70244BB0229A706B0043F001035C
:104C7000214DDBB22B71FFF7EDFDFFF7DDFD10F0ED
:104C8000110004D08023AB700020BDE8F88334B954
:104C9000002F0CBFA0238023AB70BDE8F883012C4C
:104CA0000CBFA823A023AB702B79DFF858902646C1
:104CB000012E114D0BD0013EFFF7CCFDF6B2012EB7
:104CC00004BFA823AB702B7909F8013FF0E7FFF789
:104CD000C1FD661EB023AB70F6B2094B2A799A5516
:104CE0000FB18023AB7088F800402046BDE8F88300
:104CF000F08CFF1FF18CFF1F00600640B58CFF1F7A
:104D0000B68CFF1FB58CFF1F0123FFF78DBF01215C
:104D1000FFF726BF0148FFF74DBE00BFE08CFF1F25
:104D2000084B02210022196107495A719A719A723F
:104D30001A7383F8302083F83C20996383F83E206F
:104D4000704700BF148DFF1F70B6000010B50446F9
:104D50000121006A04F1080200F00AFA40B1E36997
:104D60002BB9A368E361637963F07F03637101206A
:104D700010BDFFFF10B50446006900F061F918B1DD
:104D8000207D024B03EB401010BD00BF808DFF1F44
:104D900070B5044680790D4640B3A369994201D9A4
:104DA000002070BD02281ED00DB9A5601BE0236A4B
:104DB000E1681B7C4A1E0933681EDA4020FA03F3BF
:104DC000934200D311B9E269A26000E09B1A1E462B
:104DD0004EB1206AA16804F1080200F055F9013EC5
:104DE0000028F5D170BDE560012070BD70BDFFFFEA
:104DF00038B58379054613B390F90530002B1ADADC
:104E00000121FFF7B7FF0446C8B1AB79012B9CBF66
:104E1000AB69C361EB6943831B0C8382094B1B683D
:104E20002BB1183004F116019847238B63826B79FC
:104E300003F07F036B71BDE8384000F0DBB8002061
:104E400038BD00BF748DFF1F2DE9F74F8379012B0B
:104E500004460D4692460BD14379990708D55B0766
:104E60000AD5A169E3688B4206D0FFF791FF18B914
:104E7000012323710020A1E0564634E0206A90F817
:104E800004B00BF1FF3B0BEA532B1BF0FF0BC3F3FA
:104E900008082CD0236AA268197C5B69C8F50077E2
:104EA000BFB2A2F10209BE4238BF374609FA01F982
:104EB0009944B7F5007FD9443AD1424B1A684A4524
:104EC00004BF4FF0FF321A603F4B494618682A462C
:104ED00000F0E2FB0028CBD005F50075E368F61B77
:104EE0001F44B6B2E760E368002EC7D14BE0B8F1CB
:104EF000000FCFD1A16811B9E369BBB910E001AAD5
:104F000000F0C2F8002859D0226A019B92F82000D4
:104F10002E4A4FF6F871102808BF0A46934205D36F
:104F20002046FFF713FF0028B4D1A1E7A360B1E743
:104F3000B8F1000F10D1E268A3699A420CD300F0D7
:104F400059F8002894D01F4BC3F80090204B1A78D2
:104F500042F001021A7005E04846012100F070F8A5
:104F6000002885D01B4B984408EB070143462A468E
:104F70008B4204D012F8010B03F8010BF8E7C8EBE1
:104F800003084544AAE7A2699342627901D9A36163
:104F900005E0114B1B682BB1BAF1000F02D062F093
:104FA0007F02627163791A0701D4504606E02046F9
:104FB000FFF71EFF00283FF45BAFF6E703B0BDE844
:104FC000F08F00BF6C87FF1F7C8DFF1FF8FFFF0F66
:104FD000808FFF1F808DFF1F748DFF1F07B502ABF1
:104FE000012203F8011D1946FFF72EFF03B05DF8FB
:104FF00004FBFFFF70B50D4B1A781E469AB10C4D9D
:105000000C4B286819680C4A00F046FB60B10B4C49
:10501000216831B12868084A00F03EFB20B1002326
:10502000236000233370012070BD00BF808FFF1FFD
:105030007C8DFF1F6C87FF1F808DFF1F788DFF1FEA
:1050400070B50D4D2B68834204460E460DD0FFF718
:10505000D1FF08B9002070BD084B094A18682146E5
:1050600000F0C8FA0028F5D02C60064B1A781643D9
:105070001E70012070BD00BF6C87FF1F7C8DFF1F5D
:10508000808DFF1F808FFF1FC3680133994270B569
:1050900005460C46164601D9002070BD95F8203013
:1050A000C069102B0CBF0B0ACB0918440D4B1B68B1
:1050B000984208D195F82030102B0B4B09D1E4B25F
:1050C00033F814300BE00021FFF7BAFF0028F1D1CC
:1050D000E2E704F07F0453F8243023F07043336098
:1050E000012070BD6C87FF1F808DFF1F0129F8B55F
:1050F00004460D46174631D9C368013399422DD86D
:1051000090F82030C669102B0CBF0B0ACB091E4447
:10511000134B1B689E4208D194F82030102B114B82
:105120000AD1EDB223F815700AE030460021FFF7EE
:1051300087FF0028F0D1F8BD05F07F0543F8257002
:10514000094B1A7842F001021A70237E012B03D911
:10515000A3681E44054B1E600120F8BD0020F8BD69
:105160006C87FF1F808DFF1F808FFF1F788DFF1FB3
:105170002DE9F74F156806468A4617461DB10135D9
:105180004FF0000905E04B1ED3F10009056859EB0B
:105190000309F3682C4603F1010B4FF00008F36894
:1051A00098451DD25C4588BF02243046214601AA9D
:1051B00088BF2546FFF768FF90B1019A631C0AB1CA
:1051C0001D4602E05A1B524503D008F101081C4657
:1051D000E5E7304621466FF07042FFF787FF58B988
:1051E00000201CE004F1FF38304641462246FFF71C
:1051F0007DFF0028F4D04446AC42F3D8396831B979
:105200003D60B9F1000F09D00135356006E0304648
:105210002A46FFF76BFF0028F2D1E1E7012003B037
:10522000BDE8F08F084B1A6842F480621A604FF0B4
:105230000042DA62FF225A63DA6A002AFCDA024B81
:10524000986BC0B2704700BF00C00240174B184AAD
:1052500010B51A60C307044602D5FFF7E3FF013C0F
:10526000052C94BF6308032300229A4204DA0F49F5
:10527000104848630132F8E723EAE372A4EB4204E2
:1052800084B10A4AD16A11F0F00FFAD0094951638A
:10529000926B023CF4E7054AD16A11F0F00FFAD0A4
:1052A000926B013B002BF6D110BD00BF00C0024045
:1052B00000041F80FFFF0090064B1A6842F48062D2
:1052C0001A604FF00042DA625863DA6A002AFCDAA8
:1052D000704700BF00C0024010B5184B1A7802B3E7
:1052E00072B61B78D90707D5154A1649146809689C
:1052F0002140154C216011609A0707D5134A1149C6
:10530000146849682140104C616011605B0707D543
:105310000F4B0C4A196892680A400B498A601A6060
:1053200062B60C4BDA68824207D00B4A1A60D8602A
:105330000A4A40F0804018611A6010BD108DFF1FAE
:1053400080E100E0F88CFF1F048DFF1F84E100E086
:1053500088E100E000C0024001401F0000001F8003
:105360000A4B1B788BB1D90703D5094A1168094A42
:1053700011609A0703D5064A5168074A11605B0716
:1053800003D5034B9A68054B1A607047108DFF1FB9
:10539000048DFF1F00E100E004E100E008E100E00F
:1053A00008B50121007901F041F8044B1A781AB1CF
:1053B00000221A70FFF7D4FF08BD00BF888FFF1FBF
:1053C00010B5084B1A7804462AB901221A70064B08
:1053D0001868FFF781FF20790021BDE8104001F037
:1053E00025B800BF888FFF1F848FFF1F10B58379FA
:1053F00004468BB1008940F20123984207D8C0F5DA
:1054000000700230FFF722FF40F202232381204682
:10541000FFF7C6FF0023A37110BDFFFF094B70B556
:105420001C680E461D46FFF7FDFEFF2807D02B68BF
:10543000A2B29BB29B1AB342F5DB002070BD0120E3
:1054400070BD00BF8C90FF1FF8B505460E4617468D
:10545000FFF7CCFF2846FFF7B3FF4FF496712846BD
:10546000FFF7DCFF46F04000FFF726FF182427FA7D
:1054700004F0C0B2083CFFF71FFF14F1080FF6D18B
:1054800026B1082E0CBF8720FF2000E09520FFF7F3
:1054900013FF0024FFF7C6FE0306E87203D50134AC
:1054A000B4F5807FF6D1F8BD0E4B70B51D6804468B
:1054B0001E46FFF7B7FEFF28E07208D13368AAB294
:1054C0009BB29B1AB3F5967FF3DD0F2302E0FE2813
:1054D00006D00D2320466371FFF762FF002070BDE8
:1054E000012070BD8C90FF1F2DE9F041069E0446FF
:1054F0000F4690461D46002B6DD01344B3F5007F38
:105500006CDC83792BB10368994202D10389934201
:1055100016D9237B2760032B18BF7F023A4620460B
:105520001121FFF791FF074610B10323637155E086
:105530002046FFF7B9FF002850D001232781A3712F
:105540004046FFF783FE284A28491160EA072B46A8
:1055500005D5FFF767FE771C30706B1E3E46052BA6
:1055600094BF5A0803220021914204DA1E48204FBA
:1055700047630131F8E7A3EB4203F0183346834257
:105580000DD21949CE6A16F0F00FFAD0184E4E63BC
:10559000896B5970C1F307261E700233EFE700EBE9
:1055A000420293420BD21049C86A10F0F00FFAD0B1
:1055B000896B5970C1F3072018700233F1E7238912
:1055C0001D44A37AADB2258113B1B5F5007F02D396
:1055D0002046FFF70BFF0120BDE8F0812046FFF7D2
:1055E000DFFE0020BDE8F08100C0024000041F8003
:1055F000FFFF009007B54FF4007300920022FFF701
:1056000073FF03B05DF804FB224B70B504461868C5
:1056100040F4806018604FF00040D8625963002168
:105620001C4BD86A00281E46FADA1D68505C45F407
:1056300080651D604FF00045DD625863F06A154BD0
:105640000028FBDA1D68501845F480650231407867
:105650001D60B1F5007F4FF00045DD625863DFD17A
:105660000C4BDB6A002BFBDAFF20FFF725FEFF2047
:10567000FFF722FEFFF7D6FDE07200F01F000528BD
:1056800006D0112320466371FFF78AFE002070BD0B
:10569000012070BD00C0024070B50B46044616469E
:1056A00009B9122323E0027B032A18BF4B021A46D2
:1056B0001821FFF7C9FE054608B1042317E020466C
:1056C000FE213246FFF7A0FF90B120464FF416713D
:1056D000FFF7A4FE08B9152309E020460D212A464C
:1056E000FFF7B2FE10B9FFF79DFD30B114236371CF
:1056F0002046FFF755FE002070BD2046FFF750FE04
:10570000012070BD014B024A1A607047848FFF1F51
:1057100001100138844641EA000313F003036DD100
:10572000403A41D351F8043B40F8043B51F8043B64
:1057300040F8043B51F8043B40F8043B51F8043B6B
:1057400040F8043B51F8043B40F8043B51F8043B5B
:1057500040F8043B51F8043B40F8043B51F8043B4B
:1057600040F8043B51F8043B40F8043B51F8043B3B
:1057700040F8043B51F8043B40F8043B51F8043B2B
:1057800040F8043B51F8043B40F8043B51F8043B1B
:1057900040F8043B51F8043B40F8043B51F8043B0B
:1057A00040F8043B403ABDD2303211D351F8043BAB
:1057B00040F8043B51F8043B40F8043B51F8043BEB
:1057C00040F8043B51F8043B40F8043B103AEDD25A
:1057D0000C3205D351F8043B40F8043B043AF9D2AB
:1057E000043208D0D2071CBF11F8013B00F8013B7E
:1057F00001D30B8803806046704700BF082A13D38B
:105800008B078DD010F003038AD0C3F10403D21AA2
:10581000DB071CBF11F8013B00F8013B80D331F8D6
:10582000023B20F8023B7BE7043AD9D3013A11F856
:10583000013B00F8013BF9D20B7803704B784370C1
:105840008B78837060467047F0B5304B1B681B0641
:10585000FBD42F4B1B6813F08002F6D172B62D4B90
:105860001978002950D02C4908684F688E68CD6897
:105870000C693844143130440968284420440844F1
:10588000C0F34E00254940F400400860C86A0F6B21
:105890004E6B8D6BCC6B38444031304409682844E2
:1058A00020440844C0F34E001D4940F40040086005
:1058B00001F10811143151F8140C51F8107C51F811
:1058C0000C6C51F8085C51F8044C096838443044B9
:1058D000284420440844C0F34E00124940F40040DC
:1058E0000860C86A0F6B4E6B8D6BCC6B38444031CF
:1058F00030440968284420440844C0F34E000A4953
:1059000040F4004008601A7062B6F0BD24B0034055
:1059100024B00B408A8FFF1F38B003402CB00340E7
:1059200030B003402CB00B4030B00B4010B5204BD2
:105930002048214960221A70E1225A701F4B204AE8
:105940001C78204B082C01D1012402E00A2C03D141
:1059500039240460132005E00C2C0CBF35243D24B1
:1059600004601220086014601860174B17491B78F8
:10597000174A03B101230B601360164B164A1978BE
:10598000164B012901D880210BE0042901D884217C
:1059900007E0082901D8852103E0102994BF86215A
:1059A0008721116019600E4B01221A7010BD00BFD3
:1059B0000040074008B003400CB003407087FF1F51
:1059C00008B00B400CB00B408D8FFF1F20B0034080
:1059D00020B00B407187FF1F24B0034024B00B4060
:1059E0008A8FFF1F0C2804D9102828BF10201023ED
:1059F00007E00A2804D8092834BF08230A2300E056
:105A00000C23094AD9B2081A1070084A1078834248
:105A100008D0074B11701B7813B1064B00221A6097
:105A2000FFF784BF704700BF898FFF1F7087FF1F7C
:105A30008A8FFF1F24B003400D2838B50FD91728CF
:105A400001D80E380AE0A0F11A03052B01D8093855
:105A500004E0A0F12203062B47D81838C0B2244B2B
:105A60001C5C244B1B780BB1FFF7EEFE210614D40F
:105A700072B6214B214D1C6001232B7062B672B6A9
:105A80001D4B1B681A0601D51D4B1FE02B78002B00
:105A9000EFD062B601F090FCF1E772B6194B1A4DE7
:105AA0001A6814F0400F14BF22F0100242F01002E6
:105AB0001A60164B04F03F021A6001232B7062B685
:105AC00072B6124B1B681B0608D5114B18680023D1
:105AD0002B7062B60F4B1B78184138BD2B78002B0A
