:1000000000800020BD01000009870000D5860000A7
:10001000D5860000D5860000D5860000D586000074
:10002000D5860000D5860000D5860000098700002F
:1000300009870000D586000009870000C5860000FA
:100040000987000009870000098700000987000070
:100050000987000009870000098700000987000060
:100060000987000009870000098700000987000050
:100070000987000009870000098700000987000040
:100080000987000009870000098700000987000030
:100090000987000009870000098700000987000020
:1000A0000535000009870000098700000987000066
:1000B0000987000009870000098700000987000000
:1000C00009870000098700000987000009870000F0
:1000D00009870000098700000987000009870000E0
:1000E00009870000098700000987000009870000D0
:1000F00009870000DD8500000987000059720000B3
:10010000098700004D6A0000098700000987000088
:10011000098700000987000009870000098700009F
:10012000098700000987000009870000098700008F
:100130000987000009870000295B0000098700008B
:10014000098700000987000009870000098700006F
:10015000098700000987000009870000098700005F
:10016000590600008D79000009870000098700000A
:10017000098700000987000009870000098700003F
:10018000098700000987000009870000098700002F
:10019000098700000987000009870000098700001F
:1001A000098700000987000009870000098700000F
:1001B000098700000987000009870000574B4CF2AF
:1001C000205210B51A804DF628121A8000BF00BFC9
:1001D00008F09EFA524B4FF010621A60514A9A6032
:1001E000514ADA60A3F53043203B1A6812F480725A
:1001F00004D14E490A604FF4A8521A604C4B1A7849
:10020000110703D51A7842F008021A70494B2A22C6
:100210001A700023484A49499818884204D248492C
:10022000595899500433F5E7464A474B9A424FF0E4
:10023000000302D242F8043BF7E74449444A5958C4
:1002400099500433B3F5DE7FF7D1424B802103F898
:10025000011B41498B42F9D1404B1A60404B0A22A5
:100260001A70A3F6FF7324221A70A02203F8012C3F
:100270003C4B1A789207FBD51A78D406FCD41A782E
:1002800002F00C02082AFAD1374B03221A704022DE
:100290005A70344B1A789006FBD51A785106FCD563
:1002A000324B334A1A6002225A60324B20221A70B3
:1002B0002C4B1B7803F00C030C2BF9D12E4B2F4A3F
:1002C0001A602F4B2F4A1A6000225A60072243F807
:1002D000042C2D4AC3F80C2D62B607F03FFA134BDD
:1002E0001B68DA0705D5294807F0ACF9284B294ADD
:1002F0001A60294B1B785B0609D5254C254A2368D3
:10030000934204D1214807F09DF9002323600BF0AC
:10031000E5FD08F003FA08F02BFAFEE70E20054091
:1003200030800440823F04000100002B14D00340C1
:1003300002D0074000E007406087FF1F8088FF1F52
:1003400070D300008088FF1FB08DFF1F00000000E9
:100350000082FF1F00E400E05FE400E008ED00E041
:1003600000500640064006400440064044800440D9
:10037000000003010040064004800440C010050056
:1003800014E000E0FF76010000002020269FD455F5
:100390001CE00340A5C3945A00F00740FFFFFFFF95
:1003A000FFFFFFFFFFFFFFFFFFFFFFFFFFFFFFFF5D
:1003B000FFFFFFFFFFFFFFFFFFFFFFFFFFFFFFFF4D
:1003C000FFFFFFFFFFFFFFFFFFFFFFFFFFFFFFFF3D
:1003D000FFFFFFFFFFFFFFFFFFFFFFFFFFFFFFFF2D
:1003E000FFFFFFFFFFFFFFFFFFFFFFFFFFFFFFFF1D
:1003F000FFFFFFFFFFFFFFFFFFFFFFFFFFFFFFFF0D
:10040000FFFFFFFFFFFFFFFFFFFFFFFFFEFFFFFFFD
:1004100010B5054C237833B9044B13B10448AFF33E
:1004200000800123237010BD8088FF1F00000000A2
:1004300070D3000008B5064B1BB106480649AFF360
:1004400000800648036813B1054B03B1984708BD07
:100450000000000070D300008488FF1F8088FF1F09
:100460000000000042F2107006F07EB910B5064C94
:1004700006F04AFB204600F053FB20460349044A9D
:10048000BDE810400BF00ABD9C88FF1FCD0B00009B
:100490006087FF1F08B5064800F0BCFA10B9044891
:1004A00000F01BFC0248BDE8084000F051BE00BF50
:1004B0009C88FF1F30B50D4C0023218803710C224E
:1004C00001230B4207D10A4A19432180118821EAEE
:1004D0000303138030BD05795B000135013A0571D6
:1004E0009BB2EED1FF23037130BD00BFF888FF1F20
:1004F000F488FF1F2DE9F0411F4603790B2B0446BA
:1005000016463DD85FFA81F84046012107F0D8F839
:1005100025791D4B03F805801C4B44F2506223F8EB
:1005200015201B4B012202FA05F51A8815431D8080
:10053000184B1A6806EB460607EB4707B600BF00E4
:1005400012F480022680678016D1196841F4800178
:100550001960A3F59033383B4FF6FF7119605A606C
:100560009A6042F6A27243F8042C02F5803243F8F6
:10057000042C094B20221A70084B4FF480721A6029
:100580002079BDE8F08100BF1289FF1FFA88FF1FA4
:10059000F488FF1F3C80044048E400E008E100E0EC
:1005A00003790B2B10D8094A01219940C9431388BC
:1005B00089B20B401380064A1088014011801BB994
:1005C000044B4FF480721A60704700BFF488FF1F1D
:1005D000F888FF1F88E100E00C2359430388994203
:1005E00003DB43889942B8BF0B4602790B2A9CBFB4
:1005F000014921F812307047FA88FF1F13B50479BA
:100600000B2C024616D8B1F5087F04DB02B0BDE81A
:100610001040FFF7E1BF13885288009221EAE17091
:10062000B428A8BFB4200021B42208F01BF9024B63
:1006300023F8140002B010BDFA88FF1F03790B2BBA
:1006400005D8044A1088184100F0010070470020C6
:10065000704700BFF488FF1F70B52E4A2E4D1188D9
:1006600095F90030194111F0010F144606D02B4ABC
:100670000021D05C06F0F6FF0C232B702088284C5C
:100680002178CBB25AB20B2A1FDC40FA02F60131B4
:10069000F607C9B2F5D52370204B0121985C06F00E
:1006A000E1FF23781F4A2B7059B2013332F8111041
:1006B0001D4A1068084410601C4A1068014411600B
:1006C00042F6A37142F80C1C22E0174A237011680D
:1006D000C1F56A3303F5C073B3F5966F05DB4EF6CB
:1006E00060208342A8BF034601E04FF4966319449B
:1006F00011600E49086803440B600D4B42F6A3716C
:10070000196012680B4B9A4203D9074A0023136001
:10071000237070BDF488FF1F6487FF1F1289FF1FBD
:10072000F688FF1FFA88FF1FF088FF1F0C60034048
:10073000006003407FA90300074B10B50446036027
:10074000806B08B108F028F90023A363204600F06D
:10075000D1F8204610BD00BFB8C8000010B504464F
:10076000FFF7EAFF204608F017F9204610BD30B524
:1007700085B0044600F0ECF860B366238DF80430D1
:100780000B2300258DF80530204641F20103ADF81A
:100790000630ADF8085000F0D9F8216B8DF80A004A
:1007A000E06B0BF085F8616B0BF040FACDF80B00B5
:1007B0009DF805002B462A46834201A904DAC95C4C
:1007C0000A4492B20133F7E7E069ADF80820036804
:1007D0001B69984705B030BD70B5C56A04460E4622
:1007E000084629460BF02AFB30B9A56A304629464F
:1007F0000BF006FB00B93546616B28460BF062F939
:10080000216B0BF057F8E0630BF022FB203401461C
:100810002046BDE87040FFF7F1BE10B50446203019
:10082000FFF70CFF38B1A36B2BB120461968BDE868
:100830001040FFF7D1BF10BDF7B50D9D00950446E0
:100840001F46254609230C9E00F066F81C4B45F810
:10085000203B2846FFF72EFE012F0CBF0323042365
:100860002364089BE362099BA3620A9B23630B9B9F
:100870006363304613490BF0B9FA20B9042008F03D
:1008800087F8066000E000200023A063E3632846A9
:100890004FF4FA63216C4FF47A72FFF72BFEA36BCF
:1008A000204613B1FFF7B9FF02E0E16BFFF794FFB9
:1008B0002046012100F048F8204603B0F0BD00BFFB
:1008C000B8C8000000C07944D1F80710FFF784BF12
:1008D00038B500F1200405462046FFF761FE2846A2
:1008E000002100F031F82046FFF7A8FE80F001005B
:1008F000C0B238BD014B0360704700BFD8C80000CC
:100900007047704710B5034B0360044608F044F885
:10091000204610BDD8C8000038B504460025257310
:100920002371049BA36006480B682060E1610846C0
:1009300065612261DB69214698472576204638BDEE
:10094000D8C800000079704701737047006970478C
:10095000F8B5057E0446C5B10D4B1E684369806835
:10096000F71A0BF057F80AF039FC02460B46002044
:1009700008490AF0B1FD0022074B0AF083FC0AF097
:100980001BFF87428CBF666100252846F8BD00BF6B
:10099000CC8BFF1F0000F03F00408F400176704776
:1009A000014B0360704700BFF8C8000010B5034B4F
:1009B0000360044607F0F0FF204610BDF8C80000B1
:1009C00038B50A4D83682A68D31A8B4204460BD97E
:1009D0000D2006F067FED0F1010138BF00210D2087
:1009E00006F040FE2B68A36038BD00BFCC8BFF1F14
:1009F0000171704710B5064B036000230446037174
:100A0000836001210D2006F05BFE204610BD00BF73
:100A1000F8C800000079704703790BB1642101E048
:100A20004FF47A71FFF7CCBF704706F0A3B808B552
:100A30000368C9B21B68984708BDFFFF70B50E4C2C
:100A40000D462046FD211646FFF7F1FF28460BF024
:100A500075FB2368C1B21B682046984728460BF0F7
:100A60006DFB2368024629465B682046984720466E
:100A70003146FFF7DCFF70BD608DFF1F38B50648BB
:100A80000C461546FE21FFF7D2FF20462946BDE859
:100A9000384005F067BF00BF608DFF1F10B50C46E2
:100AA0000448FE21FFF7C3FF20466178BDE81040EF
:100AB00005F058BF608DFF1F10B500231A468B420A
:100AC00004DAC45C224492B20133F8E7104610BD48
:100AD000124B37B51D68836C40F6B832EB1A93425F
:100AE000044619D90123072141F201028DF8003093
:100AF0008DF80630684600238DF80110ADF802200D
:100B0000ADF80430FFF7D8FF2368ADF804001B6987
:100B1000204669469847A56403B030BDCC8BFF1FC3
:100B200070B504460025FFF765FF114B2360E560B3
:100B300025616561A561E56125626562A562E56281
:100B400025636563A56342F2107005F00DFE25650F
:100B5000E56365642564182007F01AFF064600F077
:100B6000B5FD2665A56484F84C50204670BD00BFD5
:100B700028C90000F8B5C3680669C269F61A836916
:100B8000D31A0446B6109F100025BD42A36905DAAA
:100B900053F82500FFF79CFE0135F6E7E361636A31
:100BA000A3620025B542E36807DA53F8250010B1C7
:100BB00003685B6998470135F4E72361002384F8F3
:100BC0004C306364E3632364F8BDFFFF114B10B541
:100BD00004460360006D10B103685B68984700230A
:100BE00020462365FFF7C6FF206B08B107F0D4FE4F
:100BF000606A08B107F0D0FEA06908B107F0CCFE2A
:100C0000E06808B107F0C8FE2046FFF7C9FE20469D
:100C100010BD00BF28C9000010B50446FFF7D6FF7D
:100C2000204607F0B9FE204610BD0269C368D31AFA
:100C300070B505469E100024B44207DAEB6853F8FD
:100C4000240003681B6898470134F5E770BD38B588
:100C500000230C460B714B71084649781546FFF787
:100C60002BFF2B1AA0805842584138BD826A436A34
:100C7000D31A70B505469E100024B44207DA6B6A99
:100C800053F8240003689B6998470134F5E770BD69
:100C900013B569238DF8003008238DF8013041F237
:100CA0000103ADF802300B78672B08BF0B898DF874
:100CB00006304B788DF8073004460023684608213B
:100CC000ADF80430FFF7F8FE2368ADF804001B69A7
:100CD00020466946984702B010BD7FB50446FFF72D
:100CE00099FE0646002838D1206D00F011FD00283D
:100CF00033D0206D00F0F8FC0378652B054605D154
:100D000020462946AA88FFF7A2FF18B9206D00F0F7
:100D1000F1FC22E02046A979FFF76AFE2046294629
:100D2000FFF7B6FF76238DF8043041F201030A2164
:100D3000ADF8063001A84FF081438DF80510CDF8CD
:100D40000A30ADF80860FFF7B7FE2368ADF8080079
:100D50001B69204601A99847D8E704B070BD2DE96A
:100D6000F047CB889CB005460C460E2B00F2ED8177
:100D7000DFE813F028018F01B6019C01EB01CA01E5
:100D80004600C101AC010F0079017C01B400DD0116
:100D90004C01C26983690026D31A9F103046BE42B7
:100DA0000FDA002840F0CD81AB69B4F8088053F821
:100DB0002600FFF7CBFDB8EB000148424841013661
:100DC000EDE7002840F0BD81442007F0E1FDD4F8B4
:100DD00016100091D4F812100191D4F81A10029153
:100DE000D4F81E100391D4F822100491D4F80A10FC
:100DF00005912289D4F80E302946FFF71DFDA0E1A8
:100E0000826A436A0026D31A9F103046BE420FDA28
:100E1000002840F096816B6AB4F8088053F82600E9
:100E2000FFF794FDB8EB0002504250410136EDE768
:100E3000002840F08681B02007F0AAFD8046D4F853
:100E400012002789D4F80A600AF0C8F9CDE9000138
:100E5000D4F80E000AF0A0F9D4F816300493D4F8B0
:100E60001A300593D4F83A300693CDE90201D4F84C
:100E70003E30D4F81E0007930AF08EF9CDE9080140
:100E8000D4F822000AF0AAF9CDE90A01D4F8260024
:100E90000AF0A4F9CDE90C01D4F82A000AF09EF971
:100EA000D4F82E301093D4F832301193D4F8363071
:100EB0001293D4F842301393D4F846301493D4F8F4
:100EC0004A301593D4F84E301693CDE90E013A46C8
:100ED00040462946334601F0DBF932E1826A436A33
:100EE0000026D31A9F103046BE420FDA002840F089
:100EF00028816B6AB4F8088053F82600FFF726FDB6
:100F0000B8EB0003584258410136EDE7002840F0A5
:100F10001881B02007F03CFD8046D4F812002789E4
:100F2000D4F80A600AF05AF9CDE90001D4F80E00AD
:100F30000AF032F9D4F816300493D4F81A30059335
:100F4000D4F83A300693CDE90201D4F83E30D4F813
:100F50001E0007930AF020F9CDE90801D4F8220019
:100F60000AF03CF9CDE90A01D4F826000AF036F976
:100F7000CDE90C01D4F82A000AF030F9D4F82E306B
:100F80001093D4F832301193D4F836301293D4F849
:100F900042301393D4F846301493D4F84A30159362
:100FA000D4F84E301693D4F85230CDE90E01179391
:100FB000D4F856301893404629463A46334601F055
:100FC00059FABEE0C36B002B40F0BB80436AD1F8F6
:100FD000162053F82280D1F81A204C2053F82270A2
:100FE00007F0D6FCD4F80E100091D4F8121001913D
:100FF000D4F81E1004912289D4F80A30CDF8088064
:1010000003972946064601F0C5FD2AE0436AD1F858
:10101000162053F822A0D1F81A2053F82290D1F8C4
:101020001E2053F82280D1F822205C2053F8227031
:1010300007F0AEFCD4F80E100091D4F81210019114
:10104000D4F8261006912289D4F80A30CDF808A0E9
:10105000CDF80C90CDF8108005972946064605F08E
:10106000E3F8EE636DE01CAE0A2301E01CAE0B2337
:1010700006F8013D242007F08BFCD4F80A300093D9
:10108000D4F80E30019322892946334601F026FE1A
:1010900057E0242007F07CFCD4F80E100091228940
:1010A000D4F80A30294601F083FE4AE04FF49270EA
:1010B00007F06EFC618A00910646D4F80A20D4F845
:1010C0000E30294601F0F4FE6E643AE0242007F069
:1010D0005FFC29462289D4F80E3004F039F830E05C
:1010E000FC2007F055FC2946D4F80A20D4F80E302D
:1010F00004F0BAF825E0AC2007F04AFC2946D4F801
:101100000A2004F083FE1CE0382007F041FCD4F8EC
:1011100012100091D4F816100191D4F81A1002910F
:101120002289D4F80E30294604F010FF09E024206B
:1011300007F02EFC2946D4F80A20D4F80E3004F02B
:1011400041FF28462146FFF7A3FD1CB0BDE8F0870C
:101150002DE9F041044688B0FFF75EFC206D00F0F9
:1011600050FB206D00F09DFB2046FFF753FC28B993
:10117000206D00F094FB002800F04681206D00F007
:10118000C7FA002800F03081206D00F0ADFA054666
:1011900029462046AA88FFF75AFD002800F0218141
:1011A0002B780F2B00F0928016D8072B36D00AD858
:1011B000022B40D0062B40F01481A26A636AD31A36
:1011C0009F10002658E00B2B61D00C2B62D0082B0F
:1011D00040F00781E06B5BE0512B50D00BD8132B14
:1011E00000F0C080142B40F0FC802769E368FF1AF0
:1011F000BF100026E1E0672B18D0752B7CD0652B43
:1012000040F0EF802046A979FFF7F2FB2046FFF778
:1012100001FC30B92046FFF7ADFC02E0AB7984F861
:101220004C3020462946FFF733FDDAE020462946B8
:10123000FFF795FDD5E0E269A369D31A9F10002658
:10124000BE4280F2CE80A36953F82600FFF77EFBF2
:10125000AB7998424FEA860801D1A3692FE00136A5
:10126000EEE7636A53F82600FFF770FBAB7998420C
:101270004FEA860830D00136BE42F2DBB1E0E06BC7
:10128000002800F0AE80294601F0DCFAA9E0606C8D
:10129000B8B9A6E0626B236BD31A9F10002600E05A
:1012A0000136BE4280F29D80236B53F82600FFF783
:1012B0004DFBAB7998424FEA8608F1D1236B53F886
:1012C0000800036829465B6898478AE0A26A636A57
:1012D000D31A9F1000260CE0636AF0E7636A53F8A4
:1012E0002600FFF733FBAB7998424FEA8608F3D02C
:1012F0000136BE42F2DB74E011238DF8043041F276
:1013000001031A25ADF80630E6200023ADF80830B9
:101310008DF80550FFF789FBCDF80A00E720FFF7AD
:1013200084FBCDF80E00E820FFF77FFBCDF812001C
:10133000E920FFF77AFBCDF81600EA20FFF775FBEE
:101340002946CDF81A0001A8FFF7B6FB2946ADF8EB
:10135000080001A806F0A0FE2D4803680D211B68B7
:1013600098473EE02769E368FF1ABF100026BE4297
:1013700037DAE36853F82600FFF7E4FAAB798342E3
:101380004FEA86083ED1E36853F82600FFF7DEFAFD
:10139000EB79984236D1E368297A53F80800FFF7D1
:1013A000FDFA1EE0E36853F82600FFF7CBFAEB796D
:1013B00083424FEA860803D00136BE42F2DB10E0DA
:1013C000E36853F82600FFF7C1FAAB799842F3D1EE
:1013D000E368297A53F80800D5F8092003689B6868
:1013E0009847206D00F086F994F84C3063B12046A0
:1013F000FFF71BFC2046FFF739FC206C20B103F0FF
:101400005DFF01E00136B2E708B0BDE8F08100BF42
:10141000848DFF1FF8B590E84800F61AB61014BF87
:10142000334601239B1904460F466FF0404603D212
:10143000B34238BF1E4626B1B00007F0A9FA0546F0
:1014400000E0354662682368D31A9B1005EB8301E0
:101450003A6809B145F8232094E882007F1ABF104A
:101460004FEA870703D028463A460AF06DFD206808
:101470002F44043708B107F08FFA84E8A00005EB89
:101480008605A560F8BDF8B590E84800F61AB610D4
:1014900014BF334601239B1904460F466FF04046A4
:1014A00003D2B34238BF1E4626B1B00007F070FA2F
:1014B000054600E0354662682368D31A9B1005EBA9
:1014C00083013A6809B145F8232094E882007F1A25
:1014D000BF104FEA870703D028463A460AF034FD8A
:1014E00020682F44043708B107F056FA84E8A000BA
:1014F00005EB8605A560F8BDF8B590E84800F61A3A
:10150000B61014BF334601239B1904460F466FF0F3
:10151000404603D2B34238BF1E4626B1B00007F0A2
:1015200037FA054600E0354662682368D31A9B10F7
:1015300005EB83013A6809B145F8232094E882005D
:101540007F1ABF104FEA870703D028463A460AF0B1
:10155000FBFC20682F44043708B107F01DFA84E82B
:10156000A00005EB8605A560F8BD38B54268846823
:10157000A242034606D0096802B111605A680432DB
:101580005A6038BDFFF7B8FF38BDF8B590E848009D
:10159000F61AB61014BF334601239B1904460F46B2
:1015A0006FF0404603D2B34238BF1E4626B1B000AA
:1015B00007F0EEF9054600E0354662682368D31A65
:1015C0009B1005EB83013A6809B145F8232094E8A4
:1015D00082007F1ABF104FEA870703D028463A4699
:1015E0000AF0B2FC20682F44043708B107F0D4F9A0
:1015F00084E8A00005EB8605A560F8BD1FB503696A
:10160000426901919342044605D003B119602369F0
:101610000433236103E00C3001A9FFF7FBFE0198BE
:10162000FFF790F90238072834D8DFE800F03133AB
:10163000331616331F04E369216A019A03928B4221
:1016400005D003B11A60E3690433E36122E004F1D9
:10165000180003A9FFF717FF1CE004A9019B41F83C
:10166000043D04F12400FFF780FF13E0636BA16BDE
:10167000019A03928B4205D003B11A60636B043365
:10168000636307E004F1300003A9FFF77EFF01E088
:10169000019B236404B010BD05F036BA054B10B5AC
:1016A00004460360006908B107F078F9002323615C
:1016B000204610BD58C9000010B50446FFF7EEFFE4
:1016C000204607F069F9204610BDFFFF054A026079
:1016D000002202710261C260826042718271C27135
:1016E000704700BF58C9000003790BB1006970470B
:1016F0001846704710B50446006908B107F04EF966
:10170000002323612371A371E371E360A36010BD23
:10171000007970470B78132B35D00FD8082B23D0C6
:1017200005D8062B28D023D8022B25D02DE00C2B52
:1017300020D00F2B20D00B2B27D119E0652B17D0F1
:1017400007D8512B12D0642B0ED0142B1DD10D2392
:101750001CE06C2B08D0752B10D0672B15D10E23F5
:10176000C3600123437112E00E230FE012230DE04A
:1017700007230BE0082309E00B2307E00623C360DF
:101780000123C37103E0092300E00023C360C068A4
:10179000704770B50446C0680E4607F0FBF800239A
:1017A0000546B342206903DAC25CEA540133F8E724
:1017B00008B107F0F3F8256170BDCB880E2B1ED859
:1017C000DFE803F00E1919101D170A12190819196C
:1017D0000C191B00262311E052230FE05A230DE0C1
:1017E00022230BE0142309E00E23C36001230371BD
:1017F00005E01E2302E0122300E02A23C360C06834
:101800007047F8B5044605F0D5F8002846D023798E
:10181000002B43D1A379002B39D02579002D35D168
:1018200005F0C8F80028F8D0E368002B12DC05F0BA
:10183000D1F804F114012075A5602046FFF76AFF76
:1018400007F0A8F8A368227D2061C254A368013381
:10185000A360E2E7A6689E42DFDA731CA3602769F3
:1018600005F0B8F8B855A668E3689E42D5D163790B
:1018700013B901232371D0E721692046FFF79DFFAB
:1018800020463146FFF785FF6571C6E7F8BD05F0D4
:10189000A1F8FE2802D10123A371F8BDF8BDC079DB
:1018A0007047F8B5044606F0E9FB00284DD02379CF
:1018B000002B4AD1A379002B40D02579002D3CD1B3
:1018C00006F0DCFB0028F8D0E368002B19DC06F0FA
:1018D00093FBC0B275282075A560204603D0BDE8F3
:1018E000F840FFF707BF04F11401FFF713FF07F0FB
:1018F00051F8A368227D2061C254A3680133A3601C
:10190000DBE7A6689E42D8DA731CA360276906F05D
:1019100073FBB855A668E3689E42CED1637913B9CC
:1019200001232371C9E721692046FFF746FF2046BE
:101930003146FFF72EFF6571BFE7F8BD06F05CFB8F
:10194000FE2802D10123A371F8BDF8BD10B5034BE9
:1019500003600446FEF7CEFF204610BD68C90000B4
:1019600010B50446FFF7F2FF204607F015F82046B1
:1019700010BDFFFF37B5069D00950446FEF7CCFF6E
:10198000024B2360204603B030BD00BF68C9000091
:101990000C4B10B504460360806A08B106F0FCFFEA
:1019A000206A10B103689B689847606A08B106F026
:1019B000F3FF002363622362A3622046FFF7C6FFA2
:1019C000204610BD90C9000010B50446FFF7E0FFA7
:1019D000204606F0E1FF204610BD022938B5044636
:1019E000104609D003290DD0012910D109F0F6FBCA
:1019F000A56AC5E90A010AE009F0F0FBA56AC5E994
:101A00000C0104E009F0EAFBA56AC5E90E01A06A31
:101A1000BDE8384000F040BE10B50368017A1C787C
:101A200043681A78437A1A40837A0C4203F003031E
:101A300018BF43F004030AB143F008039A10013BB6
:101A400082720D2B14D8DFE803F0070A0D0A131079
:101A5000070710130A0D0A07C368013307E0C368BC
:101A6000013B04E0C368023301E0C368023BC3608A
:101A700010BDFFFF08B5034BD3F88400FFF7CCFF80
:101A800008BD00BF2089FF1F08B5034BD3F88000B5
:101A9000FFF7C2FF08BD00BF2089FF1F08B5024B3A
:101AA000D86FFFF7B9FF08BD2089FF1F08B5024BAB
:101AB000986FFFF7B1FF08BD2089FF1F08B5024BE3
:101AC000586FFFF7A9FF08BD2089FF1F08B5024B1B
:101AD000186FFFF7A1FF08BD2089FF1F08B5024B53
:101AE000D86EFFF799FF08BD2089FF1F08B5024B8C
:101AF000986EFFF791FF08BD2089FF1F08B5024BC4
:101B0000586EFFF789FF08BD2089FF1F08B5024BFB
:101B1000186EFFF781FF08BD2089FF1F08B5024B33
:101B2000D86DFFF779FF08BD2089FF1F08B5024B6C
:101B3000986DFFF771FF08BD2089FF1F08B5024BA4
:101B4000586DFFF769FF08BD2089FF1F08B5024BDC
:101B5000186DFFF761FF08BD2089FF1F08B5024B14
:101B6000D86CFFF759FF08BD2089FF1F08B5024B4D
:101B7000986CFFF751FF08BD2089FF1F08B5024B85
:101B8000586CFFF749FF08BD2089FF1F08B5024BBD
:101B9000186CFFF741FF08BD2089FF1F08B5024BF5
:101BA000D86BFFF739FF08BD2089FF1F08B5024B2E
:101BB000986BFFF731FF08BD2089FF1F08B5024B66
:101BC000586BFFF729FF08BD2089FF1F08B5024B9E
:101BD000186BFFF721FF08BD2089FF1F08B5024BD6
:101BE000D86AFFF719FF08BD2089FF1F08B5024B0F
:101BF000986AFFF711FF08BD2089FF1F08B5024B47
:101C0000586AFFF709FF08BD2089FF1F08B5024B7E
:101C1000186AFFF701FF08BD2089FF1F08B5024BB6
:101C2000D869FFF7F9FE08BD2089FF1F08B5024BF0
:101C30009869FFF7F1FE08BD2089FF1F08B5024B28
:101C40005869FFF7E9FE08BD2089FF1F08B5024B60
:101C50001869FFF7E1FE08BD2089FF1F08B5024B98
:101C6000D868FFF7D9FE08BD2089FF1F08B5024BD1
:101C70009868FFF7D1FE08BD2089FF1F08B5024B09
:101C80005868FFF7C9FE08BD2089FF1F08B5024B41
:101C90001868FFF7C1FE08BD2089FF1F38B5446AE8
:101CA000237C012B054604D872B62046FFF7B4FE0C
:101CB00000E072B6E36862B6D5F8A800584309F0B0
:101CC000ADFE38BD08B5212800F2D580DFE810F060
:101CD000220027002C00310036003C004100460065
:101CE0004B00500055005A005F00640069006E0010
:101CF000730078007D00820087008C0091009600C0
:101D00009B00A000A500AA00AF00B400B900BE006F
:101D1000C300CD00594B002019605949A0E0574B32
:101D20000120596057499BE0544B02209960564965
:101D300096E0524B0320D960544991E04F4B042068
:101D40001961024652498CE04C4B052059615149BA
:101D500086E04A4B062099614F4981E0474B0720B6
:101D6000D9614E497CE0454B082019624C4977E027
:101D7000424B092059624B4972E0404B0A2099625C
:101D800049496DE03D4B0B20D962484968E03B4B27
:101D90000C201963464963E0384B0D2059634549CF
:101DA0005EE0364B0E209963434959E0334B0F20D8
:101DB000D963424954E0314B1020196440494FE047
:101DC0002E4B112059643F494AE02C4B1220996454
:101DD0003D4945E0294B1320D9643C4940E0274B5D
:101DE000142019653A493BE0244B152059653949BF
:101DF00036E0224B16209965374931E01F4B1720FA
:101E0000D96536492CE01D4B18201966344927E066
:101E10001A4B19205966334922E0184B1A2099664B
:101E200031491DE0154B1B20D966304918E0134B92
:101E30001C2019672E4913E0104B1D2059672D49AE
:101E40000EE00E4B1E2099672B4909E00B4B1F201B
:101E5000D9672A4904E0094BC3F88010284920209B
:101E6000042205F091FB012008BD044B2120C3F89A
:101E700084102449F4E7002008BD00BF2089FF1F1B
:101E80008D1C00007D1C00006D1C00005D1C00000E
:101E90004D1C00003D1C00002D1C00001D1C0000FE
:101EA0000D1C0000FD1B0000ED1B0000DD1B0000F1
:101EB000CD1B0000BD1B0000AD1B00009D1B0000E2
:101EC0008D1B00007D1B00006D1B00005D1B0000D2
:101ED0004D1B00003D1B00002D1B00001D1B0000C2
:101EE0000D1B0000FD1A0000ED1A0000DD1A0000B5
:101EF000CD1A0000BD1A0000AD1A00009D1A0000A6
:101F0000891A0000751A00002DE9FF47424B8246EE
:101F1000186809F041F9DAE91423CDE9000108F065
:101F2000FDFFDAE9242306460F4600203B4909F06D
:101F3000D3FA00223A4B09F0A5F902460B46304687
:101F4000394609F025FC00285DD0DAF8003050460B
:101F5000DB69984709F042F9DAE91E23CDE902016D
:101F600008F0DCFF02460B4608F0DAFF28A3D3E9AD
:101F7000002309F087F98046DAF89800894609F0CD
:101F80001BF902460B464046494609F0A5FA0022D5
:101F90008046894630463946214B09F09DFA024673
:101FA0000B464046494609F097FADAE922450246CF
:101FB0000B462046294609F065F922462B4606467F
:101FC0000F460020154908F0A9FF0446DAF848003A
:101FD0000D4609F003F902460B462046294609F052
:101FE00051F902460B463046394608F099FF09F090
:101FF0000BFCDDE90223CAE91E23DDE90023CAE95F
:102000001423CAF8480004B0BDE8F087AFF300809D
:10201000182D4454FB210940CC8BFF1F0000F03FDA
:1020200000408F40AFF3008008B5006A03681B686A
:10203000984708BD2DE9F0471F4690F83030DFF88B
:102040006C90804616465BB9D9F80000D8F8284055
:1020500009F0A2F80022144B09F03EFAC4E9040189
:10206000D8F860A0012388F83030504609F0B6F85F
:1020700032463B4604460D4609F076FB60B90AF14C
:10208000004009F0ABF832463B4604460D4609F0E5
:1020900089FB08B934463D46D9F80030C8F83430D9
:1020A000C8E92045BDE8F08700408F40CC8BFF1F7A
:1020B00010B50446D1F8070009F090F802460B4627
:1020C0002046BDE81040FFF7B5BFFFFF114B1A686F
:1020D00090F8303010B50446D3B1436BD21A836BFD
:1020E0009A4215D9002200230021C0E91A2380F862
:1020F00030100020A064206AC4E91C23C4E9202316
:1021000003681B689847A06ABDE8104000F0C4BA95
:1021100010BD00BFCC8BFF1F036870B5DB6906469E
:102120009847014609F0C6FB09F058F80AA3D3E91D
:10213000002309F0A7F80446D6F898000D4609F0E8
:102140003BF802460B462046294609F0C5F909F03E
:102150005BFB306470BD00BF182D4454FB21094067
:10216000224B2DE9D0430446186809F015F8D4E94C
:1021700016238046894608F0D1FED4E92823064676
:102180000F4600201A4909F0A7F90022194B09F05F
:1021900079F802460B463046394609F003FB18B37E
:1021A000E36B012B02D1A06C606403E02046FFF7D3
:1021B000B3FF206C09F012F8C4E91A01A06A00F01C
:1021C00071FAE06A08F0F8FFD4E91C2309F05AF824
:1021D000C4E91689C4E91C0109F0EEFA014620465B
:1021E000BDE8D043FFF720BFBDE8D083CC8BFF1FF5
:1021F0000000F03F00408F4010B50446FFF784FE1A
:1022000094F8303023B12046BDE81040FFF7A8BF56
:1022100010BD10B50446FFF759FF2046BDE8104039
:10222000FFF7EABF1FB50446FEF792FB68B3A36C45
:1022300063646A238DF800300F238DF80130204647
:1022400041F20103ADF80230FEF780FB8DF8060085
:102250002046FFF761FF636CCDF80B309DF801104D
:10226000CDF807000023ADF804301A468B4205DA9A
:102270001DF80300024492B20133F7E7E069ADF8BC
:102280000420036869461B69984704B010BDFFFF2E
:102290002DE9F04389B0074600930623DDF85090FE
:1022A000159EFFF767FB604B3B60239BFB6300239E
:1022B00087F83030229BBB63DDE91823C7E9282368
:1022C000DDE91023C7E92223DDE91223C7E924232E
:1022D000219AC7F89820249AFA6240F2E732002443
:1022E000002500239145C7E91A457B643B64C7E993
:1022F0001C45C7E91E45C7E920454FF00C0098462C
:1023000009D106F045FB31460446484D04F076F904
:102310003C6200240AE006F03BFB49460446324694
:1023200004F02EF93C623EA5D5E90045404E3368E5
:102330007B63306808F030FFC7E91401306808F0AB
:102340002BFFC7F84880C7E91601582006F020FB8C
:10235000DDE91A23CDE90023DDE91C23CDE90223C1
:10236000DDE91E23CDE90423269B069307F16802CD
:1023700007F18003064607F1700100F059F9BE62CB
:102380001420C6E9064506F003FB9DF858609DF849
:102390005C5004460221304605F092F9284602219D
:1023A00005F08EF9234A52F8363003F500712160AA
:1023B0000121217252F83520617202F5007000216E
:1023C000E16060604FF47A4101397FF4FDAF93F82A
:1023D000003292F8002203F00103D20744BF43F019
:1023E0000203DBB2A37221463046FFF76BFC2146A5
:1023F00020742846FFF766FC237C1844209B207439
:102400003B66259B7C623846C7F8A8300A21FEF758
:102410009BFA384609B0BDE8F08300BFAFF30080F7
:102420000000000000C05F4090C9000000407F40F5
:10243000CC8BFF1FF0CC0000084B10B504460360A6
:10244000D0F8AC0008B106F0A7FA0023C4F8AC300D
:102450002046FFF79DFA204610BD00BFB8C9000016
:1024600010B50446FFF7E8FF204606F095FA20462F
:1024700010BDFFFFF0B599B0DDE91E45CDE900457F
:10248000DDE92045CDE90245229C0494239C059476
:10249000249C0694259C0794DDE92645CDE9084552
:1024A000DDE92845CDE90A45DDE92A45CDE90C45B8
:1024B000DDE92C45CDE90E452E9C10942F9C1194FE
:1024C000309C1294319C1394329C1494339C159438
:1024D0000646349C1694FFF7DBFE224B3360142033
:1024E00006F056FA9DF8D4709DF8D85004460221A3
:1024F000384605F0E5F82846022105F0E1F81A4AC9
:1025000052F8373003F5007121600121217252F831
:102510003520617202F500700021E16060604FF4C7
:102520007A4101397FF4FDAF93F8003292F800222E
:1025300003F00103D20744BF43F00203DBB2A372EE
:1025400021463846FFF7BEFB214620742846FFF798
:10255000B9FB237C184420743046C6F8AC4019B04F
:10256000F0BD00BFB8C90000F0CC000070B5054652
:10257000FFF794FBD5F8AC40237C012B064604D82A
:1025800072B62046FFF748FA00E072B6E36862B61A
:10259000D5F8A800584309F041FA0146304609F041
:1025A00089F94FF07C5109F08DFA70BD014A017034
:1025B00042607047508DFF1F70B504464068036845
:1025C0000E461B68217815469847606803683146B7
:1025D0001B6898476068036829461B6898476068CD
:1025E000227803683544A9181B6801F07F019847D9
:1025F00070BD7E2AA8BF7E226FF07D039A42B8BFCD
:102600001A46002AB8BF5242D2B2FFF7D5BF4B1EBE
:10261000012B10B509D8022914BF0021042101EBB8
:10262000D271BDE81040FFF7E4BF10BDFFFFFFFF10
:1026300010B580E80E00DDE90223C0E90A23DDE9D8
:102640000423C0E90C23DDE90623C0E90E23104B67
:102650000446186808F0A0FD00220E4B08F03CFF6D
:1026600000220023C4E91223C4E9102306A3D3E9FE
:102670000023C4E90401C4E90623089808F0AEFD6C
:10268000C4E91401204610BD0000000000C05F40F6
:10269000CC8BFF1F00408F4000220023C0E9102395
:1026A0007047FFFF2DE9F04F4F4B87B08046186809
:1026B00008F072FD00224D4B08F00EFFD8E904230C
:1026C000CDE9040108F02AFCD8F80820D8F8043035
:1026D000CDE90001D2E90001D3E9002308F01EFC96
:1026E000D8E9062382468B46D8E9140108F0CAFDD2
:1026F000DDE9002306460F465046594608F0C2FD64
:10270000D8E9102308F00CFC32463B46CDE9020123
:1027100009F048F810B1C8E9106710E007F100456A
:10272000DDE9020132462B46344609F01DF820B996
:10273000DDE90223C8E9102301E0C8E91045D8E922
:102740000A235046594608F09DFDD8E91023044657
:102750000D46D8E90C0108F095FD02460B462046CF
:10276000294608F0DDFBD8E9122304460D46504601
:10277000594608F0D3FBDDE9002308F0ADFED8E9A7
:102780000E2308F07FFD02460B462046294608F03E
:10279000C7FBD8F8009004460D46C9E90045D8E9C2
:1027A000066732463B4608F0FDFF08B134463D4619
:1027B000C9E90045D8F81C30D8F8186003F1004783
:1027C0002046294632463B4608F0CEFF08B1344643
:1027D0003D46DDE90423C9E90045C8E912ABC8E973
:1027E000042307B0BDE8F08FCC8BFF1F00408F4063
:1027F00010B5034B03600446FEF77CF8204610BD7D
:10280000E0C9000010B50446FFF7F2FF204606F0CD
:10281000C3F8204610BDFFFF37B5069D1B78009515
:102820000446FEF779F8064B2360079B63639DF827
:10283000243084F82030089B2363204603B030BD49
:10284000E0C9000090F8203043B1D1F8063083622F
:10285000D1F80A30C362D1F80E304362704713B525
:10286000D1F80630019302ABD1F80A2043F8082DC5
:102870000268D46993E80600A04702B010BDFFFFCC
:1028800010B5034B03600446FFF7B2FF204610BDAE
:1028900008CA000010B50446FFF7F2FF204606F014
:1028A0007BF8204610BD2DE9F74302AB03E9060093
:1028B000476B009E019D04463946304609F0B6F943
:1028C000216B8046284609F0FDF839468146384696
:1028D00008F0F0FF0146484609F0A8F901464046D5
:1028E00008F0E8FF08F07AFC02460B46E06BFFF7C1
:1028F000A1FB676B3046394609F098F9216B064613
:10290000284609F0DFF839460546384608F0D2FF78
:102910000146284609F08AF90146304608F0C8FF0A
:1029200008F05CFC0246A06B0B4603B0BDE8F04328
:10293000FFF780BB10B50446C06BFFF7C7FBE06B29
:10294000FFF75AFCA06BFFF7C1FBA06BBDE810407E
:10295000FFF752BCFFFFFFFFF8B51046194614A35E
:10296000D3E9002308F0DCFA13A3D3E900230646D9
:102970000F4606F015FA002204460D463046394649
:10298000002308F0F1FE40B1204629460AA3D3E90E
:10299000002308F0C5FA04460D462046294604A344
:1029A000D3E9002308F0BAFAF8BD00BFAFF3008006
:1029B000182D4454FB210940182D4454FB21194083
:1029C00038B50446C06BFFF7A7FB616C054608F0FD
:1029D0006FFF616B09F076F8656438BD38B5044661
:1029E000806BFFF799FB216C054608F061FF616B76
:1029F00009F068F8256438BD002170B5064601600D
:102A00004160104619460022094B08F03BFC044681
:102A10000D4606F025F908F0F7FE2946B06020467D
:102A200006F0E4F808F0F0FEF060304670BD00BF3C
:102A30000000E03F2DE9F04F91B08246FDF788FF9E
:102A4000002800F0A3805046FFF7BAFF0446504626
:102A5000FFF7C4FF05462946204608F02BFF4FF03C
:102A60007C5109F02FF829468346204608F020FFC4
:102A7000DAF8301009F0DAF8DAF8481009F022F83C
:102A8000DAF8241008F016FFCAF8240008F0A6FBB4
:102A900002460B465046FFF75FFF08F0B5FE814641
:102AA000CAF82400584608F099FB064648460F46E7
:102AB00008F094FB04460D4606F098F80246DAF852
:102AC00028000192009108F089FB019A009BCDE952
:102AD00002013046394608F0D5FB0B460246DDE9D7
:102AE000020108F01DFA08F08FFE29468046CAF858
:102AF0002800204606F0B4F80246DAF82C000192CD
:102B0000009108F06BFB019A009BCDE90201304671
:102B1000394608F0B7FB02460B46DDE9020108F032
:102B2000FFF908F071FE22460646CAF82C002B4633
:102B300004A85146FFF760FF6C238DF820301E2358
:102B4000069A8DF8213041F20103ADF82230CDF81C
:102B500032200023079ACDF83620ADF82430CDF886
:102B60002680CDF82A60CDF82E90CDF83AB01A46DE
:102B700008A9505C013203441E2A9BB2F8D1DAF84E
:102B80001C00ADF8243003681B69984711B0BDE8FC
:102B9000F08FFFFF70B586B006AD002605F8016D19
:102BA00000930A9B01930B9B02930123044603931A
:102BB0002B46FFF731FE084B23600C9BA3630D9B54
:102BC000E3630023236463646362A362E3620E9B96
:102BD000A364204606B070BD08CA00007047FFFF1E
:102BE00010B5034B03600446FDF784FE204610BD7C
:102BF00030CA000010B50446FFF7F2FF204605F08A
:102C0000CBFE204610BDFFFF38B5054690F82000EA
:102C100004F0D6F804462846FDF794FE0A2820461C
:102C200006D108F0FBFE08F0D9FA0022104B06E0AE
:102C300008F0F4FE08F0D2FA09A3D3E9002308F063
:102C400021FB09A3D3E9002308F046FC0022094B2D
:102C500008F042FC08F0D8FD38BD00BFAFF300809B
:102C6000666666666666C94000000000E0FFEF40E9
:102C70000000B44000408F4030B585B00446FDF7F9
:102C800067FE40B36D238DF804300B2300258DF8CB
:102C90000530204641F20103ADF80630ADF808508A
:102CA000FDF754FE8DF80A002046FFF7ADFFCDF882
:102CB0000B009DF805002B462A46834201A904DA41
:102CC000C95C0A4492B20133F7E7E069ADF8082025
:102CD00003681B69984705B030BDFFFF73B5079DBA
:102CE000069E1B7800960446FDF716FE0A4B2360ED
:102CF000012D01D10E2303E0022D0CBF0F23102361
:102D0000236294F82000002104F0DAFC102004F083
:102D10002DF8204602B070BD30CA00007047FFFF9A
:102D200010B5034B03600446FDF7E4FD204610BDDB
:102D300050CA000010B50446FFF7F2FF204605F028
:102D40002BFE204610BD37B50446FDF701FE68B3E3
:102D50006E238DF80030082300258DF801302046C1
:102D600041F20103ADF80230ADF80450FDF7EEFD7D
:102D70008DF8060094F8200004F094FC431B5842A0
:102D800058419DF801108DF807002B462A468B42CA
:102D900005DA1DF80300024492B20133F7E7E06957
:102DA000ADF80420036869461B69984703B030BD3D
:102DB00013B5044600930123FDF7AEFD094B2360D4
:102DC000049B012B0CBF0B230C23236294F82000DF
:102DD000022104F075FC102003F0C8FF204602B069
:102DE00010BD00BF50CA0000094B10B50446036077
:102DF000006F10B103685B6898470023236704F1F4
:102E0000740000F082FD2046FDF774FD204610BDE1
:102E100070CA000010B50446FFF7E6FF204605F033
:102E2000BBFD204610BDFFFF10B50446D03001F0B9
:102E300061FF036820671B699847002809DD236F3D
:102E4000E0691A797AB95B796BB103680E495B69FD
:102E50000DE0002384F8143120466FF00101BDE835
:102E60001040FDF771BD036808495B69002298476F
:102E70000121002384F8C83084F8C91084F8CA10EE
:102E800084F814112046EAE788CA0000A2CA0000AC
:102E900003460321002201391A62DA629A639A64B6
:102EA00003F10403F6D14FF07E5343647047FFFFF4
:102EB00037B504461D46009203230022FDF72CFD82
:102EC0002046194B40F8743B00F044FD04F1D0005B
:102ED00002F0D2F8154800F0F3FA2046FFF7D8FFC9
:102EE00020460021FDF730FD00236566A36600251E
:102EF0002366A365E3656365BDF81830A4F8203147
:102F0000C4F81C51C4F8185184F8145184F81551B0
:102F1000E5662046FFF788FF94F814310BB184F87A
:102F20001651204603B030BD70CA0000FC89FF1F57
:102F300010B5044604F1F801002002F0C2F80023A5
:102F400084F8FA30084B094AC4F80831C4F80C3147
:102F5000C4F81031236FC4F8FC20C4F80021C4F871
:102F6000042101221A7110BD809618CB8096184B4F
:102F700010B590F815318A7904460BB112B110BD25
:102F800022B910BD012380F8163110BD80F816312A
:102F9000FFF7CEFF012384F8153110BD03F0B4BD57
:102FA000F8B51148069D16461F460C4600F02CFB4E
:102FB00031460D4800F0D4F900210B4800F034FBF5
:102FC000214609483A4600F003FC0024064800F078
:102FD000E5F9661C30B1044800F0EAF9E4B228557E
:102FE0003446F3E7F8BD00BFFC89FF1F1FB503ABF4
:102FF0000093682141220223FFF7D2FF9DF80C00C5
:103000009DF80D3043EA002000B205B05DF804FBE6
:103010002DE9F047964B1F68C36EB6B00646B0F870
:103020002001FC1A08F0F6FC08F0D8F802460B461E
:103030000020904908F050FA00228F4B08F022F946
:1030400008F0BAFB844240F20581306F03689B6947
:103050009847002800F0FD8096F81531002B40F0CD
:103060008A800AA800F01AFF0DA800F017FF10A828
:1030700000F014FF316F0AA8143100F0F3FE316F35
:103080000DA8083100F0EEFE316F10A8203100F0DD
:10309000E9FE336FDB6A00930AAA0DA906F17400FA
:1030A00010AB00F061FD306F03681B6A984716A8EB
:1030B00001F0A7F813A800F0F1FE06F1BC0113A877
:1030C00000F0D0FE06F1AC0116A800F0CFFF0A9B7D
:1030D00033620B9B73620C9BB3620D9BF3620E9B7E
:1030E00033630F9B7363109BB363119BF363129B5A
:1030F0003364169B7364179BB364189BF364199B2A
:1031000033653046FFF772FF08F088FC08F066F878
:1031100053A3D3E9002308F0DFF90022574B07F04F
:10312000FFFE08F071FB70651498159D139C08F064
:1031300055F84DA3D3E9002308F0A4F808F064FB88
:10314000B065284608F04AF847A3D3E9002308F001
:1031500099F808F059FB716E08F0AAFBF06520465B
:1031600008F03CF840A3D3E9002308F08BF808F0FE
:103170004BFB30666DE096F81651002D5AD10DF1DB
:103180004C09484600F08AFE316F4846203100F075
:1031900069FE3446AA4659F80580D4F8FC1040462A
:1031A00008F02EFE18B1C4F8FC804FF0010A40462A
:1031B000D4F8081108F042FE18B1C4F808814FF0A5
:1031C000010A04350C2D04F10404E4D1BAF1000F16
:1031D0003FD0D6F8FC0008F001F80446D6F8080104
:1031E0000D4607F0FBFFCDE90001D6F8000107F01E
:1031F000F5FFCDE90201D6F80C0107F0EFFFCDE9AC
:103200000401D6F8040107F0E9FFCDE90601D6F87C
:10321000100107F0E3FF2246CDE908012B4616A86E
:10322000174908F055FFF069036816A95B69002289
:1032300098470EE00024012386F8FA3086F81541FD
:1032400086F81641204606F1F80101F025FF336F9C
:103250001C71F76636B0BDE8F08700BFAFF30080A1
:1032600052B81E85EBDD7440F8C1631ADCA54C40F2
:10327000CC8BFF1F0000F03F00408F400000354026
:10328000C4CA0000AFF3008010B5044690B0FFF749
:10329000BFFE2046FDF75CFB002844D094F81521C2
:1032A000002A40D16F238DF804303A238DF8053081
:1032B00041F20103ADF80630E36ACDF80A30236B22
:1032C000CDF80E30636BCDF81230236ACDF816308E
:1032D000636ACDF81A30A36ACDF81E30A36BCDF81F
:1032E0002230E36BCDF82630236CCDF82A30636CA6
:1032F000CDF82E30A36CCDF83230E36CCDF83630FB
:10330000236DCDF83A30ADF80820134601A9585C7A
:10331000013302443A2B92B2F8D1E069ADF80820AB
:1033200003681B69984710B010BDFFFF044BD878A5
:10333000044B1A68C0B2904218BF1860704700BFB3
:10334000006006406887FF1F08B5FFF7EFFF83079F
:10335000FBD5024B0222DA7008BD00BF00600640B8
:10336000094B1B7813B9094B1B782BB1084A13780A
:10337000202B03D90123037100207047581C1070C3
:10338000044A0120D15470470E8AFF1FD189FF1FC4
:103390000F8AFF1FB089FF1F7047FFFF024B18788D
:1033A000024B1B78C01A70470D8AFF1F0C8AFF1F43
:1033B000064A074913780978994204D9591C1170B3
:1033C000044AD05C70474FF0FF3070470C8AFF1FF3
:1033D0000D8AFF1FD289FF1F054B064A1B78127802
:1033E0009A4286BF044AD05C4FF0FF30704700BF5E
:1033F0000C8AFF1F0D8AFF1FD289FF1F70B50E4B6D
:103400001B78144613B90D4B1B7893B10C4A1578F1
:10341000C5F121039C42164602D9012202711C46C5
:10342000084822462844254403F004F93570204614
:1034300070BD184670BD00BF0E8AFF1FD189FF1FE7
:103440000F8AFF1FB089FF1F10B5114BDB7803F007
:10345000200303F0FF045BB9122004F0DBF80D4BEE
:103460001B68A3B10C4A14700C4A1078984710BD21
:103470000B4A13780133DBB2012B137002D8094BCE
:103480001B7823B91220BDE8104004F0C3B810BD6A
:1034900000600640AC89FF1F0C8AFF1F0D8AFF1FCA
:1034A000F889FF1FD189FF1F002202714FF47A7142
:1034B0000273024A81600260704700BFF8CA0000D0
:1034C0000C4B00221A700C4B196841F04001196036
:1034D0000A4B0B499A704FF419720A6041F8042C98
:1034E00027225A7004229A7120225A7180229A70DF
:1034F000704700BFD189FF1F348004400060064040
:103500000CA0044010B53649CB78DBB213F0100F95
:1035100003F0400201D12AB92CE01020C870002A23
:10352000F9D110BD03F0040303F0FF012D4AC3B12C
:10353000002313702C4A13702C4B1B68144603B1E4
:10354000984723782A4A1BB927491370012008702D
:10355000234BD021997012781A71264B01221A70D0
:1035600039E001231370244B19701D4BC0229A704F
:103570001B7930E01A4CA27802F0100202F0FF0131
:10358000AAB113F001030ED11A4917480A7800783E
:10359000904203D9531C0B70154B9B5C2371104B4D
:1035A000D0229A7017E0C023A370237913E0134B45
:1035B000032219701220124903F0E6FF0E4A217906
:1035C00013781F2BC9B206D80648007818B1581CCA
:1035D00010700C4AD154024B0222DA7010BD00BFA9
:1035E00000600640A889FF1F0F8AFF1FF489FF1F94
:1035F000B089FF1F108AFF1F0D8AFF1FF889FF1F68
:1036000049340000D289FF1F044B054A4900197054
:1036100001231370034A1370704700BFB089FF1F66
:103620000E8AFF1F0F8AFF1FF8B52B4B1222DA708C
:103630009A7892060F4601D5B42218E0274B1C68F1
:103640001D46FFF773FE00F0200000F0FF0350B1AD
:103650002B681B1B0F2BF4D91F4B00229A70802262
:103660009A700420F8BD1E4A13701B4BB0229A704A
:10367000FFF75CFE8306FBD500251A4B1B78ECB2E6
:10368000A3421FD9184B1A5D134B1A71FFF74EFE58
:10369000860701D48006F9D40F4E0223F370FFF79A
:1036A00045FEC10601D4820603D48023B3700420F2
:1036B00009E0C30705F10105DFD5002C0CBF02208E
:1036C000032001E0002017B1034B80229A70074BC2
:1036D00000221A70F8BD00BF00600640CC8BFF1FAF
:1036E000D189FF1F0F8AFF1FB089FF1F0E8AFF1F9E
:1036F0002DE9F8431446304A1F46002313702F4A21
:1037000013702F4B0D461221D970997811F0200FAC
:10371000904601D0B4220BE0FFF708FE00F0200035
:1037200000F0FF020028F7D1264B1A70244BB0227C
:103730009A706B0043F00103214DDBB22B71FFF750
:1037400003FEFFF7F3FD10F0110004D08023AB70EF
:103750000020BDE8F88334B9002F0CBFA0238023DC
:10376000AB70BDE8F883012C0CBFA823A023AB707D
:103770002B79DFF858902646012E114D0BD0013ED3
:10378000FFF7E2FDF6B2012E04BFA823AB702B7940
:1037900009F8013FF0E7FFF7D7FD661EB023AB70D5
:1037A000F6B2094B2A799A550FB18023AB7088F88D
:1037B00000402046BDE8F8830C8AFF1F0D8AFF1FDA
:1037C00000600640D189FF1FD289FF1FD189FF1FEA
:1037D0000123FFF78DBF0121FFF726BF0148FFF747
:1037E00063BE00BFFC89FF1FF8B507460C460D48B5
:1037F000394615461E46FFF707FF21460948FFF7E1
:10380000AFFD0024E3B2AB42064804D2315DFFF7BE
:10381000A7FD0134F6E7FFF7DEFFD0F1010038BF66
:103820000020F8BDFC89FF1F07B502AB03F8012D8E
:103830000122FFF7D9FF03B05DF804FB2DE9F74F34
:1038400015462B4ABDF83060D2F800800193002461
:1038500007468B46A2469146AC4223D225483946BC
:10386000FFF7D2FE59462348FFF77AFD2148FFF7BC
:10387000B2FF20483946FFF7C7FE2A1B202AA8BFFF
:1038800020221C483946D2B2FFF7A2FF1948FFF7A1
:1038900085FDC8B1F6B1D9F80020C8EB0202B242EA
:1038A00018D311E05EB1D9F80020C8EB0208B0458A
:1038B00005D34FFA8AF2AA42B8BF4FF0FF0A4FFA77
:1038C0008AF003B0BDE8F08F202DD4BF64192034F6
:1038D000E4B2C1E74FFA8AF206480092FFF768FDAA
:1038E0009DE80C0098540AF101035FFA83FACDE7D2
:1038F000CC8BFF1FFC89FF1F13B5144600930122D8
:103900002346FFF79BFF02B010BD704730B501237F
:1039100085B080F85730044600F1480501A800F052
:10392000BDFA01A9284600F09DFA294604F13800A5
:1039300000F04EFD04F12C0501A800F0AFFA01A93A
:10394000284600F08FFA04F11C00294600F040FDE3
:1039500005B030BD10B50446043000F052FC04F14F
:103960001C0000F04EFC04F12C0000F097FA04F16A
:10397000380000F046FC04F1480000F08FFA084BD4
:103980006361084BA3610123204684F8543084F816
:10399000553084F85630FFF7B9FF204610BD00BF00
:1039A0006F12833A6F12033A2DE9F04F95B0064635
:1039B00068460C46904600F024FC04A800F021FC68
:1039C00096F8553006F12C0723B12046394600F011
:1039D000EFFA06E0384606F1480100F043FA00230A
:1039E000736396F85630002B6FD0F06A4FF07C511D
:1039F00008F068F807F0F2FB04460D4605F0F6F80B
:103A000007F002FF29468146204605F029F907F014
:103A1000FBFE4FF07C518246306B08F053F807F004
:103A2000DDFB04460D4605F0E1F807F0EDFE294602
:103A30008346204605F014F907F0E6FE5946044691
:103A4000484608F03FF859460490504608F03AF8C6
:103A500021460590484608F035F8214606900AF1BF
:103A6000004008F02FF800230093D8F800300193AD
:103A7000D8F8043007906A46029308A8D8F80830AE
:103A8000039304A900F093FB0CA804A900F037FDF0
:103A90000CAA10A808A900F08AFB10A9684600F03B
:103AA000E5FA029807F09AFB044601980D4607F0E4
:103AB00095FB02460B462046294605F06FF907F0B4
:103AC000A3FE00F10040706301E0336D736306F103
:103AD0001C052846394600F07BFCDFF8888000246E
:103AE0004FF0FF3A55F8243023F00049484641464C
:103AF00008F0A4F908B9C14600E0A2460134042C3C
:103B000001D0C846EEE706EB8A040021D4F81C80F9
:103B1000404608F075F920B1A06B002108F08EF93D
:103B200048B94046002108F089F9C0B1A06B0021D6
:103B300008F066F998B1F36903F10043F361336A61
:103B400003F100433362736A03F100437362B36AA3
:103B500003F10043B3622846394600F0A3FB15B0D9
:103B6000BDE8F08F00007AC42DE9F04F04468BB019
:103B700003A81E460F469046149D00F08FF994F856
:103B80005730ABB13246A5652046414604F12C05BD
:103B9000FFF70AFF04F13800294600F019FC04F190
:103BA0004800294600F05EF9002384F85730FCE015
:103BB000A06D281A07F02EFF7D4908F037F8A5659B
:103BC0002060002108F026F9002840F0EE804146F0
:103BD00032462046FFF7E8FE636C019394F85430B8
:103BE000D4F838A0D4F83C80266C13B103A8394629
:103BF00004E006A800F052F903A806A900F032F983
:103C000003984FF07C5107F05DFF4FF07C51074661
:103C1000049807F057FF4FF07C518146059807F054
:103C200051FF4146834607F1004007F04BFF314604
:103C300003464846009307F045FF009B2568014670
:103C4000184607F035FE019903465846009307F0E1
:103C500039FF009B0146184607F02AFE294607F067
:103C600031FF0146504607F025FE5146A063384615
:103C700007F028FF314603465846009307F022FF1D
:103C8000009B0146184607F015FE01990346484679
:103C9000009307F017FF009B0146184607F008FE47
:103CA000294607F00FFF0146404607F003FE514644
:103CB000E063484607F006FF414603465846009336
:103CC00007F000FF009B0146184607F0F1FD01993F
:103CD00003463846009307F0F5FE009B0146184660
:103CE00007F0E8FD294607F0EDFE0146304607F0F3
:103CF000E1FD51462064584607F0E4FE4146824605
:103D0000484607F0DFFE0146504607F0D3FD314636
:103D10008046384607F0D6FE0146404607F0C8FD0B
:103D2000294607F0CFFE0146019807F0C3FD94F83D
:103D30005630606404F1380504F11C07261D06A8FE
:103D400013B994F8553023B139462A4600F047FAA2
:103D500001E000F056FA06A9304600F087F92A463D
:103D6000394606A800F03BFA06A9304600F07EF975
:103D70002168606907F0A6FEA169074607F09AFD71
:103D80000146384607F052FF3146024606A800F0C9
:103D90001AFA06A9284600F074F9284600F037FA06
:103DA000284604F1480100F07DFA0BB0BDE8F08F21
:103DB00000007A4410B50B4C4FF07C51A4EB60042A
:103DC00007F080FE214607F07DFE214607F07AFECF
:103DD00001464FF07F5007F06BFD0146204607F08B
:103DE00071FE10BDDF59375F70B5044616460D46AB
:103DF00002784078B3B140EA022000B207F00EFE2C
:103E0000314607F05FFE2860E378A07843EA00209F
:103E100000B207F003FE314607F054FE68602079D7
:103E2000637915E042EA002000B207F0F7FD314661
:103E300007F048FE2860A378E07843EA002000B24B
:103E400007F0ECFD314607F03DFE686060792379AC
:103E500043EA002000B207F0E1FD314607F032FEF0
:103E6000A86070BD884205D00B6803604B68436052
:103E70008B688360704770B505460E46002428594C
:103E8000315907F015FD285104340C2CF7D1284680
:103E900070BD0023036043608360704710B5044623
:103EA000FFF7F7FF204610BD70B505460C460068C9
:103EB000096807F007FE61680646686807F002FEB9
:103EC0000146304607F0F6FCA1680646A86807F0F0
:103ED000F9FD0146304607F0EDFC70BDF8B505462A
:103EE0000C4640688968164607F0ECFD6168074695
:103EF000A86807F0E7FD0146384607F0D9FC3060B6
:103F00002168A86807F0DEFDA1680746286807F069
:103F1000D9FD0146384607F0CBFC7060616828681F
:103F200007F0D0FD21680746686807F0CBFD014621
:103F3000384607F0BDFCB060F8BD2DE9F041D0F87F
:103F400000804768866841460446404607F0BAFD4F
:103F500039460546384607F0B5FD0146284607F0C4
:103F6000A9FC31460546304607F0ACFD014628461F
:103F700007F0A0FCFFF71EFF0021054607F036FF03
:103F8000A0B928464FF07E5107F030FF70B929469E
:103F9000404607F097FD29462060384607F092FD1D
:103FA00029466060304607F08DFDA060BDE8F081D5
:103FB0002DE9FF410E4607C801AB83E8070018460C
:103FC000FFF7BBFF029807F009F9044603980D4676
:103FD00007F004F902460B462046294604F0DEFEAF
:103FE00007F012FC3060019807F0F8F804460298D8
:103FF000DDF80C800D46014607F064FD414607469A
:10400000404607F05FFD0146384607F053FC07F0D5
:10401000E5F804F01FFF02460B462046294604F04F
:10402000BDFE07F0F1FB002300F100407060B360BB
:1040300004B0BDE8F0810346006870B501465E68D3
:104040009D6807F03FFD31460446304607F03AFDD3
:104050000146204607F02EFC29460446284607F074
:1040600031FD0146204607F025FC70BD884207D08F
:104070000B6803604B6843608B688360CB68C360E8
:10408000704770B505460E4600242859315907F08F
:1040900011FC28510434102CF7D1284670BD70B59E
:1040A00005460E4600242859315907F001FC2851D5
:1040B0000434102CF7D1284670BDF0B58BB00446FF
:1040C00001A80D46FFF7E5FE04A8FFF7E2FE07A8EA
:1040D000FFF7DFFE63680193A3680293E36803932D
:1040E0006B680493AB68059304A9EB68069301A879
:1040F000FFF7DAFE07AA074604A901A8FFF7EEFEBC
:1041000026682968304607F0DDFC394607F0D0FB09
:1041100004992060304607F0D5FC019907462868CD
:1041200007F0D0FC0146384607F0C4FB079907F0BA
:10413000C1FB05996060304607F0C4FC0299074650
:10414000286807F0BFFC0146384607F0B3FB089922
:1041500007F0B0FB0699A060304607F0B3FC039966
:104160000646286807F0AEFC0146304607F0A2FB81
:10417000099907F09FFBE06020460BB0F0BD38B511
:10418000044600680D4607F09DFC294620606068E3
:1041900007F098FC29466060A06807F093FC294668
:1041A000A060E06807F08EFCE060204638BD38B5BE
:1041B000044615460FC984E80F0020462946FFF73C
:1041C0007CFF204638BD38B5044615460FC984E843
:1041D0000F0020462946FFF7D2FF204638BD38B5EC
:1041E000044615460FC984E80F0020462946FFF70C
:1041F00056FF204638BD0023036043608360C360E0
:10420000704710B50446FFF7F6FF204610BD2DE9B4
:10421000F843D0F80090D0F804808768C668494613
:104220000446484607F04EFC41460546404607F026
:1042300049FC0146284607F03DFB3946054638460D
:1042400007F040FC0146284607F034FB314605469E
:10425000304607F037FC0146284607F02BFBFFF7F6
:10426000A9FD0021054607F0C1FDC8B928464FF059
:104270007E5107F0BBFD98B92946484607F022FC5D
:1042800029462060404607F01DFC294660603846FC
:1042900007F018FC2946A060304607F013FCE060E8
:1042A000BDE8F8832DE9F8430746D0F80890D0F828
:1042B00004800E464846F96807F004FC3968044655
:1042C000404607F0FFFB0146204607F0F3FA06F0F0
:1042D00085FF02460B4606F023FE04460D46404687
:1042E000414607F0EFFB49468046484607F0EAFBA7
:1042F0000146404607F0DEFA06F070FF02460B4624
:1043000006F00EFE02460B460020304906F006FE7F
:1043100002460B462046294604F040FD07F074FA99
:104320003060B968386807F0CDFBF96804467868F2
:1043300007F0C8FB0146204607F0BAFA06F04EFF28
:1043400002460B4606F0ECFD04F0D4FC07F05CFAE4
:104350007060D7F808907968D7F80C80484607F065
:10436000B1FB39680446404607F0ACFB01462046E5
:1043700007F0A0FA06F032FF02460B4606F0D0FD29
:1043800004460D464846494607F09CFB4146074611
:10439000404607F097FB0146384607F08BFA06F0D7
:1043A0001DFF02460B4606F0BBFD02460B460020F1
:1043B000064906F0B3FD02460B462046294604F0A6
:1043C000EDFC07F021FAB060BDE8F8830000F03F93
:1043D0002DE9F74F04460D4608684FF07C5107F071
:1043E00071FB06F0FBFE06460F4604F0FFFB07F0EC
:1043F0000BFA39468146304604F032FC07F004FAE5
:104400004FF07C518346686807F05CFB06F0E6FEDF
:1044100006460F4604F0EAFB07F0F6F939468246F5
:10442000304604F01DFC07F0EFF94FF07C5101908D
:10443000A86807F047FB06F0D1FE06460F4604F0D9
:10444000D5FB07F0E1F939460546304604F008FC93
:1044500007F0DAF951460646484607F033FB019962
:104460008046584607F02EFB29460746404607F08F
:1044700029FB314603463846009307F023FB009B97
:104480000146184607F016FA51462060584607F0D4
:1044900019FB01998246484607F014FB29468146DC
:1044A000504607F00FFB31468346484607F00AFBAB
:1044B0000146584607F0FCF929466060484607F077
:1044C00001FB31468146504607F0FCFA014648465A
:1044D00007F0F0F93146A060404607F0F3FA2946AC
:1044E0000646384607F0EEFA0146304607F0E0F996
:1044F000E060204603B0BDE8F04FFFF788BE38B556
:104500000D460446FFF777FE2B6823606B6803F1C6
:1045100000436360AB6803F10043A360EB6803F101
:104520000043E360204638BD40797047004870473B
:1045300010CB000005207047436B4FF4C87090FB10
:10454000F3F0704710B5034B0360044600F0BEFB68
:10455000204610BD28CB000010B50446FFF7F2FF3F
:10456000204604F019FA204610BDFFFF10B504469E
:1045700000F0CCFB014B2360204610BD28CB00008F
:104580004B1FB3F5797F09D24FF47A72B2FBF1F287
:1045900000234163C0E90E230120704700207047CB
:1045A000112910B509D80122054B02FA01F4234064
:1045B0001BB180F88B10104610BD002010BD00BF4D
:1045C0007F000300082910B50AD8012202FA01F47D
:1045D00040F27F1323401BB180F88C10104610BDB1
:1045E000002010BD4B1E632B9ABFC0F89010012015
:1045F0000020704708290DD004D8B1B980F8941074
:104600000B4B0EE0102909D018290ED180F8941018
:10461000084B06E080F89410074B02E0074B80F847
:104620009410C0F89830012070470020704700BFF8
:10463000FDB30B39787D8B3AA9689239787D0B3AB6
:1046400008290FD005D8D1B980F895104FF06253E2
:1046500011E010290BD0182911D180F895104FF0D6
:10466000685308E080F895104FF0645303E080F839
:1046700095104FF06653C0F89C3001207047002021
:10468000704710B538210446002290F88900FFF7E2
:10469000CBF868B394F8890023210022FFF7C4F80F
:1046A00030B394F889006A210022FFF7BDF8F8B111
:1046B00094F889006A210422FFF7B6F8C0B194F893
:1046C00089006A216022FFF7AFF888B1322003F039
:1046D00031F894F8890038210122FFF7A5F838B1A4
:1046E00094F8890023217822BDE81040FFF79CB898
:1046F000002010BD70B5504E88B03388044672213A
:1047000090F889000093022202ABFFF797F888B176
:104710009DF808509DF8093003EB0525B5F5806F2D
:104720000AD12046FFF7ADFFE36AA26B562101FBD9
:104730000233E36200207CE0B5F5F07F11D93388C5
:10474000009394F8890074210C2205ABFFF776F8EA
:104750000028EFD0E26AA36B0C3D1344E362772D8F
:10476000ECE70B2DE6D93388009394F88900742187
:104770000C2205ABFFF762F80028DBD02E4B94F833
:1047800089001B8800934921082203ABFFF756F8E4
:104790000028CFD005A804F11401D4F89C200123EF
:1047A000FFF722FB0DF11A0004F10801D4F898205C
:1047B0000123FFF719FB214A0DF10D0004F120013F
:1047C0000023FFF711FBE368206AD4F8A01003F17F
:1047D0000043E360236903F100432361636903F14C
:1047E0000043636107F06EF9D4F8A4100546606ACF
:1047F00007F068F9D4F8A8100646A06A07F062F935
:1048000005F10045A06226622046656200F008FBC3
:10481000204600F0B1FB94F8883013B1084B1B68B8
:1048200002E0E26AA36B1344E362002384F8883059
:10483000012008B070BD00BF6C87FF1F9A99193F17
:10484000CC8BFF1F13B5174B04466A2190F88900E3
:104850001B880DF10702FFF74FF808B900241DE08F
:104860009DF8072094F8890022F0200242F002020D
:104870006A218DF80720FEF7D7FF0028EED03220FE
:1048800002F058FF94F8890037218222FEF7CCFF0E
:1048900004460028E2D0322002F04CFF204602B04D
:1048A00010BD00BF6C87FF1F13B5154B04466A216E
:1048B00090F889001B880DF10702FFF71DF808B971
:1048C00000241AE09DF8072094F8890042F02002A5
:1048D0006A218DF80720FEF7A7FF0028F0D03220CC
:1048E00002F028FF94F8890037218022FEF79CFF10
:1048F000044610B1322002F01DFF204602B010BD68
:104900006C87FF1F38B590F88B5090F89430C5F342
:10491000C1021A4404461B2190F88900D2B2FEF766
:1049200083FF40B194F8890005F007021A21BDE821
:104930003840FEF779BF38BD10B504461C2190F809
:10494000890094F89520FEF76FFF40B194F8890034
:1049500094F88C201D21BDE81040FEF765BF10BD06
:10496000436BB3F57A7F0ADC4FF47A7292FBF3F370
:104970005A1E90F889001921D2B2FEF755BF0120C6
:104980007047426BD0F8903090F8890092FBF3F2B8
:10499000013A1F2AA8BF1F223421D2B2FEF744BF1A
:1049A00030B5012380F88830036B1A7980F88920AC
:1049B000044685B01969FFF7E3FD236B204659696A
:1049C000FFF710FE236B2046197EFFF7E9FD236BEE
:1049D0002046197FFFF7F6FD236B204693F8201041
:1049E000FFF708FE236B204693F82410FFF728FEFC
:1049F000204600F0B1F994F889006B218022FEF77F
:104A000013FF002800F01781642002F093FE94F851
:104A100089006B210022FEF707FF002800F00E81BD
:104A2000A64D94F889002B8875210DF10B02FEF735
:104A300063FF002800F005819DF80B30712B40F0DA
:104A400003812046FFF75EFF002800F0008120462A
:104A5000FFF772FF002800F0FD802046FFF780FF7F
:104A6000002800F0FA802046FFF7ECFE002800F056
:104A7000F7800C200A210022FEF7D6FE28B9204636
:104A8000FFF712FF6FF00B0016E10C200A210F2236
:104A9000FEF7CAFE28B92046FFF706FF6FF00C00AC
:104AA0000AE12B8800930C20102103220DEB000358
:104AB000FEF7C4FE28B92046FFF7F6FE6FF00D00A2
:104AC000FAE09DF80C0006F0A5FF06F087FB002237
:104AD0007B4B06F023FA00227A4B06F0D3FB002230
:104AE000794B06F01DFA06F08FFEC4F8A0009DF881
:104AF0000D0006F08FFF06F071FB0022704B06F0F0
:104B00000DFA00226F4B06F0BDFB00226E4B06F043
:104B100007FA06F079FEC4F8A4009DF80E0006F02E
:104B200079FF06F05BFB0022654B06F0F7F90022E7
:104B3000644B06F0A7FB0022634B06F0F1F906F088
:104B400063FE0A21C4F8A80000220C20FEF76CFEC8
:104B500028B92046FFF7A8FE6FF00E00ACE0204613
:104B6000FFF7A2FE00287ED094F88900242140227D
:104B7000FEF75AFE002879D094F8890025218C226E
:104B8000FEF752FE002874D094F8890026210222F4
:104B9000FEF74AFE00286FD094F88900272188226A
:104BA000FEF742FE00286AD094F8890028210C22E2
:104BB000FEF73AFE002865D094F8890029210A22E0
:104BC000FEF732FE002860D094F889002A21812265
:104BD000FEF72AFE00285BD094F8890064210122A8
:104BE000FEF722FE002856D094F8890067210322A0
:104BF000FEF71AFE002851D02046FFF7C2FE00281B
:104C00004FD094F889006B210122FEF70DFE002899
:104C10004AD094F889006C210022FEF705FE002896
:104C200045D02046FFF72DFD002843D0204600F058
:104C3000E9F8012040E04FF0FF303DE06FF0030065
:104C40003AE06FF0040037E06FF0050034E06FF0F9
:104C5000060031E06FF007002EE06FF008002BE057
:104C60006FF00A0028E06FF00F0025E06FF01000F1
:104C700022E06FF011001FE06FF012001CE06FF0F7
:104C8000130019E06FF0140016E06FF0150013E048
:104C90006FF0160010E06FF017000DE06FF01800D5
:104CA0000AE06FF01A0007E06FF01B0004E06FF0FD
:104CB0001C0001E06FF01D0005B030BD6C87FF1FC8
:104CC000000060400000703F0000F03F014B0360B7
:104CD000704700BF58CB000090F848007047FFFFB6
:104CE00010B5034B0360044603F056FE204610BD8A
:104CF00058CB000038B50546B02003F049FE2946E0
:104D00000446FFF733FC204638BDFFFF38B5114B92
:104D1000044640F8083B0D46FFF7C0F804F11400C4
:104D2000FFF7BCF804F12000FFF7B8F804F14C00DD
:104D3000FFF7B4F804F15800FFF7B0F804F17C0075
:104D4000FFF7ACF8002325632371637184F84830C2
:104D5000204638BD58CB00002DE9F043064689B007
:104D60000020707101A900F0ACF9002845D09DF831
:104D70000630012B41D1224F6C460DF10C086069C1
:104D80000434616806F094FD3946054607F056F88C
:104D900000B93D46444501D02F46F0E728460021A2
:104DA00007F02EF8044640BB28464FF07C5106F031
:104DB00089FE3546814601AB23440434D3F8108084
:104DC0005F684046394606F073FD4FF07C5106F0AF
:104DD00079FE0146484606F029FF394628674046D5
:104DE00006F068FD4FF07C5106F06CFE0C2C6866F6
:104DF00005F10405DFD10123737109B0BDE8F0832B
:104E0000000080BF10B50446406B06F007FE014667
:104E10004FF0804006F00AFF00232064636410BD59
:104E20002DE9FF4700F15805804695E8070001ACE1
:104E300008F1140684E8070031462046FFF71BF806
:104E400031462846FFF70EF82046FFF7F4F84649AA
:104E500006F0D6FF08F1080A00287CD05046FFF77C
:104E6000EAF8424906F0CCFF002874D0D8F8409008
:104E7000484606F0B3F902460B4600203C4906F0CE
:104E80004DF80446D8F84C000D4606F0A7F9024646
:104E90000B462046294606F0F5F906460F464846D9
:104EA000D8F8081006F00EFE06F098F902460B46F8
:104EB0003046394606F034F806F0A6FCC8F84C0037
:104EC000D8F8500006F08AF902460B4620462946DB
:104ED00006F0D8F906460F464846D8F80C1006F0FA
:104EE000F1FD06F07BF902460B463046394606F0E6
:104EF00017F806F089FCC8F85000D8F8540006F0FE
:104F00006DF902460B462046294606F0BBF90446D9
:104F10000D464846D8F8101006F0D4FD06F05EF9AC
:104F200002460B462046294605F0FAFF06F06CFCC7
:104F3000D8F83430D8F84420C8F8540003EB830381
:104F40009A4208DA01329A4208BF0123C8F8442085
:104F500008BF88F84830504608F14C01FEF78BFF37
:104F600004B0BDE8F08700BF0BD7233B0BD7233D30
:104F70000000F03FFFFFFFFF037970B50646CBB995
:104F80004379BBB1006A716E06F092FC316F06F096
:104F900099FDB16E3062706A06F08AFC716F06F09E
:104FA00091FDF16E7062B06A06F082FCB16F06F09E
:104FB00089FDB062306A2E4906F084FD06F00EF9D4
:104FC0000446F06F0D4606F009F927A3D3E9002344
:104FD00006F058F902460B462046294605F0A0FF88
:104FE00006F012FC2249F067706A06F06BFD06F0CD
:104FF000F5F80446D6F880000D4606F0EFF81AA33F
:10500000D3E9002306F03EF902460B462046294626
:1050100005F086FF06F0F8FB1549C6F88000B06A77
:1050200006F050FD06F0DAF80446D6F884000D4686
:1050300006F0D4F80CA3D3E9002306F023F90246C6
:105040000B462046294605F06BFF06F0DDFB06F116
:105050007C01C6F8840006F12000BDE87040FEF730
:1050600001BF00BFAFF30080000000989999E93FAD
:10507000CDCC4C3EAFF300804FF0FF3202605022A7
:1050800002612822426103228261C261102202620F
:105090004262682202717047F8B5FC221C2310FBA3
:1050A00003F60A7015220D464A7013FB003734468A
:1050B000AB1B2046195D013401F070FDBC42F7D1F5
:1050C000F8BDF8B51C24002310FB04F506468B70D0
:1050D00028460F4601F04EFDFC2813D1012004FBA9
:1050E000060001F047FD15280CD114FB06462C469E
:1050F000204601F03FFD7B1B18550134B442F7D127
:105100000120F8BD0020F8BD01F0FEBC7047FFFF94
:1051100010B5034B03600446FBF7ECFB204610BDC3
:1051200088CB000010B50446FFF7F2FF204603F0DD
:1051300033FC204610BD006AC0B201B1012102F06B
:1051400091BAC979003118BF0121FFF7F4BFFFFF01
:1051500037B51D460023044600930823FBF7DCFB0C
:10516000094B2360012D0CBF06230723236294F80B
:105170002000012102F0A4FA20460121FBF7E4FB04
:10518000204603B030BD00BF88CB00007047FFFF52
:1051900010B5034B03600446FBF7ACFB204610BD83
:1051A000A8CB000010B50446FFF7F2FF204603F03D
:1051B000F3FB204610BDFFFF70B586B00446FBF739
:1051C000C7FB00284CD071238DF8003004F1200675
:1051D000172300258DF80130304641F20103ADF868
:1051E0000230ADF8045000F04FF906F00DFBCDF899
:1051F0000600304600F070F906F006FB84F899507E
:10520000CDF80A00D4F8A00005F0D6FF0022154B17
:1052100006F062F906F0F8FAD4F8C030ADF81230B2
:10522000D4F8B030ADF814309DF80120D4F8EC304B
:105230008DF81630CDF80E0084F8B95084F8A950D6
:105240002B46954205DA1DF805100B449BB201353B
:10525000F7E7E069ADF80430036869461B699847D1
:1052600006B070BD0000594037B504461D46009297
:1052700002230022FBF750FB20460F4B40F8203B57
:1052800000F02CF815B1C4F8F85003E04FF41653B1
:10529000C4F8F830D4F8F800430803F1376303F595
:1052A000D833B3FBF0F001F0FBFD20460121FBF702
:1052B0004BFB204603B030BDA8CB000010B5044620
:1052C00001F06AFF002808DD01F076FFC1B204F1A9
:1052D0002000BDE8104000F0A7BA10BD0022022156
:1052E00002704270828082600273028242610276A2
:1052F0008283026280F824200285C26280F8302016
:1053000080F8382080F83920C26380F8482080F87F
:105310004920C26480F8582080F85920026680F83D
:10532000682080F86920026780F8782080F879206A
:10533000C0F8802080F8882080F88920C0F890206C
:1053400080F8982080F89920C0F8A02080F8A82044
:1053500080F8A92080F8B91080F8BA2080F8BB2026
:1053600080F8BC20C0F8C020C0F8C420C0F8C82015
:10537000C0F8CC20C0F8D020C0F8D42080F8AA20F3
:105380007047A1F14103052B02D8A1F13700704706
:10539000A1F16103052B94BFA1F15700A1F13000E9
:1053A000704738B50578B5F12D035D425D4104467F
:1053B00005B1441C204606F076FD64234343224693
:1053C00014F8011BA1F130000928F8D92E290BD1BE
:1053D00051783039092907D892780A20303A00FBF1
:1053E0000133092A98BF9B180DB1584238BD1846A1
:1053F00038BDFFFF38B50C46054606F054FD642362
:10540000B0FBF3F21249228003FB12034B43284600
:10541000014610F8012BA2F13005092DF8D92E2AEA
:105420000CD10B4A084610F8011F3039092905D85C
:105430000A25B2FBF5F202FB0133F4E703EB830329
:1054400001330322B3FBF2F363600023237238BD00
:1054500080969800034653F81C2F42605A68826079
:105460001B7A0373034653F8282F02615A6842617E
:105470001B7A0376034B1B6843630123437003705D
:10548000704700BFCC8BFF1F002370B543700646EA
:10549000808805F091FE0446B0680D4605F07CFE5C
:1054A0000BA3D3E9002306F017F80B460246294662
:1054B000204605F035FD337B1BB1024601F1004368
:1054C00001E002460B461046194670BDAFF300805E
:1054D0000000000065CDCD41002370B54370064645
:1054E000008A05F069FE044670690D4605F054FE19
:1054F0000BA3D3E9002305F0EFFF0B460246294634
:10550000204605F00DFD337E1BB1024601F100433C
:1055100001E002460B461046194670BDAFF300800D
:105520000000000065CDCD4183684360034B1B68DC
:10553000C360012343700370704700BFCC8BFF1F13
:1055400083684360034B1B68C3600123437003708F
:10555000704700BFCC8BFF1F10B504460846FFF70D
:1055600020FFA06010BD10B50446084606F09BFC65
:10557000A06010BDC3688360034B1B6843600123B8
:1055800043700370704700BFCC8BFF1F10B50446FB
:105590000846FFF706FFE06010BDFFFFC3688360A9
:1055A000034B1B684360012343700370704700BFC7
:1055B000CC8BFF1F10B50446084606F074FCE06073
:1055C00010BDFFFF10B504462146103006F0AEFDB9
:1055D000044B1B682362012384F8253084F82430AF
:1055E00010BD00BFCC8BFF1F102206F0AFBDFFFF28
:1055F000F8B590F8A9600446002E67D090F8AA107C
:10560000FFF7BFFE94F8AB1005462046FFF7B9FE42
:1056100094F8A83000EB0510C5B2AB424FD1D4F8D6
:10562000D4300133C4F8D43094F8BC3023B1D4F86A
:10563000CC300133C4F8CC3094F8B930B3B1012B7D
:105640002AD104F13800FFF76FFF04F14800FFF79B
:1056500077FF94F8BC30FBB12046FFF7FBFE04F166
:105660005800FFF787FF04F1680013E004F14800D9
:10567000FFF766FF94F8BC3033B12046FFF7EAFE2F
:1056800004F17800FFF776FF04F18800FFF786FF4A
:1056900004F19800FFF76EFFD4F8C450002D00F01D
:1056A000BD80D4F8C430A86A996A06F035FD002898
:1056B00040F0B4802846FFF785FF2D6BEEE7D4F865
:1056C000D0300133C4F8D0300026A7E090F8BA20DB
:1056D00022BB00F1AA052846514906F01DFD08B974
:1056E000012308E028464F4906F016FD10B984F85A
:1056F000B96002E0022384F8B930D4F8C030C4F8AD
:10570000C430D4F8C470002F00F08880B86A2946ED
:1057100006F002FD00287DDA3B6BF0E790F8B91047
:10572000022960D090F8AA30002B5CD042EA4112E6
:10573000013A282A57D8DFE802F01520242B3142FD
:10574000494F515656565656565656565656565612
:1057500056565656565656565656151B20242B311D
:10576000383A3C00483004F1AA01FFF7F5FE3AE070
:10577000B3F141004342434125E0AA3004F11C014A
:1057800009E0B3F153014B424B4180F824302AE049
:10579000AA3004F12801FFF72DFE24E0B3F15702EF
:1057A0005342534180F830301DE0583017E06830E4
:1057B00015E0383004F1AA01FFF7D5FE13E0302BD5
:1057C00094BF0023012384F8BC300CE0883004F13E
:1057D000AA01FFF7EFFE06E0983000E0783004F110
:1057E000AA01FFF7D3FED4F8C450BDB1D4F8C43039
:1057F000A86A996A06F090FC80B9EB6A94F8BA201E
:1058000093420BDC04D1284604F1AA01FFF7ECFE19
:105810002D6BEAE702D00023C4F8C4303046F8BD4F
:10582000C0CB0000C6CB000038B5D0F8C830242962
:1058300003F1010304460D46C0F8C8302AD090F8A1
:10584000BB3004D80A290CD00D2932D109E02A290D
:1058500007D02C292DD190F8A82082F02C0280F8B6
:10586000A8200E2B4FF0000005D8234483F8AA008F
:105870002046FFF7BDFE94F8BA30013384F8BA3001
:10588000002384F8BB30B5F12A035D425D4184F802
:10589000A95038BD0020022384F8BB0084F8BA0068
:1058A00084F8A80084F8B93084F8A90084F8BC0012
:1058B00038BD0D2B05D85A1C234484F8BB2083F82F
:1058C000AA5094F8A90028B994F8A8305D4084F84B
:1058D000A85038BD002038BD2D4B002230B51A60CD
:1058E00090F8943053B9D0F890305A6802F5965237
:1058F0005A6090F899201A60012345E0012B26D1C7
:1059000090F895309BB100EB830290F89710526CA1
:1059100001338B4288BF0023D0F88C10A2F5965239
:1059200091B1012B16BF00240B700C700CE090F8A5
:10593000964080F89740011F1A46A242E3D851F8DA
:10594000045F4D640132F8E780F8953001E0D0F84B
:1059500088204EF660239A42D0F89030596806D8D5
:105960000A445A6090F898201A6000230CE001F570
:10597000624190315960A2F5624290F89910196025
:10598000903AC0F88820022380F8943030BD00BFE0
:1059900054800340442380F88A307047334B30B53D
:1059A0001C684FF6FF7294421C46314A52D113686C
:1059B00003F07F03482B4DD14B1F0024122B47D8F7
:1059C000DFE803F00A1F46460D10464646464646A7
:1059D0004646461316191C00264A072313E0264A9A
:1059E000022310E0254A03230DE0254A05230AE09F
:1059F000244A062307E0244A002304E0234A012323
:105A000001E0234A0423C0F8844080F88B40FF253E
:105A100090F88A40026080F8885014601D4A42F86D
:105A200023001D4A0120147800FA03F32343137066
:105A30001A4B03EBC10140F244424B681A60184B09
:105A400020221A70A3F23A334FF080421A6030BD20
:105A5000002030BD134D002313602B604FF6FF75FF
:105A6000256048241460104A1360A5E708800340AD
:105A700000800340448003401C8003402480034096
:105A8000348003403C8003400C800340148003407A
:105A90002C800340188AFF1F158AFF1FF0CC0000DE
:105AA0003EE400E0048003405480034010B50368E6
:105AB00090F88A105A681960184BB2F5604F1B882D
:105AC00003D91749097801B1013B42EA0343D0F8F1
:105AD0008420C0F884309A1A124B9A4290F8883089
