:1000000000800020BD010000ED710000B97100000A
:10001000B9710000B9710000B9710000B971000038
:10002000B9710000B9710000B9710000ED710000F4
:10003000ED710000B9710000ED710000A9710000C0
:10004000ED710000ED710000ED710000ED71000038
:10005000ED710000ED710000ED710000ED71000028
:10006000ED710000ED710000ED710000ED71000018
:10007000ED710000ED710000ED710000ED71000008
:10008000ED710000ED710000ED710000ED710000F8
:10009000ED710000ED710000ED710000ED710000E8
:1000A0007D350000ED710000ED710000ED71000084
:1000B000ED710000ED710000ED710000ED710000C8
:1000C000ED710000ED710000ED710000ED710000B8
:1000D000ED710000ED710000ED710000ED710000A8
:1000E000ED710000ED710000ED710000ED71000098
:1000F000ED7100001D760000ED710000BD7A00007A
:10010000ED71000015890000ED710000ED71000037
:10011000ED710000ED710000ED710000ED71000067
:10012000ED710000ED710000ED710000ED71000057
:10013000ED710000ED710000895A0000ED710000C2
:10014000ED710000ED710000ED710000ED71000037
:10015000ED710000ED710000ED710000ED71000027
:10016000B9060000558B0000ED710000ED71000034
:10017000ED710000ED710000ED710000ED71000007
:10018000ED710000ED710000ED710000ED710000F7
:10019000ED710000ED710000ED710000ED710000E7
:1001A000ED710000ED710000ED710000ED710000D7
:1001B000ED710000ED710000ED710000564B4CF246
:1001C000205210B51A804DF628121A8000BF00BFC9
:1001D00007F010F8514B4FF010621A60504A9A60C5
:1001E000504ADA60A3F53043203B1A6812F480725B
:1001F00004D14D490A604FF4A8521A604B4B1A784B
:10020000110703D51A7842F008021A70484B2A22C7
:100210001A700023474A48499818884204D247492F
:10022000595899500433F5E7454A464B9A424FF0E6
:10023000000302D242F8043BF7E74349434A5958C6
:1002400099500433B3F5DE7FF7D1414B802103F899
:10025000011B40498B42F9D13F4B1A603F4B0A22A8
:100260001A70A3F5805324225A70A0221A709A792A
:100270009207FCD59A79D406FCD4394B9A7902F0CE
:100280000C02082AF9D103221A7140225A719A7974
:100290009006FCD5324B9A795106FBD5314A32494A
:1002A00011600221516020221A702D4B9B7903F0BE
:1002B0000C030C2BF9D12D4B2D4A1A602D4B4BF60C
:1002C0007F321A6000225A60072243F8042C2A4A1F
:1002D000C3F80C2D62B608F047F8134B1B68DA0719
:1002E00005D5264807F0B4FF254B264A1A60264B51
:1002F0001B785B0609D5224C224A2368934204D11D
:100300001E4807F0A5FF002323600CF087FB06F0D2
:1003100077FF09F083F9FEE70E20054030800440A6
:10032000823F04000100002B14D0034002D007409C
:1003300000E007406087FF1F8488FF1F28D8000067
:100340008488FF1FCC8EFF1F000000000082FF1F6B
:1003500000E400E05FE400E008ED00E0005006404B
:100360000040064044800440000003110480044023
:10037000C010050014E000E000002020E5DE725609
:100380001CE00340A5C3945A00F00740FFFFFFFFA5
:10039000FFFFFFFFFFFFFFFFFFFFFFFFFFFFFFFF6D
:1003A000FFFFFFFFFFFFFFFFFFFFFFFFFFFFFFFF5D
:1003B000FFFFFFFFFFFFFFFFFFFFFFFFFFFFFFFF4D
:1003C000FFFFFFFFFFFFFFFFFFFFFFFFFFFFFFFF3D
:1003D000FFFFFFFFFFFFFFFFFFFFFFFFFFFFFFFF2D
:1003E000FFFFFFFFFFFFFFFFFFFFFFFFFFFFFFFF1D
:1003F000FFFFFFFFFFFFFFFFFFFFFFFFFFFFFFFF0D
:10040000FFFFFFFFFFFFFFFFFFFFFFFFFEFFFFFFFD
:1004100010B5054C237833B9044B13B10448AFF33E
:1004200000800123237010BD8488FF1F000000009E
:1004300028D8000008B5064B1BB106480649AFF3A3
:1004400000800648036813B1054B03B1984708BD07
:100450000000000028D800008888FF1F8488FF1F44
:100460000000000008B542F2107008F0E1F806F054
:100470006DF9BDE8084006F001BCFFFF10B5064C61
:1004800007F000FD204600F037FB20460349044AF0
:10049000BDE810400CF0A2BAA088FF1FBD0B000001
:1004A0006087FF1F10B506F051F9044606F05AFAAE
:1004B000022804D003281DD0012827D10BE01448BE
:1004C00001F08AF910B9124800F002FC1048BDE8AA
:1004D000104000F04DBE0E4800F0D2FB10B10C48A9
:1004E00000F036FB204606F053FB2046BDE81040E6
:1004F00006F0B6B8064800F0C3FB10B1044800F09F
:1005000027FB2046BDE8104006F01CBC10BD00BF14
:10051000A088FF1F30B50D4C0023218803710C22E9
:1005200001230B4207D10A4A19432180118821EA8D
:100530000303138030BD05795B000135013A057175
:100540009BB2EED1FF23037130BD00BF0489FF1FB2
:100550000089FF1F2DE9F0411F4603790B2B04464C
:1005600016463DD85FFA81F84046012107F0AEFEFD
:1005700025791D4B03F805801C4B44F2506223F88B
:1005800015201B4B012202FA05F51A8815431D8020
:10059000184B1A6806EB460607EB4707B600BF0084
:1005A00012F480022680678016D1196841F4800118
:1005B0001960A3F59033383B4FF6FF7119605A600C
:1005C0009A6042F6A27243F8042C02F5803243F896
:1005D000042C094B20221A70084B4FF480721A60C9
:1005E0002079BDE8F08100BF1E89FF1F0689FF1F2B
:1005F0000089FF1F3C80044048E400E008E100E07F
:1006000003790B2B10D8094A01219940C94313885B
:1006100089B20B401380064A1088014011801BB933
:10062000044B4FF480721A60704700BF0089FF1FAF
:100630000489FF1F88E100E00C2359430388994295
:1006400003DB43889942B8BF0B4602790B2A9CBF53
:10065000014921F8123070470689FF1F13B504794C
:100660000B2C024616D8B1F5087F04DB02B0BDE8BA
:100670001040FFF7E1BF13885288009221EAE17031
:10068000B428A8BFB4200021B42208F09DFF024B7B
:1006900023F8140002B010BD0689FF1F03790B2B4D
:1006A00005D8044A1088184100F001007047002066
:1006B000704700BF0089FF1F70B52E4A2E4D11886C
:1006C00095F90030194111F0010F144606D02B4A5C
:1006D0000021D05C07F0CCFD0C232B702088284C27
:1006E0002178CBB25AB20B2A1FDC40FA02F6013154
:1006F000F607C9B2F5D52370204B0121985C07F0AD
:10070000B7FD23781F4A2B7059B2013332F811100C
:100710001D4A1068084410601C4A106801441160AA
:1007200042F6A37142F80C1C22E0174A23701168AC
:10073000C1F56A3303F5C073B3F5966F05DB4EF66A
:1007400060208342A8BF034601E04FF4966319443A
:1007500011600E49086803440B600D4B42F6A3710B
:10076000196012680B4B9A4203D9074A00231360A1
:10077000237070BD0089FF1F6487FF1F1E89FF1F44
:100780000289FF1F0689FF1FFC88FF1F0C600340C2
:10079000006003407FA90300074B10B504460360C7
:1007A000806B08B108F0EEFE0023A363204600F042
:1007B000CDF8204610BD00BFA0CD000010B5044606
:1007C000FFF7EAFF204608F0DDFE204610BD30B5F9
:1007D00085B0044600F0E8F860B366238DF8043075
:1007E0000B2300258DF80530204641F20103ADF8BA
:1007F0000630ADF8085000F0D5F8216B8DF80A00EE
:10080000E06B0BF0D5FD616B0BF090FFCDF80B00AA
:100810009DF805002B462A46834201A904DAC95CEB
:100820000A4492B20133F7E7E069ADF808200368A3
:100830001B69984705B030BD70B5C56A04460E46C1
:10084000084629460CF07AF830B9A56A30462946A0
:100850000CF056F800B93546616B28460BF0B2FE35
:10086000216B0BF0A7FDE0630CF072F82034014619
:100870002046BDE87040FFF7F1BE10B504462030B9
:10088000FFF70CFF30B1A36B20461968BDE810409C
:10089000FFF7D2BF10BDFFFFF7B50D9D00950446D1
:1008A0001F46254609230C9E00F062F81A4B45F8B6
:1008B000203B2846FFF72EFE012F0CBF0323042305
:1008C0002364089BE362099BA3620A9B23630B9B3F
:1008D0006363304611490CF009F820B9042008F090
:1008E0004DFE066000E000200023A063E36328467D
:1008F0004FF4FA63216C4FF47A72FFF72BFEA36B6F
:1009000013B12046FFF7B9FF2046012100F048F857
:10091000204603B0F0BD00BFA0CD000000C0794468
:10092000D1F80710FFF788BF38B500F1200405465D
:100930002046FFF765FE2846002100F031F82046EA
:10094000FFF7ACFE80F00100C0B238BD014B036080
:10095000704700BFC0CD00007047704710B5034B13
:100960000360044608F00EFE204610BDC0CD000016
:1009700038B50446002525732371049BA3600648FF
:100980000B682060E161084665612261DB692146F0
:1009900098472576204638BDC0CD000000797047C5
:1009A0000173704700697047F8B5057E0446A5B12C
:1009B0000B4B1E6843698068F71A0BF0ABFD0146CC
:1009C0004FF07E500BF0B2FE06490BF0FBFD0BF032
:1009D000BFFF87428CBF666100252846F8BD00BF77
:1009E000FC8CFF1F00007A4401767047704707F0C7
:1009F0007FBA38B5044608F063FC0546204608F087
:100A000017FC284438BD08B50368C9B21B6898476D
:100A100008BDFFFF38B506480C461546FE21FFF716
:100A2000F2FF20462946BDE8384007F03BBD00BF35
:100A30009C8EFF1F10B50C460448FE21FFF7E3FF14
:100A400020466178BDE8104007F02CBD9C8EFF1F4A
:100A500070B50E4C0D462046FD211646FFF7D3FF1C
:100A600028460CF0EFF82368C1B21B68204698476F
:100A700028460CF0E7F82368024629465B682046C2
:100A8000984720463146FFF7BEFF70BD9C8EFF1F82
:100A900010B500231A468B4204DAC45C224492B299
:100AA0000133F8E7104610BD124B37B51D68036DD2
:100AB00040F6B832EB1A9342044619D901230721B4
:100AC00041F201028DF800308DF8063068460023AF
:100AD0008DF80110ADF80220ADF80430FFF7D8FF13
:100AE0002368ADF804001B692046694698472565D0
:100AF00003B030BDFC8CFF1F70B50446002500F02C
:100B00005BFE114B2360E56025616561A561E561D0
:100B100025626562A562E56225636563A563A565D7
:100B2000E56365642564A564182008F027FD064682
:100B300000F074FE054BA6651B68256584F85450CB
:100B4000E364204670BD00BFE0CD0000FC8CFF1FB9
:100B5000F8B5C3680669C269F61A8369D31A0446F0
:100B6000B6109F100025BD42A36905DA53F8250091
:100B7000FFF7DAFE0135F6E7E361636AA362002559
:100B8000B542E36807DA53F8250010B103685B69E2
:100B900098470135F4E720462361002100F00AFE62
:100BA000A06C002584F854506564E563256418B191
:100BB00003689B689847A564F8BDFFFF114B10B50B
:100BC00004460360806D10B103685B68984700239A
:100BD0002046A365FFF7BCFF206B08B108F0D2FCEC
:100BE000606A08B108F0CEFCA06908B108F0CAFC40
:100BF000E06808B108F0C6FC204600F0B3FD2046CE
:100C000010BD00BFE0CD000010B50446FFF7D6FFD1
:100C1000204608F0B7FC204610BD0269C368D31A0D
:100C200070B505469E100024B44207DAEB6853F80D
:100C3000240003681B6898470134F5E770BD38B598
:100C400000230C460B714B71084649781546FFF797
:100C50001FFF2B1AA0805842584138BD826A436A50
:100C6000D31A70B505469E100024B44207DA6B6AA9
:100C700053F8240003689B6998470134F5E770BD79
:100C800090F85400704713B569238DF8003008239D
:100C90008DF8013041F20103ADF802300B78672B7B
:100CA00008BF0B898DF806304B788DF80730044665
:100CB000002368460821ADF80430FFF7E9FE2368F9
:100CC000ADF804001B6920466946984702B010BD84
:100CD0007FB5044600F080FD0646002837D1A06DA0
:100CE00000F0BEFD002832D0A06D00F0A5FD037815
:100CF000652B054605D120462946AA88FFF79FFFA8
:100D000018B9A06D00F09EFD21E02046A97900F001
:100D100051FD20462946FFF7B6FF76238DF80430B3
:100D200041F201030A21ADF8063001A8094B8DF804
:100D30000510CDF80A30ADF80860FFF7A9FE23686A
:100D4000ADF808001B69204601A99847D9E704B00F
:100D500070BD00BF0000E0402DE9F047CB889CB09B
:100D600005460C46102B00F2FF81DFE813F02A0144
:100D70009101BA019E01FD01CE014800C501B001FB
:100D800011007B017E01B600E1014E01FD01EC0185
:100D9000C26983690026D31A9F103046BE420FDA1B
:100DA000002840F0DD81AB69B4F8088053F82600D4
:100DB000FFF7F8FDB8EB0001484248410136EDE786
:100DC000002840F0CD81442008F0D8FBD4F816105C
:100DD0000091D4F812100191D4F81A100291D4F8AD
:100DE0001E100391D4F822100491D4F80A10059132
:100DF0002289D4F80E302946FFF74EFDB0E1826A11
:100E0000436A0026D31A9F103046BE420FDA0028EC
:100E100040F0A6816B6AB4F8088053F82600FFF70B
:100E2000C1FDB8EB0002504250410136EDE7002809
:100E300040F09681B02008F0A1FB8046D4F8120063
:100E40002789D4F80A600AF049FFCDE90001D4F8F7
:100E50000E000AF021FFD4F816300493D4F81A30AB
:100E60000593D4F83A300693CDE90201D4F83E3028
:100E7000D4F81E0007930AF00FFFCDE90801D4F85B
:100E800022000AF02BFFCDE90A01D4F826000AF06F
:100E900025FFCDE90C01D4F82A000AF01FFFD4F891
:100EA0002E301093D4F832301193D4F83630129398
:100EB000D4F842301393D4F846301493D4F84A301F
:100EC0001593D4F84E301693CDE90E013A464046BC
:100ED0002946334601F0FCFA42E1826A436A002661
:100EE000D31A9F103046BE420FDA002840F03881F6
:100EF0006B6AB4F8088053F82600FFF753FDB8EB8F
:100F00000003584258410136EDE7002840F028819F
:100F1000B02008F033FB8046D4F812002789D4F8BB
:100F20000A600AF0DBFECDE90001D4F80E000AF0F9
:100F3000B3FED4F816300493D4F81A300593D4F8DD
:100F40003A300693CDE90201D4F83E30D4F81E00C1
:100F500007930AF0A1FECDE90801D4F822000AF0B7
:100F6000BDFECDE90A01D4F826000AF0B7FECDE9AE
:100F70000C01D4F82A000AF0B1FED4F82E301093F8
:100F8000D4F832301193D4F836301293D4F842307A
:100F90001393D4F846301493D4F84A301593D4F808
:100FA0004E301693D4F85230CDE90E011793D4F891
:100FB00056301893404629463A46334600F0CAFF59
:100FC000CEE0C36B002B40F0CB80436AD1F81620F3
:100FD00053F82280D1F81A204C2053F8227008F0E0
:100FE000CDFAD4F80E100091D4F812100191D4F873
:100FF0001E1004912289D4F80A30CDF80880039796
:101000002946064601F042FE2AE0436AD1F816203E
:1010100053F822A0D1F81A2053F82290D1F81E20BC
:1010200053F82280D1F822205C2053F8227008F077
:10103000A5FAD4F80E100091D4F812100191D4F84A
:10104000261006912289D4F80A30CDF808A0CDF8F0
:101050000C90CDF8108005972946064605F0C6F895
:10106000EE637DE01CAE0A2301E01CAE0B2306F804
:10107000013D242008F082FAD4F80A300093D4F815
:101080000E30019322892946334601F091FE67E034
:10109000242008F073FAD4F80E1000912289D4F8B5
:1010A0000A30294601F0EEFE5AE04FF48E7008F047
:1010B00065FA618A0091217D01910646D4F80A20E3
:1010C000D4F80E30294602F0F5F86E6448E024208A
:1010D00008F054FA29462289D4F80E3003F0F6FFBE
:1010E0003EE0FC2008F04AFA2946D4F80A20D4F859
:1010F0000E3004F075F833E0242008F03FFA29465A
:10110000D4F80A2004F086FE2AE0382008F036FAE7
:10111000D4F812100091D4F816100191D4F81A10D6
:1011200002912289D4F80E30294604F009FF17E015
:10113000242008F023FA2946D4F80A20D4F80E30E7
:1011400004F03AFF0CE0182008F018FAE37BA17BCA
:10115000012B064614BF0222012201F0EDFEAE640F
:1011600028462146FFF78FFD1CB0BDE8F087FFFF42
:101170002DE9F041044688B000F030FBA06D00F08E
:10118000EBFB204600F028FB28B9A06D00F03BFCEB
:10119000002800F09F81B04B1D68E36CEB1AB3F59B
:1011A0007A7F07D994F8543023B1AC48F921FFF77E
:1011B0002AFCE564A06D00F026FC054600BBA06C8F
:1011C000F0B103681B689847D0B101238DF8043053
:1011D00007238DF8053041F20103ADF8063023688E
:1011E0008DF80A5001A91B69204698472046FFF751
:1011F000AFFC07F0CBF92046294600F0DBFA69E1A5
:10120000A06D00F02DFB002800F04E81A06D00F0D5
:1012100013FB054629462046AA88FFF710FD002843
:1012200000F03F812B780F2B00F0928016D8072B0F
:1012300036D00AD8022B40D0062B40F03281A26A69
:10124000636AD31A9F10002658E00B2B61D00C2B39
:1012500062D0082B40F02581E06B5BE0512B50D031
:101260000BD8132B00F0DD80142B40F01A81276976
:10127000E368FF1ABF100026FFE0672B18D0752B1C
:101280007CD0652B40F00D812046A97900F092FAC0
:10129000204600F0A1FA30B92046FFF759FC02E0E1
:1012A000AB7984F8543020462946FFF7ECFCF8E08F
:1012B00020462946FFF750FDF3E0E269A369D31AFF
:1012C0009F100026BE4280F2EC80A36953F82600EE
:1012D000FFF768FBAB7998424FEA860801D1A36912
:1012E0002FE00136EEE7636A53F82600FFF75AFB5A
:1012F000AB7998424FEA860830D00136BE42F2DB25
:10130000CFE0E06B002800F0CC80294601F016FB0E
:10131000C7E0606CB8B9C4E0626B236BD31A9F104E
:10132000002600E00136BE4280F2BB80236B53F8FA
:101330002600FFF737FBAB7998424FEA8608F1D1D8
:10134000236B53F80800036829465B689847A8E0B8
:10135000A26A636AD31A9F1000260CE0636AF0E762
:10136000636A53F82600FFF71DFBAB7998424FEAFA
:101370008608F3D00136BE42F2DB92E011238DF8ED
:10138000043041F201031A25ADF806304FF496708F
:101390000023ADF808308DF80550FFF728FBCDF895
:1013A0000A0040F22D10FFF722FBCDF80E004FF49B
:1013B0009770FFF71CFBCDF8120040F22F10FFF7DB
:1013C00016FBCDF816004FF49870FFF710FB294676
:1013D000CDF81A0001A8FFF75BFB2946ADF808001D
:1013E00001A807F05FF80D211C48FFF70CFBDDF8A2
:1013F0000A101B48FFF7FDFADDF80E101848FFF73A
:10140000F8FADDF812101648FFF7F3FADDF81610B7
:101410001348FFF7EEFADDF81A101148FFF7E9FA62
:101420003FE02269E368D31A4FEAA3080026464545
:1014300037DAE36853F82600FFF7B0FAAB79834256
:101440004FEA86073ED1E36853F82600FFF7AAFA71
:10145000EB79984236D137E0FC8CFF1F9C8EFF1F42
:101460007C8EFF1FE36853F82600FFF797FAEB79AD
:1014700083424FEA860803D00136BE42F2DB10E019
:10148000E36853F82600FFF78DFAAB799842F3D161
:10149000E368297A53F80800D5F8092003689B68A7
:1014A0009847A06D00F0CEF994F8543093B12046DF
:1014B000FFF7B3FB2046FFF7D1FB206C50B103F0E0
:1014C000B9FE07E00136B2E7E368297AD859FFF799
:1014D0008BFAE6E708B0BDE8F08100BFF8B590E808
:1014E0004800F61AB61014BF334601239B19044670
:1014F0000F466FF0404603D2B34238BF1E4626B1B6
:10150000B00008F03BF8054600E035466268236805
:10151000D31A9B1005EB83013A6809B145F82320E3
:1015200094E882007F1ABF104FEA870703D028464D
:101530003A460BF0A9FA20682F44043708B108F0A6
:1015400021F884E8A00005EB8605A560F8BDF8B594
:1015500090E84800F61AB61014BF334601239B19D1
:1015600004460F466FF0404603D2B34238BF1E46D2
:1015700026B1B00008F002F8054600E03546626882
:101580002368D31A9B1005EB83013A6809B145F82B
:10159000232094E882007F1ABF104FEA870703D008
:1015A00028463A460BF070FA20682F44043708B1F9
:1015B00007F0E8FF84E8A00005EB8605A560F8BD0C
:1015C000F8B590E84800F61AB61014BF3346012368
:1015D0009B1904460F466FF0404603D2B34238BF12
:1015E0001E4626B1B00007F0C9FF054600E03546AB
:1015F00062682368D31A9B1005EB83013A6809B12E
:1016000045F8232094E882007F1ABF104FEA87072D
:1016100003D028463A460BF037FA20682F440437A7
:1016200008B107F0AFFF84E8A00005EB8605A560D0
:10163000F8BD38B542688468A242034606D00968FE
:1016400002B111605A6804325A6038BDFFF7B8FF22
:1016500038BDF8B590E84800F61AB61014BF334606
:1016600001239B1904460F466FF0404603D2B34254
:1016700038BF1E4626B1B00007F080FF054600E0E7
:10168000354662682368D31A9B1005EB83013A68DC
:1016900009B145F8232094E882007F1ABF104FEA71
:1016A000870703D028463A460BF0EEF920682F440E
:1016B000043708B107F066FF84E8A00005EB860553
:1016C000A560F8BD1FB503694269019193420446C4
:1016D00005D003B1196023690433236103E00C30A2
:1016E00001A9FFF7FBFE0198FFF758F90238072818
:1016F00034D8DFE800F03133331616331F04E369C2
:10170000216A019A03928B4205D003B11A60E36902
:101710000433E36122E004F1180003A9FFF717FF87
:101720001CE004A9019B41F8043D04F12400FFF7EB
:1017300080FF13E0636BA16B019A03928B4205D08B
:1017400003B11A60636B0433636307E004F1300094
:1017500003A9FFF77EFF01E0019B236404B010BDE5
:1017600006F090BB014B0360704700BF10CE000035
:1017700010B5034B0360044607F004FF204610BD7C
:1017800010CE000038B50A4D83682A68D31A8B4200
:1017900004460BD90D2006F08BFDD0F1010138BFB6
:1017A00000210D2006F064FD2B68A36038BD00BF4A
:1017B000FC8CFF1F0171704710B5064B03600023BE
:1017C00004460371836001210D2006F07FFD204651
:1017D00010BD00BF10CE00000079704703790BB137
:1017E000642101E04FF47A71FFF7CCBF054B10B5CF
:1017F00004460360006908B107F0C6FE00232361B8
:10180000204610BD40CE000010B50446FFF7EEFFA5
:10181000204607F0B7FE204610BDFFFF054A0260D4
:10182000002202710261C260826042718271C271E3
:10183000704700BF40CE000003790BB100697047CC
:101840001846704710B50446006908B107F09CFEC1
:10185000002323612371A371E371E360A36010BDD2
:10186000007970470B78132B35D00FD8082B23D075
:1018700005D8062B28D023D8022B25D02DE00C2B01
:1018800020D00F2B20D00B2B27D119E0652B17D0A0
:1018900007D8512B12D0642B0ED0142B1DD10D2341
:1018A0001CE06C2B08D0752B10D0672B15D10E23A4
:1018B000C3600123437112E00E230FE012230DE0F9
:1018C00007230BE0082309E00B2307E00623C3608E
:1018D0000123C37103E0092300E00023C360C06853
:1018E000704770B50446C0680E4607F049FE0023F5
:1018F0000546B342206903DAC25CEA540133F8E7D3
:1019000008B107F041FE256170BDCB88102B21D8AE
:10191000DFE803F00F1A1A1120180B131A091A1A0C
:101920000D1A1C201E00262313E0522311E05A2317
:101930000FE022230DE015230BE00E23C3600123EB
:10194000037107E01E2304E0122302E02A2300E0D3
:101950001023C360C0687047F8B5044606F094FDD4
:1019600000284FD02379002B4CD1A379002B39D0FC
:101970002579002D35D106F087FD0028F8D0E368E1
:10198000002B12DC06F03EFD04F114012075A56069
:101990002046FFF767FF07F0F3FDA368227D206173
:1019A000C254A3680133A360E2E7A6689E42DFDA6F
:1019B000731CA360276906F025FDB855A668E36887
:1019C0009E42D5D1637913B901232371D0E72169F0
:1019D0002046FFF79AFF20463146FFF782FF6571E8
:1019E000C6E7F8BD06F00EFDC0B2FE2802D1012305
:1019F000A371F8BDFC2805D104F0A8FEBDE8F840AD
:101A000004F0C2BEF8BDC079704706F03BBAFFFFD4
:101A100010B5034B03600446FEF798FF204610BD47
:101A200050CE000010B50446FFF7F2FF204607F045
:101A3000A9FD204610BDFFFF37B5069D0095044661
:101A4000FEF796FF024B2360204603B030BD00BF77
:101A500050CE0000084B10B504460360D0F8AC002F
:101A600008B107F08FFD0023C4F8AC30204600F029
:101A70000DFB204610BD00BF78CE000010B5044617
:101A8000FFF7E8FF204607F07DFD204610BD10B5AA
:101A90000368017A1C7843681A78437A1A40837A7B
:101AA0000C4203F0030318BF43F004030AB143F0F0
:101AB00008039A10013B82720D2B14D8DFE803F063
:101AC000070A0D0A1310070710130A0D0A07C36847
:101AD000013307E0C368013B04E0C368023301E05F
:101AE000C368023BC36010BD08B5034BD3F8840044
:101AF000FFF7CDFF08BD00BF2C89FF1F08B5034BC2
:101B0000D3F88000FFF7C3FF08BD00BF2C89FF1F7B
:101B100008B5024BD86FFFF7BAFF08BD2C89FF1F2D
:101B200008B5024B986FFFF7B2FF08BD2C89FF1F65
:101B300008B5024B586FFFF7AAFF08BD2C89FF1F9D
:101B400008B5024B186FFFF7A2FF08BD2C89FF1FD5
:101B500008B5024BD86EFFF79AFF08BD2C89FF1F0E
:101B600008B5024B986EFFF792FF08BD2C89FF1F46
:101B700008B5024B586EFFF78AFF08BD2C89FF1F7E
:101B800008B5024B186EFFF782FF08BD2C89FF1FB6
:101B900008B5024BD86DFFF77AFF08BD2C89FF1FEF
:101BA00008B5024B986DFFF772FF08BD2C89FF1F27
:101BB00008B5024B586DFFF76AFF08BD2C89FF1F5F
:101BC00008B5024B186DFFF762FF08BD2C89FF1F97
:101BD00008B5024BD86CFFF75AFF08BD2C89FF1FD0
:101BE00008B5024B986CFFF752FF08BD2C89FF1F08
:101BF00008B5024B586CFFF74AFF08BD2C89FF1F40
:101C000008B5024B186CFFF742FF08BD2C89FF1F77
:101C100008B5024BD86BFFF73AFF08BD2C89FF1FB0
:101C200008B5024B986BFFF732FF08BD2C89FF1FE8
:101C300008B5024B586BFFF72AFF08BD2C89FF1F20
:101C400008B5024B186BFFF722FF08BD2C89FF1F58
:101C500008B5024BD86AFFF71AFF08BD2C89FF1F91
:101C600008B5024B986AFFF712FF08BD2C89FF1FC9
:101C700008B5024B586AFFF70AFF08BD2C89FF1F01
:101C800008B5024B186AFFF702FF08BD2C89FF1F39
:101C900008B5024BD869FFF7FAFE08BD2C89FF1F73
:101CA00008B5024B9869FFF7F2FE08BD2C89FF1FAB
:101CB00008B5024B5869FFF7EAFE08BD2C89FF1FE3
:101CC00008B5024B1869FFF7E2FE08BD2C89FF1F1B
:101CD00008B5024BD868FFF7DAFE08BD2C89FF1F54
:101CE00008B5024B9868FFF7D2FE08BD2C89FF1F8C
:101CF00008B5024B5868FFF7CAFE08BD2C89FF1FC4
:101D000008B5024B1868FFF7C2FE08BD2C89FF1FFB
:101D100008B5212800F2D580DFE810F02200270066
:101D20002C00310036003C00410046004B005000C2
:101D300055005A005F00640069006E00730078006F
:101D40007D00820087008C00910096009B00A0001F
:101D5000A500AA00AF00B400B900BE00C300CD00CA
:101D6000594B002019605949A0E0574B0120596098
:101D700057499BE0544B02209960564996E0524BDC
:101D80000320D960544991E04F4B04201961024669
:101D900052498CE04C4B05205961514986E04A4B31
:101DA000062099614F4981E0474B0720D9614E4990
:101DB0007CE0454B082019624C4977E0424B0920F2
:101DC00059624B4972E0404B0A20996249496DE0E3
:101DD0003D4B0B20D962484968E03B4B0C2019630E
:101DE000464963E0384B0D20596345495EE0364B68
:101DF0000E209963434959E0334B0F20D963424980
:101E000054E0314B1020196440494FE02E4B112013
:101E100059643F494AE02C4B122099643D4945E002
:101E2000294B1320D9643C4940E0274B1420196505
:101E30003A493BE0244B15205965394936E0224B9D
:101E400016209965374931E01F4B1720D96536496F
:101E50002CE01D4B18201966344927E01A4B192035
:101E60005966334922E0184B1A20996631491DE022
:101E7000154B1B20D966304918E0134B1C201967FD
:101E80002E4913E0104B1D2059672D490EE00E4BD3
:101E90001E2099672B4909E00B4B1F20D9672A495F
:101EA00004E0094BC3F8801028492020042206F0E2
:101EB00071F9012008BD044B2120C3F88410244986
:101EC000F4E7002008BD00BF2C89FF1F011D0000A2
:101ED000F11C0000E11C0000D11C0000C11C00002E
:101EE000B11C0000A11C0000911C0000811C00001E
:101EF000711C0000611C0000511C0000411C00000E
:101F0000311C0000211C0000111C0000011C0000FD
:101F1000F11B0000E11B0000D11B0000C11B0000F1
:101F2000B11B0000A11B0000911B0000811B0000E1
:101F3000711B0000611B0000511B0000411B0000D1
:101F4000311B0000211B0000111B0000FD1A0000C6
:101F5000E91A0000F0B599B0DDE91E45CDE900456C
:101F6000DDE92045CDE90245229C0494239C05949B
:101F7000249C0694259C0794DDE92645CDE9084577
:101F8000DDE92845CDE90A45DDE92A45CDE90C45DD
:101F9000DDE92C45CDE90E452E9C10942F9C119423
:101FA000309C1294319C1394329C1494339C15945D
:101FB0000646349C169400F08BFA224B33601420B2
:101FC00007F0DCFA9DF8D4709DF8D8500446022141
:101FD000384606F07BF92846022106F077F91A4ABE
:101FE00052F8373003F5007121600121217252F857
:101FF0003520617202F500700021E16060604FF4ED
:10200000FA4101397FF4FDAF93F8003292F80022D3
:1020100003F00103D20744BF43F00203DBB2A37213
:1020200021463846FFF774FE214620742846FFF704
:102030006FFE237C184420743046C6F8AC4019B0BB
:10204000F0BD00BF78CE0000C8D1000070B50546D5
:1020500000F060F8D5F8AC40237C012B064604D88C
:1020600072B62046FFF713FD00E072B6E36862B671
:10207000D5F8A80058430AF051FA014630460AF054
:1020800099F94FF07C510AF09DFA70BD0C4B10B5D8
:1020900004460360806A08B107F074FA206A10B140
:1020A00003689B689847606A08B107F06BFA0023E1
:1020B00063622362A3622046FFF7AAFC204610BD9C
:1020C000A0CE000010B50446FFF7E0FF204607F061
:1020D00059FA204610BD022938B50446104609D0E9
:1020E00003290DD0012910D109F0F8FDA56AC5E931
:1020F0000A010AE009F0F2FDA56AC5E90C0104E055
:1021000009F0ECFDA56AC5E90E01A06ABDE83840FA
:1021100000F03EBB38B5446A237C012B054604D849
:1021200072B62046FFF7B3FC00E072B6E36862B611
:10213000D5F8A80058430AF0F1F938BDFFFFFFFFBA
:102140002DE9FF47424B8246186809F0A5FDDAE900
:102150001423CDE9000109F061FCDAE924230646E5
:102160000F4600203B4909F037FF00223A4B09F0A7
:1021700009FE02460B46304639460AF089F8002827
:102180005DD0DAF800305046DB69984709F0A6FDCB
:10219000DAE91E23CDE9020109F040FC02460B46B4
:1021A00009F03EFC28A3D3E9002309F0EBFD8046AB
:1021B000DAF89800894609F07FFD02460B46404652
:1021C000494609F009FF00228046894630463946D3
:1021D000214B09F001FF02460B464046494609F0F3
:1021E000FBFEDAE9224502460B462046294609F065
:1021F000C9FD22462B4606460F460020154909F028
:102200000DFC0446DAF848000D4609F067FD024669
:102210000B462046294609F0B5FD02460B463046DE
:10222000394609F0FDFB0AF06FF8DDE90223CAE93F
:102230001E23DDE90023CAE91423CAF8480004B0CC
:10224000BDE8F087AFF3008000000060FB2109408B
:10225000FC8CFF1F0000F03F00408F40AFF3008078
:1022600008B5006A03681B68984708BD2DE9F04768
:102270001F4690F83030DFF86C90804616465BB908
:10228000D9F80000D8F8284009F006FD0022144BC8
:1022900009F0A2FEC4E90401D8F860A0012388F87F
:1022A0003030504609F01AFD32463B4604460D4692
:1022B00009F0DAFF60B90AF1004009F00FFD32467B
:1022C0003B4604460D4609F0EDFF08B934463D464D
:1022D000D9F80030C8F83430C8E92045BDE8F087A7
:1022E00000408F40FC8CFF1F10B50446D1F807005A
:1022F00009F0F4FC02460B462046BDE81040FFF70B
:10230000B5BFFFFF38B5184B1A6890F83030044657
:10231000002B28D0436BD21A836B9A4223D9002218
:10232000002500230021C0E91A23C0E91C23C0E9CD
:102330002023816480F83050006A036829461B68B6
:102340009847206A036829461B689847206A0368F3
:1023500029461B689847A06A00F01AFA206A0368A9
:1023600029461B68984738BDFC8CFF1F38B50368A9
:10237000DB690446984701460AF01CF806490AF052
:1023800021F90546D4F898000AF0C8F80146284615
:102390000AF0CCF9206438BDDB0F4940224B2DE90F
:1023A000D0430446186809F077FCD4E91623804628
:1023B000894609F033FBD4E9282306460F4600205E
:1023C0001A4909F009FE0022194B09F0DBFC02460C
:1023D0000B463046394609F065FF18B3E36B012B15
:1023E00002D1A06C606403E02046FFF7BFFF206CC1
:1023F00009F074FCC4E91A01A06A00F0CFF9E06AA0
:1024000009F05AFCD4E91C2309F0BCFCC4E9168984
:10241000C4E91C0109F050FF01462046BDE8D04345
:10242000FFF71EBFBDE8D083FC8CFF1F0000F03F0C
:1024300000408F4010B50446FFF782FE94F830301C
:1024400023B12046BDE81040FFF7A8BF10BD10B56E
:102450000446FFF757FF2046BDE81040FFF7EABFEC
:102460001FB50446FEF7A0FA68B3A36C63646A2341
:102470008DF800300F238DF80130204641F2010322
:10248000ADF80230FEF78EFA8DF806002046FFF711
:102490006DFF636CCDF80B309DF80110CDF807008F
:1024A0000023ADF804301A468B4205DA1DF803000C
:1024B000024492B20133F7E7E069ADF80420036803
:1024C00069461B69984704B010BDFFFFFFFFFFFF7F
:1024D0002DE9F04389B0074600930623DDF85090BC
:1024E000159EFFF7A9FA604B3B60239BFB6300231B
:1024F00087F83030229BBB63DDE91823C7E9282326
:10250000DDE91023C7E92223DDE91223C7E92423EB
:10251000219AC7F89820249AFA6240F2E732002400
:10252000002500239145C7E91A457B643B64C7E950
:102530001C45C7E91E45C7E9204598460AD1102029
:1025400007F01CF831460446484D03F0FBFF3C629F
:1025500000240BE00C2007F011F8494604463246EF
:1025600004F03EF83C623EA5D5E90045404E336894
:102570007B63306809F090FBC7E91401306809F00B
:102580008BFBC7F84880C7E91601582006F0F6FF14
:10259000DDE91A23CDE90023DDE91C23CDE902237F
:1025A000DDE91E23CDE90423269B069307F168028B
:1025B00007F18003064607F1700100F0B5F8BE622E
:1025C0001420C6E9064506F0D9FF9DF858609DF82D
:1025D0005C5004460221304605F078FE2846022170
:1025E00005F074FE234A52F8363003F5007121607D
:1025F0000121217252F83520617202F5007000212C
:10260000E16060604FF4FA4101397FF4FDAF93F867
:10261000003292F8002203F00103D20744BF43F0D6
:102620000203DBB2A37221463046FFF771FB21465D
:1026300020742846FFF76CFB237C1844209B2074F1
:102640003B66259B7C623846C7F8A8300A21FEF716
:10265000A7F9384609B0BDE8F08300BFAFF30080AA
:102660000000000000C05F40A0CE000000407F409E
:10267000FC8CFF1FC8D1000010B5002204460023C7
:102680000021C0E91A2380F830100020A064206ADD
:10269000C4E91C23C4E9202303681B689847A06A87
:1026A000BDE8104000F074B8014A01704260704704
:1026B0008C8EFF1F70B50446406803680E461B6889
:1026C0002178154698476068036831461B6898472B
:1026D0006068036829461B68984760682278036829
:1026E0003544A9181B6801F07F01984770BD7E2A08
:1026F000A8BF7E226FF07D039A42B8BF1A46002A17
:10270000B8BF5242D2B2FFF7D5BF4B1E012B10B556
:1027100009D8022914BF0021042101EBD271BDE8C0
:102720001040FFF7E4BF10BD10B580E80E00DDE9F2
:102730000223C0E90A23DDE90423C0E90C23DDE913
:102740000623C0E90E23104B0446186809F0A4FACA
:1027500000220E4B09F040FC00220023C4E91223A2
:10276000C4E9102306A3D3E90023C4E90401C4E9A2
:102770000623089809F0B2FAC4E91401204610BDF6
:102780000000000000C05F40FC8CFF1F00408F4035
:1027900000220023C0E910237047FFFF2DE9F04F0E
:1027A0004F4B87B08046186809F076FA00224D4BEF
:1027B00009F012FCD8E90423CDE9040109F02EF94F
:1027C000D8F80820D8F80430CDE90001D2E900019A
:1027D000D3E9002309F022F9D8E9062382468B4683
:1027E000D8E9140109F0CEFADDE9002306460F46C8
:1027F0005046594609F0C6FAD8E9102309F010F9F5
:1028000032463B46CDE9020109F04CFD10B1C8E962
:10281000106710E007F10045DDE9020132462B4662
:10282000344609F021FD20B9DDE90223C8E910236F
:1028300001E0C8E91045D8E90A235046594609F095
:10284000A1FAD8E9102304460D46D8E90C0109F095
:1028500099FA02460B462046294609F0E1F8D8E9E4
:10286000122304460D465046594609F0D7F8DDE9D3
:10287000002309F0B1FBD8E90E2309F083FA0246E0
:102880000B462046294609F0CBF8D8F800900446BC
:102890000D46C9E90045D8E9066732463B4609F0CE
:1028A00001FD08B134463D46C9E90045D8F81C3061
:1028B000D8F8186003F100472046294632463B46C7
:1028C00009F0D2FC08B134463D46DDE90423C9E9EC
:1028D0000045C8E912ABC8E9042307B0BDE8F08F92
:1028E000FC8CFF1F00408F4010B5034B0360044673
:1028F000FEF72CF8204610BDC8CE000010B50446E7
:10290000FFF7F2FF204606F03DFE204610BDFFFF18
:1029100037B5069D1B7800950446FEF729F8064B4F
:102920002360079B63639DF8243084F82030089B64
:102930002363204603B030BDC8CE000090F820309D
:1029400043B1D1F806308362D1F80A30C362D1F8BE
:102950000E304362704713B5D1F80630019302ABD5
:10296000D1F80A2043F8082D0268D46993E80600DC
:10297000A04702B010BDFFFF10B5034B0360044633
:10298000FFF7B2FF204610BDF0CE000010B50446A0
:10299000FFF7F2FF204606F0F5FD204610BD2DE9B9
:1029A000F74302AB03E90600476B009E019D044616
:1029B0003946304609F0BAFE216B8046284609F0B8
:1029C00001FE39468146384609F0F4FC0146484686
:1029D00009F0ACFE0146404609F0ECFC09F07EF936
:1029E00002460B46E06BFFF741FC676B3046394609
:1029F00009F09CFE216B0646284609F0E3FD3946A6
:102A00000546384609F0D6FC0146284609F08EFEF8
:102A10000146304609F0CCFC09F060F90246A06B93
:102A20000B4603B0BDE8F043FFF720BC10B50446E9
:102A3000C06BFFF767FCE06BFFF7FCFCA06BFFF7D8
:102A400061FCA06BBDE81040FFF7F4BCFFFFFFFF87
:102A5000F8B51046194614A3D3E9002308F0E0FFA7
:102A600013A3D3E9002306460F4606F017FF002202
:102A700004460D4630463946002309F0F5FB40B1C7
:102A8000204629460AA3D3E9002308F0C9FF0446DB
:102A90000D462046294604A3D3E9002308F0BEFFD3
:102AA000F8BD00BFAFF3008000000060FB210940CB
:102AB00000000060FB21194038B50446C06BFFF7E9
:102AC00055FC616C054609F073FC616B09F07AFDF9
:102AD000656438BD38B50446806BFFF747FC216C50
:102AE000054609F065FC616B09F06CFD256438BD95
:102AF000002170B50646016041601046194600226B
:102B0000094B09F03FF904460D4606F027FE09F08F
:102B1000FBFB2946B060204606F0E6FD09F0F4FB19
:102B2000F060304670BD00BF0000E03F2DE9F04F7F
:102B300091B08246FDF738FF002800F0A380504690
:102B4000FFF7BAFF04465046FFF7C4FF0546294683
:102B5000204609F02FFC4FF07C5109F033FD294647
:102B60008346204609F024FCDAF8301009F0DEFD37
:102B7000DAF8481009F026FDDAF8241009F01AFCFA
:102B8000CAF8240009F0AAF802460B465046FFF79F
:102B90005FFF09F0B9FB8146CAF82400584609F0E6
:102BA0009DF8064648460F4609F098F804460D463B
:102BB00006F09AFD0246DAF828000192009109F029
:102BC0008DF8019A009BCDE902013046394609F0A3
:102BD000D9F80B460246DDE9020108F021FF09F0B1
:102BE00093FB29468046CAF82800204606F0B6FD29
:102BF0000246DAF82C000192009109F06FF8019A70
:102C0000009BCDE902013046394609F0BBF8024687
:102C10000B46DDE9020108F003FF09F075FB2246CF
:102C20000646CAF82C002B4604A85146FFF760FF61
:102C30006C238DF820301E23069A8DF8213041F246
:102C40000103ADF82230CDF832200023079ACDF8E9
:102C50003620ADF82430CDF82680CDF82A60CDF8A6
:102C60002E90CDF83AB01A4608A9505C01320344C0
:102C70001E2A9BB2F8D1DAF81C00ADF824300368A4
:102C80001B69984711B0BDE8F08FFFFF70B586B0A3
:102C900006AD002605F8016D00930A9B01930B9B7E
:102CA00002930123044603932B46FFF731FE084BA2
:102CB00023600C9BA3630D9BE36300232364636485
:102CC0006362A362E3620E9BA364204606B070BDFC
:102CD000F0CE00007047FFFF10B5034B03600446C1
:102CE000FDF734FE204610BD18CF000010B5044695
:102CF000FFF7F2FF204606F045FC204610BDFFFF1F
:102D000038B5054690F8200005F044F804462846FA
:102D1000FDF744FE0A28204603D109F0FFFB0749CE
:102D200002E009F0FBFB064909F04CFC054909F0FB
:102D3000FDFC054909F0FAFC38BD00BF0000A045C4
:102D400033334B4600FF7F4700007A4430B585B0EF
:102D50000446FDF729FE40B36D238DF804300B23A4
:102D600000258DF80530204641F20103ADF806300C
:102D7000ADF80850FDF716FE8DF80A002046FFF763
:102D8000BFFFCDF80B009DF805002B462A46834275
:102D900001A904DAC95C0A4492B20133F7E7E06999
:102DA000ADF8082003681B69984705B030BDFFFFE8
:102DB00073B5079D069E1B7800960446FDF7D8FD67
:102DC0000A4B2360012D01D10E2303E0022D0CBF1D
:102DD0000F231023236294F82000002105F076FAD7
:102DE000102004F0ADFF204602B070BD18CF0000E7
:102DF0007047FFFF10B5034B03600446FDF7A6FDC7
:102E0000204610BD38CF000010B50446FFF7F2FF92
:102E1000204606F0B7FB204610BD37B50446FDF747
:102E2000C3FD68B36E238DF80030082300258DF8AC
:102E30000130204641F20103ADF80230ADF80450F4
:102E4000FDF7B0FD8DF8060094F8200005F030FA8B
:102E5000431B584258419DF801108DF807002B463E
:102E60002A468B4205DA1DF80300024492B2013370
:102E7000F7E7E069ADF80420036869461B699847E5
:102E800003B030BD13B5044600930123FDF770FD78
:102E9000094B2360049B012B0CBF0B230C232362E3
:102EA00094F82000022105F011FA102004F048FFE8
:102EB000204602B010BD00BF38CF0000027A012AC0
:102EC00070B5044608D0022A0DD1007905F0F0F95A
:102ED000031C18BF012306E0007905F0E9F9D0F1E1
:102EE000010338BF00237BB12269E368D31A9E1027
:102EF0000025B54206DAE36853F82500FFF7BCFB6E
:102F00000135F6E7012070BD184670BD044B10B5C1
:102F100004460360C06808B106F034FB204610BDCB
:102F200058CF000010B50446FFF7F0FF204606F02A
:102F300029FB204610BDFFFF10B5094B036000239D
:102F4000C36003614361027204464160C8B202215A
:102F500005F0BCF9102004F0F3FE204610BD00BFC0
:102F600058CF0000094B10B504460360806E10B1C5
:102F700003685B6898470023A36604F16C0001F0C6
:102F800036FA2046FDF7E2FC204610BD70CF000067
:102F900010B50446FFF7E6FF204606F0F3FA204698
:102FA00010BDFFFF38B50446C8300D4600F010FDD7
:102FB0000368A0661B699847002809DDA36EE069D5
:102FC0001A797AB95B796BB103680E495B690DE0D8
:102FD000002384F80C3120466FF00101BDE8384031
:102FE000FDF7DEBC036808495B69002298470121B0
:102FF00084F8C05084F8C11084F8C21084F80C1111
:103000002046EBE788CF0000A2CF00002DE9F04377
:10301000614BD3F80090436E93B00446B0F81801AA
:10302000C3EB090509F076FA01464FF07E5009F02E
:103030007DFB5A4909F0C6FA09F08AFC854240F244
:10304000A780A06E03689B699847002800F09E80C7
:1030500094F80D31002B64D102A800F08BFE05A876
:1030600000F088FE08A800F085FEA16E02A81431C9
:1030700000F064FEA16E05A8083100F05FFEA16EAD
:1030800008A8203100F05AFEA36EDB6A009302AA62
:1030900005A904F16C0008AB01F0D8FAA06E036832
:1030A0001B6A98470EA801F018F80BA800F062FE02
:1030B00004F1B4010BA800F041FE04F1A4010EA834
:1030C00000F040FF029B2362039B6362049BA362A8
:1030D000059BE362069B2363079B6363089BA363D3
:1030E000099BE3630A9B23640E9B63640F9BA364A9
:1030F000109BE364119B236529490C980D9E0B9D41
:1031000009F060FA26496065304609F05BFA216EE5
:1031100009F04EF92249A065284609F053FAE06506
:1031200034E094F80E6116BB0DF13808404600F00B
:1031300021FEA16E4046203100F000FE254658F8E1
:103140000670D5F8F410384609F0DAFB08B1C5F876
:10315000F4703846D5F8001109F0F0FB08B1C5F855
:10316000007104360C2E05F10405E8D10EE00025AF
:10317000012384F8F23084F80D5184F80E5128466A
:1031800004F1F00101F046FFA36E1D71C4F86490D4
:1031900013B0BDE8F08300BFFC8CFF1F00007A4431
:1031A000E02E654230B5044693B0FFF72FFF20466E
:1031B000FDF7FAFB00286BD094F80D3103AD002B1E
:1031C0003AD16F228DF80C203A228DF80D2041F271
:1031D0000102ADF80E20E26ACDF81220226BCDF884
:1031E0001620626BCDF81A20226ACDF81E20626A82
:1031F000CDF82220A26ACDF82620A26BCDF82A2095
:10320000E26BCDF82E20226CCDF83220626CCDF826
:103210003620A26CCDF83A20E26CCDF83E20226D2B
:10322000CDF84220ADF810301A46A95C01320B44AB
:103230003A2A9BB2F9D124E0684600F09BFDA16ECA
:103240006846203100F07AFD7923009A8DF80C3021
:1032500012238DF80D30CDF8122041F20103019AAE
:10326000ADF80E30CDF816200023029ACDF81A20C2
:10327000ADF810301A46A95C01320B44122A9BB2F9
:10328000F9D1E069ADF81030036829461B69984709
:1032900013B030BD03460321002201391A62DA62FD
:1032A0009A639A6403F10403F6D14FF07E534364AA
:1032B0007047FFFF37B504461D46009203230022E6
:1032C000FDF756FB2046194B40F86C3B01F0B4F873
:1032D00004F1C80000F055FB154800F02DF9204618
:1032E000FFF7D8FF20460021FDF75AFB0023256693
:1032F000E36500256365A365BDF81830A4F81831AF
:10330000C4F81451C4F8105184F80C5184F80D51CC
:10331000656620469DF81C10FFF744FE94F80C31BA
:103320000BB184F80E51204603B030BD70CF0000C1
:10333000088AFF1F10B5044604F1F001002001F0D7
:103340007EFE002384F8F230084B094AC4F80031AD
:10335000C4F80431C4F80831A36EC4F8F420C4F8EA
:10336000F820C4F8FC2001221A7110BD809618CBF9
:103370008096184B10B590F80D318A7904460BB140
:1033800012B110BD22B910BD012380F80E3110BD5D
:1033900080F80E31FFF7CEFF012384F80D3110BD08
:1033A00004F070BD044BD878044B1A68C0B2904248
:1033B00018BF1860704700BF006006406887FF1F95
:1033C00008B5FFF7EFFF8307FBD5024B0222DA7047
:1033D00008BD00BF00600640094B1B7813B9094BBC
:1033E0001B782BB1084A1378202B03D901230371D2
:1033F00000207047581C1070044A0120D1547047B7
:103400001A8AFF1FDD89FF1F1B8AFF1FBC89FF1F50
:103410007047FFFF024B1878024B1B78C01A7047A9
:10342000198AFF1F188AFF1F064A0749137809786F
:10343000994204D9591C1170044AD05C70474FF06E
:10344000FF307047188AFF1F198AFF1FDE89FF1F90
:10345000054B064A1B7812789A4286BF044AD05C14
:103460004FF0FF30704700BF188AFF1F198AFF1FF7
:10347000DE89FF1F70B50E4B1B78144613B90D4B38
:103480001B7893B10C4A1578C5F121039C4216466E
:1034900002D9012202711C460848224628442544CC
:1034A00003F0E8FD3570204670BD184670BD00BFC2
:1034B0001A8AFF1FDD89FF1F1B8AFF1FBC89FF1FA0
:1034C00010B5114BDB7803F0200303F0FF045BB968
:1034D000122004F0A5FE0D4B1B68A3B10C4A14701A
:1034E0000C4A1078984710BD0B4A13780133DBB2B1
:1034F000012B137002D8094B1B7823B91220BDE8A9
:10350000104004F08DBE10BD00600640B889FF1F5A
:10351000188AFF1F198AFF1F048AFF1FDD89FF1FFA
:10352000002202714FF47A710273024A81600260D4
:10353000704700BFD0CF00000C4B00221A700C4B1C
:10354000196841F0400119600A4B0B499A704FF419
:1035500019720A6041F8042C27225A7004229A71C9
:1035600020225A7180229A70704700BFDD89FF1FA8
:1035700034800440006006400CA0044010B5364979
:10358000CB78DBB213F0100F03F0400201D12AB95F
:103590002CE01020C870002AF9D110BD03F00403FC
:1035A00003F0FF012D4AC3B1002313702C4A13709E
:1035B0002C4B1B68144603B1984723782A4A1BB941
:1035C0002749137001200870234BD021997012787D
:1035D0001A71264B01221A7039E001231370244B13
:1035E00019701D4BC0229A701B7930E01A4CA278DA
:1035F00002F0100202F0FF01AAB113F001030ED194
:103600001A4917480A780078904203D9531C0B7066
:10361000154B9B5C2371104BD0229A7017E0C0238E
:10362000A370237913E0134B03221970122012495F
:1036300004F0B0FD0E4A217913781F2BC9B206D8C9
:103640000648007818B1581C10700C4AD154024B2F
:103650000222DA7010BD00BF00600640B489FF1F6F
:103660001B8AFF1F008AFF1FBC89FF1F1C8AFF1FC8
:10367000198AFF1F048AFF1FC1340000DE89FF1F63
:10368000044B054A4900197001231370034A137053
:10369000704700BFBC89FF1F1A8AFF1F1B8AFF1FCC
:1036A000F8B52B4B1222DA709A7892060F4601D5A4
:1036B000B42218E0274B1C681D46FFF773FE00F08C
:1036C000200000F0FF0350B12B681B1B0F2BF4D917
:1036D0001F4B00229A7080229A700420F8BD1E4A67
:1036E00013701B4BB0229A70FFF75CFE8306FBD56C
:1036F00000251A4B1B78ECB2A3421FD9184B1A5D58
:10370000134B1A71FFF74EFE860701D48006F9D4D9
:103710000F4E0223F370FFF745FEC10601D4820667
:1037200003D48023B370042009E0C30705F1010529
:10373000DFD5002C0CBF0220032001E0002017B1D0
:10374000034B80229A70074B00221A70F8BD00BF0D
:1037500000600640FC8CFF1FDD89FF1F1B8AFF1FD6
:10376000BC89FF1F1A8AFF1F2DE9F8431446304A0F
:103770001F46002313702F4A13702F4B0D46122142
:10378000D970997811F0200F904601D0B4220BE047
:10379000FFF708FE00F0200000F0FF020028F7D13C
:1037A000264B1A70244BB0229A706B0043F0010331
:1037B000214DDBB22B71FFF703FEFFF7F3FD10F095
:1037C000110004D08023AB700020BDE8F88334B929
:1037D000002F0CBFA0238023AB70BDE8F883012C21
:1037E0000CBFA823A023AB702B79DFF85890264696
:1037F000012E114D0BD0013EFFF7E2FDF6B2012E76
:1038000004BFA823AB702B7909F8013FF0E7FFF75D
:10381000D7FD661EB023AB70F6B2094B2A799A55D4
:103820000FB18023AB7088F800402046BDE8F883D4
:10383000188AFF1F198AFF1F00600640DD89FF1FDD
:10384000DE89FF1FDD89FF1F0123FFF78DBF0121E7
:10385000FFF726BF0148FFF763BE00BF088AFF1FBE
:10386000F8B507460C460D48394615461E46FFF783
:1038700007FF21460948FFF7AFFD0024E3B2AB4242
:10388000064804D2315DFFF7A7FD0134F6E7FFF7E4
:10389000DEFFD0F1010038BF0020F8BD088AFF1F0D
:1038A00007B502AB03F8012D0122FFF7D9FF03B0E2
:1038B0005DF804FB2DE9F74F15462B4ABDF8306043
:1038C000D2F800800193002407468B46A246914619
:1038D000AC4223D225483946FFF7D2FE5946234849
:1038E000FFF77AFD2148FFF7B2FF20483946FFF77E
:1038F000C7FE2A1B202AA8BF20221C483946D2B264
:10390000FFF7A2FF1948FFF785FDC8B1F6B1D9F856
:103910000020C8EB0202B24218D311E05EB1D9F820
:103920000020C8EB0208B04505D34FFA8AF2AA423C
:10393000B8BF4FF0FF0A4FFA8AF003B0BDE8F08F2E
:10394000202DD4BF64192034E4B2C1E74FFA8AF2C3
:1039500006480092FFF768FD9DE80C0098540AF1B4
:1039600001035FFA83FACDE7FC8CFF1F088AFF1F73
:1039700013B51446009301222346FFF79BFF02B0C4
:1039800010BD4FF0FF3202605022026128224261D6
:1039900003228261C26110220262426268220271C5
:1039A000704740797047FFFF014B0360704700BFCD
:1039B000F0CF000090F848007047FFFF10B5034BB0
:1039C0000360044605F0DEFD204610BDF0CF000088
:1039D00038B50546B02005F0D1FD2946044600F073
:1039E0007BFF204638BDFFFF38B5114B044640F839
:1039F000083B0D4600F0BEF904F1140000F0BAF9DE
:103A000004F1200000F0B6F904F14C0000F0B2F926
:103A100004F1580000F0AEF904F17C0000F0AAF9BE
:103A2000002325632371637184F84830204638BD34
:103A3000F0CF00002DE9F043064689B000207071F8
:103A400001A901F0FCFA002845D09DF80630012BB1
:103A500041D1224F6C460DF10C0860690434616855
:103A600008F0A6FC3946054608F068FF00B93D4657
:103A7000444501D02F46F0E72846002108F040FFDA
:103A8000044640BB28464FF07C5108F09BFD35466C
:103A9000814601AB23440434D3F810805F6840466C
:103AA000394608F085FC4FF07C5108F08BFD01464B
:103AB000484608F03BFE39462867404608F07AFC45
:103AC0004FF07C5108F07EFD0C2C686605F1040572
:103AD000DFD10123737109B0BDE8F083000080BF1E
:103AE00010B50446406B08F019FD01464FF08040C8
:103AF00008F01CFE00232064636410BD2DE9FF4123
:103B000000F15806044696E8070001AD04F11407D9
:103B100085E807003946284600F019F9394630464D
:103B200000F00CF9284600F0F2F92A4908F0E8FE06
:103B300004F10806002845D0304600F0E8F926498F
:103B400008F0DEFE00283DD0256C4FF07E5029465F
:103B500008F02EFCE16C074608F034FDA1688046B1
:103B6000284608F02FFD0146404608F023FC216D51
:103B7000E064384608F026FDE1688046284608F0F3
:103B800021FD0146404608F015FC616D2065384670
:103B900008F018FD21690746284608F013FD014684
:103BA000384608F007FC636B626C606503EB8303C7
:103BB0009A4207DA01329A4208BF0123626408BFC1
:103BC00084F84830304604F14C0100F0C0F804B0ED
:103BD000BDE8F0810BD7233B0BD7233D38B50379E4
:103BE0000446CBB94379BBB1006A616E08F0E0FBD3
:103BF000216F08F0E7FCA16E2062606A08F0D8FB34
:103C0000616F08F0DFFCE16E6062A06A08F0D0FB33
:103C1000A16F08F0D7FCA062206A1A4908F0D2FC14
:103C200019490546E06F08F0CDFC0146284608F02A
:103C3000C1FB1449E067606A08F0C4FC12490546FC
:103C4000D4F8800008F0BEFC0146284608F0B2FB1C
:103C50000C49C4F88000A06A08F0B4FC0A49054683
:103C6000D4F8840008F0AEFC0146284608F0A2FB18
:103C700004F17C01C4F8840004F12000BDE8384060
:103C800000F05CB8CDCC4C3ECDCC4C3F10B50B4CCD
:103C90004FF07C51A4EB600408F094FC214608F03E
:103CA00091FC214608F08EFC01464FF07F5008F051
:103CB0007FFB0146204608F085FC10BDDF59375FC9
:103CC00070B5044616460D4602784078B3B140EA16
:103CD000022000B208F022FC314608F073FC286094
:103CE000E378A07843EA002000B208F017FC3146E0
:103CF00008F068FC68602079637915E042EA0020EA
:103D000000B208F00BFC314608F05CFC2860A37898
:103D1000E07843EA002000B208F000FC314608F0E9
:103D200051FC68606079237943EA002000B208F012
:103D3000F5FB314608F046FCA86070BD884205D00E
:103D40000B6803604B6843608B688360704770B595
:103D500005460E4600242859315908F029FB285100
:103D600004340C2CF7D1284670BD00230360436057
:103D70008360704710B50446FFF7F7FF204610BD7B
:103D800070B505460C460068096808F01BFC6168C0
:103D90000646686808F016FC0146304608F00AFB43
:103DA000A1680646A86808F00DFC0146304608F0F8
:103DB00001FB70BDF8B505460C464068896816469B
:103DC00008F000FC61680746A86808F0FBFB0146A4
:103DD000384608F0EDFA30602168A86808F0F2FB78
:103DE000A1680746286808F0EDFB0146384608F050
:103DF000DFFA70606168286808F0E4FB2168074614
:103E0000686808F0DFFB0146384608F0D1FAB06078
:103E1000F8BD2DE9F041D0F800804768866841463A
:103E20000446404608F0CEFB39460546384608F0C1
:103E3000C9FB0146284608F0BDFA31460546304622
:103E400008F0C0FB0146284608F0B4FAFFF71EFF51
:103E50000021054608F04AFDA0B928464FF07E51E2
:103E600008F044FD70B92946404608F0ABFB2946EE
:103E70002060384608F0A6FB29466060304608F00E
:103E8000A1FBA060BDE8F0812DE9FF410E4607C807
:103E900001AB83E807001846FFF7BBFF029807F065
:103EA0001DFF044603980D4607F018FF02460B4617
:103EB0002046294605F0F0FC08F026FA306001980B
:103EC00007F00CFF04460298DDF80C800D46014611
:103ED00008F078FB41460746404608F073FB014670
:103EE000384608F067FA07F0F9FE05F031FD0246A2
:103EF0000B462046294605F0CFFC08F005FA0023C2
:103F000000F100407060B36004B0BDE8F08103468A
:103F1000006870B501465E689D6808F053FB314645
:103F20000446304608F04EFB0146204608F042FAAF
:103F300029460446284608F045FB0146204608F07D
:103F400039FA70BD884207D00B6803604B68436044
:103F50008B688360CB68C360704770B505460E46BA
:103F600000242859315908F025FA28510434102C1E
:103F7000F7D1284670BD70B505460E460024285975
:103F8000315908F015FA28510434102CF7D128467D
:103F900070BDF0B58BB0044601A80D46FFF7E5FEF5
:103FA00004A8FFF7E2FE07A8FFF7DFFE63680193AE
:103FB000A3680293E36803936B680493AB6805936B
:103FC00004A9EB68069301A8FFF7DAFE07AA0746E3
:103FD00004A901A8FFF7EEFE26682968304608F01C
:103FE000F1FA394608F0E4F904992060304608F007
:103FF000E9FA01990746286808F0E4FA01463846CC
:1040000008F0D8F9079908F0D5F9059960603046AD
:1040100008F0D8FA02990746286808F0D3FA014652
:10402000384608F0C7F9089908F0C4F90699A06065
:10403000304608F0C7FA03990646286808F0C2FA25
:104040000146304608F0B6F9099908F0B3F9E06086
:1040500020460BB0F0BD38B5044600680D4608F0A8
:10406000B1FA29462060606808F0ACFA2946606021
:10407000A06808F0A7FA2946A060E06808F0A2FA54
:10408000E060204638BD38B5044615460FC984E8BF
:104090000F0020462946FFF77CFF204638BD38B583
:1040A000044615460FC984E80F0020462946FFF74D
:1040B000D2FF204638BD38B5044615460FC984E8FE
:1040C0000F0020462946FFF756FF204638BD002343
:1040D000036043608360C360704710B50446FFF718
:1040E000F6FF204610BD2DE9F843D0F80090D0F837
:1040F00004808768C66849460446484608F062FA64
:1041000041460546404608F05DFA0146284608F05B
:1041100051F939460546384608F054FA0146284612
:1041200008F048F931460546304608F04BFA01469A
:10413000284608F03FF9FFF7A9FD0021054608F0E1
:10414000D5FBC8B928464FF07E5108F0CFFB98B98F
:104150002946484608F036FA29462060404608F0CD
:1041600031FA29466060384608F02CFA2946A060EA
:10417000304608F027FAE060BDE8F8832DE9F843FF
:104180000746D0F80890D0F804800E464846F968F3
:1041900008F018FA39680446404608F013FA014658
:1041A000204608F007F9014608F004F907F096FDEB
:1041B00004460D464046414608F004FA494680460A
:1041C000484608F0FFF90146404608F0F3F801467A
:1041D00008F0F0F801464FF07E5008F0E9F807F0DB
:1041E0007DFD02460B462046294605F055FB08F0AA
:1041F0008BF83060B968386808F0E4F9F96804466B
:10420000786808F0DFF90146204608F0D1F8014649
:1042100008F0D0F807F062FD05F0EAFA08F074F84B
:104220007060D7F808907968D7F80C80484608F095
:10423000C9F939680446404608F0C4F901462046E9
:1042400008F0B8F8014608F0B5F807F047FD044655
:104250000D464846494608F0B5F9414607464046EE
:1042600008F0B0F90146384608F0A4F8014608F015
:10427000A1F801464FF07E5008F09AF807F02EFDA5
:1042800002460B462046294605F006FB08F03CF89E
:10429000B060BDE8F8832DE9F74F04460D46086885
:1042A0004FF07C5108F08EF907F018FD06460F46D6
:1042B00005F01AFA08F028F839468146304605F02C
:1042C0004DFA08F021F84FF07C518346686808F0F9
:1042D00079F907F003FD06460F4605F005FA08F0E8
:1042E00013F839468246304605F038FA08F00CF8E3
:1042F0004FF07C510190A86808F064F907F0EEFCDB
:1043000006460F4605F0F0F907F0FEFF3946054670
:10431000304605F023FA07F0F7FF514606464846B7
:1043200008F050F901998046584608F04BF92946A3
:104330000746404608F046F93146034638460093A2
:1043400008F040F9009B0146184608F033F8514642
:104350002060584608F036F901998246484608F030
:1043600031F929468146504608F02CF931468346FA
:10437000484608F027F90146584608F019F829463A
:104380006060484608F01EF931468146504608F004
:1043900019F90146484608F00DF83146A06040463C
:1043A00008F010F929460646384608F00BF9014690
:1043B000304607F0FDFFE060204603B0BDE8F04F57
:1043C000FFF791BE38B50D460446FFF780FE2B6817
:1043D00023606B6803F100436360AB6803F1004343
:1043E000A360EB6803F10043E360204638BD7047EB
:1043F00030B5012385B080F85730044600F14805F8
:1044000001A8FFF7B7FC01A92846FFF797FC29464A
:1044100004F13800FFF73FFF04F12C0501A8FFF776
:10442000A9FC01A92846FFF789FC04F11C002946D4
:10443000FFF731FF05B030BD10B504460430FFF77B
:104440004CFE04F11C00FFF748FE04F12C00FFF7BE
:1044500091FC04F13800FFF740FE04F14800FFF73B
:1044600089FC084B6361084BA3610123204684F853
:10447000543084F8553084F85630FFF7B9FF2046A1
:1044800010BD00BF6F12833A6F12033A2DE9F04F4F
:1044900095B0064668460C469046FFF71EFE04A8F7
:1044A000FFF71BFE96F8553006F12C0723B1204686
:1044B0003946FFF7E9FC06E0384606F14801FFF708
:1044C0003DFC0023736396F85630002B6FD0F06AE2
:1044D0004FF07C5108F076F807F000FC04460D46DA
:1044E00005F002F907F010FF29468146204605F045
:1044F00035F907F009FF4FF07C518246306B08F028
:1045000061F807F0EBFB04460D4605F0EDF807F007
:10451000FBFE29468346204605F020F907F0F4FE0D
:1045200059460446484608F04DF85946049050460E
:1045300008F048F821460590484608F043F821461F
:1045400006900AF1004008F03DF800230093D8F8E7
:1045500000300193D8F8043007906A46029308A807
:10456000D8F80830039304A9FFF78DFD0CA804A91F
:10457000FFF728FF0CAA10A808A9FFF784FD10A9CF
:104580006846FFF7DFFC029807F0A8FB0446019895
:104590000D4607F0A3FB02460B462046294605F0D0
:1045A0007BF907F0B1FE00F10040706301E0336D6C
:1045B000736306F11C0528463946FFF76CFEDFF8E9
:1045C000888000244FF0FF3A55F8243023F000494A
:1045D0004846414608F0B2F908B9C14600E0A24693
:1045E0000134042C01D0C846EEE706EB8A04002112
:1045F000D4F81C80404608F083F920B1A06B00215C
:1046000008F09CF948B94046002108F097F9C0B17C
:10461000A06B002108F074F998B1F36903F100432D
:10462000F361336A03F100433362736A03F10043B9
:104630007362B36A03F10043B36228463946FFF759
:104640009DFD15B0BDE8F08F00007AC42DE9F04F54
:1046500004468BB003A81E460F469046149DFFF7F4
:1046600089FB94F85730ABB13246A56520464146E8
:1046700004F12C05FFF70AFF04F138002946FFF783
:104680000AFE04F148002946FFF758FB002384F88E
:104690005730FCE0A06D281A07F03CFF7D4908F078
:1046A00045F8A5652060002108F034F9002840F0A5
:1046B000EE80414632462046FFF7E8FE636C0193E8
:1046C00094F85430D4F838A0D4F83C80266C13B158
:1046D00003A8394604E006A8FFF74CFB03A806A987
:1046E000FFF72CFB03984FF07C5107F06BFF4FF066
:1046F0007C510746049807F065FF4FF07C518146D6
:10470000059807F05FFF4146834607F1004007F038
:1047100059FF314603464846009307F053FF009B7C
:1047200025680146184607F043FE0199034658469E
:10473000009307F047FF009B0146184607F038FE3C
:10474000294607F03FFF0146504607F033FE514629
:10475000A063384607F036FF3146034658460093BB
:1047600007F030FF009B0146184607F023FE019931
:1047700003464846009307F025FF009B0146184674
:1047800007F016FE294607F01DFF0146404607F0D8
:1047900011FE5146E063484607F014FF41460346C8
:1047A0005846009307F00EFF009B0146184607F09D
:1047B000FFFD019903463846009307F003FF009B75
:1047C0000146184607F0F6FD294607F0FBFE0146B4
:1047D000304607F0EFFD51462064584607F0F2FEE0
:1047E00041468246484607F0EDFE0146504607F036
:1047F000E1FD31468046384607F0E4FE014640467A
:1048000007F0D6FD294607F0DDFE0146019807F0C6
:10481000D1FD94F85630606404F1380504F11C07AA
:10482000261D06A813B994F8553023B139462A46F7
:10483000FFF741FC01E0FFF750FC06A93046FFF707
:1048400081FB2A46394606A8FFF735FC06A9304603
:10485000FFF778FB2168606907F0B4FEA16907469D
:1048600007F0A8FD0146384607F060FF31460246D2
:1048700006A8FFF714FC06A92846FFF76EFB28469A
:10488000FFF731FC284604F14801FFF777FC0BB035
:10489000BDE8F08F00007A440048704718D000004F
:1048A00005207047436B4FF4C87090FBF3F07047DE
:1048B00010B5034B03600446FFF776F8204610BDA1
:1048C00030D0000010B50446FFF7F2FF204604F098
:1048D00059FE204610BDFFFF10B50446FFF784F8CF
:1048E000014B2360204610BD30D000004B1FB3F5B4
:1048F000797F09D24FF47A72B2FBF1F2002341635F
:10490000C0E90E230120704700207047112910B51F
:1049100009D80122054B02FA01F423401BB180F8AB
:104920008B10104610BD002010BD00BF7F0003009B
:10493000082910B50AD8012202FA01F440F27F13C7
:1049400023401BB180F88C10104610BD002010BD14
:104950004B1E632B9ABFC0F89010012000207047B7
:1049600008290DD004D8B1B980F894100B4B0EE093
:10497000102909D018290ED180F89410084B06E0B0
:1049800080F89410074B02E0074B80F89410C0F8B1
:104990009830012070470020704700BFFDB30B39ED
:1049A000797D8B3AA9689239797D0B3A08290FD025
:1049B00005D8D1B980F895104FF0625311E0102955
:1049C0000BD0182911D180F895104FF0685308E0EA
:1049D00080F895104FF0645303E080F895104FF085
:1049E0006653C0F89C30012070470020704710B516
:1049F00038210446002290F88900FEF751FF68B381
:104A000094F8890023210022FEF74AFF30B394F87E
:104A100089006A210022FEF743FFF8B194F889006B
:104A20006A210422FEF73CFFC0B194F889006A2194
:104A30006022FEF735FF88B1322003F081FC94F844
:104A4000890038210122FEF72BFF38B194F8890044
:104A500023217822BDE81040FEF722BF002010BDC0
:104A600070B5504E88B033880446722190F88900A2
:104A70000093022202ABFEF71DFF88B19DF808509B
:104A80009DF8093003EB0525B5F5806F0AD1204666
:104A9000FFF7ADFFE36AA26B562101FB0233E3622D
:104AA00000207CE0B5F5F07F11D93388009394F8AD
:104AB000890074210C2205ABFEF7FCFE0028EFD024
:104AC000E26AA36B0C3D1344E362772DECE70B2DF8
:104AD000E6D93388009394F8890074210C2205AB41
:104AE000FEF7E8FE0028DBD02E4B94F889001B88E7
:104AF00000934921082203ABFEF7DCFE0028CFD04B
:104B000005A804F11401D4F89C200123FFF7D8F87C
:104B10000DF11A0004F10801D4F898200123FFF7E1
:104B2000CFF8214A0DF10D0004F120010023FFF719
:104B3000C7F8E368206AD4F8A01003F10043E360EB
:104B4000236903F100432361636903F10043636157
:104B500007F038FDD4F8A4100546606A07F032FD6E
:104B6000D4F8A8100646A06A07F02CFD05F1004510
:104B7000A062266220466562FEF7C0FF2046FFF76E
:104B80002DF894F8883013B1084B1B6802E0E26AF4
:104B9000A36B1344E362002384F88830012008B03B
:104BA00070BD00BF6C87FF1F9A99193FFC8CFF1FD7
:104BB00013B5174B04466A2190F889001B880DF144
:104BC0000702FEF7D5FE08B900241DE09DF8072076
:104BD00094F8890022F0200242F002026A218DF846
:104BE0000720FEF75DFE0028EED0322003F0A8FB80
:104BF00094F8890037218222FEF752FE04460028ED
:104C0000E2D0322003F09CFB204602B010BD00BF72
:104C10006C87FF1F13B5154B04466A2190F8890075
:104C20001B880DF10702FEF7A3FE08B900241AE065
:104C30009DF8072094F8890042F020026A218DF83F
:104C40000720FEF72DFE0028F0D0322003F078FB7D
:104C500094F8890037218022FEF722FE044610B125
:104C6000322003F06DFB204602B010BD6C87FF1FA1
:104C700038B590F88B5090F89430C5F3C1021A44BF
:104C800004461B2190F88900D2B2FEF709FE40B11C
:104C900094F8890005F007021A21BDE83840FEF7B4
:104CA000FFBD38BD10B504461C2190F8890094F86A
:104CB0009520FEF7F5FD40B194F8890094F88C201A
:104CC0001D21BDE81040FEF7EBBD10BD436BB3F5F1
:104CD0007A7F0ADC4FF47A7292FBF3F35A1E90F853
:104CE00089001921D2B2FEF7DBBD01207047426B6B
:104CF000D0F8903090F8890092FBF3F2013A1F2A25
:104D0000A8BF1F223421D2B2FEF7CABD30B501239D
:104D100080F88830036B1A7980F88920044685B0C2
:104D20001969FFF7E3FD236B20465969FFF710FE71
:104D3000236B2046197EFFF7E9FD236B2046197F80
:104D4000FFF7F6FD236B204693F82010FFF708FECF
:104D5000236B204693F82410FFF728FE2046FEF729
:104D600069FE94F889006B218022FEF799FD0028E6
:104D700000F00B81642003F0E3FA94F889006B21C2
:104D80000022FEF78DFD002800F00281A04D94F86E
:104D900089002B8875210DF10B02FEF7E9FD002833
:104DA00000F0F9809DF80B30712B40F0F780204621
:104DB000FFF75EFF002800F0F4802046FFF772FF47
:104DC000002800F0F1802046FFF780FF002800F067
:104DD000EE802046FFF7ECFE002800F0EB800C2070
:104DE0000A210022FEF75CFD28B92046FFF712FFDA
:104DF0006FF00B000AE10C200A210F22FEF750FD94
:104E000028B92046FFF706FF6FF00C00FEE02B8864
:104E100000930C20102103220DEB0003FEF74AFD46
:104E200028B92046FFF7F6FE6FF00D00EEE09DF882
:104E30000C0007F06FFB4FF0864107F0B9FA4FF016
:104E40006E5107F0BFFB4FF07E5107F0B3FAC4F884
:104E5000A0009DF80D0007F05DFB4FF0864107F0C4
:104E6000A7FA4FF06E5107F0ADFB4FF07E5107F0FF
:104E7000A1FAC4F8A4009DF80E0007F04BFB4FF018
:104E8000864107F095FA4FF06E5107F09BFB4FF00B
:104E90007E5107F08FFA0A21C4F8A80000220C20E6
:104EA000FEF7FEFC28B92046FFF7B4FE6FF00E00B7
:104EB000ACE02046FFF7AEFE00287ED094F88900D3
:104EC00024214022FEF7ECFC002879D094F88900D8
:104ED00025218C22FEF7E4FC002874D094F8890088
:104EE00026210222FEF7DCFC00286FD094F889000E
:104EF00027218822FEF7D4FC00286AD094F8890084
:104F000028210C22FEF7CCFC002865D094F88900FB
:104F100029210A22FEF7C4FC002860D094F88900F9
:104F20002A218122FEF7BCFC00285BD094F889007E
:104F300064210122FEF7B4FC002856D094F88900C1
:104F400067210322FEF7ACFC002851D02046FFF772
:104F5000CEFE00284FD094F889006B210122FEF785
:104F60009FFC00284AD094F889006C210022FEF7AB
:104F700097FC002845D02046FFF739FD002843D094
:104F80002046FEF7ADFD012040E04FF0FF303DE050
:104F90006FF003003AE06FF0040037E06FF00500B7
:104FA00034E06FF0060031E06FF007002EE06FF0A4
:104FB00008002BE06FF00A0028E06FF00F0025E0FA
:104FC0006FF0100022E06FF011001FE06FF0120090
:104FD0001CE06FF0130019E06FF0140016E06FF0A2
:104FE000150013E06FF0160010E06FF017000DE0F1
:104FF0006FF018000AE06FF01A0007E06FF01B0076
:1050000004E06FF01C0001E06FF01D0005B030BD42
:105010006C87FF1FF8B5FC221C2310FB03F60A70F7
:1050200015220D464A7013FB00373446AB1B204651
:10503000195D013402F070FFBC42F7D1F8BDF8B53C
:105040001C24002310FB04F506468B7028460F46EF
:1050500002F04EFFFC2813D1012004FB060002F0F1
:1050600047FF15280CD114FB06462C46204602F0BB
:105070003FFF7B1B18550134B442F7D10120F8BD26
:105080000020F8BD02F0FEBE7047FFFF10B5034BD5
:1050900003600446FBF75AFC204610BD60D00000B8
:1050A00010B50446FFF7F2FF204604F06BFA2046E5
:1050B00010BD006AC0B201B1012103F0D9B8C979AD
:1050C000003118BF0121FFF7F4BFFFFF37B51D46C0
:1050D0000023044600930823FBF74AFC094B236096
:1050E000012D0CBF06230723236294F82000012121
:1050F00003F0ECF820460121FBF752FC204603B0F8
:1051000030BD00BF60D000007047FFFF10B5034BFB
:1051100003600446FBF71AFC204610BD80D0000057
:1051200010B50446FFF7F2FF204604F02BFA2046A4
:1051300010BDFFFF70B586B00446FBF735FC0028B4
:1051400049D071238DF8003004F120061723002583
:105150008DF80130304641F20103ADF80230ADF870
:10516000045000F04DF907F0CFF8CDF806003046B6
:1051700000F068F907F0C8F884F89950CDF80A00F3
:10518000D4F8A00007F0CAF9144907F0CFFAD4F810
:10519000C030ADF81230D4F8B030ADF814309DF80E
:1051A0000120D4F8EC308DF81630CDF80E0084F8DC
:1051B000B95084F8A9502B46954205DA1DF8051020
:1051C0000B449BB20135F7E7E069ADF804300368A2
:1051D00069461B69984706B070BD00BF0000C84211
:1051E00037B504461D46009202230022FBF7C0FBA0
:1051F00020460F4B40F8203B00F02CF815B1C4F8C6
:10520000F85003E04FF41653C4F8F830D4F8F8001F
:10521000430803F1B76303F55843B3FBF0F002F022
:1052200071FA20460121FBF7BBFB204603B030BDDD
:1052300080D0000010B5044602F0E0FB002808DD35
:1052400002F0ECFBC1B204F12000BDE8104000F018
:105250009BBA10BD002202210270427082808260DF
:1052600002730282426102768283026280F8242005
:105270000285C26280F8302080F8382080F839201A
:10528000C26380F8482080F84920C26480F8582022
:1052900080F85920026680F8682080F8692002674B
:1052A00080F8782080F87920C0F8802080F8882065
:1052B00080F88920C0F8902080F8982080F8992004
:1052C000C0F8A02080F8A82080F8A92080F8B910A4
:1052D00080F8BA2080F8BB2080F8BC20C0F8C0203D
:1052E000C0F8C420C0F8C820C0F8CC20C0F8D02036
:1052F000C0F8D42080F8AA207047A1F14103052B03
:1053000002D8A1F137007047A1F16103052B94BFCA
:10531000A1F15700A1F13000704738B50578B5F11B
:105320002D035D425D41044605B1441C204607F053
:105330005AFB64234343224614F8011BA1F13000B9
:105340000928F8D92E290BD151783039092907D8E5
:1053500092780A20303A00FB0133092A98BF9B1843
:105360000DB1584238BD184638BDFFFF38B50C4660
:10537000054607F038FB6423B0FBF3F212492280A4
:1053800003FB12034B432846014610F8012BA2F100
:105390003005092DF8D92E2A0CD10B4A084610F8F1
:1053A000011F3039092905D80A25B2FBF5F202FBA5
:1053B0000133F4E703EB830301330322B3FBF2F37E
:1053C00063600023237238BD80969800034653F82B
:1053D0001C2F42605A6882601B7A0373034653F89D
:1053E000282F02615A6842611B7A0376034B1B68BF
:1053F0004363012343700370704700BFFC8CFF1FA1
:1054000038B5002343700446808807F087F80546C6
:10541000A06807F07FF80A4907F088F90146284696
:1054200006F0C8FF06F05AFC237B1BB1024601F1CF
:10543000004301E002460B461046194638BD00BF46
:10544000286B6E4E38B5002343700446008A07F07F
:1054500065F80546606907F05DF80A4907F066F9E6
:105460000146284606F0A6FF06F038FC237E1BB155
:10547000024601F1004301E002460B461046194680
:1054800038BD00BF286B6E4E83684360034B1B68BA
:10549000C360012343700370704700BFFC8CFF1F83
:1054A00083684360034B1B68C36001234370037030
:1054B000704700BFFC8CFF1F10B504460846FFF77D
:1054C0002CFFA06010BD10B50446084607F08BFA0B
:1054D000A06010BDC3688360034B1B684360012359
:1054E00043700370704700BFFC8CFF1F10B504466B
:1054F0000846FFF712FFE06010BDFFFFC36883603E
:10550000034B1B684360012343700370704700BF67
:10551000FC8CFF1F10B50446084607F064FAE060F3
:1055200010BDFFFF10B504462146103007F082FB86
:10553000044B1B682362012384F8253084F824304F
:1055400010BD00BFFC8CFF1F102207F083BBFFFFC4
:10555000F8B590F8A9600446002E67D090F8AA101C
:10556000FFF7CBFE94F8AB1005462046FFF7C5FECB
:1055700094F8A83000EB0510C5B2AB424FD1D4F877
:10558000D4300133C4F8D43094F8BC3023B1D4F80B
:10559000CC300133C4F8CC3094F8B930B3B1012B1E
:1055A0002AD104F13800FFF76FFF04F14800FFF73C
:1055B00077FF94F8BC30FBB12046FFF707FF04F1FA
:1055C0005800FFF787FF04F1680013E004F148007A
:1055D000FFF766FF94F8BC3033B12046FFF7F6FEC4
:1055E00004F17800FFF776FF04F18800FFF786FFEB
:1055F00004F19800FFF76EFFD4F8C450002D00F0BE
:10560000BD80D4F8C430A86A996A07F009FB002865
:1056100040F0B4802846FFF785FF2D6BEEE7D4F805
:10562000D0300133C4F8D0300026A7E090F8BA207B
:1056300022BB00F1AA052846514907F0F1FA08B942
:10564000012308E028464F4907F0EAFA10B984F828
:10565000B96002E0022384F8B930D4F8C030C4F84D
:10566000C430D4F8C470002F00F08880B86A29468E
:1056700007F0D6FA00287DDA3B6BF0E790F8B91016
:10568000022960D090F8AA30002B5CD042EA411287
:10569000013A282A57D8DFE802F01520242B31429E
:1056A000494F5156565656565656565656565656B3
:1056B00056565656565656565656151B20242B31BE
:1056C000383A3C00483004F1AA01FFF7F5FE3AE011
:1056D000B3F141004342434125E0AA3004F11C01EB
:1056E00009E0B3F153014B424B4180F824302AE0EA
:1056F000AA3004F12801FFF739FE24E0B3F1570284
:105700005342534180F830301DE0583017E0683084
:1057100015E0383004F1AA01FFF7D5FE13E0302B75
:1057200094BF0023012384F8BC300CE0883004F1DE
:10573000AA01FFF7EFFE06E0983000E0783004F1B0
:10574000AA01FFF7D3FED4F8C450BDB1D4F8C430D9
:10575000A86A996A07F064FA80B9EB6A94F8BA20EB
:1057600093420BDC04D1284604F1AA01FFF7ECFEBA
:105770002D6BEAE702D00023C4F8C4303046F8BDF0
:1057800098D000009ED0000038B5D0F8C830242949
:1057900003F1010304460D46C0F8C8302AD090F842
:1057A000BB3004D80A290CD00D2932D109E02A29AE
:1057B00007D02C292DD190F8A82082F02C0280F857
:1057C000A8200E2B4FF0000005D8234483F8AA0030
:1057D0002046FFF7BDFE94F8BA30013384F8BA30A2
:1057E000002384F8BB30B5F12A035D425D4184F8A3
:1057F000A95038BD0020022384F8BB0084F8BA0009
:1058000084F8A80084F8B93084F8A90084F8BC00B2
:1058100038BD0D2B05D85A1C234484F8BB2083F8CF
:10582000AA5094F8A90028B994F8A8305D4084F8EB
:10583000A85038BD002038BD2D4B002230B51A606D
:1058400090F8943053B9D0F890305A6802F59652D7
:105850005A6090F899201A60012345E0012B26D167
:1058600090F895309BB100EB830290F89710526C42
:1058700001338B4288BF0023D0F88C10A2F59652DA
:1058800091B1012B16BF00240B700C700CE090F846
:10589000964080F89740011F1A46A242E3D851F87B
:1058A000045F4D640132F8E780F8953001E0D0F8EC
:1058B00088204EF660239A42D0F89030596806D876
:1058C0000A445A6090F898201A6000230CE001F511
:1058D000624190315960A2F5624290F899101960C6
:1058E000903AC0F88820022380F8943030BD00BF81
:1058F00054800340442380F88A307047334B30B5DE
:105900001C684FF6FF7294421C46314A52D113680C
:1059100003F07F03482B4DD14B1F0024122B47D897
:10592000DFE803F00A1F46460D1046464646464647
:105930004646461316191C00264A072313E0264A3A
:10594000022310E0254A03230DE0254A05230AE03F
:10595000244A062307E0244A002304E0234A0123C3
:1059600001E0234A0423C0F8844080F88B40FF25DF
:1059700090F88A40026080F8885014601D4A42F80E
:1059800023001D4A0120147800FA03F32343137007
:105990001A4B03EBC10140F244424B681A60184BAA
:1059A00020221A70A3F23A334FF080421A6030BDC1
:1059B000002030BD134D002313602B604FF6FF75A0
:1059C000256048241460104A1360A5E7088003404E
:1059D00000800340448003401C8003402480034037
:1059E000348003403C8003400C800340148003401B
:1059F0002C800340248AFF1F218AFF1FC8D100008A
:105A00003EE400E0048003405480034010B5036886
:105A100090F88A105A681960184BB2F5604F1B88CD
:105A200003D91749097801B1013B42EA0343D0F891
:105A30008420C0F884309A1A124B9A4290F8883029
:105A400013D9FF2B0DD0021F0021994204DA043232
:105A5000546854640131F8E780F88930012380F8F4
:105A60008B30002380F8883010BD0F2B05D8591CCF
:105A700080F8881000EB8300426010BD1E8AFF1F73
:105A80001D8AFF1F3F90020038B5624B624D1A68B5
:105A900012F0800F07D048221A60604B1A8801323A
:105AA0001A8001232B705E4B1C78E10703D55D4BF8
:105AB0001B681A065ED4A30703D55B4B1B68180648
:105AC0005DD4610703D5594B1B681A065CD42307C4
:105AD00003D5574B1B6818065BD4E10603D5554B1D
